:020000040800F2
:100000000050002001510008AD240008AF24000872
:10001000B1240008B3240008B52400080000000043
:10002000000000000000000000000000F152000885
:10003000B72400080000000081530008B92400081C
:100040004951000849510008495100084951000828
:100050004951000849510008495100084951000818
:100060004951000849510008495100084951000808
:1000700049510008495100084951000849510008F8
:1000800049510008495100084951000849510008E8
:10009000BD24000849510008495100084951000891
:1000A00049510008495100084951000849510008C8
:1000B00049510008C9240008E524000849510008F6
:1000C00049510008495100084951000849510008A8
:1000D0004951000849510008495100084951000898
:1000E000495100084951000849510008000000002A
:1000F0000000000000000000000000000000000000
:0C01000000000000000000005FF808F1A3
:100110000348044B834202D0034B03B11847704796
:10012000B4090020B4090020000000000548064979
:10013000091A891001EBD171491002D0034B03B1A8
:1001400018477047B4090020B409002000000000DF
:1001500010B5064C237843B9FFF7DAFF044B13B10F
:100160000448AFF300800123237010BDB4090020C0
:1001700000000000E06E000808B5044B1BB1044904
:100180000448AFF30080BDE80840CFE7000000005E
:10019000B8090020E06E000870B50D4E0D4D761BBD
:1001A000B61006D00024013455F8043B9847A64207
:1001B000F9D1094E094D06F093FE761BB61006D014
:1001C0000024013455F8043B9847A642F9D170BD8C
:1001D0009C8500089C850008A08500089C85000877
:1001E000844641EA000313F0030349D1403A23D384
:1001F0000B6803604B6843608B688360CB68C360A7
:100200000B6903614B6943618B698361CB69C3618E
:100210000B6A03624B6A43628B6A8362CB6AC36276
:100220000B6B03634B6B43638B6B8363CB6BC3635E
:1002300040304031403ADBD230320BD30B680360A0
:100240004B6843608B688360CB68C36010301031AB
:10025000103AF3D20C3205D351F8043B40F8043B7A
:10026000043AF9D2043208D0D2071CBF11F8013B7E
:1002700000F8013B01D30B8803806046704700BF44
:10028000082A13D38B07B1D010F00303AED0C3F10B
:100290000403D21ADB071CBF11F8013B00F8013B35
:1002A000A4D331F8023B20F8023B9FE7043AD9D3AC
:1002B000013A11F8013B00F8013BF9D20B780370C9
:1002C0004B7843708B7883706046704708B430B5C4
:1002D000002A9CB0044634DB4FF40273029106916D
:1002E000ADF814304FF6FF7120AD16D0013A0492EC
:1002F0000792ADF816101F9A2B4602A9019500F03F
:10030000DDF8421C01DA8B2323600022029B1A7065
:100310001CB0BDE8304001B070472B4604920792F4
:10032000ADF816101F9A02A9019500F0C7F8431CFA
:1003300004DB1CB0BDE8304001B070478B23236064
:10034000F7E78B224FF0FF302260F2E70CB430B5B4
:10035000204B00299DB01C6836DB4FF402730290DD
:100360000690ADF814304FF6FF7021AD17D001396B
:10037000209A04910791ADF816002B4602A9204659
:10038000019500F09BF8421C01DA8B2323600022C8
:10039000029B1A701DB0BDE8304002B070472B467A
:1003A00004910791ADF81600209A02A92046019504
:1003B00000F084F8431C04DB1DB0BDE8304002B0FF
:1003C00070478B232360F7E78B234FF0FF302360C8
:1003D000F2E700BF000000200CB470B56FF00045DC
:1003E0009CB020AC54F8042B094E02910691234690
:1003F00002A901940795CDE9045600F05FF80022A8
:10040000029B1A701CB0BDE8704002B0704700BF7C
:100410000802FFFF0EB4034630B56FF000449CB0F5
:100420001FA951F8042B0A480A4D02930693019123
:100430000B46006802A90794CDE9044500F03EF898
:100440000022029B1A701CB0BDE8304003B0704718
:10045000000000200802FFFF40EA01039B0770B480
:100460002AD1032A28D90C460346214654F8046BA6
:10047000A6F1013525EA060515F0803F06D1043ABC
:10048000032A43F8046B2146EFD89AB10C78013A5D
:100490001C7001333CB16AB111F8014F013A03F805
:1004A000014B002CF7D12AB100211A4403F8011B9B
:1004B0009342FBD170BC70470346E6E72DE9F04F4D
:1004C0008846898995B0090693460493824604D5E7
:1004D000D8F81030002B00F0B58200230793019369
:1004E0009BF80030002B00F0F080252B5C4603D1F8
:1004F0001AE0252B00F0F68014F8013F002BF8D10C
:10050000B4EB0B0500F0E1805A462B4641465046BD
:1005100000F054FE013000F0D880019A23782A447C
:100520000192002B00F0D18000214FF0000304F174
:10053000010B084689460E464FF0FF348DF82330F4
:100540009BF800200BF1010BA2F12003582B00F2C5
:100550008682DFE813F08D01840284029301840215
:1005600084028402840284028402CF00EC008402AC
:10057000DA00B3018402CC01DD00DD00DD00DD0026
:10058000DD00DD00DD00DD00DD0084028402840288
:1005900084028402840284028402840284022B0284
:1005A000840284028402840284028402840284021B
:1005B0008402840249028402840284028402840246
:1005C000510284028402960184028402840284021D
:1005D000840284028402840284028402CF01DF0147
:1005E0008402840284021902DF0184028402CC00A6
:1005F0008402680261015902CC0084027001840205
:100600005900840284021C02049AF70652F8043B43
:10061000049200F16282720640F15F8201229BB275
:100620004FF000018DF82310611C14A800F04D82DA
:1006300026F0800500210295002B40F08581002CDA
:1006400040F04D82002A40F0458216F001030393EA
:1006500000F05982302314AD05F8013D039BA342FD
:10066000B8BF23461F4601B10137029B13F00203B6
:100670000593029B18BF023713F08403069303D13E
:10068000A9EB0706002E5FDC9DF82330002B69D113
:10069000059B002B72D1069B802B7AD0039BE41A1A
:1006A000002C40F39480102C40F30582BB4E02E0F6
:1006B000102C40F30082102332464146504600F091
:1006C0007DFD0130A4F11004F2D1B8F80C3013F024
:1006D000400F019B18BF4FF0FF330193019815B0F5
:1006E000BDE8F08FB4EB0B053FF41EAF0CE746F00E
:1006F000100625E7049BD3F800900433B9F1000FEE
:100700000493BFF61DAFC9F1000946F0040617E7D0
:100710004FF00009A2F130031BF8012B09EB890906
:1007200003EB4909A2F13003092BF5D90CE70121AC
:100730002B2005E710239A4A4146504600F03EFD23
:100740000130A6F11006C0D0102EF3DC3346944AD7
:100750004146504600F032FD0130B6D09DF82330BE
:10076000002B95D001230DF123024146504600F0A5
:1007700025FD0130A9D0059B002B8CD0022309AAAE
:100780004146504600F01AFD01309ED0069B802B5A
:1007900084D1A9EB0706002E80DD09E010237F4AF3
:1007A0004146504600F00AFD0130A6F110068CD0FB
:1007B000102EF3DC3346794A4146504600F0FEFCE9
:1007C000013082D0039BE41A002C3FF76CAF039BEF
:1007D0002A464146504600F0F1FC01303FF475AF27
:1007E000029B590740F15481A9EB0704002C40F308
:1007F0004F81102C40F34381694D02E0102C40F3EF
:100800003E8110232A464146504600F0D7FC013075
:10081000A4F11004F2D158E7049A16F0100152F82E
:10082000043B049240F08B8116F040023FF4F8AE96
:100830009BB20A46F4E64FF00002049B8DF8232099
:100840001D681F1D002D00F06781611C00F06D8187
:1008500022460021284600F027FC002800F05581A0
:10086000431BCDE9033702969DF823100024F5E6DB
:1008700000287FF465AE0121202061E646F00106E4
:100880005EE6002940F07781464B07930499F7060E
:1008900051F8043B049102D4750648BF9BB2F0079F
:1008A00040F11681002B00F0138130218DF82520B6
:1008B00046F002068DF824100222B1E69BF80020D3
:1008C0000BF1010B2A2A00F03C81A2F13003092B25
:1008D0004FF000043FF638AE1BF8012B04EB840404
:1008E00003EB4404A2F13003092BF5D92CE646F0C2
:1008F000800625E601274FF00001049A8DF82310A9
:10090000136803978DF82830131D04930AAD0296DF
:100910000024AAE6002940F02281049A52F8043B00
:100920000492F20602D4750648BF1BB2002B48DBC6
:10093000621C9DF8231014A84BD026F080050122DC
:100940000295002B3FF47BAE012A43D0022A00F02F
:10095000A68014AE00E02E4603F007023032DB081A
:1009600006F8012C06F1FF35F5D1029BDF0740F1B7
:100970009F80302A00F09C803023023E821B05F8C5
:10098000013C0392354669E646F04006D8E5002969
:1009900040F0EB80044B079378E700BF546F0008EA
:1009A000446F00086C85000880850008002940F02D
:1009B000D980049A46F0100652F8043B002B0492AA
:1009C000B6DA2D21621CC3F100038DF8231014A8A0
:1009D000B3D10296092B00F28680303314AD05F8AE
:1009E000013D0123039339E6049A46F0100652F8BC
:1009F000043B0492002213E6049A46F0100652F8D3
:100A0000043B049201220BE647F63003049A5B494B
:100A10000432ADF8243052F8043C46F00206049249
:100A200007910222FCE5002940F0A280049AF40616
:100A300052F8043B04921FD470061DD5BDF8042063
:100A40001A804DE5402100F0A3F8C8F80000C8F86E
:100A5000100000287CD04023C8F814303DE5002A5F
:100A60003FF433AE01274FF000038DF828208DF8B6
:100A7000233003970AAD4AE7019A1A6030E523460E
:100A80003F4A4146504600F099FB01303FF41DAE0D
:100A9000019BB945ACBF4B44DB19019320E5079E90
:100AA00014AD03F00F02B25C1B0905F8012DF8D15B
:100AB000431B0393D2E52346324A4146504600F099
:100AC0007DFB01307FF483AEFFE5029600213BE71A
:100AD0000222A5E5039414ADC0E50122A0E5012A98
:100AE0007FF434AF79E7284E14ADA6FB0372D20829
:100AF00002EB8207A3EB4703303305F8013D1346B1
:100B0000002AF2D1D4E714ADA8E5CDE90347029657
:100B100004469DF82310A1E5062C234628BF062392
:100B20001A4DCDE903371F46F1E628460497029691
:100B300000F016FB002403909DF823108EE50022A0
:100B40006EE5049B1C68043344EAE4740493F7E400
:100B50000C234FF0FF32CAF800300192BEE58DF849
:100B60002300DAE68DF8230023E78DF8230011E750
:100B70008DF823005AE78DF8230085E6808500086C
:100B8000446F0008546F0008CDCCCCCC948500088D
:100B90002DE9F04F01F10B05162D83B0064623D841
:100BA000102900F2B68000F0C5FA102518230220A3
:100BB000CE4F3B445C68A3F10802944200F0598197
:100BC0006368E16823F0030323445A68A56842F090
:100BD0000102E96030468D605A6000F0ADFA0834D9
:100BE000204603B0BDE8F08F35F0070500F1918095
:100BF000A94200F28E8000F09DFAB5F5FC7FC0F0AE
:100C000067816B0A00F08C80042B00F23981AB09FC
:100C100003F1390003F1380CC100B44F39444C687A
:100C20000839A14206D10CE0002A80F21E81E46856
:100C3000A14206D0636823F003035A1B0F2AF3DD99
:100C400060463C69DFF8A8C264456FD0636823F052
:100C500003035A1B0F2A00F32981002AC7E904CC99
:100C600080F21A81B3F5007F80F055810122DB0804
:100C7000991013448A40796857F833E007EBC308AA
:100C80000A43A8F10801C4E902E17A6047F8334059
:100C9000CEF80C40012483109C4094424CD814425E
:100CA00006D120F003006400144200F10400FAD0E1
:100CB00007EBC009CE468046DEF80C309E4507D1D2
:100CC0000AE1002A80F21881DB689E4500F0048169
:100CD000596821F003014A1B0F2AF2DD45F0010893
:100CE0003046D3E902E41D4442F00106C3F8048013
:100CF000CEF80C40C4F808E0C7E90455C5E902CCB9
:100D00006E605A50019300F017FA019B03F108043A
:100D100066E700240C232046336003B0BDE8F08F63
:100D20004FF4007140204FF03F0C76E701247A68C1
:100D300083109C409442B2D9BC68636823F00309D5
:100D4000A94503D3A9EB05030F2B7EDCDFF8A4A193
:100D5000D7F80824DAF80030013205EB030800F078
:100D6000368108F5805808F10F0828F47F6828F0CC
:100D70000F084146304600F0E1F9B0F1FF3F8346ED
:100D800000F0F28004EB0901814200F2EB80DAF816
:100D900004304344CAF8043000F03A81D7F80824FC
:100DA00001321BBFABEB01015B18C7F808B4CAF8EE
:100DB00004301BF0070300F02081C3F10802C3F5E3
:100DC000805393440833D844C8F30B08A3EB0808B6
:100DD0004146304600F0B2F9431C00F03481A0EBEC
:100DE0000B02424442F00102DAF80430BC424344B0
:100DF000C7F808B0CAF80430CBF8042014D0B9F111
:100E00000F0F40F21C814FF0050C6268A9F10C0134
:100E100021F0070102F001020A4360180F29626005
:100E2000C0E901CC00F22881DAF82C20BC68DAF89D
:100E300030109342626888BFCAF82C308B4222F08F
:100E4000030288BFCAF8303092E045F0010243F057
:100E50000103254462603046BD6008346B6000F0D9
:100E60006BF9204603B0BDE8F08F23445A68E1686F
:100E7000ACE6DC68A34208BF02303FF4E2AE9FE676
:100E8000142B69D9542B00F2A5802B0B03F16F00B2
:100E900003F16E0CC100C0E623445A68304642F0AC
:100EA00001025A60083400F047F999E645F0010E56
:100EB00042F001012544C4F804E03046C7E9045576
:100EC000C5E902CC6960E25000F036F9083487E6E3
:100ED000E80805F108036BE608F1010818F0030FB4
:100EE0000EF1080E7FF4E8AE59E000BF3004002098
:100EF00038040020D00900201C4619444A68DB68E9
:100F000054F8085F42F001024A603046EB609D6091
:100F100000F012F964E65A0A042A35D9142A6FD867
:100F200002F15C01C9005B3207EB010E7958AEF1AA
:100F3000080E8E4558D04A6822F003029A4202D920
:100F400089688E45F7D1D1F80CE07A68C4E9021EB1
:100F5000CEF80840CC609DE603F15C0003F15B0C29
:100F6000C1005AE6BC4272D0BC68626822F003023B
:100F70009542A2EB050302D80F2B3FF766AF304630
:100F800000F0DAF800242BE69A0902F13901C900D1
:100F90003832C9E7D9F80090994540F0838010F0C5
:100FA000030FA9F1080300F1FF30F3D17B6823EAB6
:100FB00004037B6064009C423FF6BEAE1CB9BBE6F6
:100FC000640008F104081C42FAD0404670E608F1BB
:100FD0001008CEE6B3F5AA7F26D8EB0B03F1780014
:100FE00003F1770CC10018E64FF001087B689210FE
:100FF00008FA02F21A437A60A8E74FF48053E2E657
:10100000542A2AD81A0B02F16F01C9006E328BE7FD
:10101000C1F30B02002A7FF4C1AE09EB0802B968E4
:1010200042F001024A60FFE640F2545293421DD85A
:10103000AB0C03F17D0003F17C0CC100EDE5012355
:10104000CBF804309BE701224FF00008CCE6DAF839
:1010500004304344CAF80430A0E6B2F5AA7F13D89E
:10106000DA0B02F17801C90077325DE74FF47E7147
:101070007F204FF07E0CD0E504F10801304600F0EF
:101080002DFDDAF80430CFE640F254518A4205D8FB
:101090009A0C02F17D01C9007C3245E74FF47E7164
:1010A0007E2241E77B6885E7830770B4CDB23DD0EF
:1010B000541E0AB30378AB421FD0431C05E014F161
:1010C000FF3419D30278AA4217D013F0030F184641
:1010D00003F10103F3D1032C11D84CB30378AB42D5
:1010E0000BD00444431C02E00278AA4205D09C4283
:1010F000184603F10103F7D1002070BC7047064683
:101100000A0292B22A4342EA02423368304653400E
:10111000A3F1013121EA030313F0803F06F1040635
:10112000DCD1043C032C3046EFD8D6E71446D2E796
:101130002046E2E7704700BF704700BF38B5002384
:10114000064C05460846236003F0CCFF431C00D044
:1011500038BD2368002BFBD02B6038BD2043002016
:1011600020F0030110F00300C0F1000051F8043B2F
:1011700000F1040C4FEACC0C6FF000021CBF22FA05
:101180000CF213434FF0010C4CEA0C2C4CEA0C4CC3
:10119000A3EB0C0222EA030212EACC1204BF51F8BC
:1011A000043B0430F4D0C2F1000102EA0102B2FAB9
:1011B00082F2C2F11F0200EBD20070472DE9F04726
:1011C0008E6880469E420C461D461746086828D801
:1011D000B1F80CC01CF4906F31D0D4E9041606EBC2
:1011E000460606EBD676A0EB0109013376104B4498
:1011F000B342324684BF1E4632461CF4806F20D074
:1012000011464046FFF7C4FC824670B34A46216946
:10121000FEF7E6FFA38923F4906343F08003A381E4
:1012200014E01E462A46394600F04CFD0020A26814
:101230002368961B2B44A6602360BDE8F0873546E3
:10124000F0E7404600F0A0FD824650B1A6EB09034E
:101250000AEB09006661C4F810A02060A3602E4666
:10126000E0E72169404600F039FC0C23C8F8003063
:10127000A3894FF0FF3043F04003A381DDE700BFB7
:101280002DE9F04F936883B09046002B6CD017681F
:1012900082460C46086808378D6842E0A38913F43B
:1012A000906F2DD0D4E9041505EB4505A0EB010B9B
:1012B00005EBD575701C6D105844A8422A4684BFB2
:1012C00005462A465B0536D511465046FFF760FCB9
:1012D00000283AD05A4621690190FEF781FFA28981
:1012E000019B22F4906242F08002A281A5EB0B02E6
:1012F00003EB0B006561B346354623612060A260B5
:101300005A46494600F0DEFCD8F80830A26820684A
:10131000551B58449E1BA5602060C8F808601EB38A
:10132000083757E90296AB46002EF9D0AE42B5D247
:101330003546B346E4E7504600F026FD0346002854
:10134000D4D12169504600F0C9FB0C2300224FF094
:10135000FF30CAF80030A38943F04003A381C8E9F5
:10136000012203B0BDE8F08F0020C8F8040003B0EC
:10137000BDE8F08F2DE9F04F8846898995B00906C0
:1013800093460493824604D5D8F81030002B00F021
:10139000B4820023079301939BF80030002B00F0E8
:1013A000EF80252B5C4603D11AE0252B00F0F58059
:1013B00014F8013F002BF8D1B4EB0B0500F0E080EE
:1013C0005A462B4641465046FFF7F8FE013000F0E2
:1013D000D780019A23782A440192002B00F0D08014
:1013E00000214FF0000304F1010B084689460E4628
:1013F0004FF0FF348DF823309BF800200BF1010BE8
:10140000A2F12003582B00F28582DFE813F08C0153
:101410008302830292018302830283028302830296
:101420008302CE00EB008302D900B2018302EB01FC
:10143000DC00DC00DC00DC00DC00DC00DC00DC00CC
:10144000DC0083028302830283028302830283021D
:10145000830283028302F4018302830283028302F4
:1014600083028302830283028302830233028302A4
:1014700083028302830283023B028302830295017B
:101480008302830283028302830283028302830234
:1014900083028302660243028302830283026302A1
:1014A000430283028302CB008302DA016001CB0195
:1014B000CB0083026F018302590083028302EE0195
:1014C000049AF70652F8043B049200F16082720617
:1014D00040F15D8201229BB24FF000018DF8231094
:1014E000611C14A800F04C8226F0800500210295B2
:1014F000002B40F09781002C40F04B8214AD002A65
:1015000040F0438216F00103039302D0302305F824
:10151000013D039BA342B8BF23461F4601B10137DB
:10152000029B13F002030593029B18BF023713F0CE
:101530008403069303D1A9EB0706002E5FDC9DF818
:101540002330002B69D1059B002B72D1069B802B89
:101550007AD0039BE41A002C40F39480102C40F3C3
:101560000582C04E02E0102C40F300821023324668
:1015700041465046FFF722FE0130A4F11004F2D19B
:10158000B8F80C3013F0400F019B18BF4FF0FF3339
:101590000193019815B0BDE8F08FB4EB0B053FF453
:1015A0001FAF0DE746F0100626E7049BD3F8009026
:1015B0000433B9F1000F0493BFF61EAFC9F100095F
:1015C00046F0040618E74FF00009A2F130031BF8BB
:1015D000012B09EB890903EB4909A2F13003092B1F
:1015E000F5D90DE701212B2006E710239E4A41463D
:1015F0005046FFF7E3FD0130A6F11006C0D0102ED3
:10160000F3DC3346984A41465046FFF7D7FD013098
:10161000B6D09DF82330002B95D001230DF1230285
:1016200041465046FFF7CAFD0130A9D0059B002B6B
:101630008CD0022309AA41465046FFF7BFFD013076
:101640009ED0069B802B84D1A9EB0706002E80DD5F
:1016500009E01023834A41465046FFF7AFFD0130B1
:10166000A6F110068CD0102EF3DC33467D4A41469D
:101670005046FFF7A3FD013082D0039BE41A002CF3
:101680003FF76CAF039B2A4641465046FFF796FD55
:1016900001303FF475AF029B590740F15481A9EB2B
:1016A0000704002C40F34F81102C40F343816E4D12
:1016B00002E0102C40F33E8110232A46414650465A
:1016C000FFF77CFD0130A4F11004F2D158E7049A31
:1016D00016F0100152F8043B049240F0888116F095
:1016E00040023FF4F9AE9BB20A46F5E6049B1D6842
:1016F0001F1D4FF000038DF82330002D00F0648192
:10170000611C00F06A81224600212846FFF7CCFCCC
:10171000002800F05281431BCDE9033702969DF863
:1017200023100024F5E600287FF466AE0121202076
:1017300062E646F001065FE6002940F074814B4BFB
:1017400007930499F70651F8043B049102D47506F7
:1017500048BF9BB2F00740F11681002B00F01381C7
:1017600030218DF8252046F002068DF82410022243
:10177000B2E69BF800200BF1010B2A2A00F0398118
:10178000A2F13003092B4FF000043FF639AE1BF8ED
:10179000012B04EB840403EB4404A2F13003092B76
:1017A000F5D92DE647F63003049A31490432ADF8F5
:1017B000243052F8043C46F00206049207910222BB
:1017C0008AE6002940F02381049AF40652F8043B8B
:1017D000049200F1AC80700640F1A980BDF80420AD
:1017E0001A80D9E546F0800606E6002940F0188107
:1017F0001F4B0793A5E7002940F00F81049A46F09C
:10180000100652F8043B0492002B51DB621C9DF839
:10181000231014A854D026F0800501220295002B35
:101820003FF469AE012A4CD0022A00F0938014AE36
:1018300000E02E4603F007023032DB0806F1FF35E8
:1018400006F8012CF5D1029BDF0740F18C80302A8D
:1018500000F089803023023E821B05F8013C039290
:10186000354656E6746F0008646F00086C85000802
:1018700080850008049A46F0100652F8043B049252
:10188000002229E6049A46F0100652F8043B04921E
:10189000012221E6002940F0BD80049A52F8043B61
:1018A0000492F206B0D4750648BF1BB2002BADDA25
:1018B0002D21621CC3F100038DF8231014A8AAD1B6
:1018C0000296092B69D8303314AD05F8013D012388
:1018D00003931EE646F040068EE501274FF0000117
:1018E000049A8DF8231013680AAD8DF82830131D63
:1018F000039704930296002412E64021FFF748F96B
:10190000C8F80000C8F81000002879D04023C8F8B3
:1019100014303EE5002A3FF433AE01274FF00003B8
:101920008DF828208DF823300AAD0397E2E7019A5D
:101930001A6031E523463D4A41465046FFF73EFCDA
:1019400001303FF41DAE019BB945ACBF4B44DB19E0
:10195000019321E5079E14AD03F00F02B25C1B0951
:1019600005F8012DF8D1431B0393D2E52346304AF5
:1019700041465046FFF722FC01307FF483AEFFE57D
:10198000029600214EE70222A6E50394C1E501225A
:10199000A2E5012A7FF448AF95E7264E14ADA6FBD9
:1019A0000372D20802EB8207A3EB4703303305F83A
:1019B000013D1346002AF2D1D5E7CDE9034702964F
:1019C00004469DF82310A4E5062C234628BF0623D1
:1019D000194DCDE903371F468CE728460497029638
:1019E000FFF7BEFB002403909DF8231091E5002231
:1019F00072E5049B1C68043344EAE4740493FBE43A
:101A00000C234FF0FF32CAF800300192C1E58DF887
:101A10002300D9E68DF823003FE78DF82300EDE69B
:101A20008DF82300E4E68DF8230088E6646F000853
:101A3000746F0008CDCCCCCC94850008F8B50C466A
:101A4000234F0646FFF776FBBB68C4F57E615D68F1
:101A50000F3125F00305294421F47F6121F00F01A6
:101A6000A1F58054B4F5805F07DB00213046FFF715
:101A700065FBBB682B44984204D03046FFF75CFB03
:101A80000020F8BD61423046FFF758FB01300DD011
:101A9000104BBA6819682D1B45F001053046091B2B
:101AA00055601960FFF748FB0120F8BD0021304662
:101AB000FFF744FBBA68831A0F2BDEDD064943F0BB
:101AC00001030C680349001B53600860D5E700BFA1
:101AD00030040020D409002038080020002953D009
:101AE000F8B50D460646FFF725FB55F804CC714FB7
:101AF000A5F108012CF00103CA18B8685468904297
:101B000024F0030453D01CF0010F546002EB0400D6
:101B10003BD155F808CC4068A1EB0C018D6807F16A
:101B2000080E7545634400F0010075D0D1F80CC073
:101B3000C5F80CC0CCF8085060B343F001024A600D
:101B4000CB50B3F5007F50D35A0A042A70D89A09B3
:101B500002F13905ED0002F138007C197A59083C90
:101B6000944278D0506820F00300984271D992686E
:101B70009442F7D1E368C1E9024330469960E160DD
:101B8000BDE8F840FFF7D8BA7047406800F00100A0
:101B90000028D2D19068484D2344A84243F0010464
:101BA00062D0D268C26090604C60CB50C9E71CF034
:101BB000010F234407D155F8084C091BD1E9020253
:101BC0002344C26090603D4A43F0010012684860BF
:101BD0009A42B96004D83A4B30461968FFF72EFF95
:101BE0003046BDE8F840FFF7A7BA0122DB087C6861
:101BF000981013448240224307EBC30057F8334048
:101C00000838C1E902407A60304647F83310E16095
:101C1000BDE8F840FFF790BA002845D1D2E90202AA
:101C2000234443F00104C26090604C60CB50D7E77E
:101C3000142A08D9542A1ED81A0B02F16F05ED0098
:101C400002F16E0089E702F15C05ED0002F15B0034
:101C500083E714468EE701238210786803FA02F2C4
:101C600002437A60234686E7C7E90411C1E902000E
:101C70004C60CB50B4E7B2F5AA7F06D8DA0B02F17C
:101C80007805ED0002F1770067E740F25450824298
:101C900006D89A0C02F17D05ED0002F17C005CE7AC
:101CA0004FF47E757E2058E743F0010048601360D2
:101CB00096E700BF30040020380400203C080020D4
:101CC000D00900208842F0B40DD98B1883420AD97C
:101CD000841832B1224613F8014D994202F8014DA1
:101CE000F9D1F0BC70470F2A48D940EA01039B079D
:101CF00046D1A2F110031B0901F1200707EB0317DE
:101D000001F1100400F1100554F8106C103445F87E
:101D1000106C54F81C6C103545F81C6C54F8186C99
:101D200045F8186C54F8146CBC4245F8146CEBD1AF
:101D3000013302F00F051B01032D1944034421D97F
:101D40000F462C461E1F57F804CB043C032C46F8C4
:101D500004CFF8D82C1F24F0030404342344214476
:101D600002F00302002ABCD0013B0A4411F8014BE7
:101D7000914203F8014FF9D1F0BC70470346F1E7F7
:101D80000346F1E72A46EDE72DE9F04F924683B08E
:101D9000002900F0A1800D4680460AF10B04FFF7F0
:101DA000C9F955F8042C162C22F00306A5F10807F2
:101DB0003ED810242146A2453FD88E4207EB0609A3
:101DC00074DAC84B9868484500F0AA80D9F8040036
:101DD00020F001034B445B68DB0740F18380D207AE
:101DE00034D551464046FEF7D3FE8246E0B155F861
:101DF000043CA0F1080223F001033B44934200F0AD
:101E00000E81321F242A00F21481132A296800F25D
:101E1000FB8003462A4619605168596092689A60AF
:101E200029464046FFF75AFE4046FFF785F94FE046
:101E300024F00704002C2146BDDA4FF0000A0C23E1
:101E40005046C8F8003003B0BDE8F08F55F8083CA4
:101E5000A7EB030BDBF8042022F00302B3188B423C
:101E6000BFDBDA46DBF80C105AF8080F321F242AC1
:101E7000C1600BEB0309886000F2BE80132A296859
:101E800040F2D580CBF8081069681B2ACBF80C10FB
:101E9000A96800F2E5800BF110020835116069684D
:101EA0001E465160AB685F46554693607A68331BA7
:101EB0000F2B02F0010222D832437A60D9F80430A5
:101EC00043F00103C9F804304046FFF735F9AA464C
:101ED000504603B0BDE8F08F114603B0BDE8F04FA7
:101EE000FEF756BE20F0030033188B4263DBD9E9BE
:101EF00002121E46CA6007EB03099160D6E7391942
:101F0000224343F001037A604B60D9F80430083172
:101F100043F00103C9F804304046FFF7DFFDD3E783
:101F2000D0F8049004F1100029F00309B144814570
:101F300080F28380D2073FF554AF55F8082CA7EB09
:101F4000020BDBF8042022F003029144484585DCB3
:101F5000DA46DBF80C105AF8080F321F242AC16049
:101F6000886000F2AB80132A296840F2A580CBF884
:101F7000081069681B2ACBF80C10A96800F2A5802C
:101F80000BF110020835116069685160A968916011
:101F9000A9EB04020BEB040142F0010299604A60D4
:101FA000DBF80430404603F001031C43CBF8044047
:101FB000FFF7C2F88CE7D3073FF513AF55F8083C9D
:101FC000A7EB030BDBF8042022F003021044831973
:101FD0008B42FFF643AFD9E90201DA46C16088605F
:101FE0005AF8080FDBF80C10321F242AC1600BEBE3
:101FF000030988607FF642AF294650461E465F4679
:10200000FFF760FE554651E701606B681B2A43608D
:1020100032D805F1080200F10803A968FBE650F880
:10202000043C23F003031E4407EB06093EE7524637
:1020300034E72946FFF746FEF2E6A9EB04092744F8
:1020400049F001029F607A6055F8043C404603F075
:1020500001031C4345F8044CFFF76EF8AA4637E726
:10206000CBF81010E968242ACBF8141029690FD096
:102070000BF11802103511E7AB68242A8360EB6876
:10208000C3600FD005F1100200F110032969C2E608
:10209000CBF8181069690BF12002CBF81C10A96964
:1020A0001835FBE62B6905F118020361696900F137
:1020B00018034161A969AEE6524664E729465046D5
:1020C0000193FFF7FFFD019B62E7CBF81010E96871
:1020D000242ACBF81410296906D00BF11802103508
:1020E00051E700BF30040020CBF8181069690BF1EC
:1020F0002002CBF81C10A969183544E730B54FF41D
:1021000080330122022495B0CDE90A230021CDE9D4
:1021100011434FF4E0130AA80C910E92139301F0AF
:102120009BFB00B1FEE74FF480630F250790CDE9DC
:102130000830214605A8CDE9055401F055FD00B150
:10214000FEE71023049001A8019301F023FE04464A
:1021500000B1FEE701F0EAFD4FF47A73B0FBF3F053
:1021600000F088FC042000F09BFC224629464FF03A
:10217000FF3000F03FFC15B030BD000080B594B0DA
:1021800000F0F6FBFFF7BAFF4F4B4FF400519A698E
:102190004E4842F010029A619A69012502F010023D
:1021A0000192019A9A69022642F020029A619A6984
:1021B00002F020020292029A9A6942F004029A61A5
:1021C0009A6902F004020392039A9A6942F00802A3
:1021D0009A619B69002203F008030493049B00F0BA
:1021E0004BFD4FF400530FA93848CDE90F35129637
:1021F00000F062FC3648374B37494FF48042C0E963
:1022000000130023C0E90233C0E90423C0E9063308
:10221000036200F04BFE00B1FEE747232F4C304A2B
:10222000A060C4E900234FF6FE73A061C4E9033047
:10223000204601F04FFF00B1FEE7CDE90A000AA9F0
:10224000204602F076F8024600B1FEE7CDE9110023
:102250000FA92046CDE90F6501F080FF074600B1C8
:10226000FEE700F06BF914A8294640F8507D02F013
:10227000B7FF1C4C1C4B05AE18600FCC25460FC693
:1022800055F8043B394605A8336002F063FF174B4D
:102290000AAE18600FCD0FC62B6839460AA8336006
:1022A00002F058FF124B0FAD183418600FCC0FC559
:1022B000236839460FA82B6002F04CFF0D4B1860C5
:1022C00002F043FFFEE700BF001002400010014093
:1022D000080A0020A0860100005400405C0A00208B
:1022E00000040040F86E0008A00A00209C0A0020AC
:1022F000A40A0020040A00200268034B9A4201D17C
:1023000000F048BB704700BF00080040FEE7000037
:10231000214B07B59A69032042F001029A619B693B
:1023200003F001030193019B00F052FB00226FF0C8
:102330000B00114600F05EFB00226FF00A00114610
:1023400000F058FB00226FF00900114600F052FB2C
:1023500000226FF00400114600F04CFB00226FF0E9
:102360000300114600F046FB00220F216FF0010030
:1023700000F040FB00220F214FF0FF3000F03AFB4D
:10238000064B5A6822F0E0625A605A6842F00072C6
:102390005A6003B05DF804FB0010024000000140E9
:1023A0007FB502680C4B9A4213D1C0221223CDE9AB
:1023B0000223032302A90948059300F07DFB084B83
:1023C000DA6942F40012DA61DB6903F40013019365
:1023D000019B07B05DF804FB00540040000C014075
:1023E0000010024010B50268104B86B09A421BD113
:1023F00003F50333DA69002442F00202DA61DB6993
:1024000002A903F002030193019B40230848CDE990
:102410000234049400F050FB1D202246052100F0F8
:10242000E9FA1D2000F01AFB06B010BD00040040C0
:102430000008014010B5014688B000221E2000F0BF
:10244000D9FA1E2000F00AFB144B01A9DA6903A88F
:1024500042F00402DA61DB69114C03F004030293D9
:10246000029B01F079FC01F067FC0E4B40002360F9
:1024700040F2E733E3600C4BB0FBF3F0002301388C
:10248000606020462361A36001F00AFE20B9204667
:1024900001F0F9FC08B010BD0120FBE7001002407C
:1024A000A80A00200008004040420F007047FEE7E5
:1024B000FEE7FEE7FEE7704702F0D2BE014800F0FB
:1024C00007BF00BF0C1D002008B5044801F00DFD3A
:1024D0000122034B83F8252008BD00BF5C0A0020C1
:1024E00090250020014801F000BD00BFA80A00208F
:1024F0000F4B1A6842F001021A6059680D4A0A40EF
:102500005A601A6822F0847222F480321A601A68C3
:1025100022F480221A605A6822F4FE025A604FF4B4
:102520001F029A604FF00062034B9A60704700BF31
:10253000001002400000FFF800ED00E010B5094C6B
:1025400000220949204604F0BDF90849204604F05C
:10255000CEF92046064904F076F92046BDE8104041
:1025600004F0CCB9E80A00205C080020A408002090
:102570004C0800200020704710B5064C0022064988
:10258000204604F067F90549204604F06BF9002065
:1025900010BD00BFE80A00200C1500200C0D002023
:1025A000202803D021280BD0002070470A680D4B4B
:1025B0001A600A791A714A795A718A799A71F3E71D
:1025C000084B1A680A701A68120A4A705A888A7088
:1025D000DA78CA701A790A715A794A719B798B71C3
:1025E000E2E700BF4408002070B50D4606460146EC
:1025F000104804F037F90F4804F051F92B68052B07
:1026000015D900240C4B0B225C601C60C3F80740FA
:1026100018463146FDF720FF2A6803460A2A06D8E5
:10262000134403F8014C054B186802F017FE002014
:1026300070BD00BFE80A0020B8250020A00A0020D5
:1026400010B5094C0A46D4F81832D3F8143243B9FD
:102650000146204604F0FEF82046BDE8104004F094
:1026600007B9012010BD00BFE80A002007B50E4BD6
:1026700002689A4215D103F5DA33DA69052142F48A
:102680000002DA61DB69002203F4000301931420E5
:10269000019B00F0AFF9142003B05DF804EB00F0EB
:1026A000DDB903B05DF804FB005C004000F22C4192
:1026B000D0F85C0404F039B900EB4113D3F83C22A4
:1026C000D0F85C0404F05EB900EB4113DA6BD0F88B
:1026D0005C0404F089B9D0F85C0404F005BA10B5C4
:1026E00004460121D0F85C0404F0ECF9D4F85C0451
:1026F000BDE8104004F0C7B910B50446D0F85C043A
:1027000004F0E3F9A36923B1024A136943F0060315
:10271000136110BD00ED00E0D0F85C0404F0DEB9F8
:10272000082310B51F4A04461F480221C0E90023B0
:102730000323C0E902130023C0F85C44C4F820025C
:10274000C0E90633036200F0B5FC20B14FF48D718F
:102750001648FFF7DBFD002218231146D4F82002AB
:1027600001F061F8582300228021D4F8200201F002
:102770005AF8C02300228121D4F8200201F053F836
:102780004FF4887300220121D4F8200201F04BF8A5
:102790004FF4807300228221D4F8200201F043F824
:1027A000002010BD005C00400C1D0020D46F00080C
:1027B00008B5D0F8200200F0E6FC032896BF024BD3
:1027C0000220185C08BD00BFD06F000810B51C4681
:1027D000D0F820021346224600F000FD032896BFE1
:1027E000014B0220185C10BDD06F000808B5D0F86E
:1027F000200200F016FD032896BF024B0220185C51
:1028000008BD00BFD06F000808B5D0F8200200F066
:10281000BFFF032896BF024B0220185C08BD00BF13
:10282000D06F000808B5D0F8200200F0D9FF0328C7
:1028300096BF024B0220185C08BD00BFD06F000895
:102840000A06D0F8203245BF01F07F0103EB4113A7
:1028500003EB411393F82A0058BF93F82A027047FC
:1028600008B5D0F8200200F0A5FC032896BF024B63
:102870000220185C08BD00BFD06F000808B5D0F872
:10288000200200F00EFD032896BF024B0220185CC8
:1028900008BD00BFD06F000808B5D0F8200200F0D6
:1028A000E1FC032896BF024B0220185C08BD00BF64
:1028B000D06F000808B5D0F8200200F0EBFC08BD8E
:1028C000004870476C210020704770471223014870
:1028D0000B80704778080020042301480B80704764
:1028E0008C08002010B5044C0A460448214604F028
:1028F00098FA204610BD00BF8C23002026700008E7
:1029000010B5044C0A460448214604F08AFA2046D1
:1029100010BD00BF8C2300203970000810B5044C96
:102920000A460448214604F07CFA204610BD00BF48
:102930008C2300204F70000810B5044C0A46044850
:10294000214604F06EFA204610BD00BF8C23002003
:102950000D70000810B5044C0A460448214604F0E6
:1029600060FA204610BD00BF8C23002018700008BC
:10297000074A08B51368032043F01003136000F002
:1029800027F80020FFF756FDFFF7C2FC002008BD26
:1029900000200240024A136801331360704700BFF1
:1029A0008C250020014B1868704700BF8C25002043
:1029B00037B50190FFF7F6FF0546019C631C18BF71
:1029C0000134FFF7EFFF401BA042FAD303B030BD44
:1029D000074A0002D36800F4E06023F4E0631B04BC
:1029E0001B0C43F0BF6343F400330343D3607047D1
:1029F00000ED00E0174B70B5DC684FF0FF36C4F314
:102A00000224C4F10705042D04F1040328BF0425A2
:102A1000062B98BF002406FA05F388BF033C21EA81
:102A20000303A34006FA04F422EA0404002843EA5C
:102A30000403A8BF00F160404FEA0313B8BF064A81
:102A4000DBB2B5BF00F00F0000F56140135480F811
:102A5000003370BD00ED00E014ED00E001234209F9
:102A600000F01F0003FA00F0014B43F8220070470A
:102A700000E100E00138B0F1807F0AD2F021064B7E
:102A8000064A586082F823100020072298601A60D6
:102A900070470120704700BF10E000E000ED00E04B
:102AA000044B04281A680CBF42F0040222F004020E
:102AB0001A60704710E000E02DE9F74F002216463B
:102AC000654BDFF8A4C1DFF8A4E14FF001080C6802
:102AD00008FA06F808EA0404A0457ED14D68122DD4
:102AE00000F0AE8000F28780022D00F0A6807BD837
:102AF000002D00F08D80012D00F09D804FF00F091A
:102B0000FF2C93BF824606F18045083DD0F800B007
:102B100092BFB500D0F804B0AD0009FA05F82BEA71
:102B2000080802FA05F588BF00F1040A48EA05051D
:102B3000CAF80050D1F804A01AF0805F4DD0474F7A
:102B400026F00308BD6908F1804845F00105BD6124
:102B5000BD6908F5803805F00105019506F0030B05
:102B6000019D4FEA8B0BD8F8085009FA0BF925EABA
:102B700009093B4DA84268D005F58065A84266D09A
:102B800005F58065A84264D005F58065A8420CBFB4
:102B90000325042505FA0BF545EA0905C8F8085090
:102BA0001D681AF4803F14BF2543A5431D605D686E
:102BB0001AF4003F14BF2543A5435D609D681AF4D5
:102BC000801F14BF2543A5439D60DD681AF4001FD4
:102BD00014BF2C4325EA0404DC600136102E7FF478
:102BE00074AF03B0BDE8F08F032D22D0112D85D135
:102BF000CA68043282E71B4FBD4209D012D8DFF801
:102C000070904D4504D009F580394D457FF476AF7D
:102C10008A68C2B1012A0CBFC0F81080C0F81480C5
:102C200008226BE76545F3D07545F1D0DFF8449095
:102C3000EBE7002262E7CA6860E7CA6808325DE72E
:102C4000CA680C325AE7042258E70025A2E701259A
:102C5000A0E702259EE700BF0004014000100240EB
:102C60000008014000002110000031100000321067
:102C700000001110000022100AB101617047090420
:102C8000FBE70268536913F480630DD06FF480632F
:102C900053610423202203640023036380F83C3043
:102CA00080F83D2001207047184670472DE9F0411B
:102CB0000446164698468FB22568686937EA0000D0
:102CC00013D06B695A0512D52B68202243F4007388
:102CD0002B606FF480636B61042323640023012065
:102CE000236384F83C3084F83D20BDE8F081731CF8
:102CF000E3D046B900232022236384F83C3084F8D3
:102D00003D200320F1E7FFF74DFEA0EB0800B042A5
:102D1000D2D9EFE72DE9F843054690461F46089EB5
:102D20004FEA11498CB22968B9F1010F0CBF4B6908
:102D30008B6934EA03030CBF01230023984501D0BB
:102D400000200CE07B1CEFD05FB900232022032081
:102D50002B6385F83C3085F83D2085F83E30BDE892
:102D6000F883FFF71FFE801BB842DCD9EDE770B592
:102D700004460D46164623685B691B0601D50020F4
:102D800012E02046FFF77DFFA8B96A1CF3D065B9B1
:102D9000236C202243F020032364002303202363B9
:102DA00084F83C3084F83D2070BDFFF7FBFD801BAC
:102DB000A842E0D9ECE70120F6E700002DE9FF4149
:102DC00015460268984613680B9E43F4807313609F
:102DD0000F4600960A9B00224FF001110446FFF7B0
:102DE00099FF68B9236807F0FE071F610A9A334606
:102DF0001A492046FFF75AFF30B1236C042B18D034
:102E0000032004B0BDE8F081236803905A690A9951
:102E100003929B69324603932046039BFFF7A7FF6B
:102E200048B1236C042BEBD12268136843F4007380
:102E300013600120E5E7B8F1010F236802D1EDB27C
:102E40001D61DEE72A0A1A610A9932462046FFF719
:102E50008EFF0028E5D12368F1E700BF02000100E2
:102E600070B504460D46164623685B695B0701D5BD
:102E7000002012E02046FFF704FFA8B96A1CF3D037
:102E800065B9236C202243F0200323640023032030
:102E9000236384F83C3084F83D2070BDFFF782FD49
:102EA000801BA842E0D9ECE70120F6E770B50446A4
:102EB000002863D090F83D3003F0FF021BB980F882
:102EC0003C20FFF76DFA2423226884F83D30136814
:102ED0002B4E23F00103136000F02EFF6368294D91
:102EE000B342B0FBF5F588BF4FF49671226888BFF6
:102EF0006943556085BF4FF47A75B1FBF5F1691CE4
:102F00000131B342116221D85B00B0FBF3F0C0F392
:102F10000B03032B98BF0420D4E907310B43D06186
:102F20001360D4E903130B439360D4E905310B43D9
:102F3000D3601368002043F0010313602023206452
:102F400084F83D30206384F83E0070BDA16849B923
:102F500003EB4303B0FBF3F0C0F30B0363B140F4A6
:102F60000040D9E719214B43B0FBF3F0C0F30B034A
:102F700013B140F44040CFE70120CDE70120E4E762
:102F8000A086010040420F002DE9F34704469A460F
:102F9000884691460C9EFFF705FD94F83D300546A6
:102FA000202B03D0022002B0BDE8F0870090192347
:102FB00001223E492046FFF7ADFE0028F2D194F8E9
:102FC0003C30012BEED0012384F83C3023680027ED
:102FD0001A684146D20758BF1A6820465CBF42F0C3
:102FE00001021A601A6822F400621A60212384F830
:102FF0003D30402384F83E300A9B27646362BDF86D
:103000002C30CDE900656385294B4A46E362638D28
:1030100023855346FFF7D2FE00282AD0236C84F87C
:103020003C70042B07D10120BDE7FFF7A0FE20B1C3
:10303000236C042B34D00320B5E7616A27684B1C4E
:1030400063620B78228D3B61638D501E013B9BB206
:1030500063857B6980B25B0720850AD548B18B1CEC
:1030600063624B78023A3B61638D2285013B9BB2E0
:103070006385238D2A4631462046002BD5D1FFF7A4
:10308000EFFE0028D4D12268136843F40073136064
:10309000202384F83C0084F83D3084F83E0082E729
:1030A0002268136843F400731360BCE70200100049
:1030B0000000FFFF2DE9F041044686B0002860D0F3
:1030C00090F8293403F0FF021BB980F82824FFF799
:1030D000CDFA254603236E4655F8100B84F82934A3
:1030E00001F05AF90FCD0FC62B6804F104083360C4
:1030F00098E80E00206801F040F90021206801F0F6
:1031000055F90021234622460126084604F1100500
:1031100082F82810918601310F2982F8296082F8FF
:103120002B00C2E90E00106402F12002F0D100224F
:10313000174683F828229A8601320F2A83F82972CB
:1031400083F82B72C3F83872C3F83C72C3F840722C
:1031500003F12003EDD16E460FCD0FC62B6833600F
:1031600098E80E00206801F023F9012384F8247008
:10317000206884F8293401F0C1FB002006B0BDE8C6
:10318000F0810120FAE790F8283410B5012B0446AD
:103190000ED0012180F82814FFF797FB206801F07A
:1031A000ABFB206801F0F0F8002084F8280410BD83
:1031B0000220FCE790F8282410B5012A04460BD021
:1031C000012280F8282484F82410006801F08EFB86
:1031D000002084F8280410BD0220FCE738B504461E
:1031E00048B2002801F07F05B5BF04EB451104EBA0
:1031F0004111283101F50A71C00F0D704870CB7074
:1032000094F828340A61012B09D00123206884F83E
:10321000283401F0E7F8002084F8280438BD0220A3
:10322000FCE74BB2002B01F07F02B5BF00EB42116F
:1032300000EB4111283101F50A71DB0F10B50A705E
:103240004B7090F828340446012B09D0012380F8F4
:103250002834006801F01AFA002084F8280410BD10
:103260000220FCE770B5002601F07F014D014419F2
:1032700084F8281205F50A710144C4F83C22C4F808
:103280004032C4F8446284F82962006801F04CFBC3
:10329000304670BD01F00F0100EB4111B1F844025E
:1032A000704701F07F0170B54D014419C4E90F2347
:1032B0000026012384F8281005F1280101446664E2
:1032C00084F82930006801F02FFB304670BD000003
:1032D0002DE9F3470446006801F012FB000400F1F9
:1032E0009680206801F00CFB41050FD5226820462E
:1032F000B2F8443023F480631B041B0CA2F8443062
:10330000FFF7EDF900212046FFF754FF206801F098
:10331000F7FA470408D52268B2F8443023F4804312
:103320001B041B0CA2F84430206801F0E9FA860463
:1033300008D52268B2F8443023F400531B041B0C58
:10334000A2F84430206801F0DBFAC5041CD52268DD
:103350002046B2F8403023F004031B041B0CA2F8F3
:103360004030B2F8403023F008031B041B0CA2F8D5
:103370004030FFF7D1F92268B2F8443023F480538B
:103380001B041B0CA2F84430206801F0B9FA0005B8
:103390001BD52068B0F8403043F00803A0F8403057
:1033A000B0F8443023F400631B041B0CA0F8443035
:1033B000B0F8403043F00403A0F8403001F0A0FA28
:1033C000C10402D42046FFF797F9206801F098FA6B
:1033D00082050BD522682046B2F8443023F40073EE
:1033E0001B041B0CA2F84430FFF775F9206801F0AC
:1033F00087FAC30508D52268B2F8443023F48073F5
:103400001B041B0CA2F8443002B0BDE8F087002377
:10341000C04FDFF80483DFF80493ADF80430ADF853
:1034200006302068B0F844309BB2ADF804301B047D
:103430007FF557AFBDF8045015F00F0540F0A6809A
:10344000BDF80410038811F0100125D13B40038022
:10345000B0F8503094F8282003EBC20300EB43008F
:10346000D0F80434E26BC3F3090363641344E363E9
:103470002046FFF729F994F82430002BD1D0226C94
:10348000002ACED194F82430216843F08003A1F8BB
:103490004C3084F82420C4E79BB2ADF80630BDF868
:1034A00006301A051ED5B0F8503094F8282204F2E0
:1034B0002C4103EBC20300EB4303D3F80C34B4F804
:1034C0002C22C3F30903C4F8443201F0F9FA22684C
:1034D0002046138823F070031B051B0D1380FFF794
:1034E000E5F89EE7BDF806301B049AD5038823F063
:1034F00070031B051B0D0380B0F8503094F8282290
:1035000003EBC20300EB4303D3F80C34C3F309030A
:10351000C4F8443263B1B4F82C22D4F83C1201F060
:10352000CFFAD4F83C32D4F844221344C4F83C32E5
:1035300000212046FFF7C0F82268D4F83852B2F8CC
:1035400050103E2D01F1060102F5806016D9C5F339
:103550004F13EE0604BF03F1FF339BB249EA832306
:103560009BB240F81130138808EA030383F44053F8
:1035700043F4004343F08003138052E7C5F34F0345
:10358000ED0744BF01339BB29B02E9E730F82530D9
:103590009BB2ADF80630BDF8063019043DD530F8C1
:1035A00025304FEA451A23F070031B051B0D20F848
:1035B000253004EB0A0191F8323200F58062002BCD
:1035C0006CD1B0F8503091F82862063303EBC60393
:1035D00052F81360C6F3090636B1B1F82C2233460F
:1035E000D1F83C1201F06CFA04EB0A01D1F8443234
:1035F000D1F83C223344C1F84432D1F8403232444D
:10360000C1F83C221BB1D1F8380286427BD2A244D9
:103610009AF828122046FFF74FF8BDF806301A0630
:103620007FF5FFAE20686E0130F82530A1193B40D0
:1036300020F8253091F8323000F580620235002BF9
:103640006ED1B0F8503091F828C0023303EBCC03B0
:1036500052F8133004EB4515C3F309036B601BB13B
:103660008A8DC96B01F051F922682644B2F85030B6
:1036700096F82810023303EBC10302EB4303D3F89F
:103680000024F36BC2F3090272641A44336CF263D0
:103690002046002B79D1FFF717F8C2E691F82832BF
:1036A00030F82360DB0016F4804FB0F850603344EC
:1036B0001ED0023352F81360C6F3090636B1334602
:1036C000B1F82E22D1F83C1201F0FAF904EB0A030A
:1036D00093F82812226832F8213023F0F0031B05FA
:1036E0001B0D43F4004343F0C00322F821307BE775
:1036F000063352F81360C6F30906002EE6D03346AF
:10370000B1F83022DEE791F828122046FFF7AAFD33
:1037100083E700BF0F8FFFFF8FBFFFFF0080FFFF1A
:1037200091F8283030F823C0DB001CF0400FB0F8CF
:1037300050C063441DD0023352F8133004EB4515DA
:10374000C3F309036B601BB1CA8DC96B01F0DDF8CF
:10375000A31993F82810226832F8213023F0F003DF
:103760001B051B0D43F4404343F0800322F8213036
:103770007AE7063352F8133004EB4515C3F3090317
:103780006B60002BE4D00A8EDFE7FFF78AFD48E686
:10379000012238B54BB2002B01F07F05B5BF00EB1D
:1037A000451100EB4111283101F50A71DB0F8A70D8
:1037B0000D704B7090F82834044693420ED080F878
:1037C0002824006801F028F825B904F22C4120686B
:1037D00001F099F8002084F8280438BD0220FCE7A5
:1037E00038B500244BB2002B01F07F02B5BF00EBCF
:1037F000421100EB4111283101F50A71DB0F8C7089
:103800000A704B7090F828340546012B09D001232B
:1038100080F82834006801F02BF8204685F8284409
:1038200038BD0220FCE711F0800F1BBF01F07F01C3
:1038300000EB411000EB4110283008BF00F50A7082
:1038400099B21AB9827281800020704701221B0C44
:103850008272C1800381F7E703682DE9F341DB073A
:10386000054610D42B689F075ED42B68190700F11A
:1038700095802B685A0700F1BF80EA69002A40F062
:103880002D81002014E0904C636803F00C03042B9E
:1038900007D0636803F00C03082B0CD16368DE03C8
:1038A00009D523689C03DDD56B68002BDAD1012094
:1038B00002B0BDE8F0816B68B3F5803F10D123689A
:1038C00043F480332360FFF76DF8064623689803BE
:1038D000C8D4FFF767F8801B6428F7D90320E7E70F
:1038E0009BB9236823F480332360236823F4802367
:1038F0002360FFF757F8064623689903B2D5FFF710
:1039000051F8801B6428F7D9E8E7B3F5A02F2368A6
:1039100003D143F480232360D1E723F48033236071
:10392000236823F48023CDE7674C636813F00C0F02
:1039300007D0636803F00C03082B10D16368DA0327
:103940000DD423689B0702D52B69012BAFD12368C7
:103950006A6923F0F80343EAC203236085E72A6912
:103960005A4B6AB101221A60FFF71CF80646236819
:103970009F07ECD4FFF716F8801B0228F7D9ADE7B4
:103980001A60FFF70FF80646236898077FF56DAFBA
:10399000FFF708F8801B0228F6D99FE7AA694A4C6E
:1039A0004B4BDAB101221A60FEF7FCFF0646636A50
:1039B0009B070DD54FF4FA52464B1B68B3FBF2F34D
:1039C000019300BF019B5A1E0192002BF9D150E7D1
:1039D000FEF7E8FF801B0228E9D97FE71A60FEF7AF
:1039E000E1FF0646636A9F077FF543AFFEF7DAFF04
:1039F000801B0228F6D971E7334CE369D80024D440
:103A00000127E36943F08053E361E36903F08053E6
:103A10000093009B304E3368D90518D5EB68012B15
:103A200026D1236A43F001032362FEF7BBFF41F274
:103A300088368046236A9B073FD5002F3FF41DAF91
:103A4000E36923F08053E36117E70027E2E7336877
:103A500043F480733360FEF7A5FF80463368DA05D0
:103A6000DCD4FEF79FFFA0EB08006428F6D935E709
:103A7000ABB9236A41F2883823F001032362236A39
:103A800023F004032362FEF78DFF0646236A98079E
:103A9000D3D5FEF787FF801B4045F7D91EE7052BDE
:103AA000236A03D143F004032362BAE723F001033E
:103AB0002362236A23F00403B6E7FEF773FFA0EB4B
:103AC0000800B042B6D909E70010024000004242A7
:103AD000800442424008002000700040224C63688D
:103AE00003F00C03082B3FF4E2AE00231F4E022A22
:103AF00033602BD1FEF756FF0746236899011FD488
:103B00002B6AB3F5803F05D16268A96822F40032C0
:103B10000A436260696A62680B4322F474121343B9
:103B2000636001233360FEF73DFF054623689A0179
:103B30003FF5A7AEFEF736FF401B0228F6D9CDE6CB
:103B4000FEF730FFC01B0228D7D9C7E6FEF72AFFD1
:103B5000054623689B017FF594AEFEF723FF401BCB
:103B60000228F6D9BAE600BF0010024060004242C7
:103B700030B5194B87B002AC03F110052246186826
:103B80005968083303C2AB421446F7D140F201230F
:103B90001249ADF804304B6803F00C02082A18D122
:103BA000C3F38342DB0348BF4B6806A8024448BF07
:103BB000C3F3404312F8100C41BF06AA9B1813F838
:103BC000142C074B54BF074BB3FBF2F3584307B019
:103BD00030BD0348FBE700BF346F0008001002400F
:103BE00000127A0000093D004C4A2DE9F0411368AB
:103BF000054603F007038B420E4627D32A68910738
:103C000031D4D20737D4454A136803F00703B342CF
:103C100071D82A68424C12F0040F77D1130706D5E9
:103C200063682A6923F4605343EAC2036360FFF7C1
:103C30009FFF63683B4AC3F30313D35CD8403A4BFE
:103C400018600020FEF7F6FB00200AE0136823F05E
:103C500007030B431360136803F007038B42CDD0B7
:103C60000120BDE8F0812E49A8684B6823F0F003DD
:103C700003434B60C5E76A68294C012A23681BD1BE
:103C800013F4003FECD0636841F2883823F003035B
:103C900013436360FEF786FE6B680746012B13D162
:103CA000636803F00C03042BADD0FEF77BFEC01B52
:103CB0004045F5D90320D4E7022A02D113F0007F52
:103CC000E0E713F0020FDDE7022B0FD1636803F08A
:103CD0000C03082B97D0FEF765FEC01B4045F5D9B5
:103CE000E8E7FEF75FFEC01B4045E3D8636813F0CA
:103CF0000C0FF6D187E7136823F0070333431360F3
:103D0000136803F00703B342AAD182E76368E96846
:103D100023F4E0630B43636080E700BF00200240B0
:103D200000100240B86F000840080020014B1868DE
:103D3000704700BF40080020044B054A5B68C3F38E
:103D40000223D35C034A1068D84070470010024039
:103D5000C86F0008400800200F2303600B4B5A680F
:103D600002F0030242605A6802F0F00282605A6870
:103D700002F4E062C2605B68DB0803F4E0630361A5
:103D8000034B1B6803F007030B60704700100240F1
:103D90000020024003682DE9F341D907054620D5EC
:103DA000354CE369DA0032D40127E36943F08053EC
:103DB000E361E36903F080530193019B2F4E336865
:103DC000DB0526D5236A13F4407336D1236A6A686B
:103DD00023F44073134323621FB1E36923F080533C
:103DE000E3612868830706D5234AA968536823F44A
:103DF00040430B43536010F010001BD01E4AE9688B
:103E00005368002023F480030B43536012E0002723
:103E1000D4E7336843F480733360FEF7C3FD804614
:103E20003368D805CED4FEF7BDFDA0EB08006428AA
:103E3000F6D9032002B0BDE8F0816A6802F440724E
:103E40009A42C3D001200E4A236A1060002023F456
:103E5000407110602162D907B8D5FEF7A3FD41F289
:103E600088380646236A9A07B0D4FEF79BFD801B6C
:103E70004045F7D9DDE700BF001002400070004068
:103E800040044242704703680020DA6842F00102B1
:103E9000DA601A6842F001021A60704790F83C300C
:103EA000012B1CD00C2918D8DFE801F007171717D1
:103EB0000E17171711171717140003685B6B0022F2
:103EC00080F83C201846704703689B6BF7E703684F
:103ED000DB6BF4E703681B6CF1E70023EFE70223D9
:103EE000F0E77047704770477047036810B51A696C
:103EF000044691070ED5DA6892070BD56FF00202DF
:103F00001A6101229B6902779B0777D0FFF7EAFFCE
:103F10000023237723681A69500710D5DA68510700
:103F20000DD56FF004021A6102229B69227713F407
:103F3000407F204668D0FFF7D5FF00232377236812
:103F40001A6912070FD5DA6810070CD56FF008024E
:103F50001A610422DB692277990720465AD0FFF7BD
:103F6000C1FF0023237723681A69D20610D5DA68C7
:103F7000D0060DD56FF010021A610822DB69227796
:103F800013F4407F20464BD0FFF7ACFF002323778C
:103F900023681A69D10708D5DA68D20705D56FF00A
:103FA000010220461A61FEF7A7F923681A69100674
:103FB00008D5DA68110605D56FF0800220461A612F
:103FC00000F0DAF923681A69520608D5DA68500653
:103FD00005D56FF0400220461A61FFF785FF236880
:103FE0001A69910622D5DA6892061FD56FF0200271
:103FF0002046BDE810401A6100F0BDB9FFF771FF1F
:104000002046FFF770FF83E7FFF76BFF2046FFF7BF
:104010006AFF92E7FFF765FF2046FFF764FFA0E71E
:10402000FFF75FFF2046FFF75EFFAFE710BD000020
:104030001A4A036890420AD0B0F1804F07D0A2F527
:104040009432904203D002F58062904215D14A68C2
:1040500023F070031343114A90420AD0B0F1804F0D
:1040600007D0A2F59432904203D002F580629042CC
:1040700003D1CA6823F4407313434A6923F08003D1
:10408000134303608B68C3620B688362034B9842DF
:1040900004BF0B690363012343617047002C014097
:1040A00010B50446A0B190F83D3003F0FF021BB9F3
:1040B00080F83C20FFF7E6FE0223206884F83D30BC
:1040C000211DFFF7B5FF0123002084F83D3010BD0E
:1040D0000120FCE710B50446A0B190F83D3003F094
:1040E000FF021BB980F83C20FEF77CF90223206810
:1040F00084F83D30211DFFF79BFF0123002084F849
:104100003D3010BD0120FCE770B5046A124E24F06A
:1041100001040462B0428469056A19D0B0F1804F8D
:1041200016D0A6F59436B04212D006F58066B0429D
:104130000ED044F001021B01DBB222F0F0021A4360
:1041400001F00A0125F00A0319438261016270BD82
:1041500024F003042243EEE7002C0140F8B590F868
:104160003C300446012B0D4617464FF0020019D093
:1041700006C9012384F83D0084F83C302068EB68D0
:104180008FB9FFF7C1FF2368A9689A6922F00C0272
:104190009A619A690A439A610123002084F83D30AC
:1041A00084F83C00F8BD042FAE68056A1ED125F0E6
:1041B0001005056285691B0325F44075076A45EA09
:1041C00002229BB222F4704209011A4301F0A001BD
:1041D00027F0A003194382610162836923F44063DD
:1041E0008361836943EA06268661D5E7082F1CD1DF
:1041F00025F480750562C5691B0125F00305076A72
:104200002A43DBB222F0F00209021A4301F42061D2
:1042100027F420631943C2610162C36923F00C03D0
:10422000C361C3691E43C661B6E725F480550562C4
:10423000C5691B0325F44075076A45EA022222F48A
:1042400070429BB20903134301F4005127F400525A
:104250001143C3610162C36923F44063C361C3694D
:1042600043EA0626DFE710B50124036A8C4023EAFF
:1042700004030362036A8A401A43026210BD10B548
:10428000044600680C290CD8DFE801F0070B0B0B83
:10429000150B0B0B190B0B0B1D00C36843F002032E
:1042A000C3600122FFF7DFFF22680020136843F09C
:1042B0000103136010BDC36843F00403F0E7C36853
:1042C00043F00803ECE7C36843F01003E8E710B5D8
:1042D000044600680C290CD8DFE801F0070B0B0B33
:1042E0001F0B0B0B230B0B0B2700C36823F00203E0
:1042F000C3600022FFF7B7FF41F211122368196A69
:10430000114208D140F24442196A114202BF1A68B0
:1043100022F001021A60002010BDC36823F00403DC
:10432000E6E7C36823F00803E2E7C36823F010035D
:10433000DEE790F83C3010B5012B4FF0020318D0A7
:1043400080F83D3003680C685A68496822F07002B2
:104350005A605A6822435A609A6822F080029A6032
:104360009A680A439A60012380F83D30002380F860
:104370003C30184610BD7047704784B001A880E8F3
:104380000E0004B000207047B0F8403043F43F43C3
:10439000A0F8403000207047B0F8403023F4745348
:1043A0005B045B0CA0F84030002070470020704791
:1043B00084B010B503AC84E80E00BDE810400123C2
:1043C000A0F840300023A0F84030A0F84430A0F816
:1043D0005030B0F8402004B042F43F42A0F84020F2
:1043E0001846704770B5CA780B78032A0DD8DFE8F5
:1043F00002F0025A4A5130F8232022F4EC4222F013
:10440000700242F4007220F8232040F60F720C78FC
:1044100030F8243044F4004545F0800513402B4328
:1044200020F824308C7A00F580650B78002C40F061
:1044300082808C884E7864086400DB00E6B3B0F8B4
:104440005060334445F813400C7830F824305D0652
:1044500008D530F824301A4042F4004242F0C0023D
:1044600020F824200A7830F8223023F4E04323F0A7
:10447000400383F0200343F4004343F0800320F81B
:104480002230002070BD30F8232022F4EC4222F0CC
:104490007002B8E730F8232022F4EC4222F07002D8
:1044A00042F4C062AFE730F8232022F4EC4222F05D
:1044B000700242F48062A6E7B0F85020134404333F
:1044C00045F81340B0F850200C690B7806323E2CAA
:1044D00002EBC30227D9C4F34F16E30604BF06F16B
:1044E000FF339EB2684B43EA86239BB245F81230F5
:1044F0000A7830F822305C040BD530F8223023F0F3
:10450000F0031B051B0D43F4404343F0800320F8E8
:1045100022300A7830F8223023F4804323F07003ED
:1045200083F44053A7E7C4F34F03E60744BF0133C6
:104530009BB29B02D9E730F8234024F4F874240599
:10454000240D44F4014444F0800420F82340B0F8E2
:1045500050400B7804EBC304CB885B085B0045F844
:104560001430B0F850300C78043303EBC4030C89DA
:104570006408640045F813404B780C78002B43D155
:1045800030F824305B0408D530F824301A4042F467
:10459000404242F0800220F824200A7830F822308D
:1045A0005E060BD530F8223023F0F0031B051B0DFF
:1045B00043F4004343F0C00320F822300A7830F877
:1045C000223023F0F0031B051B0D43F4004343F09E
:1045D000C00320F8223048F280020C7830F82430F2
:1045E00023F4804323F0700383F44053134320F8F3
:1045F0002430097830F8213023F4E04323F04003DD
:104600001A4320F821203CE730F824305D0408D517
:1046100030F824301A4042F4404242F0800220F840
:1046200024200A7830F822305B060BD530F822308F
:1046300023F0F0031B051B0D43F4004343F0C003BC
:1046400020F822300A7830F8223023F0F0031B05DE
:104650001B0D43F4404343F0800320F8223048F21E
:1046600080020C7830F8243023F4E04323F0400338
:10467000134320F82430097830F8213023F48043A4
:1046800023F07003BCE700BF0080FFFF10B58C7AF9
:104690004A780B78BCBBF2B130F8232052060BD518
:1046A00030F8232022F0F0021205120D42F40042ED
:1046B00042F0C00220F823200A7830F8223023F09C
:1046C000C0031B051B0D43F4004343F0800320F897
:1046D0002230002010BD30F8232054040BD530F8D0
:1046E000232022F0F0021205120D42F4404242F063
:1046F000800220F823200A7830F8223023F0F003DB
:104700009B049B0CDFE7002A44D130F8232052049D
:104710000BD530F8232022F0F0021205120D42F4DE
:10472000404242F0800220F823200A7830F82230FC
:104730005C060BD530F8223023F0F0031B051B0D6F
:1047400043F4004343F0C00320F822300A7830F8E5
:10475000223023F0F0031B051B0D43F4004343F00C
:10476000C00320F8223048F280020C7830F8243060
:1047700023F4804323F07003134320F82430097896
:1047800030F8213023F4E04323F040031A4320F8AB
:1047900021209EE730F8232052040BD530F8232047
:1047A00022F0F0021205120D42F4404242F0800263
:1047B00020F823200A7830F822305B060BD530F839
:1047C000223023F0F0031B051B0D43F4004343F09C
:1047D000C00320F822300A7830F8223023F0F003AA
:1047E0001B051B0D43F4404343F0800320F82230A7
:1047F00048F280020C7830F8243023F4E04323F0B0
:104800004003134320F82430097830F8213023F492
:10481000804323F07003B9E70A787AB9038823F458
:10482000804323F0400383F4805383F0100343F468
:10483000004343F080030380002070474B7873B13E
:1048400030F8223023F4E04323F0400383F01003D8
:1048500043F4004343F0800320F82230ECE730F8C3
:10486000223023F4804323F0700383F48053EFE776
:104870004B780A7803B330F822305B060BD530F85A
:10488000223023F0F0031B051B0D43F4004343F0DB
:10489000C00320F822300A7830F8223023F4E043B5
:1048A00023F0400383F0300343F4004343F08003DC
:1048B00020F822300020704730F822305B040BD5FE
:1048C00030F8223023F0F0031B051B0D43F4404366
:1048D00043F0800320F822300A7830F8223023F4A5
:1048E000804323F0700383F44053DDE711B9802344
:1048F000A0F84C300020704700207047002070471F
:10490000B0F84400704700207047013300F5806024
:104910005B1000EB420203B9704731F8020B013B18
:1049200022F8040BF7E70000F8B54A780546012A9B
:104930000E468B690C69887A59D1A34299BF00222F
:104940001C461B1B8B6198BF8A61A3B2496905F5A0
:104950008067E0B9B2882846FFF7D7FFB5F8503036
:104960003278023303EBC20347F81340327835F84C
:10497000223023F4E04323F0400383F0300343F478
:10498000004343F0800325F822300020F8BD327840
:1049900035F82200D20010F0400FB5F85000024464
:1049A00002F1020247F81240284614BF3289F28809
:1049B000FFF7ABFF7378327863B935F8223023F014
:1049C000F0031B051B0D43F4004343F0C00325F81F
:1049D0002230CBE7012BC9D135F8223023F0F00388
:1049E0001B051B0D43F4404343F08003EFE7A34254
:1049F00093BF00211B1B8B611C4698BFB1613378AC
:104A0000F8B9B5F85020063202EBC3023E2C05F58A
:104A100080603FD9C4F34F11E40604BF01F1FF33B6
:104A200099B2264B43EA81239BB240F81230327888
:104A300035F8223023F4804323F0700383F440538D
:104A40009DE7B2B9B5F850203E2C02F1020202EB0C
:104A5000C30205F5806015D9C4F34F11E30604BF06
:104A600001F1FF3399B2154B43EA81239BB240F821
:104A7000123073783178ABB9B5F85020063202EBBA
:104A8000C102C3E7C4F34F03E70744BF01339BB23E
:104A90009B02EBE7C4F34F03E10744BF01339BB232
:104AA0009B02C1E7012BC2D1B5F85030023303EBB2
:104AB000C10305EB4303C3F80044B8E70080FFFFE0
:104AC00010B50024013300F580605B1000EB42025A
:104AD0009C4200D110BD52F8240021F8140001348A
:104AE000F6E7000030B504460D4693B017210A20C2
:104AF00000F0F2FA23460095074A402102A8FBF78E
:104B000025FC064A012306CA02A800F0CFFA00F0ED
:104B1000D3F913B030BD00BF90700008900800209A
:104B200000B58FB000F0EEF94FF47A7000F02BFB77
:104B3000002000F0B3F900F0BFF94FF47A7000F0F4
:104B400022FB234C234E244D94F824301BB96420BF
:104B500000F019FBF8E7637B227B314602A8FBF7E4
:104B600059FC14210A2000F0B7FA95E80600012349
:104B700002A800F09BFA2521E37BA27B009106A806
:104B80001649FBF747FC20210A2000F0A5FA95E81A
:104B90000600012306A800F089FA114A11490AA863
:104BA000FBF738FC2B210A2000F096FA95E8060066
:104BB00001230AA800F07AFA00F07EF9002000F044
:104BC0006DF900234FF47A7084F82430C0E700BFF9
:104BD000902500205C70000898080020677000088D
:104BE000B8250020737000081FB54023ADF80030D1
:104BF0000E4B0F4901930F4B68460293002303931A
:104C000000F04EF818B16FF00901FFF76BFF084C88
:104C1000074800F0BCF820B194F90510FFF762FFD7
:104C2000F6E74FF47A7000F0AEFAF1E700080140C1
:104C3000902500205C0A002000B5154E154C164D3D
:104C40008BB04FF0FF31306800F0E0FA252102917F
:104C5000E17B637B0191A17B227B009105A80F4939
:104C6000FBF7D8FB14210DEB0100FDF7E9FC012255
:104C70004FF400512846FDF7FFFFFA2000F083FAB9
:104C800000224FF400512846FDF7F6FFD9E700BF98
:104C9000A00A002090250020001001407B70000831
:104CA00010B501F114040FC884E80F00002010BDF6
:104CB000F8B50446D4E90701FFF7F0F894F9053098
:104CC000A268591CA0EB020230D1A2F17803502B4C
:104CD00002D80023637107E0282A05D9637C43F0DA
:104CE000020363740223237494F90530282B1BD12B
:104CF00026786578A178E27873190B4413442779F4
:104D000003F0FF039F4217BF637CA67343F00103C8
:104D100063744FF0020323744FF0010302BFE57385
:104D20002173627384F82430A060F8BDA2F14601BB
:104D30001E2915D808215D4205F0070593FBF1F106
:104D400003F0070258BF6A420125C2F10702D2B23E
:104D5000C9B29540625C22EA050262540133B9E7A8
:104D60006E3A282ABAD808215D4205F0070593FB60
:104D7000F1F103F0070258BF6A420125C2F10702B0
:104D8000C9B2D2B205FA02F2655C2A43E5E7002314
:104D9000F0B5057C85B0044680F8243015B10120BB
:104DA00005B0F0BD437C012665F3000365F34103C4
:104DB00043744FF47F438380838A03270093112336
:104DC00085600560067469468069CDE90136039700
:104DD000FDF772FE3246A18AA069FDF74DFF0A2059
:104DE00000F0D1F92A46A18AA069FDF745FF1220FB
:104DF00000F0C9F93246A18AA069FDF73DFFA38AF8
:104E00006946A0698DE8E800FDF756FEE069216A71
:104E100003685D62FFF733FA05460028BFD101F051
:104E2000E5F80646237C022B10D1D4E90701FFF7F1
:104E30004EFA0028B3D1607C830717D410F001002C
:104E400016D1237C022BAAD12074A9E701F0CEF859
:104E5000801BB0F57A7FE8D294F82530002BE1D0A2
:104E600084F825502046FFF723FFDBE7022097E771
:104E7000032095E77FB501230A2106AA02F8010D58
:104E80000092CDE90131002278210348FEF77CF839
:104E900007B05DF804FB00BF080A002000230549A5
:104EA000021C18BF012252425A540133B3F5806FDD
:104EB000F6D17047CA2500207FB500240F4E104D53
:104EC000A4F15000C0B2FFF7D5FF0020FFF7D2FFDA
:104ED0001020FFF7CFFF80236422CDE9013206EBDB
:104EE000C413009340220123782128460134FEF7A1
:104EF0004BF8082CE4D104B070BD00BFCA250020D7
:104F0000080A002008B56420FDF752FDAE20FFF727
:104F1000B1FF2020FFF7AEFF1020FFF7ABFFB0205E
:104F2000FFF7A8FFC820FFF7A5FF0020FFF7A2FFAB
:104F30001020FFF79FFF4020FFF79CFF8120FFF725
:104F400099FFFF20FFF796FFA120FFF793FFA62010
:104F5000FFF790FFA820FFF78DFF3F20FFF78AFFA4
:104F6000A420FFF787FFD320FFF784FF0020FFF77F
:104F700081FFD520FFF77EFFF020FFF77BFFD920D0
:104F8000FFF778FF2220FFF775FFDA20FFF772FFA7
:104F90001220FFF76FFFDB20FFF76CFF2020FFF7E9
:104FA00069FF8D20FFF766FF1420FFF763FFAF2036
:104FB000FFF760FF0020FFF771FFFFF77DFF012083
:104FC0000022024B58711A805A8008BDC425002067
:104FD000030630B516D43F2914D80B4B1B7913B1F7
:104FE000B2FA82F25209CB0801F007040121074D01
:104FF00000EBC3102B56A14049B2012A0CBF0B4352
:105000008B432B5430BD00BFC4250020CA2500208F
:105010002DE9F04F87B0074606A800E906009B4639
:10502000214B9DF810901C88019304EB09027F2A04
:1050300037DC5B889DF811A0009303EB0A023F2A3E
:105040002FDC0025A7F120020AFB02F30293AA45F8
:1050500006D8019B4C441C80384607B0BDE8F08F51
:105060000026029B05995A1931F812300393009BD0
:1050700005EB03085FFA88F8B14501D80135E6E78A
:10508000039B301903FA06F2130458BFBBFA8BF2E4
:10509000C0B24CBF5A4652094146FFF799FF01364C
:1050A000EAE70027D8E700BFC4250020F7B56D4622
:1050B0001F4685E80600461E16F8014F44B195E8E4
:1050C000060020463B46FFF7A3FF3478A042F3D00A
:1050D000204603B0F0BD0000014B18805980704796
:1050E000C4250020044B0246196809B90349196018
:1050F000186802441A607047CC2900202843002019
:10510000002103E00B4B5B58435004310A480B4B22
:1051100042189A42F6D30A4A02E0002342F8043BBE
:10512000084B9A42F9D3FDF7E3F9FBF735F8FDF7A1
:1051300025F87047A485000800000020B40900206D
:10514000B409002024430020FEE708B500F00AFF60
:10515000002008BD30B5B0F9084085B0842C08BFE8
:105160000024028A18BF03340B46D0E9001503A8B7
:10517000CDE90040284600F025FE012814BF00209C
:10518000039805B030BD08B5002808BF012001F024
:105190003BF8002008BD000013B500240194EFF394
:1051A000058393B101A900F049FC012813D1019BAB
:1051B00013B9002002B010BD4FF08052074B1A60A7
:1051C000BFF34F8FBFF36F8FF3E71A46194600F016
:1051D00083FB0128EDD0FF20ECE700BF04ED00E0E9
:1051E000012910B508460CD10322002100F034FB40
:1051F000044620B100231A46194600F06DFB2046F4
:1052000010BDBDE8104000F048BB000013B50024FD
:105210000A460194E8B1EFF30583A3B101AA214640
:1052200000F020FD012802D0FF2002B010BD019B3C
:105230003BB14FF08052084B1A60BFF34F8FBFF362
:105240006F8F0020F1E7194600F04CFC0128F8D0E0
:10525000EAE78020E9E700BF04ED00E0FFF79CBF2C
:1052600008B501F015F9012803D0BDE8084000F0A9
:10527000A9B808BD0A4B1B68013308D04FF0500392
:1052800083F31188BFF36F8FBFF34F8FFEE74FF0AB
:10529000500383F31188BFF36F8FBFF34F8FFEE787
:1052A000A008002006480068006880F3088862B6FD
:1052B00061B6BFF34F8FBFF36F8F00DF00BF0000F9
:1052C00008ED00E04FF0807340F8043C054B21F0FE
:1052D000010140F8081C40F80C3C40F8202C4038F4
:1052E000704700BF75520008000000000000000079
:1052F000074B19680868B0E8F00F80F30988BFF31E
:105300006F8F4FF0000080F311884EF00D0E704744
:10531000F04100204FF0500383F31188BFF36F8FEB
:10532000BFF34F8F0A4A13680133012B13600DD16D
:10533000084B1B6813F0FF0F08D04FF0500383F3A6
:105340001188BFF36F8FBFF34F8FFEE7704700BF29
:10535000A008002004ED00E0084A136843B94FF0AC
:10536000500383F31188BFF36F8FBFF34F8FFEE7B6
:10537000013B13600BB983F311887047A00800202C
:10538000EFF30980BFF36F8F0D4B1A6820E9F00F20
:1053900010602DE908404FF0500080F3118800F0B4
:1053A00091FF4FF0000080F31188BDE808401968B4
:1053B0000868B0E8F00F80F30988BFF36F8F70477B
:1053C000F041002008B54FF0500383F31188BFF37C
:1053D0006F8FBFF34F8F00F00FFE18B14FF0805268
:1053E000024B1A60002383F3118808BD04ED00E02E
:1053F0004FF47A72054B1B68B3FBF2F3044A013B8E
:1054000013600722034B1A60704700BF400800205A
:1054100014E000E010E000E013B51F4B00211A7803
:10542000D2B20192FF221A701B781C4ADBB28DF8AF
:1054300003309DF8033003F0500313700722184B1C
:105440001A609DF80300541E00061CD401B11A60B6
:105450001A68120202F4E0621A60019B0E4ADBB283
:105460001370104B1A6842F470021A601A6842F006
:1054700070421A60FFF7BCFF00220B4B1A60FFF767
:1054800011FFFFF7F7FE9DF8032001215200D2B271
:105490008DF803202246D4E700E400E0D029002064
:1054A000D429002020ED00E0A0080020EFF30583C0
:1054B0000F2B0ED9104A9B5C104A12789A4208D9D9
:1054C0004FF0500383F31188BFF36F8FBFF34F8FFB
:1054D000FEE70B4B0B4A1B68126803F4E063934230
:1054E00008D94FF0500383F31188BFF36F8FBFF3D8
:1054F0004F8FFEE7704700BFF0E300E0D0290020A7
:105500000CED00E0D429002010B50F4B1A68824240
:1055100018D35C681919884201BF416818460919F7
:105520005960446801198A4207D1084909688A42CA
:105530001FBF51681268091941609842026018BF84
:10554000186010BD1346E1E7E8410020D82900208B
:105550002DE9F041044600F041FD3D493D4D0B6809
:10556000FBB93D4A0020560702F5C0530FBF4FF468
:10557000C053073222F007029B1A1344374E083BF0
:1055800023F0070370603260C3E90000981A0B60D3
:10559000C2E90030324B1860324B18604FF00043C4
:1055A0002B602F6827424DD1002C3ED004F1080318
:1055B00058071CBF23F007030833002B42D0294AA9
:1055C000166890469E423DD3244A15686868984202
:1055D00001D22C68A4B90968A94233D0296814689B
:1055E0001160C21A102A12D9E81841070BD04FF0E7
:1055F000500383F31188BFF36F8FBFF34F8FFEE724
:105600002A462546E2E742606B60FFF77DFF6B6844
:105610001349F61A1F4300230868C8F80060864241
:1056200038BF0E6008346F602B6000F077FD6307B1
:105630000AD04FF0500383F31188BFF36F8FBFF38D
:105640004F8FFEE70024F0E72046BDE8F08100BF61
:10565000D8290020DC410020DC290020E84100207E
:10566000E4410020E041002010B5044670B3184A20
:1056700050F8043C1268134208D14FF0500383F3F2
:105680001188BFF36F8FBFF34F8FFEE750F8081CF0
:1056900041B14FF0500383F31188BFF36F8FBFF315
:1056A0004F8FFEE723EA020340F8043C00F096FC2B
:1056B000084A54F8043C1168A4F108000B44136034
:1056C000FFF722FFBDE8104000F028BD10BD00BF6D
:1056D000DC410020E041002070B51546026C044614
:1056E000866B42B905689DB9406800F02BFF656084
:1056F0000136A66370BD6DB98068FAF771FDA368C5
:10570000226C13446268A360934201D32368A360B0
:105710000020EDE7C068FAF763FD236CE2685B42A6
:1057200021681A448A42E2603EBF62689B18E360C7
:10573000022DEDD10EB1013EEAE73046D8E703462F
:105740001A6C10B4084662B1D9685C681144A14271
:10575000D96028BF196810BC28BFD960D968FAF78A
:105760003FBD10BC704770B50446FFF7D3FD94F8F9
:10577000455004F124066DB2002D14DCFF2384F89B
:105780004530FFF7E9FDFFF7C5FD94F8445004F1FB
:1057900010066DB2002D12DCFF2384F84430BDE802
:1057A0007040FFF7D9BD636A002BE7D0304600F0A8
:1057B000DDFD08B100F066FE013D6DB2DCE7236956
:1057C000002BE9D0304600F0D1FD08B100F05AFEC0
:1057D000013D6DB2DEE7000038B50D46044640B924
:1057E0004FF0500383F31188BFF36F8FBFF34F8FD8
:1057F000FEE7FFF78FFDD4E90F3043432268D1184D
:105800001B1A13446160E3600021FF23A163A260BF
:1058100084F8443084F8453095B9236963B104F1C4
:10582000100000F0A3FD38B14FF08052094B1A6010
:10583000BFF34F8FBFF36F8FFFF78EFD012038BD91
:1058400004F1100000F0DAFE04F1240000F0D6FEAE
:10585000F2E700BF04ED00E070B50D46064640B922
:105860004FF0500383F31188BFF36F8FBFF34F8F57
:10587000FEE748434830FFF76BFE044638B145B9B0
:105880002060C4E90F6501212046FFF7A5FF2046EF
:1058900070BD00F148030360F3E710B50C4640B952
:1058A0004FF0500383F31188BFF36F8FBFF34F8F17
:1058B000FEE7884208D24FF0500383F31188BFF30C
:1058C0006F8FBFF34F8FFEE702220021FFF7C4FF67
:1058D00000B1846310BD00002DE9FF4788460192A6
:1058E0001F46044640B94FF0500383F31188BFF3BD
:1058F0006F8FBFF34F8FFEE751B9036C43B14FF089
:10590000500383F31188BFF36F8FBFF34F8FFEE710
:10591000022F0BD1E36B012B08D04FF0500383F320
:105920001188BFF36F8FBFF34F8FFEE700F0B0FD1C
:1059300050B9019E4EB14FF0500383F31188BFF36D
:105940006F8FBFF34F8FFEE700264FF00009DFF89F
:10595000E8A037E0019D1DB9FFF7FEFC002050E0F4
:1059600016B902A800F044FDFFF7F6FC00F036FB84
:10597000FFF7D0FC94F84430FF2B08BF84F8449024
:1059800094F84530FF2B08BF84F84590FFF7E4FCFE
:1059900001A902A800F03CFD002846D1FFF7BAFC9F
:1059A000A26BE36B9A422FD1FFF7D6FC019904F169
:1059B000100000F0C1FC2046FFF7D5FE00F0AEFB62
:1059C00050B30126FFF7A6FCA26BE36B9A4201D30A
:1059D000022FBFD13A4641462046FFF77DFE636A5B
:1059E0001BB104F1240000F0C1FC38B14FF080522B
:1059F000114B1A60BFF34F8FBFF36F8FFFF7ACFCF3
:105A0000012004B0BDE8F087FFF7A6FC2046FFF7B1
:105A1000AAFE00F083FBD4E74FF08053CAF80030B1
:105A2000BFF34F8FBFF36F8FCBE72046FFF79BFE8F
:105A300000F074FB92E700BF04ED00E070B50D4686
:105A4000044640B94FF0500383F31188BFF36F8FC2
:105A5000BFF34F8FFEE7036C43B14FF0500383F366
:105A60001188BFF36F8FBFF34F8FFEE7036853B901
:105A7000436843B14FF0500383F31188BFF36F8F36
:105A8000BFF34F8FFEE7FFF711FDEFF311864FF0E5
:105A9000500383F31188BFF36F8FBFF34F8FA26B57
:105AA000E36B93421CD994F8453001325BB2A26398
:105AB0005A1C10D1636A0BB9012009E004F12400DB
:105AC00000F054FC0028F7D0002DF5D0012028600C
:105AD00086F3118870BD01335BB284F84530EBE783
