:020000040800F2
:1000000000500020B911000895020008970200086E
:10001000990200089B0200089D02000800000000F1
:100020000000000000000000000000009F02000827
:10003000A102000800000000A3020008A5020008B9
:100040000112000801120008011200080112000844
:100050000112000801120008011200080112000834
:100060000112000801120008011200080112000824
:100070000112000801120008011200080112000814
:100080000112000801120008011200080112000804
:1000900001120008011200080112000801120008F4
:1000A00001120008011200080112000801120008E4
:1000B00001120008011200080112000801120008D4
:1000C00001120008011200080112000801120008C4
:1000D00001120008011200080112000801120008B4
:1000E000B30200080112000801120008000000001D
:1000F0000000000000000000000000000000000000
:0C01000000000000000000005FF808F1A3
:10010C000348044B834202D0034B03B1184770479A
:10011C0004000020040000200000000005480649EF
:10012C00091A891001EBD171491002D0034B03B1AC
:10013C001847704704000020040000200000000055
:10014C0010B5064C237843B9FFF7DAFF044B13B113
:10015C000448AFF300800123237010BD040000207D
:10016C00000000000412000808B5044B1BB1044940
:10017C000448AFF30080BDE80840CFE70000000062
:10018C00080000200412000810B54FF4803301223F
:10019C00022490B0CDE906230021CDE90D434FF4A4
:1001AC00E01306A808910A920F9300F03BFC00B1F3
:1001BC00FEE70F23CDE901344FF480630390CDE9C2
:1001CC000430214601A800F027FE044600B1FEE7EA
:1001DC0000F0C4FE4FF47A73B0FBF3F000F0E8F9D2
:1001EC00042000F06BFA224621464FF0FF3000F05D
:1001FC007FF910B010BDFEE7214B07B59A690320BB
:10020C0042F001029A619B6903F001030193019B87
:10021C0000F05CF900226FF00B00114600F068F959
:10022C0000226FF00A00114600F062F900226FF014
:10023C000900114600F05CF900226FF00400114631
:10024C0000F056F900226FF00300114600F050F94F
:10025C0000226FF00100114600F04AF900224FF025
:10026C00FF30114600F044F9064B5A6822F0E06268
:10027C005A605A6842F000725A6003B05DF804FB91
:10028C0000100240000001407047FEE7FEE7FEE769
:10029C00FEE770477047704708B500F097F8BDE867
:1002AC00084000F018BA08B500F0FCFEBDE80840A4
:1002BC004FF4006000F089BB0F4B1A6842F001024A
:1002CC001A6059680D4A0A405A601A6822F0847202
:1002DC0022F480321A601A6822F480221A605A685A
:1002EC0022F4FE025A604FF41F029A604FF0006233
:1002FC00034B9A60704700BF001002400000FFF8EB
:10030C0000ED00E0104B11495A6802F00C02082A6B
:10031C000AD00F4A0A605B680E4AC3F30313D25C1F
:10032C000B68D3400B6070475A685868C2F383421D
:10033C00C00302F1020202D407484243EAE75868BC
:10034C008003F9D40248F8E70010024000000020B6
:10035C0000127A001C12000800093D00704770471B
:10036C0010B54FF0FF320024044BDA601C61DA60E8
:10037C00DC60FFF7F4FF204610BD00BF0010024008
:10038C00084B10B5044618684FF47A73B0FBF3F0C1
:10039C0000F00EF9002221464FF0FF3000F0A8F8D3
:1003AC00002010BD00000020074A08B51368032088
:1003BC0043F01003136000F089F80020FFF7E0FF12
:1003CC00FFF71AFF002008BD00200240024A136804
:1003DC0001331360704700BF24000020014B1868E4
:1003EC00704700BF2400002037B50190FFF7F6FFDF
:1003FC000546019C631C18BF0134FFF7EFFF401B3F
:10040C00A042FAD303B030BD024A136823F00203B2
:10041C001360704710E000E0024A136843F00203D7
:10042C001360704710E000E00048704700010101C4
:10043C00014B1868000C7047002004E0024B186850
:10044C00C0F30B00704700BF002004E0024A536861
:10045C0043F0010353607047002004E0024A5368E4
:10046C0023F0010353607047002004E0024A5368F4
:10047C0043F0020353607047002004E0024A5368C3
:10048C0023F0020353607047002004E0024A5368D3
:10049C0043F0040353607047002004E0024A5368A1
:1004AC0023F0040353607047002004E0044B1B68E6
:1004BC000360044B1B684360034B1B6883607047ED
:1004CC00E8F7FF1FECF7FF1FF0F7FF1F074A0002CA
:1004DC00D36800F4E06023F4E0631B041B0C43F0CE
:1004EC00BF6343F400330343D360704700ED00E077
:1004FC00174B70B5DC684FF0FF36C4F30224C4F11F
:10050C000705042D04F1040328BF0425062B98BF0E
:10051C00002406FA05F388BF033C21EA0303A34039
:10052C0006FA04F422EA0404002843EA0403A8BFF0
:10053C0000F160404FEA0313B8BF064ADBB2B5BF07
:10054C0000F00F0000F56140135480F8003370BDCB
:10055C0000ED00E014ED00E00123420900F01F0063
:10056C0003FA00F0014B43F82200704700E100E071
:10057C000122430900F01F0002FA00F0024A203366
:10058C0042F82300704700BF00E100E0BFF34F8F3B
:10059C000549064BCA6802F4E0621343CB60BFF313
:1005AC004F8F00BFFDE700BF00ED00E00400FA052F
:1005BC000138B0F1807F0AD2F021064B064A586010
:1005CC0082F823100020072298601A6070470120DF
:1005DC00704700BF10E000E000ED00E0024BD8686F
:1005EC00C0F30220704700BF00ED00E070B500289A
:1005FC00B8BF154C01F00701ADBF00F1604000F031
:10060C000F00205C00F56140C1F1070401F1040505
:10061C00A8BF90F80003042C28BF0424062D98BF13
:10062C0000214FF0FF354FEA101088BF033920FA34
:10063C0001F605FA04F405FA01F126EA040420EAAD
:10064C0001001460186070BD14ED00E00122430934
:10065C0000F01F0002FA00F0024A403342F8230077
:10066C00704700BF00E100E04309054A403352F8EF
:10067C00233000F01F0023FA00F000F00100704757
:10068C0000E100E00122430900F01F0002FA00F033
:10069C00024A603342F82300704700BF00E100E0DB
:1006AC004309054A803352F8233000F01F0023FA27
:1006BC0000F000F00100704700E100E0044B04285A
:1006CC001A680CBF42F0040222F004021A60704750
:1006DC0010E000E0704708B5FFF7FCFF08BD00BF55
:1006EC002DE9F74F00221646654BDFF8A4C1DFF861
:1006FC00A4E14FF001080C6808FA06F808EA0404B3
:10070C00A0457ED14D68122D00F0AE8000F287809E
:10071C00022D00F0A6807BD8002D00F08D80012DDD
:10072C0000F09D804FF00F09FF2C93BF824606F11D
:10073C008045083DD0F800B092BFB500D0F804B0A9
:10074C00AD0009FA05F82BEA080802FA05F588BF8E
:10075C0000F1040A48EA0505CAF80050D1F804A0D3
:10076C001AF0805F4DD0474F26F00308BD6908F1A1
:10077C00804845F00105BD61BD6908F5803805F07C
:10078C000105019506F0030B019D4FEA8B0BD8F880
:10079C00085009FA0BF925EA09093B4DA84268D023
:1007AC0005F58065A84266D005F58065A84264D041
:1007BC0005F58065A8420CBF0325042505FA0BF549
:1007CC0045EA0905C8F808501D681AF4803F14BFA3
:1007DC002543A5431D605D681AF4003F14BF2543F3
:1007EC00A5435D609D681AF4801F14BF2543A54383
:1007FC009D60DD681AF4001F14BF2C4325EA040425
:10080C00DC600136102E7FF474AF03B0BDE8F08FBE
:10081C00032D22D0112D85D1CA68043282E71B4FDB
:10082C00BD4209D012D8DFF870904D4504D009F5BF
:10083C0080394D457FF476AF8A68C2B1012A0CBF6E
:10084C00C0F81080C0F8148008226BE76545F3D01F
:10085C007545F1D0DFF84490EBE7002262E7CA68F7
:10086C0060E7CA6808325DE7CA680C325AE70422AE
:10087C0058E70025A2E70125A0E702259EE700BF67
:10088C00000401400010024000080140000021104B
:10089C000000311000003210000011100000221076
:1008AC002DE9F04F00224FF001094FF00F0E4FF0E1
:1008BC00040A304CDFF8C4B031FA02F301D1BDE8C0
:1008CC00F08F09FA02F30B404CD0FF2B98BF074670
:1008DC006FEA030385BF02F18045083DD0F800C0E4
:1008EC00D0F804C094BF9500AD000EFA05F62CEAC2
:1008FC0006060AFA05F588BF071D2E433E60C5683B
:10090C0002F003071D40C56022F0030505F1804588
:10091C0005F58035AE68BF000EFA07F808EA060C3C
:10092C00154EB04220D006F58066B0421ED006F5BA
:10093C008066B0421CD058450CBF03260426BE402E
:10094C0066450FD1AE6826EA0806AE6025681D40E4
:10095C00256065681D406560A5681D40A560E5685B
:10096C002B40E3600132A7E70026E8E70126E6E723
:10097C000226E4E700040140000801400014014095
:10098C008368194214BF0120002070470AB101612D
:10099C0070470904FBE7C3685940C16070474FF4C6
:1009AC00803382B00193019B0B430193019B8361C4
:1009BC008161019B836183690193806980F480303C
:1009CC00C0F3004002B07047704708B5034B59693B
:1009DC00014202D05861FFF7F7FF08BD0004014047
:1009EC0000210D4B5A6822F003025A601A6822F05B
:1009FC00847222F480321A601A6822F480221A60FF
:100A0C0059601A6822F0F80242F080021A6099606C
:100A1C00024A034B1A6070470010024000127A0021
:100A2C000000002003682DE9F341DB07054610D4D4
:100A3C002B689F075ED42B68190700F195802B68F3
:100A4C005A0700F1BF80EA69002A40F02D8100208E
:100A5C0014E0904C636803F00C03042B07D063681C
:100A6C0003F00C03082B0CD16368DE0309D5236853
:100A7C009C03DDD56B68002BDAD1012002B0BDE8F8
:100A8C00F0816B68B3F5803F10D1236843F4803359
:100A9C002360FFF7A3FC064623689803C8D4FFF72E
:100AAC009DFC801B6428F7D90320E7E79BB92368DA
:100ABC0023F480332360236823F480232360FFF71F
:100ACC008DFC064623689903B2D5FFF787FC801B83
:100ADC006428F7D9E8E7B3F5A02F236803D143F4D2
:100AEC0080232360D1E723F480332360236823F42D
:100AFC008023CDE7674C636813F00C0F07D0636855
:100B0C0003F00C03082B10D16368DA030DD42368AF
:100B1C009B0702D52B69012BAFD123686A6923F09F
:100B2C00F80343EAC203236085E72A695A4B6AB18A
:100B3C0001221A60FFF752FC064623689F07ECD48B
:100B4C00FFF74CFC801B0228F7D9ADE71A60FFF7C2
:100B5C0045FC0646236898077FF56DAFFFF73EFC12
:100B6C00801B0228F6D99FE7AA694A4C4B4BDAB195
:100B7C0001221A60FFF732FC0646636A9B070DD50B
:100B8C004FF4FA52464B1B68B3FBF2F3019300BFD0
:100B9C00019B5A1E0192002BF9D150E7FFF71EFC66
:100BAC00801B0228E9D97FE71A60FFF717FC06467D
:100BBC00636A9F077FF543AFFFF710FC801B022889
:100BCC00F6D971E7334CE369D80024D40127E369E3
:100BDC0043F08053E361E36903F080530093009B7F
:100BEC00304E3368D90518D5EB68012B26D1236A12
:100BFC0043F001032362FFF7F1FB41F28836804694
:100C0C00236A9B073FD5002F3FF41DAFE36923F008
:100C1C008053E36117E70027E2E7336843F48073FE
:100C2C003360FFF7DBFB80463368DA05DCD4FFF773
:100C3C00D5FBA0EB08006428F6D935E7ABB9236ADD
:100C4C0041F2883823F001032362236A23F0040362
:100C5C002362FFF7C3FB0646236A9807D3D5FFF739
:100C6C00BDFB801B4045F7D91EE7052B236A03D13A
:100C7C0043F004032362BAE723F001032362236ADF
:100C8C0023F00403B6E7FFF7A9FBA0EB0800B04282
:100C9C00B6D909E7001002400000424280044242EB
:100CAC000000002000700040224C636803F00C032D
:100CBC00082B3FF4E2AE00231F4E022A33602BD1E7
:100CCC00FFF78CFB0746236899011FD42B6AB3F5F9
:100CDC00803F05D16268A96822F400320A43626041
:100CEC00696A62680B4322F4741213436360012334
:100CFC003360FFF773FB054623689A013FF5A7AEF7
:100D0C00FFF76CFB401B0228F6D9CDE6FFF766FB1C
:100D1C00C01B0228D7D9C7E6FFF760FB054623683E
:100D2C009B017FF594AEFFF759FB401B0228F6D9C7
:100D3C00BAE600BF001002406000424200220223CB
:100D4C0030B587B0CDE90332032305934FF480739C
:100D5C000B4C0293A3690D4643F00403A361A369F2
:100D6C0002A903F0040301930648019BFFF7B8FCAA
:100D7C00616821F0E0612943616007B030BD00BFBC
:100D8C0000100240000801400122014B1A6070471C
:100D9C004C0042420022014B1A6070474C00424208
:100DAC0030B5194B87B002AC03F110052246186818
:100DBC005968083303C2AB421446F7D140F2012301
:100DCC001249ADF804304B6803F00C02082A18D114
:100DDC00C3F38342DB0348BF4B6806A8024448BFF9
:100DEC00C3F3404312F8100C41BF06AA9B1813F82A
:100DFC00142C074B54BF074BB3FBF2F3584307B00B
:100E0C0030BD0348FBE700BF34120008001002405D
:100E1C0000127A0000093D004C4A2DE9F04113689C
:100E2C00054603F007038B420E4627D32A68910729
:100E3C0031D4D20737D4454A136803F00703B342C1
:100E4C0071D82A68424C12F0040F77D1130706D5DB
:100E5C0063682A6923F4605343EAC2036360FFF7B3
:100E6C009FFF63683B4AC3F30313D35CD8403A4BF0
:100E7C0018600020FFF784FA00200AE0136823F0C2
:100E8C0007030B431360136803F007038B42CDD0A9
:100E9C000120BDE8F0812E49A8684B6823F0F003CF
:100EAC0003434B60C5E76A68294C012A23681BD1B0
:100EBC0013F4003FECD0636841F2883823F003034D
:100ECC0013436360FFF78AFA6B680746012B13D153
:100EDC00636803F00C03042BADD0FFF77FFAC01B43
:100EEC004045F5D90320D4E7022A02D113F0007F44
:100EFC00E0E713F0020FDDE7022B0FD1636803F07C
:100F0C000C03082B97D0FFF769FAC01B4045F5D9A5
:100F1C00E8E7FFF763FAC01B4045E3D8636813F0BA
:100F2C000C0FF6D187E7136823F0070333431360E4
:100F3C00136803F00703B342AAD182E76368E96838
:100F4C0023F4E0630B43636080E700BF00200240A2
:100F5C00001002401C12000800000020014B186811
:100F6C00704700BF00000020044B054A5B68C3F3C8
:100F7C000223D35C034A1068D8407047001002402B
:100F8C002C12000800000020044B054A5B68C3F3D8
:100F9C00C223D35C034A1068D8407047001002404B
:100FAC002C120008000000200F2303601D4B1A6850
:100FBC0052032AD54FF4A02242605A6802F4003240
:100FCC0082601A6812F0010218BF012202611A68CD
:100FDC00C2F3C40242611A6A51071DD50522C260D0
:100FEC005A6A12F0010218BF012282611A68D201FA
:100FFC004CBF02220122C2615A6802F480320262A2
:10100C005B6803F47013436270471A6812F4803201
:10101C0018BF4FF48032CFE71A6A12F0010218BFE2
:10102C000122DCE7001002400F2303600B4B5A68CF
:10103C0002F0030242605A6802F0F00282605A68C1
:10104C0002F4E062C2605B68DB0803F4E0630361F6
:10105C00034B1B6803F007030B6070470010024042
:10106C0000200240704708B5044B9B681B0604D552
:10107C00FFF7F8FF8022024B1A7008BD00100240E7
:10108C000A10024010B5054C236833B14FF40051DF
:10109C000348FFF780FC0023236010BD20000020D4
:1010AC00001001400122014B1A6070472000002003
:1010BC0070B50D4E0D4D761BB61006D000240134C4
:1010CC0055F8043B9847A642F9D1094E094D00F05A
:1010DC0093F8761BB61006D00024013455F8043B67
:1010EC009847A642F9D170BD44120008441200087A
:1010FC00481200084412000800B589B0FFF754F9F3
:10110C00FFF742F8254B4FF400519A69244842F0FE
:10111C0010029A619A69022402F010020092009A5D
:10112C009A6942F020029A619A6902F020020192B7
:10113C00019A9A6942F008029A619A6902F00802CF
:10114C000292029A9A6942F004029A619B69002207
:10115C0003F004030393039BFFF718FC4FF40052B6
:10116C00012304A90E48CDE904230794FFF7B8FA2C
:10117C004FF400610B4B0C48CDE9041304A9069401
:10118C00FFF7AEFA002228201146FFF7B1F928200C
:10119C00FFF7E2F9FFF776FFFCE700BF0010024013
:1011AC000010014000003110000C0140002103E050
:1011BC000B4B5B58435004310A480B4B42189A4274
:1011CC00F6D30A4A02E0002342F8043B084B9A4249
:1011DC00F9D3FFF771F8FFF76BFFFFF78DFF70473F
:1011EC004C12000800000020040000200400002025
:1011FC0028000020FEE70000F8B500BFF8BC08BCD2
:10120C009E467047F8B500BFF8BC08BC9E467047B8
:10121C00000000000000000001020304060708099A
:10122C00000000000102030402030405060708097C
:08123C000A0B0C0D0E0F10103F
:041244007501000828
:041248004D0100084C
:04124C0000A24A04AE
:04000005080011B925
:00000001FF
