:020000040800F2
:1000000000500020E17D0008152700082127000886
:10001000272700082D2700083327000800000000CC
:10002000000000000000000000000000917F0008B8
:10003000392700080000000041810008452700081A
:10004000297E0008297E0008297E0008297E0008F4
:10005000297E0008297E0008297E0008297E0008E4
:10006000297E0008297E0008297E0008297E0008D4
:10007000297E0008297E0008297E0008297E0008C4
:10008000297E0008297E0008297E0008297E0008B4
:1000900051270008297E0008297E0008297E0008D3
:1000A000297E0008297E0008297E0008297E000894
:1000B000297E00086527000885270008297E00089A
:1000C000297E0008297E0008297E0008297E000874
:1000D000297E0008297E0008297E0008297E000864
:1000E000297E0008297E0008297E00080000000003
:1000F0000000000000000000000000000000000000
:0C01000000000000000000005FF808F1A3
:100110000348044B834202D0034B03B11847704796
:10012000AC090020AC090020000000000548064989
:10013000091A891001EBD171491002D0034B03B1A8
:1001400018477047AC090020AC09002000000000EF
:1001500010B5064C237843B9FFF7DAFF044B13B10F
:100160000448AFF300800123237010BDAC090020C8
:1001700000000000D4A2000808B5044B1BB10449DC
:100180000448AFF30080BDE80840CFE7000000005E
:10019000B0090020D4A2000870B50D4E0D4D761B9D
:1001A000B61006D00024013455F8043B9847A64207
:1001B000F9D1094E094D0AF08DF8761BB61006D01C
:1001C0000024013455F8043B9847A642F9D170BD8C
:1001D000D4B90008D4B90008D8B90008D4B90008C7
:1001E000844641EA000313F0030349D1403A23D384
:1001F0000B6803604B6843608B688360CB68C360A7
:100200000B6903614B6943618B698361CB69C3618E
:100210000B6A03624B6A43628B6A8362CB6AC36276
:100220000B6B03634B6B43638B6B8363CB6BC3635E
:1002300040304031403ADBD230320BD30B680360A0
:100240004B6843608B688360CB68C36010301031AB
:10025000103AF3D20C3205D351F8043B40F8043B7A
:10026000043AF9D2043208D0D2071CBF11F8013B7E
:1002700000F8013B01D30B8803806046704700BF44
:10028000082A13D38B07B1D010F00303AED0C3F10B
:100290000403D21ADB071CBF11F8013B00F8013B35
:1002A000A4D331F8023B20F8023B9FE7043AD9D3AC
:1002B000013A11F8013B00F8013BF9D20B780370C9
:1002C0004B7843708B78837060467047F0B4860734
:1002D00043D0541E002A3ED0CAB2034602E014F1B5
:1002E000FF3438D303F8012B9D07F8D1032C2BD909
:1002F000CDB245EA05250F2C45EA054516D9A4F1EE
:1003000010073F0903F1200606EB071603F1100260
:1003100042E9045542E902551032B242F8D104F0E4
:100320000F040137032C03EB07130DD91E46224699
:10033000043A032A46F8045BFAD8221F22F003028B
:100340000432134404F003042CB1C9B21C4403F872
:10035000011B9C42FBD1F0BC704714460346C5E725
:1003600008B430B5002A9CB0044634DB4FF4027365
:1003700002910691ADF814304FF6FF7120AD16D002
:10038000013A04920792ADF816101F9A2B4602A963
:10039000019500F0DDF8421C01DA8B232360002276
:1003A000029B1A701CB0BDE8304001B070472B466C
:1003B00004920792ADF816101F9A02A9019500F059
:1003C000C7F8431C04DB1CB0BDE8304001B07047E7
:1003D0008B232360F7E78B224FF0FF302260F2E798
:1003E0000CB430B5204B00299DB01C6836DB4FF4AF
:1003F000027302900690ADF814304FF6FF7021ADF5
:1004000017D00139209A04910791ADF816002B46B8
:1004100002A92046019500F09BF8421C01DA8B23CB
:1004200023600022029B1A701DB0BDE8304002B06C
:1004300070472B4604910791ADF81600209A02A947
:100440002046019500F084F8431C04DB1DB0BDE894
:10045000304002B070478B232360F7E78B234FF0C7
:10046000FF302360F2E700BF000000200CB470B53D
:100470006FF000459CB020AC54F8042B094E02915B
:100480000691234602A901940795CDE9045600F090
:100490005FF80022029B1A701CB0BDE8704002B0E9
:1004A000704700BF0802FFFF0EB4034630B56FF07F
:1004B00000449CB01FA951F8042B0A480A4D02932E
:1004C000069301910B46006802A90794CDE9044503
:1004D00000F03EF80022029B1A701CB0BDE83040CC
:1004E00003B07047000000200802FFFF40EA01034C
:1004F0009B0770B42AD1032A28D90C46034621460B
:1005000054F8046BA6F1013525EA060515F0803F85
:1005100006D1043A032A43F8046B2146EFD89AB176
:100520000C78013A1C7001333CB16AB111F8014FEB
:10053000013A03F8014B002CF7D12AB100211A44EB
:1005400003F8011B9342FBD170BC70470346E6E7FA
:100550002DE9F04F8846898995B0090693460493A2
:10056000824604D5D8F81030002B00F0B582002365
:10057000079301939BF80030002B00F0F080252BAF
:100580005C4603D11AE0252B00F0F68014F8013FF9
:10059000002BF8D1B4EB0B0500F0E1805A462B4656
:1005A0004146504600F054FE013000F0D880019AD8
:1005B00023782A440192002B00F0D18000214FF0D3
:1005C000000304F1010B084689460E464FF0FF3444
:1005D0008DF823309BF800200BF1010BA2F12003D2
:1005E000582B00F28682DFE813F08D01840284022A
:1005F0009301840284028402840284028402CF0074
:10060000EC008402DA00B3018402CC01DD00DD00DD
:10061000DD00DD00DD00DD00DD00DD00DD00840249
:10062000840284028402840284028402840284029A
:1006300084022B02840284028402840284028402E3
:1006400084028402840284024902840284028402B5
:10065000840284025102840284029601840284028C
:10066000840284028402840284028402840284025A
:10067000CF01DF018402840284021902DF018402B7
:100680008402CC008402680261015902CC00840219
:10069000700184025900840284021C02049AF70645
:1006A00052F8043B049200F16282720640F15F82CC
:1006B00001229BB24FF000018DF82310611C14A899
:1006C00000F04D8226F0800500210295002B40F0BD
:1006D0008581002C40F04D82002A40F0458216F0C2
:1006E0000103039300F05982302314AD05F8013D56
:1006F000039BA342B8BF23461F4601B10137029BAB
:1007000013F002030593029B18BF023713F0840312
:10071000069303D1A9EB0706002E5FDC9DF823307A
:10072000002B69D1059B002B72D1069B802B7AD0C0
:10073000039BE41A002C40F39480102C40F30582B4
:10074000BB4E02E0102C40F300821023324641469B
:10075000504600F07DFD0130A4F11004F2D1B8F84C
:100760000C3013F0400F019B18BF4FF0FF33019383
:10077000019815B0BDE8F08FB4EB0B053FF41EAF48
:100780000CE746F0100625E7049BD3F800900433ED
:10079000B9F1000F0493BFF61DAFC9F1000946F08F
:1007A000040617E74FF00009A2F130031BF8012BF4
:1007B00009EB890903EB4909A2F13003092BF5D9AB
:1007C0000CE701212B2005E710239A4A41465046A9
:1007D00000F03EFD0130A6F11006C0D0102EF3DC73
:1007E0003346944A4146504600F032FD0130B6D0BF
:1007F0009DF82330002B95D001230DF123024146B3
:10080000504600F025FD0130A9D0059B002B8CD06F
:10081000022309AA4146504600F01AFD01309ED03D
:10082000069B802B84D1A9EB0706002E80DD09E012
:1008300010237F4A4146504600F00AFD0130A6F1E0
:1008400010068CD0102EF3DC3346794A41465046D0
:1008500000F0FEFC013082D0039BE41A002C3FF72D
:100860006CAF039B2A464146504600F0F1FC013034
:100870003FF475AF029B590740F15481A9EB07047F
:10088000002C40F34F81102C40F34381694D02E06E
:10089000102C40F33E8110232A464146504600F07A
:1008A000D7FC0130A4F11004F2D158E7049A16F0F5
:1008B000100152F8043B049240F08B8116F0400284
:1008C0003FF4F8AE9BB20A46F4E64FF00002049BF8
:1008D0008DF823201D681F1D002D00F06781611C0D
:1008E00000F06D8122460021284600F027FC0028F8
:1008F00000F05581431BCDE9033702969DF8231084
:100900000024F5E600287FF465AE0121202061E691
:1009100046F001065EE6002940F07781464B0793DA
:100920000499F70651F8043B049102D4750648BFB8
:100930009BB2F00740F11681002B00F013813021AB
:100940008DF8252046F002068DF824100222B1E62B
:100950009BF800200BF1010B2A2A00F03C81A2F148
:100960003003092B4FF000043FF638AE1BF8012B83
:1009700004EB840403EB4404A2F13003092BF5D902
:100980002CE646F0800625E601274FF00001049A88
:100990008DF82310136803978DF82830131D0493E6
:1009A0000AAD02960024AAE6002940F02281049AAA
:1009B00052F8043B0492F20602D4750648BF1BB2FB
:1009C000002B48DB621C9DF8231014A84BD026F0A6
:1009D000800501220295002B3FF47BAE012A43D013
:1009E000022A00F0A68014AE00E02E4603F00702B3
:1009F0003032DB0806F8012C06F1FF35F5D1029BF9
:100A0000DF0740F19F80302A00F09C803023023EB7
:100A1000821B05F8013C0392354669E646F0400624
:100A2000D8E5002940F0EB80044B079378E700BF3E
:100A300094A4000884A40008A4B90008B8B9000868
:100A4000002940F0D980049A46F0100652F8043B81
:100A5000002B0492B6DA2D21621CC3F100038DF83D
:100A6000231014A8B3D10296092B00F286803033EC
:100A700014AD05F8013D0123039339E6049A46F0CD
:100A8000100652F8043B0492002213E6049A46F042
:100A9000100652F8043B049201220BE647F630039D
:100AA000049A5B490432ADF8243052F8043C46F015
:100AB0000206049207910222FCE5002940F0A28080
:100AC000049AF40652F8043B04921FD470061DD514
:100AD000BDF804201A804DE5402100F0A3F8C8F8C5
:100AE0000000C8F8100000287CD04023C8F814305B
:100AF0003DE5002A3FF433AE01274FF000038DF8A7
:100B000028208DF8233003970AAD4AE7019A1A602E
:100B100030E523463F4A4146504600F099FB0130FC
:100B20003FF41DAE019BB945ACBF4B44DB190193AB
:100B300020E5079E14AD03F00F02B25C1B0905F817
:100B4000012DF8D1431B0393D2E52346324A414697
:100B5000504600F07DFB01307FF483AEFFE5029646
:100B600000213BE70222A5E5039414ADC0E5012274
:100B7000A0E5012A7FF434AF79E7284E14ADA6FB37
:100B80000372D20802EB8207A3EB4703303305F868
:100B9000013D1346002AF2D1D4E714ADA8E5CDE912
:100BA0000347029604469DF82310A1E5062C234630
:100BB00028BF06231A4DCDE903371F46F1E6284624
:100BC0000497029600F016FB002403909DF8231072
:100BD0008EE500226EE5049B1C68043344EAE4744D
:100BE0000493F7E40C234FF0FF32CAF8003001926F
:100BF000BEE58DF82300DAE68DF8230023E78DF8B3
:100C0000230011E78DF823005AE78DF8230085E6CD
:100C1000B8B9000884A4000894A40008CDCCCCCCBA
:100C2000CCB900082DE9F04F01F10B05162D83B06A
:100C3000064623D8102900F2B68000F0C5FA102528
:100C400018230220CE4F3B445C68A3F10802944273
:100C500000F059816368E16823F0030323445A6874
:100C6000A56842F00102E96030468D605A6000F0EC
:100C7000ADFA0834204603B0BDE8F08F35F0070523
:100C800000F19180A94200F28E8000F09DFAB5F546
:100C9000FC7FC0F067816B0A00F08C80042B00F2AF
:100CA0003981AB0903F1390003F1380CC100B44FAD
:100CB00039444C680839A14206D10CE0002A80F280
:100CC0001E81E468A14206D0636823F003035A1B27
:100CD0000F2AF3DD60463C69DFF8A8C264456FD097
:100CE000636823F003035A1B0F2A00F32981002AAB
:100CF000C7E904CC80F21A81B3F5007F80F05581FA
:100D00000122DB08991013448A40796857F833E0D0
:100D100007EBC3080A43A8F10801C4E902E17A60BD
:100D200047F83340CEF80C40012483109C40944295
:100D30004CD8144206D120F003006400144200F1A4
:100D40000400FAD007EBC009CE468046DEF80C302E
:100D50009E4507D10AE1002A80F21881DB689E4592
:100D600000F00481596821F003014A1B0F2AF2DDCB
:100D700045F001083046D3E902E41D4442F0010683
:100D8000C3F80480CEF80C40C4F808E0C7E9045565
:100D9000C5E902CC6E605A50019300F017FA019B2E
:100DA00003F1080466E700240C232046336003B0F7
:100DB000BDE8F08F4FF4007140204FF03F0C76E714
:100DC00001247A6883109C409442B2D9BC6863685D
:100DD00023F00309A94503D3A9EB05030F2B7EDC00
:100DE000DFF8A4A1D7F80824DAF80030013205EBC7
:100DF000030800F0368108F5805808F10F0828F440
:100E00007F6828F00F084146304600F0E1F9B0F164
:100E1000FF3F834600F0F28004EB0901814200F2BB
:100E2000EB80DAF804304344CAF8043000F03A8129
:100E3000D7F8082401321BBFABEB01015B18C7F8E0
:100E400008B4CAF804301BF0070300F02081C3F196
:100E50000802C3F5805393440833D844C8F30B0801
:100E6000A3EB08084146304600F0B2F9431C00F0FD
:100E70003481A0EB0B02424442F00102DAF8043064
:100E8000BC424344C7F808B0CAF80430CBF8042089
:100E900014D0B9F10F0F40F21C814FF0050C6268BD
:100EA000A9F10C0121F0070102F001020A436018C8
:100EB0000F296260C0E901CC00F22881DAF82C2009
:100EC000BC68DAF830109342626888BFCAF82C30E8
:100ED0008B4222F0030288BFCAF8303092E045F01E
:100EE000010243F00103254462603046BD600834CE
:100EF0006B6000F06BF9204603B0BDE8F08F23442F
:100F00005A68E168ACE6DC68A34208BF02303FF4EF
:100F1000E2AE9FE6142B69D9542B00F2A5802B0B6F
:100F200003F16F0003F16E0CC100C0E623445A6860
:100F3000304642F001025A60083400F047F999E661
:100F400045F0010E42F001012544C4F804E03046AA
:100F5000C7E90455C5E902CC6960E25000F036F9F2
:100F6000083487E6E80805F108036BE608F1010894
:100F700018F0030F0EF1080E7FF4E8AE59E000BF41
:100F80003004002038040020C80900201C46194401
:100F90004A68DB6854F8085F42F001024A60304654
:100FA000EB609D6000F012F964E65A0A042A35D914
:100FB000142A6FD802F15C01C9005B3207EB010E05
:100FC0007958AEF1080E8E4558D04A6822F00302D7
:100FD0009A4202D989688E45F7D1D1F80CE07A6837
:100FE000C4E9021ECEF80840CC609DE603F15C0027
:100FF00003F15B0CC1005AE6BC4272D0BC68626867
:1010000022F003029542A2EB050302D80F2B3FF713
:1010100066AF304600F0DAF800242BE69A0902F1B8
:101020003901C9003832C9E7D9F80090994540F034
:10103000838010F0030FA9F1080300F1FF30F3D112
:101040007B6823EA04037B6064009C423FF6BEAEEB
:101050001CB9BBE6640008F104081C42FAD0404603
:1010600070E608F11008CEE6B3F5AA7F26D8EB0BA0
:1010700003F1780003F1770CC10018E64FF0010886
:101080007B68921008FA02F21A437A60A8E74FF4DC
:101090008053E2E6542A2AD81A0B02F16F01C900E4
:1010A0006E328BE7C1F30B02002A7FF4C1AE09EB6D
:1010B0000802B96842F001024A60FFE640F2545269
:1010C00093421DD8AB0C03F17D0003F17C0CC100F1
:1010D000EDE50123CBF804309BE701224FF0000837
:1010E000CCE6DAF804304344CAF80430A0E6B2F59E
:1010F000AA7F13D8DA0B02F17801C90077325DE7D5
:101100004FF47E717F204FF07E0CD0E504F1080192
:10111000304600F02DFDDAF80430CFE640F25451AD
:101120008A4205D89A0C02F17D01C9007C3245E75C
:101130004FF47E717E2241E77B6885E7830770B4B8
:10114000CDB23DD0541E0AB30378AB421FD0431C2E
:1011500005E014F1FF3419D30278AA4217D013F036
:10116000030F184603F10103F3D1032C11D84CB33C
:101170000378AB420BD00444431C02E00278AA423D
:1011800005D09C42184603F10103F7D1002070BC42
:10119000704706460A0292B22A4342EA0242336884
:1011A00030465340A3F1013121EA030313F0803F9D
:1011B00006F10406DCD1043C032C3046EFD8D6E718
:1011C0001446D2E72046E2E7704700BF704700BFF1
:1011D00038B50023064C05460846236006F0E2FDBC
:1011E000431C00D038BD2368002BFBD02B6038BDDA
:1011F0001843002020F0030110F00300C0F10000AC
:1012000051F8043B00F1040C4FEACC0C6FF00002E3
:101210001CBF22FA0CF213434FF0010C4CEA0C2CC9
:101220004CEA0C4CA3EB0C0222EA030212EACC12A9
:1012300004BF51F8043B0430F4D0C2F1000102EACB
:101240000102B2FA82F2C2F11F0200EBD200704733
:101250002DE9F0478E6880469E420C461D46174693
:10126000086828D8B1F80CC01CF4906F31D0D4E9CC
:10127000041606EB460606EBD676A0EB0109013311
:1012800076104B44B342324684BF1E4632461CF4AD
:10129000806F20D011464046FFF7C4FC824670B3F1
:1012A0004A462169FEF79CFFA38923F4906343F02B
:1012B0008003A38114E01E462A46394600F04CFD07
:1012C0000020A2682368961B2B44A6602360BDE81B
:1012D000F0873546F0E7404600F0A0FD824650B169
:1012E000A6EB09030AEB09006661C4F810A02060B0
:1012F000A3602E46E0E72169404600F039FC0C234C
:10130000C8F80030A3894FF0FF3043F04003A381B9
:10131000DDE700BF2DE9F04F936883B09046002BC6
:101320006CD0176882460C46086808378D6842E022
:10133000A38913F4906F2DD0D4E9041505EB45056E
:10134000A0EB010B05EBD575701C6D105844A8423D
:101350002A4684BF05462A465B0536D511465046C7
:10136000FFF760FC00283AD05A4621690190FEF749
:1013700037FFA289019B22F4906242F08002A28191
:10138000A5EB0B0203EB0B006561B3463546236109
:101390002060A2605A46494600F0DEFCD8F80830CA
:1013A000A2682068551B58449E1BA5602060C8F8A1
:1013B00008601EB3083757E90296AB46002EF9D0F5
:1013C000AE42B5D23546B346E4E7504600F026FDBE
:1013D00003460028D4D12169504600F0C9FB0C23F4
:1013E00000224FF0FF30CAF80030A38943F04003D9
:1013F000A381C8E9012203B0BDE8F08F0020C8F83E
:10140000040003B0BDE8F08F2DE9F04F88468989CC
:1014100095B0090693460493824604D5D8F8103057
:10142000002B00F0B4820023079301939BF8003057
:10143000002B00F0EF80252B5C4603D11AE0252B12
:1014400000F0F58014F8013F002BF8D1B4EB0B0548
:1014500000F0E0805A462B4641465046FFF7F8FE22
:10146000013000F0D780019A23782A440192002BA2
:1014700000F0D08000214FF0000304F1010B08467A
:1014800089460E464FF0FF348DF823309BF800203C
:101490000BF1010BA2F12003582B00F28582DFE84B
:1014A00013F08C0183028302920183028302830280
:1014B000830283028302CE00EB008302D900B201D3
:1014C0008302EB01DC00DC00DC00DC00DC00DC0083
:1014D000DC00DC00DC0083028302830283028302DF
:1014E00083028302830283028302F4018302830264
:1014F00083028302830283028302830283028302C4
:101500003302830283028302830283023B0283024B
:101510008302950183028302830283028302830292
:1015200083028302830283026602430283028302F0
:1015300083026302430283028302CB008302DA0147
:101540006001CB01CB0083026F018302590083024B
:101550008302EE01049AF70652F8043B049200F16C
:101560006082720640F15D8201229BB24FF0000161
:101570008DF82310611C14A800F04C8226F0800521
:1015800000210295002B40F09781002C40F04B8207
:1015900014AD002A40F0438216F00103039302D0F9
:1015A000302305F8013D039BA342B8BF23461F46E5
:1015B00001B10137029B13F002030593029B18BF90
:1015C000023713F08403069303D1A9EB0706002E1C
:1015D0005FDC9DF82330002B69D1059B002B72D175
:1015E000069B802B7AD0039BE41A002C40F3948056
:1015F000102C40F30582C04E02E0102C40F3008214
:101600001023324641465046FFF722FE0130A4F136
:101610001004F2D1B8F80C3013F0400F019B18BF42
:101620004FF0FF330193019815B0BDE8F08FB4EB94
:101630000B053FF41FAF0DE746F0100626E7049BAD
:10164000D3F800900433B9F1000F0493BFF61EAF36
:10165000C9F1000946F0040618E74FF00009A2F1AD
:1016600030031BF8012B09EB890903EB4909A2F1AF
:101670003003092BF5D90DE701212B2006E71023B4
:101680009E4A41465046FFF7E3FD0130A6F11006A1
:10169000C0D0102EF3DC3346984A41465046FFF73F
:1016A000D7FD0130B6D09DF82330002B95D0012313
:1016B0000DF1230241465046FFF7CAFD0130A9D083
:1016C000059B002B8CD0022309AA41465046FFF708
:1016D000BFFD01309ED0069B802B84D1A9EB07066D
:1016E000002E80DD09E01023834A41465046FFF773
:1016F000AFFD0130A6F110068CD0102EF3DC33467E
:101700007D4A41465046FFF7A3FD013082D0039B3E
:10171000E41A002C3FF76CAF039B2A464146504623
:10172000FFF796FD01303FF475AF029B590740F17A
:101730005481A9EB0704002C40F34F81102C40F397
:1017400043816E4D02E0102C40F33E8110232A4667
:1017500041465046FFF77CFD0130A4F11004F2D160
:1017600058E7049A16F0100152F8043B049240F036
:10177000888116F040023FF4F9AE9BB20A46F5E6C6
:10178000049B1D681F1D4FF000038DF82330002DB2
:1017900000F06481611C00F06A8122460021284625
:1017A000FFF7CCFC002800F05281431BCDE9033742
:1017B00002969DF823100024F5E600287FF466AE1B
:1017C0000121202062E646F001065FE6002940F094
:1017D00074814B4B07930499F70651F8043B04912D
:1017E00002D4750648BF9BB2F00740F11681002B6A
:1017F00000F0138130218DF8252046F002068DF887
:1018000024100222B2E69BF800200BF1010B2A2AD9
:1018100000F03981A2F13003092B4FF000043FF6AC
:1018200039AE1BF8012B04EB840403EB4404A2F152
:101830003003092BF5D92DE647F63003049A3149D8
:101840000432ADF8243052F8043C46F0020604920B
:10185000079102228AE6002940F02381049AF406C7
:1018600052F8043B049200F1AC80700640F1A9806C
:10187000BDF804201A80D9E546F0800606E6002966
:1018800040F018811F4B0793A5E7002940F00F8116
:10189000049A46F0100652F8043B0492002B51DBE8
:1018A000621C9DF8231014A854D026F08005012254
:1018B0000295002B3FF469AE012A4CD0022A00F0B9
:1018C000938014AE00E02E4603F007023032DB08AE
:1018D00006F1FF3506F8012CF5D1029BDF0740F138
:1018E0008C80302A00F089803023023E821B05F86C
:1018F000013C0392354656E6B4A40008A4A40008AF
:10190000A4B90008B8B90008049A46F0100652F8C5
:10191000043B0492002229E6049A46F0100652F88D
:10192000043B0492012221E6002940F0BD80049A84
:1019300052F8043B0492F206B0D4750648BF1BB2BD
:10194000002BADDA2D21621CC3F100038DF82310AA
:1019500014A8AAD10296092B69D8303314AD05F822
:10196000013D012303931EE646F040068EE5012764
:101970004FF00001049A8DF8231013680AAD8DF81A
:101980002830131D039704930296002412E6402189
:10199000FFF748F9C8F80000C8F81000002879D00F
:1019A0004023C8F814303EE5002A3FF433AE012747
:1019B0004FF000038DF828208DF823300AAD0397EF
:1019C000E2E7019A1A6031E523463D4A4146504616
:1019D000FFF73EFC01303FF41DAE019BB945ACBFA3
:1019E0004B44DB19019321E5079E14AD03F00F0270
:1019F000B25C1B0905F8012DF8D1431B0393D2E516
:101A00002346304A41465046FFF722FC01307FF41E
:101A100083AEFFE5029600214EE70222A6E503947D
:101A2000C1E50122A2E5012A7FF448AF95E7264EE1
:101A300014ADA6FB0372D20802EB8207A3EB4703A7
:101A4000303305F8013D1346002AF2D1D5E7CDE940
:101A50000347029604469DF82310A4E5062C23466E
:101A600028BF0623194DCDE903371F468CE72846CA
:101A700004970296FFF7BEFB002403909DF8231005
:101A800091E5002272E5049B1C68043344EAE47487
:101A90000493FBE40C234FF0FF32CAF800300192AC
:101AA000C1E58DF82300D9E68DF823003FE78DF8D6
:101AB0002300EDE68DF82300E4E68DF8230088E6A8
:101AC000A4A40008B4A40008CDCCCCCCCCB90008A8
:101AD000F8B50C46234F0646FFF776FBBB68C4F506
:101AE0007E615D680F3125F00305294421F47F6193
:101AF00021F00F01A1F58054B4F5805F07DB0021D0
:101B00003046FFF765FBBB682B44984204D0304653
:101B1000FFF75CFB0020F8BD61423046FFF758FB41
:101B200001300DD0104BBA6819682D1B45F0010526
:101B30003046091B55601960FFF748FB0120F8BDCE
:101B400000213046FFF744FBBA68831A0F2BDEDD15
:101B5000064943F001030C680349001B5360086009
:101B6000D5E700BF30040020CC0900203808002051
:101B7000002953D0F8B50D460646FFF725FB55F86A
:101B800004CC714FA5F108012CF00103CA18B86804
:101B90005468904224F0030453D01CF0010F5460A9
:101BA00002EB04003BD155F808CC4068A1EB0C01D6
:101BB0008D6807F1080E7545634400F0010075D08B
:101BC000D1F80CC0C5F80CC0CCF8085060B343F095
:101BD00001024A60CB50B3F5007F50D35A0A042A61
:101BE00070D89A0902F13905ED0002F138007C192C
:101BF0007A59083C944278D0506820F0030098420B
:101C000071D992689442F7D1E368C1E90243304642
:101C10009960E160BDE8F840FFF7D8BA70474068C6
:101C200000F001000028D2D19068484D2344A8421A
:101C300043F0010462D0D268C26090604C60CB5027
:101C4000C9E71CF0010F234407D155F8084C091BC4
:101C5000D1E902022344C26090603D4A43F0010092
:101C6000126848609A42B96004D83A4B3046196805
:101C7000FFF72EFF3046BDE8F840FFF7A7BA012274
:101C8000DB087C68981013448240224307EBC300B2
:101C900057F833400838C1E902407A60304647F8C7
:101CA0003310E160BDE8F840FFF790BA002845D155
:101CB000D2E90202234443F00104C26090604C6008
:101CC000CB50D7E7142A08D9542A1ED81A0B02F190
:101CD0006F05ED0002F16E0089E702F15C05ED0091
:101CE00002F15B0083E714468EE7012382107868D7
:101CF00003FA02F202437A60234686E7C7E9041139
:101D0000C1E902004C60CB50B4E7B2F5AA7F06D817
:101D1000DA0B02F17805ED0002F1770067E740F297
:101D20005450824206D89A0C02F17D05ED0002F172
:101D30007C005CE74FF47E757E2058E743F001009D
:101D40004860136096E700BF30040020380400208C
:101D50003C080020C80900208842F0B40DD98B1837
:101D600083420AD9841832B1224613F8014D9942B0
:101D700002F8014DF9D1F0BC70470F2A48D940EA6A
:101D800001039B0746D1A2F110031B0901F12007B3
:101D900007EB031701F1100400F1100554F8106C63
:101DA000103445F8106C54F81C6C103545F81C6C58
:101DB00054F8186C45F8186C54F8146CBC4245F88B
:101DC000146CEBD1013302F00F051B01032D1944F4
:101DD000034421D90F462C461E1F57F804CB043C60
:101DE000032C46F804CFF8D82C1F24F00304043445
:101DF0002344214402F00302002ABCD0013B0A44E0
:101E000011F8014B914203F8014FF9D1F0BC704732
:101E10000346F1E70346F1E72A46EDE72DE9F04FE7
:101E2000924683B0002900F0A1800D4680460AF159
:101E30000B04FFF7C9F955F8042C162C22F0030601
:101E4000A5F108073ED810242146A2453FD88E426E
:101E500007EB060974DAC84B9868484500F0AA8079
:101E6000D9F8040020F001034B445B68DB0740F124
:101E70008380D20734D551464046FEF7D3FE8246D2
:101E8000E0B155F8043CA0F1080223F001033B4403
:101E9000934200F00E81321F242A00F21481132A8B
:101EA000296800F2FB8003462A4619605168596090
:101EB00092689A6029464046FFF75AFE4046FFF76F
:101EC00085F94FE024F00704002C2146BDDA4FF0DD
:101ED000000A0C235046C8F8003003B0BDE8F08F6C
:101EE00055F8083CA7EB030BDBF8042022F00302B3
:101EF000B3188B42BFDBDA46DBF80C105AF8080F38
:101F0000321F242AC1600BEB0309886000F2BE80F7
:101F1000132A296840F2D580CBF8081069681B2A7B
:101F2000CBF80C10A96800F2E5800BF1100208351F
:101F3000116069681E465160AB685F465546936004
:101F40007A68331B0F2B02F0010222D832437A60E9
:101F5000D9F8043043F00103C9F804304046FFF7D4
:101F600035F9AA46504603B0BDE8F08F114603B0DC
:101F7000BDE8F04FFEF756BE20F0030033188B4249
:101F800063DBD9E902121E46CA6007EB03099160C0
:101F9000D6E73919224343F001037A604B60D9F840
:101FA0000430083143F00103C9F804304046FFF71C
:101FB000DFFDD3E7D0F8049004F1100029F0030905
:101FC000B144814580F28380D2073FF554AF55F884
:101FD000082CA7EB020BDBF8042022F0030291444B
:101FE000484585DCDA46DBF80C105AF8080F321F3A
:101FF000242AC160886000F2AB80132A296840F26D
:10200000A580CBF8081069681B2ACBF80C10A968CA
:1020100000F2A5800BF1100208351160696851606B
:10202000A9689160A9EB04020BEB040142F00102E4
:1020300099604A60DBF80430404603F001031C431A
:10204000CBF80440FFF7C2F88CE7D3073FF513AF96
:1020500055F8083CA7EB030BDBF8042022F0030241
:10206000104483198B42FFF643AFD9E90201DA46E7
:10207000C16088605AF8080FDBF80C10321F242A60
:10208000C1600BEB030988607FF642AF29465046DA
:102090001E465F46FFF760FE554651E701606B68DC
:1020A0001B2A436032D805F1080200F10803A96831
:1020B000FBE650F8043C23F003031E4407EB06093B
:1020C0003EE7524634E72946FFF746FEF2E6A9EB23
:1020D0000409274449F001029F607A6055F8043CE6
:1020E000404603F001031C4345F8044CFFF76EF82B
:1020F000AA4637E7CBF81010E968242ACBF8141069
:1021000029690FD00BF11802103511E7AB68242AAA
:102110008360EB68C3600FD005F1100200F110037B
:102120002969C2E6CBF8181069690BF12002CBF8D7
:102130001C10A9691835FBE62B6905F1180203612B
:10214000696900F118034161A969AEE6524664E786
:10215000294650460193FFF7FFFD019B62E7CBF84C
:102160001010E968242ACBF81410296906D00BF165
:102170001802103551E700BF30040020CBF81810CA
:1021800069690BF12002CBF81C10A969183544E7E6
:10219000B0B594B000AF00F0E1FF00F05BF800F0E4
:1021A00041F900F0B9F800F0E9F8224B07F13C04DE
:1021B0001D460FCD0FC42B68236007F13C0300219F
:1021C000184605F050FE02461B4B1A601B4B07F1E8
:1021D00028041D460FCD0FC42B68236007F1280388
:1021E0000021184605F03FFE0246154B1A60154BBC
:1021F00007F114041D460FCD0FC42B68236007F1AF
:1022000014030021184605F02EFE02460E4B1A60FC
:102210000E4B3C461D460FCD0FC42B6823603B463A
:102220000021184605F01FFE0246094B1A6005F012
:1022300013FEFEE7F8A20008900A002020A3000881
:10224000940A002044A30008980A002060A3000814
:102250009C0A002080B594B000AF0123BB624FF40C
:102260008033FB6200233B630123BB6302237B6457
:102270004FF48033BB644FF4E013FB6407F1280391
:10228000184602F083FD0346002B03D0C0212048EE
:1022900000F032F90F237B610223BB610023FB6155
:1022A0004FF480633B6200237B6207F11403022139
:1022B000184602F0CFFF0346002B03D0CE2114486E
:1022C00000F01AF910237B6000233B613B1D184688
:1022D00003F082F90346002B03D0D5210C4800F00F
:1022E0000BF903F00DF902460A4BA3FB02239B09ED
:1022F000184601F07CF8042001F086F800220F2136
:102300004FF0FF3001F049F800BF5037BD4680BDA7
:1023100074A30008D34D621080B500AF134B144A6C
:102320001A60124B134A5A60104B00229A600F4BEE
:102330000022DA600D4B4FF480421A610B4B0022F1
:102340005A610A4B00229A61084B0022DA61074B5E
:1023500000221A62054801F0E9F90346002B03D078
:10236000F321054800F0C8F800BF80BDFC0900203B
:1023700000540040A086010074A3000880B586B018
:1023800000AF254B254A1A60234B47225A60224B47
:1023900000229A60204B4FF6FE72DA601E4B00223C
:1023A0001A611D4B00229A611B4803F019FA03467B
:1023B000002B04D040F20711194800F09DF80023CB
:1023C0003B6100237B6107F110031946124803F0BB
:1023D000C2FE0346002B04D04FF48771104800F072
:1023E0008BF802233B6001237B600023BB6000234A
:1023F000FB603B4600221946074803F0F5FB034605
:10240000002B04D040F21711054800F075F800BF0A
:102410001837BD4680BD00BF500A002000040040B0
:1024200074A3000880B588B000AF234B9B69224A93
:1024300043F010039361204B9B6903F01003FB6092
:10244000FB681D4B9B691C4A43F0200393611A4BA8
:102450009B6903F02003BB60BB68174B9B69164A5E
:1024600043F004039361144B9B6903F004037B6006
:102470007B68114B9B69104A43F0080393610E4B34
:102480009B6903F008033B603B6800224FF4005156
:102490000A4801F033F94FF400533B6101237B619B
:1024A0000223FB6107F110031946044800F0C8FF3E
:1024B00000BF2037BD4680BD001002400010014023
:1024C00080B582B000AF786000F09AF9012005F085
:1024D000F1FCFBE780B582B000AF78607B681B68D9
:1024E000044A934201D100F04FFE00BF0837BD46B9
:1024F00080BD00BF0008004080B483B000AF7860AA
:102500003960FEE780B582B000AF244B9B69234A57
:1025100043F001039361214B9B6903F001037B604E
:102520007B68032000F02EFF002200216FF00B00DB
:1025300000F033FF002200216FF00A0000F02DFFB1
:10254000002200216FF0090000F027FF0022002187
:102550006FF0040000F021FF002200216FF0030063
:1025600000F01BFF00220F216FF0010000F015FFAB
:1025700000220F214FF0FF3000F00FFF084B5B6887
:10258000074A23F0E0635360054B5B68044A43F05D
:102590000073536000BF0837BD4680BD0010024085
:1025A0000000014080B588B000AF78607B681B6890
:1025B0000F4A934217D1C0233B6112237B6103234F
:1025C000FB6107F1100319460A4800F039FF0A4B76
:1025D000DB69094A43F40013D361074BDB6903F459
:1025E0000013FB60FB6800BF2037BD4680BD00BF05
:1025F00000540040000C01400010024080B588B03B
:1026000000AF78607B681B68134A93421FD1134B5D
:10261000DB69124A43F00203D361104BDB6903F01C
:102620000203FB60FB6840233B6100237B610023C6
:10263000BB6107F110031946094800F001FF0022B1
:1026400005211D2000F0A9FE1D2000F0C2FE00BFE4
:102650002037BD4680BD00BF00040040001002408E
:102660000008014080B58CB000AF78600023FB62A9
:102670000023BB62002279681E2000F08EFE1E201F
:1026800000F0A7FE1F4BDB691E4A43F00403D36131
:102690001C4BDB6903F00403FB60FB6807F11002CD
:1026A00007F114031146184602F048FF02F032FF0A
:1026B00003465B00FB62FB6A134AA2FB03239B0CED
:1026C000013BBB62114B124A1A60104B40F2E732D9
:1026D000DA600E4ABB6A53600C4B00221A610B4B46
:1026E00000229A60094803F02DF80346002B04D11C
:1026F000064803F05BF8034600E001231846303734
:10270000BD4680BD0010024083DE1B43A00A0020AE
:102710000008004080B400AF00BFBD4680BC7047D9
:1027200080B400AFFEE780B400AFFEE780B400AF36
:10273000FEE780B400AFFEE780B400AF00BFBD4647
:1027400080BC704780B500AF05F0C8FB00BF80BDFE
:1027500080B500AF024801F0C7FC00BF80BD00BFDC
:10276000041D002080B500AF044803F035F9044B88
:10277000012283F8252000BF80BD00BF500A002041
:102780008825002080B500AF024803F025F900BF7E
:1027900080BD00BFA00A002080B400AF154B1B68AD
:1027A000144A43F001031360124B5A681149124B4B
:1027B00013404B600F4B1B680E4A23F0847323F4C5
:1027C000803313600B4B1B680A4A23F48023136089
:1027D000084B5B68074A23F4FE035360054B4FF434
:1027E0001F029A60054B4FF000629A6000BFBD4621
:1027F00080BC7047001002400000FFF800ED00E0D0
:1028000080B500AF00220849084806F047FE084995
:10281000064806F06EFE0749044806F0D3FD03485B
:1028200006F080FE00BF80BD54080020E00A0020B2
:10283000A80800204408002080B500AF0022054908
:10284000054806F0D5FD0549034806F0EAFD0023DA
:10285000184680BD04150020E00A0020040D002069
:1028600080B400AF00231846BD4680BC704700000E
:1028700080B483B000AF03463960FB711346BB8060
:10288000FB79232B4AD801A252F823F01D29000816
:102890001D2900081D2900081D2900081D29000800
:1028A0001D2900081D2900081D2900081D290008F0
:1028B0001D2900081D2900081D2900081D290008E0
:1028C0001D2900081D2900081D2900081D290008D0
:1028D0001D2900081D2900081D2900081D290008C0
:1028E0001D2900081D2900081D2900081D290008B0
:1028F0001D2900081D2900081D2900081D290008A0
:102900001D2900081D2900081D2900081D2900088F
:102910001D2900081D2900081D29000800BF0023EB
:1029200018460C37BD4680BC704700BF80B584B0E8
:1029300000AF786039607968124806F072FD11487E
:1029400006F082FD3B681B68052B16D90B23FB6044
:10295000FA6800210C48FDF7B9FCFA6879680A4862
:10296000FDF7C4FD3B681B68FA689A4205D93B68CD
:102970001B68013B044A0021D1540023184610373C
:10298000BD4680BDE00A0020B025002080B584B09F
:1029900000AF78607B681B680D4A934213D10D4BE2
:1029A000DB690C4A43F40003D3610A4BDB6903F48F
:1029B0000003FB60FB6800220521142000F0EDFC01
:1029C000142000F006FD00BF1037BD4680BD00BFDB
:1029D000005C00400010024080B582B000AF78601B
:1029E0007B68D3F85C247B6803F22C4319461046BD
:1029F00006F0E0FD00BF0837BD4680BD80B582B05F
:102A000000AF78600B46FB707B68D3F85C04FB7802
:102A10007A685B01134403F50F731A68FB78194653
:102A200006F012FE00BF0837BD4680BD80B582B0FB
:102A300000AF78600B46FB707B68D3F85C04FB78D2
:102A40007A685B0113443C331A68FB78194606F038
:102A500056FE00BF0837BD4680BD80B582B000AFCE
:102A600078607B68D3F85C34184606F039FF00BF05
:102A70000837BD4680BD80B584B000AF78600123C3
:102A8000FB737B689B68022B02D10123FB7302E07E
:102A90000123FB7300BF7B68D3F85C34FA7B1146DB
:102AA000184606F0EAFE7B68D3F85C34184606F058
:102AB000B5FE00BF1037BD4680BD000080B582B0B6
:102AC00000AF78607B68D3F85C34184606F0E4FE0B
:102AD0007B689B69002B05D0044B1B69034A43F0BC
:102AE0000603136100BF0837BD4680BD00ED00E05E
:102AF00080B582B000AF78607B68D3F85C3418464C
:102B000006F0DEFE00BF0837BD4680BD80B582B04E
:102B100000AF78602B4A7B68C2F85C347B68294A36
:102B2000C3F82022274B284A1A60264B08225A60F5
:102B3000244B02229A60234B0322DA60214B0022AD
:102B40009A61204B0022DA611E4B00221A621D4856
:102B500001F0CAF90346002B04D04FF48D711B48D5
:102B6000FFF7CAFC7B68D3F820021823002200215B
:102B700002F0CEF87B68D3F820025823002280218F
:102B800002F0C6F87B68D3F82002C023002281211E
:102B900002F0BEF87B68D3F820024FF4887300225D
:102BA000012102F0B5F87B68D3F820024FF480735E
:102BB0000022822102F0ACF8002318460837BD46F7
:102BC00080BD00BF041D0020005C0040A8A30008D9
:102BD00080B584B000AF78600023BB730023FB7323
:102BE0007B68D3F82032184601F058FA0346BB73CD
:102BF000BB7B032B16D801A252F823F00D2C000842
:102C0000132C0008192C00081F2C00080023FB734C
:102C10000BE00223FB7308E00123FB7305E00223B2
:102C2000FB7302E00223FB7300BFFB7B18461037E7
:102C3000BD4680BD80B584B000AF786008461146BF
:102C40001A460346FB700B46BB7013463B800023BD
:102C5000BB730023FB737B68D3F82002BB783A88F0
:102C6000F97801F068FB0346BB73BB7B032B17D8D5
:102C700001A252F823F000BF892C00088F2C000815
:102C8000952C00089B2C00080023FB730BE002230B
:102C9000FB7308E00123FB7305E00223FB7302E0F2
:102CA0000223FB7300BFFB7B18461037BD4680BD77
:102CB00080B584B000AF78600B46FB700023BB7317
:102CC0000023FB737B68D3F82032FA78114618464C
:102CD00001F086FB0346BB73BB7B032B16D801A216
:102CE00052F823F0F52C0008FB2C0008012D0008F9
:102CF000072D00080023FB730BE00223FB7308E0A1
:102D00000123FB7305E00223FB7302E00223FB7344
:102D100000BFFB7B18461037BD4680BD80B584B030
:102D200000AF78600B46FB700023BB730023FB737E
:102D30007B68D3F82032FA781146184601F022FC5D
:102D40000346BB73BB7B032B16D801A252F823F0BA
:102D5000612D0008672D00086D2D0008732D0008F7
:102D60000023FB730BE00223FB7308E00123FB73DA
:102D700005E00223FB7302E00223FB7300BFFB7B31
:102D800018461037BD4680BD80B584B000AF78606E
:102D90000B46FB700023BB730023FB737B68D3F8E7
:102DA0002032FA781146184601F041FC0346BB7305
:102DB000BB7B032B16D801A252F823F0CD2D0008BF
:102DC000D32D0008D92D0008DF2D00080023FB7348
:102DD0000BE00223FB7308E00123FB7305E00223F1
:102DE000FB7302E00223FB7300BFFB7B1846103726
:102DF000BD4680BD80B485B000AF78600B46FB70E7
:102E00007B68D3F82032FB6097F90330002B08DA97
:102E1000FB7803F07F03FA685B0113442A331B78C5
:102E200008E0FB7803F07F03FA685B01134403F2C8
:102E30002A231B7818461437BD4680BC7047000013
:102E400080B584B000AF78600B46FB700023BB7385
:102E50000023FB737B68D3F82032FA7811461846BA
:102E600001F044FA0346BB73BB7B032B16D801A2C7
:102E700052F823F0852E00088B2E0008912E0008B2
:102E8000972E00080023FB730BE00223FB7308E07E
:102E90000123FB7305E00223FB7302E00223FB73B3
:102EA00000BFFB7B18461037BD4680BD80B586B09D
:102EB00000AFF8607A601A460B46FB7213463B81FE
:102EC0000023BB750023FB75FB68D3F820023B8908
:102ED000F97A7A6801F01BFB0346BB75BB7D032BB7
:102EE00016D801A252F823F0F92E0008FF2E000890
:102EF000052F00080B2F00080023FB750BE00223B1
:102F0000FB7508E00123FB7505E00223FB7502E079
:102F10000223FB7500BFFB7D18461837BD4680BDF8
:102F200080B586B000AFF8607A601A460B46FB7237
:102F300013463B810023BB750023FB75FB68D3F868
:102F400020023B89F97A7A6801F090FA0346BB7552
:102F5000BB7D032B16D801A252F823F06D2F000879
:102F6000732F0008792F00087F2F00080023FB75BE
:102F70000BE00223FB7508E00123FB7505E002234B
:102F8000FB7502E00223FB7500BFFB7D1846183776
:102F9000BD4680BD80B582B000AF78600B46FB7047
:102FA0007B68D3F82032FA781146184601F09AFA75
:102FB000034618460837BD4680BD000080B483B084
:102FC00000AF7860024B18460C37BD4680BC704796
:102FD0006421002080B483B000AF786000BF0C375C
:102FE000BD4680BC704780B483B000AF78600B46AC
:102FF000FB7000BF0C37BD4680BC704780B483B007
:1030000000AF03463960FB713B6812221A80034B04
:1030100018460C37BD4680BC704700BF70080020C2
:1030200080B483B000AF03463960FB713B68042273
:103030001A80034B18460C37BD4680BC704700BF52
:103040008408002080B582B000AF03463960FB7170
:10305000FB79002B05D13A680749084807F05CF86E
:1030600004E03A680449054807F056F8024B184650
:103070000837BD4680BD00BF84230020E4A30008BC
:1030800080B582B000AF03463960FB713A680449ED
:10309000044807F041F8024B18460837BD4680BD8A
:1030A00084230020FCA3000880B582B000AF034653
:1030B0003960FB71FB79002B05D13A680749084854
:1030C00007F02AF804E03A680449054807F024F8B4
:1030D000024B18460837BD4680BD00BF8423002040
:1030E00010A4000880B582B000AF03463960FB71C0
:1030F000FB79002B05D13A680749084807F00CF81E
:1031000004E03A680449054807F006F8024B1846FF
:103110000837BD4680BD00BF8423002020A40008DE
:1031200080B582B000AF03463960FB71FB79002B9C
:1031300005D13A680749084806F0EEFF04E03A680E
:103140000449054806F0E8FF024B18460837BD461B
:1031500080BD00BF842300202CA4000880B500AFF0
:10316000084B1B68074A43F010031360032000F06C
:1031700009F90020FFF776FAFFF7C4F90023184693
:1031800080BD00BF0020024080B400AF044B1B682C
:103190000133034A136000BFBD4680BC704700BFC7
:1031A0008425002080B400AF024B1B681846BD4642
:1031B00080BC70478425002080B584B000AF786063
:1031C000FFF7F0FFB8607B68FB60FB68B3F1FF3F7F
:1031D00002D0FB680133FB6000BFFFF7E3FF02464C
:1031E000BB68D31AFA689A42F7D800BF1037BD46B9
:1031F00080BD000080B485B000AF78607B6803F0CC
:103200000703FB600C4BDB68BB60BA684FF6FF033B
:103210001340BB60FB681A02BB68134343F0BF63F3
:1032200043F40033BB60044ABB68D36000BF14376B
:10323000BD4680BC704700BF00ED00E080B400AF29
:10324000044BDB681B0A03F007031846BD4680BC2D
:10325000704700BF00ED00E080B483B000AF0346CC
:10326000FB71FB7903F01F02064997F907305B09F0
:10327000012000FA02F241F8232000BF0C37BD46BE
:1032800080BC704700E100E080B483B000AF03462B
:103290003960FB7197F90730002B0BDA3B68DAB223
:1032A0000C49FB7903F00F03043B1201D2B20B442B
:1032B0001A7609E03B68DAB2074997F9073012013C
:1032C000D2B20B4483F8002300BF0C37BD4680BC4C
:1032D000704700BF00ED00E000E100E080B489B07D
:1032E00000AFF860B9607A60FB6803F00703FB6128
:1032F000FB69C3F10703042B28BF0423BB61FB69EF
:103300000433062B02D9FB69033B00E000237B61F9
:103310004FF0FF32BB6902FA03F3DA43BB681A408D
:103320007B699A404FF0FF317B6901FA03F3D9437F
:103330007B680B40134318462437BD4680BC70475A
:1033400080B582B000AF78607B68013BB3F1807FCD
:1033500001D301230FE00A4A7B68013B53600F2130
:103360004FF0FF30FFF790FF054B00229A60044BAF
:1033700007221A60002318460837BD4680BD00BFEB
:1033800010E000E080B582B000AF78607868FFF7A9
:1033900031FF00BF0837BD4680BD80B586B000AFA5
:1033A0000346B9607A60FB7300237B61FFF746FF39
:1033B00078617A68B9687869FFF790FF024697F9F3
:1033C0000F3011461846FFF75FFF00BF1837BD46A4
:1033D00080BD80B582B000AF0346FB7197F907301E
:1033E0001846FFF739FF00BF0837BD4680BD80B5DE
:1033F00082B000AF78607868FFF7A2FF03461846F6
:103400000837BD4680BD000080B483B000AF78604F
:103410007B68042B06D1094B1B68084A43F0040360
:10342000136005E0054B1B68044A23F00403136096
:1034300000BF0C37BD4680BC704700BF10E000E005
:1034400080B48BB000AF786039600023FB6100234B
:10345000BB6100237B6100233B6200233B610023AF
:103460007B6227E101227B6A02FA03F3FB613B687E
:103470001B68FA691340BB61BA69FB699A4240F064
:1034800016813B685B68122B34D0122B0DD8022BAF
:103490002BD0022B04D8002B31D0012B1CD048E0BC
:1034A000032B43D0112B1BD043E0874A934226D0F5
:1034B000854A934206D8854A934220D0844A934253
:1034C0001DD036E0834A934219D0834A934216D0E6
:1034D000824A934213D02CE03B68DB683B6228E0D1
:1034E0003B68DB6804333B6223E03B68DB680833FE
:1034F0003B621EE03B68DB680C333B6219E03B68D3
:103500009B68002B02D104233B6212E03B689B685E
:10351000012B05D108233B627B68FA691A6108E038
:1035200008233B627B68FA695A6102E000233B6230
:1035300000BFBB69FF2B01D87B6801E07B680433C7
:10354000FB60BB69FF2B02D87B6A9B0002E07B6AB1
:10355000083B9B003B61FB681A680F213B6901FA3D
:1035600003F3DB431A40396A3B6901FA03F31A4358
:10357000FB681A603B685B6803F08053002B00F027
:103580009680574B9B69564A43F001039361544B15
:103590009B6903F00103BB60BB68524A7B6A9B08CE
:1035A000023352F823307B617B6A03F003039B00F4
:1035B0000F2202FA03F3DB437A6913407B617B68D5
:1035C000494A934213D07B68484A93420DD07B68A6
:1035D000474A934207D07B68464A934201D103236E
:1035E00006E0042304E0022302E0012300E00023BC
:1035F0007A6A02F00302920093407A6913437B6176
:1036000038497B6A9B0802337A6941F823203B687A
:103610005B6803F48033002B06D0374B1A683649B9
:10362000BB6913430B6006E0334B1A68BB69DB438D
:10363000314913400B603B685B6803F40033002B97
:1036400006D02D4B5A682C49BB6913434B6006E0EA
:10365000294B5A68BB69DB43274913404B603B68E1
:103660005B6803F48013002B06D0234B9A68224931
:10367000BB6913438B6006E01F4B9A68BB69DB4351
:103680001D4913408B603B685B6803F40013002BFB
:1036900006D0194BDA681849BB691343CB6006E0C2
:1036A000154BDA68BB69DB4313491340CB607B6A77
:1036B00001337B627B6A0F2B7FF6D4AE00BF2C37C1
:1036C000BD4680BC704700BF0000211000001110F3
:1036D0000000121000003110000032100000221013
:1036E000001002400000014000080140000C0140B1
:1036F00000100140001401400004014080B483B078
:1037000000AF78600B467B8013467B707B78002B84
:1037100003D07A887B681A6103E07B881A047B688F
:103720001A6100BF0C37BD4680BC704780B584B0BD
:1037300000AF78600023FB600023BB607B68002B38
:1037400001D10123C8E07B6893F83D30DBB2002B48
:1037500006D17B68002283F83C207868FEF722FFC0
:103760007B68242283F83D207B681B681A687B688D
:103770001B6822F001021A6001F0CCFEB860BB6841
:10378000574AA2FB03239B0CFB607B681B68FA680B
:103790005A607B685B68534A934202D8FB680133E6
:1037A00009E0FB684FF4967202FB03F34E4AA2FB5A
:1037B00003239B0901337A68126813627B685B6894
:1037C000484A934212D87B685B685B00BA68B2FBD8
:1037D000F3F3C3F30B03032B06D97B685B685B0031
:1037E000BA68B2FBF3F345E0042343E07B689B68CF
:1037F000002B0FD17B685A6813465B001344BA68EC
:10380000B2FBF3F3C3F30B03002B0CBF0123002324
:10381000DBB210E07B685A6813469B0013449A00A1
:103820001344BA68B2FBF3F3C3F30B03002B0CBFD2
:1038300001230023DBB2002B01D001231AE07B68B7
:103840009B68002B0AD17B685A6813465B001344BF
:10385000BA68B2FBF3F343F400430BE07B685A68A9
:1038600013469B0013449A001344BA68B2FBF3F367
:1038700043F440437A681268D3617B68D9697B68F6
:103880001A6A7B681B680A431A607B6819697B683F
:10389000DA687B681B680A439A607B6859697B68B1
:1038A0009A697B681B680A43DA607B681B681A6840
:1038B0007B681B6842F001021A607B6800221A6470
:1038C0007B68202283F83D207B6800221A637B6896
:1038D000002283F83E20002318461037BD4680BDE5
:1038E00083DE1B43A0860100D34D621080B588B0F3
:1038F00002AFF860084611461A4603467B810B4624
:103900003B811346FB8000237B61FFF74BFC786112
:10391000FB6893F83D30DBB2202B40F0E7807B69F9
:103920000093192301227449F86800F07DF90346D9
:10393000002B01D00223DAE0FB6893F83C30012B26
:1039400001D10223D3E0FB68012283F83C20FB680D
:103950001B681B6803F00103012B07D0FB681B6881
:103960001A68FB681B6842F001021A60FB681B685A
:103970001A68FB681B6822F400621A60FB68212247
:1039800083F83D20FB68402283F83E20FB6800223C
:103990001A64FB683A6A5A62FB68BA8C5A85FB68FB
:1039A000564ADA62FB685B8D9AB2FB681A85F88822
:1039B0003A8979897B690193BB6A00930346F86869
:1039C00000F09EF80346002B5ED0FB681B6C042BB6
:1039D00005D1FB68002283F83C20012387E0FB68C7
:1039E000002283F83C20032381E07A69B96AF868F1
:1039F00000F0D9F90346002B0FD0FB681B6C042B99
:103A000009D1FB681B681A68FB681B6842F40072E6
:103A10001A6001236BE0032369E0FB685B6A591CB1
:103A2000FA6851621A78FB681B681A61FB681B8D83
:103A3000013B9AB2FB681A85FB685B8D9BB2013B28
:103A40009AB2FB685A85FB681B685B6903F0040344
:103A5000042B19D1FB681B8D002B15D0FB685B6A0A
:103A6000591CFA6851621A78FB681B681A61FB6876
:103A70001B8D013B9AB2FB681A85FB685B8D9BB27C
:103A8000013B9AB2FB685A85FB681B8D002BACD1B9
:103A90007A69B96AF86800F0C3F90346002B0FD0C1
:103AA000FB681B6C042B09D1FB681B681A68FB6858
:103AB0001B6842F400721A60012318E0032316E029
:103AC000FB681B681A68FB681B6842F400721A6086
:103AD000FB68202283F83D20FB68002283F83E200B
:103AE000FB68002283F83C20002300E002231846F4
:103AF0001837BD4680BD00BF020010000000FFFF68
:103B000080B588B002AFF860084611461A460346F1
:103B10007B810B463B811346FB80FB681B681A6860
:103B2000FB681B6842F480721A607B6A00933B6AF0
:103B300000224FF00111F86800F076F80346002BE0
:103B400001D0032369E07B89DBB21A46FB681B685E
:103B500002F0FE021A617B6A3A6A3249F86800F0A4
:103B6000B4F80346002B07D0FB681B6C042B01D173
:103B7000012352E0032350E000237B61FB681B68B4
:103B80005B697B61FB681B689B697B617B697A6A07
:103B9000396AF86800F007F90346002B0FD0FB687C
:103BA0001B6C042B09D1FB681B681A68FB681B6837
:103BB00042F400721A6001232FE003232DE0FB88FA
:103BC000012B05D13B89DAB2FB681B681A6123E03F
:103BD0003B891B0A9BB2DAB2FB681B681A617A6ADE
:103BE000396AF86800F0DFF80346002B0FD0FB6855
:103BF0001B6C042B09D1FB681B681A68FB681B68E7
:103C000042F400721A60012307E0032305E03B89B8
:103C1000DAB2FB681B681A61002318461837BD46E4
:103C200080BD00BF0200010080B584B000AFF86025
:103C3000B9603B601346FB711FE03B68B3F1FF3F87
:103C40001BD03B68002B07D0FFF7ACFA0246BB69DC
:103C5000D31A3A689A4210D2FB6800221A63FB68B2
:103C6000202283F83D20FB68002283F83E20FB6879
:103C7000002283F83C20032323E0BB681B0CDBB24B
:103C8000012B0DD1FB681B685B69DA43BB681340ED
:103C90009BB2002B0CBF01230023DBB21A460CE0C1
:103CA000FB681B689B69DA43BB6813409BB2002B1F
:103CB0000CBF01230023DBB21A46FB799A42BCD029
:103CC000002318461037BD4680BD80B584B000AFD4
:103CD000F860B9607A603B6040E0FB681B685B6934
:103CE00003F48063B3F5806F1CD1FB681B681A680E
:103CF000FB681B6842F400721A60FB681B686FF473
:103D000080625A61FB6804221A64FB6800221A630D
:103D1000FB68202283F83D20FB68002283F83C20CA
:103D200001233CE07B68B3F1FF3F17D07B68002B99
:103D300007D0FFF737FA02463B68D31A7A689A42EF
:103D40000CD2FB6800221A63FB68202283F83D2016
:103D5000FB68002283F83C20032320E0BB681B0C97
:103D6000DBB2012B0CD1FB681B685B69DA43BB68D3
:103D700013409BB2002B14BF01230023DBB20BE0E6
:103D8000FB681B689B69DA43BB6813409BB2002B3E
:103D900014BF01230023DBB2002B9ED10023184661
:103DA0001037BD4680BD80B584B000AFF860B96003
:103DB0007A6029E0F86800F070F80346002B01D023
:103DC000012329E0BB68B3F1FF3F1DD0BB68002B86
:103DD00007D0FFF7E7F902467B68D31ABA689A4220
:103DE00012D2FB681B6C43F02002FB681A64FB686C
:103DF00000221A63FB68202283F83D20FB68002222
:103E000083F83C20032307E0FB681B685B6903F031
:103E10008003802BCED1002318461037BD4680BDCD
:103E200080B584B000AFF860B9607A6029E0F868C6
:103E300000F033F80346002B01D0012329E0BB68D2
:103E4000B3F1FF3F1DD0BB68002B07D0FFF7AAF9E5
:103E500002467B68D31ABA689A4212D2FB681B6C7E
:103E600043F02002FB681A64FB6800221A63FB68B7
:103E7000202283F83D20FB68002283F83C200323A6
:103E800007E0FB681B685B6903F00403042BCED1D9
:103E9000002318461037BD4680BD80B483B000AF04
:103EA00078607B681B685B6903F48063B3F5806F9F
:103EB00014D17B681B686FF480625A617B680422AE
:103EC0001A647B6800221A637B68202283F83D20F5
:103ED0007B68002283F83C20012300E00023184681
:103EE0000C37BD4680BC7047F0B58BB006AF78602C
:103EF0000023FB607B68002B01D10123CAE07B68B3
:103F000093F82934DBB2002B06D17B68002283F8BA
:103F100028247868FEF73AFD7B68032283F8292479
:103F20007B681B68184602F096F97B681B683B604B
:103F30007E686D4606F110040FCC0FC523682B6018
:103F4000331D0ECB386802F05CF97B681B680021DA
:103F5000184602F09CF90023FB6037E07A68FB68A2
:103F60005B011344293301221A70FB68D9B27A68C5
:103F7000FB685B01134428330A461A70FB6899B248
:103F80007A68FB685B01134434330A461A807A6806
:103F9000FB685B0113442B3300221A707A68FB68BC
:103FA0005B011344383300221A607A68FB685B01B6
:103FB00013443C3300221A607A68FB6802335B01C9
:103FC000134400221A60FB680133FB60FB680E2B70
:103FD000C4D90023FB603CE07A68FB685B011344B2
:103FE00003F2292300221A70FB68D9B27A68FB68B1
:103FF0005B01134403F50A730A461A70FB6899B211
:104000007A68FB685B01134434330A461A807A6885
:10401000FB685B01134403F22B2300221A707A68B9
:10402000FB685B01134403F50E7300221A607A6883
:10403000FB685B01134403F50F7300221A607A6872
:10404000FB6812335B01134400221A60FB680133E2
:10405000FB60FB680E2BBFD97B681B683B607E68EA
:104060006D4606F110040FCC0FC523682B60331D7D
:104070000ECB386802F017F97B68002283F8242001
:104080007B68012283F829247B681B68184603F0AB
:1040900002F9002318461437BD46F0BD80B582B042
:1040A00000AF78607B6893F82834012B01D102239C
:1040B00016E07B68012283F8282401217868FEF746
:1040C00092FF7B681B68184603F0DBF87B681B686F
:1040D000184602F0A6F87B68002283F82824002303
:1040E00018460837BD4680BD80B582B000AF786005
:1040F0007B681B68184603F0D8F8034603F40043B6
:10410000B3F5004F02D1786800F0D8FA7B681B68DD
:10411000184603F0CAF8034603F48063B3F5806FD2
:1041200012D17B681B68B3F844309AB27B681B6875
:1041300022F4806292B2A3F844207868FEF79BFCD8
:104140000021786800F0D2F87B681B68184603F0FD
:10415000ACF8034603F48043B3F5804F0BD17B6882
:104160001B68B3F844309AB27B681B6822F4804223
:1041700092B2A3F844207B681B68184603F095F8B8
:10418000034603F40053B3F5005F0BD17B681B6853
:10419000B3F844309AB27B681B6822F4005292B2A2
:1041A000A3F844207B681B68184603F07EF803469A
:1041B00003F48053B3F5805F26D17B681B68B3F8A6
:1041C00040309AB27B681B6822F0040292B2A3F8D6
:1041D00040207B681B68B3F840309AB27B681B684C
:1041E00022F0080292B2A3F840207868FEF780FC23
:1041F0007B681B68B3F844309AB27B681B6822F472
:10420000805292B2A3F844207B681B68184603F0E2
:104210004CF8034603F40063B3F5006F31D17B68BB
:104220001B68B3F840309AB27B681B6842F0080202
:1042300092B2A3F840207B681B68B3F844309AB26E
:104240007B681B6822F4006292B2A3F844207B686A
:104250001B68B3F840309AB27B681B6842F00402D6
:1042600092B2A3F840207B681B68184603F01DF843
:10427000034603F48053B3F5805F02D07868FEF7FD
:104280001DFC7B681B68184603F00FF8034603F417
:104290000073B3F5007F0ED17B681B68B3F8443020
:1042A0009AB27B681B6822F4007292B2A3F8442091
:1042B0007868FEF7D2FB7B681B68184602F0F5FFB2
:1042C000034603F48073B3F5807F0BD17B681B68D2
:1042D000B3F844309AB27B681B6822F4807292B2C1
:1042E000A3F8442000BF0837BD4680BD80B582B02A
:1042F00000AF78600B46FB707B6893F82834012B85
:1043000001D1022313E07B68012283F828247B6813
:10431000FA7883F824207B681B68FA7811461846DF
:1043200002F09CFF7B68002283F8282400231846B3
:104330000837BD4680BD80B584B000AF78600846C0
:1043400011461A460346FB700B463B801346BB7072
:104350000023FB720023FB6097F90330002B08DA7F
:10436000FB7803F07F035B0128337A681344FB601A
:1043700008E0FB7803F07F035B0103F50A737A68BA
:104380001344FB60FB7803F07F03DAB2FB681A701A
:1043900097F90330DBB2DB09DBB21A46FB685A70CF
:1043A0003A88FB681A61FB68BA78DA707B6893F820
:1043B0002834012B01D102230EE07B68012283F80F
:1043C00028247B681B68F968184601F091FF7B6818
:1043D000002283F82824FB7A18461037BD4680BD9A
:1043E00080B584B000AF78600B46FB700023FB60A3
:1043F00097F90330002B08DAFB7803F07F035B01A9
:1044000028337A681344FB6008E0FB7803F07F03ED
:104410005B0103F50A737A681344FB60FB7803F0D1
:104420007F03DAB2FB681A7097F90330DBB2DB095D
:10443000DBB21A46FB685A707B6893F82834012B6C
:1044400001D102230EE07B68012283F828247B68D7
:104450001B68F968184602F00DFA7B68002283F8A1
:104460002824002318461037BD4680BD80B586B08D
:1044700000AFF8607A603B600B46FB7200237B6103
:10448000FB7A03F07F035B0103F50A73FA681344B8
:104490007B617B697A685A617B693A689A617B695A
:1044A0000022DA617B6900225A70FB7A03F07F03F5
:1044B000DAB27B691A70FB7A03F07F03002B06D116
:1044C000FB681B687969184602F05CFB05E0FB6835
:1044D0001B687969184602F055FB00231846183707
:1044E000BD4680BD80B483B000AF78600B46FB70E2
:1044F000FB7803F00F037A6812335B011344043333
:104500001B689BB218460C37BD4680BC704780B50F
:1045100086B000AFF8607A603B600B46FB72002308
:104520007B61FB7A03F07F035B012833FA68134455
:104530007B617B697A685A617B693A689A617B69B9
:104540000022DA617B6901225A70FB7A03F07F0353
:10455000DAB27B691A70FB7A03F07F03002B06D175
:10456000FB681B687969184602F00CFB05E0FB68E4
:104570001B687969184602F005FB002318461837B6
:10458000BD4680BD80B584B000AF78600B46FB703F
:104590000023FB6097F90330002B08DAFB7803F067
:1045A0007F035B0128337A681344FB6006E0FB78E5
:1045B0005B0103F50A737A681344FB60FB68012210
:1045C0009A70FB7803F07F03DAB2FB681A7097F9F0
:1045D0000330DBB2DB09DBB21A46FB685A707B683A
:1045E00093F82834012B01D102231CE07B680122BF
:1045F00083F828247B681B68F968184602F044FD9C
:10460000FB7803F07F03002B08D17B681A687B6876
:1046100003F22C431946104602F058FE7B68002234
:1046200083F82824002318461037BD4680BD80B586
:1046300084B000AF78600B46FB700023FB6097F9F5
:104640000330002B08DAFB7803F07F035B0128338B
:104650007A681344FB6006E0FB785B0103F50A739C
:104660007A681344FB60FB6800229A70FB7803F0C1
:104670007F03DAB2FB681A7097F90330DBB2DB090B
:10468000DBB21A46FB685A707B6893F82834012B1A
:1046900001D102230EE07B68012283F828247B6885
:1046A0001B68F968184602F04FFD7B68002283F80A
:1046B0002824002318461037BD4680BD90B589B028
:1046C00000AF78600023FB6100237B8300237B76AF
:1046D0000023FB810023BB8108E3FB899BB2DBB293
:1046E00003F00F037B767B7E002B40F02A81FB8951
:1046F0009BB203F01003002B4DD17B681B681B8815
:104700009BB27A68126823F4E14323F070039BB2F2
:1047100013807B682833FB617B681B68B3F85030DB
:104720009BB21A46FB691B78DB00134402335B0023
:104730007A681268134403F580631B689BB2C3F365
:104740000902FB69DA61FB695A69FB69DB691A4492
:10475000FB695A6100217868FEF768F97B6893F875
:104760002430DBB2002B00F0C182FB699B69002B77
:1047700040F0BC827B6893F82430DBB263F07F03A7
:10478000DAB27B681B6892B2A3F84C207B680022E7
:1047900083F82420AAE27B6803F50A73FB617B6837
:1047A0001B681B889BB2BB81BB899BB203F400636F
:1047B000002B31D07B681B68B3F850309BB21A468F
:1047C000FB691B78DB00134406335B007A681268D0
:1047D000134403F580631B689BB2C3F30902FB69B2
:1047E000DA617B6818687B6803F22C41FB699A8860
:1047F000FB69DB699BB202F0BAFD7B681B681B8812
:1048000099B27B681A6840F68F730B409BB2138095
:104810007868FEF7E1F869E2BB899BB21BB2002B16
:1048200080F264827B681B681B8899B27B681A6877
:1048300040F68F730B409BB213807B681B68B3F804
:1048400050309BB21A46FB691B78DB0013440633D9
:104850005B007A681268134403F580631B689BB29F
:10486000C3F30902FB69DA61FB69DB69002B11D034
:104870007B681868FB695969FB699A88FB69DB6981
:104880009BB202F074FDFB695A69FB69DB691A444B
:10489000FB695A6100217868FEF7B0F87B681B68F5
:1048A000B3F850309BB206335B007A681268134449
:1048B00003F580633B61FB691B693E2B18D9FB69DB
:1048C0001B695B09FB82FB691B6903F01F03002B5B
:1048D00002D1FB8A013BFB82FB8A9B029BB26FEAFF
:1048E00043436FEA53439BB21A463B691A6012E096
:1048F000FB691B695B08FB82FB691B6903F0010311
:10490000002B02D0FB8A0133FB82FB8A9B029BB205
:104910001A463B691A607B681B681B889BB223F4AC
:10492000804323F070039CB284F480539CB284F4DF
:1049300000539CB27B681A68984B23439BB2138048
:10494000D4E17B681B681A467B7E9B0013441B885E
:104950009BB2BB81BB899BB21BB2002B80F2D08083
:104960007B681B681A467B7E9B0013441B8899B2A8
:104970007B681B681A467B7E9B001A4440F68F7347
:104980000B409BB213807B7E5B0103F50A737A6850
:104990001344FB61FB699B7A002B22D17B681B6867
:1049A000B3F850309BB21A46FB691B78DB00134406
:1049B00006335B007A681268134403F580631B6852
:1049C0009BB2C3F309037B837B8B002B73D07B6883
:1049D0001868FB695969FB699A887B8B02F0C7FCF0
:1049E00069E07B681B681A46FB691B789B001344CF
:1049F0001B889BB203F48043002B22D07B681B688A
:104A0000B3F850309BB21A46FB691B78DB001344A5
:104A100002335B007A681268134403F580631B68F5
:104A20009BB2C3F309037B837B8B002B2BD07B686A
:104A30001868FB695969FB69DA887B8B02F097FC7F
:104A400021E07B681B68B3F850309BB21A46FB69C3
:104A50001B78DB00134406335B007A68126813444A
:104A600003F580631B689BB2C3F309037B837B8BD5
:104A7000002B08D07B681868FB695969FB691A89A3
:104A80007B8B02F074FC7B681B681A46FB691B7801
:104A90009B0013441B889AB240F60F73134099B2DF
:104AA0007B681B681A46FB691B789B001A443C4BC9
:104AB0000B439BB21380FB69DA697B8B1A44FB6959
:104AC000DA61FB695A697B8B1A44FB695A61FB699D
:104AD0009B69002B04D07A8BFB691B699A4206D232
:104AE000FB691B7819467868FDF788FF08E0FB69C9
:104AF0001978FB695A69FB699B697868FFF7B6FC0E
:104B0000BB899BB203F08003002B00F0EF807B7E1B
:104B10005B0128337A681344FB617B681B681A4683
:104B20007B7E9B0013441B889BB27A6812681146F7
:104B30007A7E92000A4423F4E14323F070039BB28F
:104B40001380FB699B7A002B2CD17B681B68B3F820
:104B500050309BB21A46FB691B78DB0013440233CA
:104B60005B007A681268134403F580631B689BB28C
:104B7000C3F30902FB69DA61FB69DB69002B00F012
:104B800083807B681868FB695969FB699A88FB69AF
:104B9000DB699BB202F0A5FB76E000BF8080FFFFDF
:104BA000C080FFFF7B681B681A46FB691B789B006F
:104BB00013441B889BB203F04003002B26D07B6874
:104BC0001B68B3F850309BB21A46FB691B78DB00B8
:104BD000134402335B007A681268134403F5806360
:104BE0001B689BB2C3F30902FB69DA61FB69DB69ED
:104BF000002B31D07B681868FB695969FB69DA883A
:104C0000FB69DB699BB202F06CFB25E07B681B68EB
:104C1000B3F850309BB21A46FB691B78DB00134493
:104C200006335B007A681268134403F580631B68DF
:104C30009BB2C3F30902FB69DA61FB69DB69002BF4
:104C40000AD07B681868FB695969FB691A89FB6996
:104C5000DB699BB202F045FB7B681B681A46FB6967
:104C60001B789B0013441B889AB240F60F731340C5
:104C700099B27B681B681A46FB691B789B001A4433
:104C8000224B0B439BB213807B681B68B3F85030F8
:104C90009BB21A46FB691B78DB00134402335B00AE
:104CA0007A681268134403F580631B689BB2C3F3F0
:104CB0000902FB69DA61FB695A69FB69DB691A441D
:104CC000FB695A61FB699B69002B06D1FB691B7864
:104CD00019467868FDF7AAFE08E0FB691978FB69B8
:104CE0005A69FB699B697868FFF711FC7B681B6850
:104CF000B3F844309BB21A46FA811BB2002BFFF680
:104D0000ECAC002318462437BD4690BD80C0FFFFA1
:104D100080B487B000AFF8607B600B467B811346A0
:104D20003B8100237B617B8903F08003002B08D04B
:104D30007B8903F07F035B012833FA6813447B61AE
:104D400006E07B895B0103F50A73FA6813447B6113
:104D50003B89002B07D17B6900229A727B689AB24B
:104D60007B699A800BE07B6901229A727B689AB218
:104D70007B69DA807B681B0C9AB27B691A810023FD
:104D800018461C37BD4680BC7047000080B586B011
:104D900000AF786000233B617B681B6803F0010370
:104DA000002B00F08780924B5B6803F00C03042B10
:104DB0000CD08F4B5B6803F00C03082B12D18C4B8B
:104DC0005B6803F48033B3F5803F0BD1884B1B68DD
:104DD00003F40033002B6CD07B685B68002B68D138
:104DE00001232DE27B685B68B3F5803F06D1804BE1
:104DF0001B687F4A43F4803313602EE07B685B6856
:104E0000002B0CD17A4B1B68794A23F48033136052
:104E1000774B1B68764A23F4802313601DE07B6880
:104E20005B68B3F5A02F0CD1714B1B68704A43F43B
:104E3000802313606E4B1B686D4A43F4803313600C
:104E40000BE06B4B1B686A4A23F480331360684B9A
:104E50001B68674A23F4802313607B685B68002B20
:104E600013D0FEF79FF9386108E0FEF79BF9024680
:104E70003B69D31A642B01D90323E1E15C4B1B6826
:104E800003F40033002BF0D014E0FEF78BF9386107
:104E900008E0FEF787F902463B69D31A642B01D973
:104EA0000323CDE1524B1B6803F40033002BF0D1F8
:104EB00000E000BF7B681B6803F00203002B63D097
:104EC0004B4B5B6803F00C03002B0BD0484B5B682B
:104ED00003F00C03082B1CD1454B5B6803F48033B3
:104EE000002B16D1424B1B6803F00203002B05D0A8
:104EF0007B681B69012B01D00123A1E13C4B1B689E
:104F000023F0F8027B685B69DB00394913430B60CF
:104F10003AE07B681B69002B20D0364B01221A60D7
:104F2000FEF740F9386108E0FEF73CF902463B69BC
:104F3000D31A022B01D9032382E12D4B1B6803F006
:104F40000203002BF0D02A4B1B6823F0F8027B6889
:104F50005B69DB00264913430B6015E0254B0022FB
:104F60001A60FEF71FF9386108E0FEF71BF90246E8
:104F70003B69D31A022B01D9032361E11C4B1B6847
:104F800003F00203002BF0D17B681B6803F00803D9
:104F9000002B39D07B689B69002B19D0164B01225E
:104FA0001A60FEF7FFF8386108E0FEF7FBF80246EA
:104FB0003B69D31A022B01D9032341E10C4B5B6AF5
:104FC00003F00203002BF0D0012000F0E7FA1BE011
:104FD000094B00221A60FEF7E5F838610EE0FEF793
:104FE000E1F802463B69D31A022B07D9032327E1D4
:104FF000001002400000424280044242924B5B6A31
:1050000003F00203002BEAD17B681B6803F0040362
:10501000002B00F0A6800023FB758B4BDB6903F0AF
:105020008053002B0DD1884BDB69874A43F08053B6
:10503000D361854BDB6903F08053FB60FB68012380
:10504000FB75824B1B6803F48073002B18D17F4BD8
:105050001B687E4A43F480731360FEF7A3F838613F
:1050600008E0FEF79FF802463B69D31A642B01D98A
:105070000323E5E0754B1B6803F48073002BF0D02D
:105080007B68DB68012B06D16F4B1B6A6E4A43F0CD
:10509000010313622DE07B68DB68002B0CD16A4BA7
:1050A0001B6A694A23F001031362674B1B6A664A55
:1050B00023F0040313621CE07B68DB68052B0CD132
:1050C000614B1B6A604A43F0040313625E4B1B6A28
:1050D0005D4A43F0010313620BE05B4B1B6A5A4AC3
:1050E00023F001031362584B1B6A574A23F0040351
:1050F00013627B68DB68002B15D0FEF753F838612C
:105100000AE0FEF74FF802463B69D31A41F28832B3
:10511000934201D9032393E04B4B1B6A03F0020334
:10512000002BEED014E0FEF73DF838610AE0FEF700
:1051300039F802463B69D31A41F28832934201D9C9
:1051400003237DE0404B1B6A03F00203002BEED1EA
:10515000FB7D012B05D13C4BDB693B4A23F080539F
:10516000D3617B68DB69002B69D0374B5B6803F048
:105170000C03082B61D07B68DB69022B46D1344BD2
:1051800000221A60FEF70EF8386108E0FEF70AF810
:1051900002463B69D31A022B01D9032350E02A4B64
:1051A0001B6803F00073002BF0D17B681B6AB3F51A
:1051B000803F08D1244B5B6823F400327B689B68F6
:1051C000214913434B60204B5B6823F474127B68C6
:1051D000196A7B685B6A0B431B4913434B601C4B8A
:1051E00001221A60FDF7DEFF386108E0FDF7DAFF03
:1051F00002463B69D31A022B01D9032320E0124B4C
:105200001B6803F00073002BF0D018E0104B002255
:105210001A60FDF7C7FF386108E0FDF7C3FF0246DB
:105220003B69D31A022B01D9032309E0064B1B6803
:1052300003F00073002BF0D101E0012300E0002314
:1052400018461837BD4680BD00100240007000406F
:105250006000424280B584B000AF786039600023BE
:10526000FB60724B1B6803F007033A689A4210D93F
:105270006E4B1B6823F007026C493B6813430B60BD
:105280006A4B1B6803F007033A689A4201D0012376
:10529000C8E07B681B6803F00203002B08D0644B56
:1052A0005B6823F0F0027B689B68614913434B60A5
:1052B0007B681B6803F00103002B6AD07B685B6886
:1052C000012B07D15A4B1B6803F40033002B15D177
:1052D0000123A7E07B685B68022B07D1544B1B6856
:1052E00003F00073002B09D101239BE0504B1B6896
:1052F00003F00203002B01D1012393E04C4B5B68C8
:1053000023F003027B685B68494913434B60FDF758
:1053100049FFF8607B685B68012B12D10AE0FDF75A
:1053200041FF0246FB68D31A41F28832934201D909
:10533000032377E03E4B5B6803F00C03042BEED1B4
:1053400027E07B685B68022B1DD10AE0FDF72AFF8E
:105350000246FB68D31A41F28832934201D90323F3
:1053600060E0334B5B6803F00C03082BEED110E0D8
:10537000FDF718FF0246FB68D31A41F288329342C8
:1053800001D903234EE02A4B5B6803F00C03002B8A
:10539000EED1264B1B6803F007033A689A4210D2FD
:1053A000224B1B6823F0070220493B6813430B6024
:1053B0001E4B1B6803F007033A689A4201D0012391
:1053C00030E07B681B6803F00403002B08D0184B07
:1053D0005B6823F4E0627B68DB68154913434B602C
:1053E0007B681B6803F00803002B09D0104B5B6837
:1053F00023F460527B681B69DB000D4913434B604B
:1054000000F01CF801460A4B5B681B0903F00F0310
:10541000084AD35C21FA03F3074A13600020FDF722
:1054200021F9002318461037BD4680BD00200240F8
:1054300000100240C4A400084008002090B48AB0C4
:1054400000AF2A4B3C1D0FCB84E80F00284B1B8874
:105450003B800023FB610023BB6100237B620023B0
:105460007B6100233B62234B5B68FB61FB6903F0BC
:105470000C03042B02D0082B03D02DE01E4B3B6203
:105480002DE0FB699B0C03F00F0307F12802134486
:1054900013F8243C7B61FB6903F48033002B13D0A9
:1054A000144B5B685B0C03F0010307F12802134403
:1054B00013F8283CBB61104ABB69B2FBF3F27B696D
:1054C00002FB03F37B6204E07B690C4A02FB03F3FB
:1054D0007B627B6A3B6202E0074B3B6200BF3B6A38
:1054E00018462837BD4690BC704700BF3CA4000852
:1054F0004CA400080010024000127A0000093D0090
:1055000080B400AF024B1B681846BD4680BC704794
:105510004008002080B500AFFFF7F2FF0146054BC1
:105520005B681B0A03F00703034AD35C21FA03F309
:10553000184680BD00100240D4A4000880B483B097
:1055400000AF786039607B680F221A60114B5B688E
:1055500003F003027B685A600E4B5B6803F0F002B5
:105560007B689A600B4B5B6803F4E0627B68DA60EF
:10557000084B5B68DB0803F4E0627B681A61064B4A
:105580001B6803F007023B681A6000BF0C37BD467A
:1055900080BC7047001002400020024080B485B0FB
:1055A00000AF78600A4B1B680A4AA2FB03235B0A20
:1055B0007A6802FB03F3FB6000BFFB685A1EFA60C7
:1055C000002BF9D100BF1437BD4680BC704700BF27
:1055D00040080020D34D621080B586B000AF7860DF
:1055E00000233B610023FB607B681B6803F0010321
:1055F000002B7DD00023FB754F4BDB6903F08053FC
:10560000002B0DD14C4BDB694B4A43F08053D361E7
:10561000494BDB6903F08053BB60BB680123FB751A
:10562000464B1B6803F48073002B18D1434B1B6857
:10563000424A43F480731360FDF7B4FD386108E01B
:10564000FDF7B0FD02463B69D31A642B01D9032351
:105650006DE03A4B1B6803F48073002BF0D0364B9F
:105660001B6A03F44073FB60FB68002B2ED07B6841
:105670005B6803F44073FA689A4227D02E4B1B6A8A
:1056800023F44073FB602E4B01221A602C4B002246
:105690001A60294AFB681362FB6803F00103002BC0
:1056A00014D0FDF77FFD38610AE0FDF77BFD02466F
:1056B0003B69D31A41F28832934201D9032336E081
:1056C0001D4B1B6A03F00203002BEED01A4B1B6A22
:1056D00023F440727B685B68174913430B62FB7DC0
:1056E000012B05D1144BDB69134A23F08053D3619E
:1056F0007B681B6803F00203002B08D00E4B5B682D
:1057000023F440427B689B680B4913434B607B68E2
:105710001B6803F01003002B08D0074B5B6823F4D1
:1057200080027B68DB68044913434B600023184602
:105730001837BD4680BD00BF001002400070004019
:105740004004424280B582B000AF78607B68002B95
:1057500001D101231DE07B6893F83D30DBB2002BC3
:1057600006D17B68002283F83C20786800F015F8A9
:105770007B68022283F83D207B681A687B680433CB
:105780001946104600F042FB7B68012283F83D2059
:10579000002318460837BD4680BD80B483B000AFF3
:1057A000786000BF0C37BD4680BC704780B483B0C2
:1057B00000AF78607B681B68DA687B681B6842F022
:1057C0000102DA607B681B681A687B681B6842F01C
:1057D00001021A60002318460C37BD4680BC704792
:1057E00080B582B000AF78607B68002B01D10123C7
:1057F0001DE07B6893F83D30DBB2002B06D17B685F
:10580000002283F83C207868FCF7F8FE7B680222CF
:1058100083F83D207B681A687B680433194610467C
:1058200000F0F4FA7B68012283F83D20002318463B
:105830000837BD4680BD000080B582B000AF7860FB
:1058400039603B680C2B41D801A252F823F000BF0D
:1058500085580008CD580008CD580008CD580008DC
:1058600097580008CD580008CD580008CD580008BA
:10587000A9580008CD580008CD580008CD58000898
:10588000BB5800087B681B68DA687B681B6842F0BD
:105890000202DA601BE07B681B68DA687B681B68C1
:1058A00042F00402DA6012E07B681B68DA687B6809
:1058B0001B6842F00802DA6009E07B681B68DA685E
:1058C0007B681B6842F01002DA6000E000BF7B6872
:1058D0001B6801223968184600F01BFC7B681B68B6
:1058E0001A687B681B6842F001021A6000231846A0
:1058F0000837BD4680BD00BF80B582B000AF78607C
:1059000039603B680C2B41D801A252F823F000BF4C
:10591000455900088D5900088D5900088D59000817
:10592000575900088D5900088D5900088D590008F5
:10593000695900088D5900088D5900088D590008D3
:105940007B5900087B681B68DA687B681B6822F05B
:105950000202DA601BE07B681B68DA687B681B6800
:1059600022F00402DA6012E07B681B68DA687B6868
:105970001B6822F00802DA6009E07B681B68DA68BD
:105980007B681B6822F01002DA6000E000BF7B68D1
:105990001B6800223968184600F0BBFB7B681B6857
:1059A0001A6A41F211131340002B0FD17B681B6858
:1059B0001A6A40F244431340002B07D17B681B68EE
:1059C0001A687B681B6822F001021A6000231846DF
:1059D0000837BD4680BD00BF80B582B000AF78609B
:1059E0007B681B681B6903F00203022B22D17B68D2
:1059F0001B68DB6803F00203022B1BD17B681B686A
:105A00006FF002021A617B6801221A777B681B68BB
:105A10009B6903F00303002B03D0786800F0DBF9E7
:105A200005E0786800F0CEF9786800F0DDF97B6871
:105A300000221A777B681B681B6903F00403042BA0
:105A400022D17B681B68DB6803F00403042B1BD1A5
:105A50007B681B686FF004021A617B6802221A7768
:105A60007B681B689B6903F44073002B03D0786844
:105A700000F0B1F905E0786800F0A4F9786800F06A
:105A8000B3F97B6800221A777B681B681B6903F0F7
:105A90000803082B22D17B681B68DB6803F008032E
:105AA000082B1BD17B681B686FF008021A617B68AA
:105AB00004221A777B681B68DB6903F00303002B61
:105AC00003D0786800F087F905E0786800F07AF98B
:105AD000786800F089F97B6800221A777B681B6878
