:020000040800F2
:10000000005000203D120008C1030008CD03000885
:10001000D3030008D9030008DF0300080000000034
:10002000000000000000000000000000E5030008E0
:10003000F103000800000000FD03000809040008A7
:100040008512000885120008851200088512000834
:100050008512000885120008851200088512000824
:100060008512000885120008851200088512000814
:100070008512000885120008851200088512000804
:1000800085120008851200088512000885120008F4
:1000900085120008851200088512000885120008E4
:1000A00085120008851200088512000885120008D4
:1000B00085120008851200088512000885120008C4
:1000C00085120008851200088512000885120008B4
:1000D00085120008851200088512000885120008A4
:1000E0008512000885120008851200080000000033
:1000F0000000000000000000000000000000000000
:0C01000000000000000000005FF808F1A3
:10010C000348044B834202D0034B03B1184770479A
:10011C0004000020040000200000000005480649EF
:10012C00091A891001EBD171491002D0034B03B1AC
:10013C001847704704000020040000200000000055
:10014C0010B5064C237843B9FFF7DAFF044B13B113
:10015C000448AFF300800123237010BD040000207D
:10016C00000000008812000808B5044B1BB10449BC
:10017C000448AFF30080BDE80840CFE70000000062
:10018C00080000208812000870B50D4E0D4D761B2E
:10019C00B61006D00024013455F8043B9847A6420B
:1001AC00F9D1094E094D01F069F8761BB61006D04D
:1001BC000024013455F8043B9847A642F9D170BD90
:1001CC00F8120008F8120008FC120008F8120008D7
:1001DC0080B500AF00F04EF900F00EF800F05EF8BC
:1001EC004FF40051034800F02FFC642000F08CF910
:1001FC00F6E700BF0010014080B590B000AF0123BE
:10020C00BB614FF48033FB6100233B620123BB6273
:10021C0002237B634FF48033BB634FF4E013FB6327
:10022C0007F11803184600F021FC0346002B03D0FD
:10023C007E21184800F068F80F237B600223BB6016
:10024C000023FB604FF480633B6100237B613B1D0B
:10025C000221184600F06EFE0346002B03D08C21C1
:10026C000C4800F051F800F0BBFF02460A4BA3FB10
:10027C0002239B09184600F03CFA042000F046FAD1
:10028C00002200214FF0FF3000F017FA00BF40377A
:10029C00BD4680BDA0120008D34D621080B586B05B
:1002AC0000AF174B9B69164A43F010039361144B34
:1002BC009B6903F010037B607B68114B9B69104AB0
:1002CC0043F0200393610E4B9B6903F020033B60CA
:1002DC003B6800224FF400510A4800F09DFB4FF49C
:1002EC000053BB600123FB6002237B6107F1080311
:1002FC001946044800F032FA00BF1837BD4680BDDD
:10030C00001002400010014080B483B000AF786050
:10031C003960FEE780B582B000AF244B9B69234A5D
:10032C0043F001039361214B9B6903F001037B6054
:10033C007B68032000F0B6F9002200216FF00B005F
:10034C0000F0BBF9002200216FF00A0000F0B5F9B3
:10035C00002200216FF0090000F0AFF9002200210B
:10036C006FF0040000F0A9F9002200216FF00300E7
:10037C0000F0A3F9002200216FF0010000F09DF9BC
:10038C00002200214FF0FF3000F097F9084B5B681A
:10039C00074A23F0E0635360054B5B68044A43F063
:1003AC008063536000BF0837BD4680BD001002401B
:1003BC000000014080B400AF00BFBD4680BC704758
:1003CC0080B400AFFEE780B400AFFEE780B400AFAE
:1003DC00FEE780B400AFFEE780B400AF00BFBD46BF
:1003EC0080BC704780B400AF00BFBD4680BC704776
:1003FC0080B400AF00BFBD4680BC704780B500AF75
:10040C0000F06AF800F09EF900BF80BD80B400AF28
:10041C00154B1B68144A43F001031360124B5A68C6
:10042C001149124B13404B600F4B1B680E4A23F0C3
:10043C00847323F4803313600B4B1B680A4A23F438
:10044C0080231360084B5B68074A23F4FE03536058
:10045C00054B4FF41F029A60054B4FF000629A60F7
:10046C0000BFBD4680BC7047001002400000FFF882
:10047C0000ED00E080B500AF084B1B68074A43F065
:10048C0010031360032000F00DF9002000F008F8B1
:10049C00FFF740FF0023184680BD00BF002002403C
:1004AC0080B582B000AF7860094B1B68094AA2FB8B
:1004BC0003239B09184600F01CF9002279684FF0C1
:1004CC00FF3000F0FAF8002318460837BD4680BD0F
:1004DC0000000020D34D621080B400AF044B1B68A9
:1004EC000133034A136000BFBD4680BC704700BF98
:1004FC002000002080B400AF024B1B681846BD469C
:10050C0080BC70472000002080B584B000AF7860BC
:10051C00FFF7F0FFB8607B68FB60FB68B3F1FF3F4F
:10052C0002D0FB680133FB6000BFFFF7E3FF02461C
:10053C00BB68D31AFA689A42F7D800BF1037BD4689
:10054C0080BD000080B485B000AF78607B6803F09C
:10055C000703FB600C4BDB68BB60BA684FF6FF030C
:10056C001340BB60FB681A02BB68134343F0BF63C4
:10057C0043F40033BB60044ABB68D36000BF14373C
:10058C00BD4680BC704700BF00ED00E080B400AFFA
:10059C00044BDB681B0A03F007031846BD4680BCFE
:1005AC00704700BF00ED00E080B483B000AF03469D
:1005BC003960FB7197F90730002B0BDA3B68DAB224
:1005CC000C49FB7903F00F03043B1201D2B20B442C
:1005DC001A7609E03B68DAB2074997F9073012013D
:1005EC00D2B20B4483F8002300BF0C37BD4680BC4D
:1005FC00704700BF00ED00E000E100E080B489B07E
:10060C0000AFF860B9607A60FB6803F00703FB6128
:10061C00FB69C3F10703042B28BF0423BB61FB69EF
:10062C000433062B02D9FB69033B00E000237B61FA
:10063C004FF0FF32BB6902FA03F3DA43BB681A408E
:10064C007B699A404FF0FF317B6901FA03F3D94380
:10065C007B680B40134318462437BD4680BC70475B
:10066C0080B582B000AF78607B68013BB3F1807FCE
:10067C0001D301230FE00A4A7B68013B53600F2131
:10068C004FF0FF30FFF790FF054B00229A60044BB0
:10069C0007221A60002318460837BD4680BD00BFEC
:1006AC0010E000E080B582B000AF78607868FFF7AA
:1006BC0049FF00BF0837BD4680BD80B586B000AF8E
:1006CC000346B9607A60FB7300237B61FFF75EFF22
:1006DC0078617A68B9687869FFF790FF024697F9F4
:1006EC000F3011461846FFF75FFF00BF1837BD46A5
:1006FC0080BD80B582B000AF78607868FFF7B0FF3E
:10070C00034618460837BD4680BD000080B483B050
:10071C0000AF78607B68042B06D1094B1B68084A34
:10072C0043F00403136005E0054B1B68044A23F0F7
:10073C000403136000BF0C37BD4680BC704700BF7C
:10074C0010E000E080B500AF00F002F800BF80BD03
:10075C0080B400AF00BFBD4680BC704780B48BB086
:10076C0000AF786039600023FB610023BB6100237C
:10077C007B6100233B6200233B6100237B6227E10A
:10078C0001227B6A02FA03F3FB613B681B68FA697E
:10079C001340BB61BA69FB699A4240F016813B6811
:1007AC005B68122B34D0122B0DD8022B2BD0022BC2
:1007BC0004D8002B31D0012B1CD048E0032B43D0A4
:1007CC00112B1BD043E0874A934226D0854A934293
:1007DC0006D8854A934220D0844A93421DD036E0F5
:1007EC00834A934219D0834A934216D0824A934249
:1007FC0013D02CE03B68DB683B6228E03B68DB688D
:10080C0004333B6223E03B68DB6808333B621EE049
:10081C003B68DB680C333B6219E03B689B68002B40
:10082C0002D104233B6212E03B689B68012B05D18B
:10083C0008233B627B68FA691A6108E008233B6273
:10084C007B68FA695A6102E000233B6200BFBB6916
:10085C00FF2B01D87B6801E07B680433FB60BB692C
:10086C00FF2B02D87B6A9B0002E07B6A083B9B0053
:10087C003B61FB681A680F213B6901FA03F3DB4308
:10088C001A40396A3B6901FA03F31A43FB681A6090
:10089C003B685B6803F08053002B00F09680574B4D
:1008AC009B69564A43F001039361544B9B6903F0D7
:1008BC000103BB60BB68524A7B6A9B08023352F847
:1008CC0023307B617B6A03F003039B000F2202FA47
:1008DC0003F3DB437A6913407B617B68494A93429B
:1008EC0013D07B68484A93420DD07B68474A9342A9
:1008FC0007D07B68464A934201D1032306E00423C8
:10090C0004E0022302E0012300E000237A6A02F0F3
:10091C000302920093407A6913437B6138497B6AE6
:10092C009B0802337A6941F823203B685B6803F427
:10093C008033002B06D0374B1A683649BB691343FA
:10094C000B6006E0334B1A68BB69DB43314913403B
:10095C000B603B685B6803F40033002B06D02D4B17
:10096C005A682C49BB6913434B6006E0294B5A6803
:10097C00BB69DB43274913404B603B685B6803F45E
:10098C008013002B06D0234B9A682249BB69134372
:10099C008B6006E01F4B9A68BB69DB431D49134013
:1009AC008B603B685B6803F40013002B06D0194B7B
:1009BC00DA681849BB691343CB6006E0154BDA685B
:1009CC00BB69DB4313491340CB607B6A01337B6209
:1009DC007B6A0F2B7FF6D4AE00BF2C37BD4680BC94
:1009EC00704700BF00002110000011100000121011
:1009FC0000003110000032100000221000100240E4
:100A0C000000014000080140000C014000100140B2
:100A1C00001401400004014080B483B000AF786042
:100A2C000B467B8013467B707B78002B03D07A8837
:100A3C007B681A6103E07B881A047B681A6100BF2B
:100A4C000C37BD4680BC704780B483B000AF786073
:100A5C000B467B807B68DA687B885A407B68DA605F
:100A6C0000BF0C37BD4680BC7047000080B586B017
:100A7C0000AF786000233B617B681B6803F00103C7
:100A8C00002B00F08780924B5B6803F00C03042B67
:100A9C000CD08F4B5B6803F00C03082B12D18C4BE2
:100AAC005B6803F48033B3F5803F0BD1884B1B6834
:100ABC0003F40033002B6CD07B685B68002B68D18F
:100ACC0001232DE27B685B68B3F5803F06D1804B38
:100ADC001B687F4A43F4803313602EE07B685B68AD
:100AEC00002B0CD17A4B1B68794A23F480331360AA
:100AFC00774B1B68764A23F4802313601DE07B68D8
:100B0C005B68B3F5A02F0CD1714B1B68704A43F492
:100B1C00802313606E4B1B686D4A43F48033136063
:100B2C000BE06B4B1B686A4A23F480331360684BF1
:100B3C001B68674A23F4802313607B685B68002B77
:100B4C0013D0FFF7D7FC386108E0FFF7D3FC02465F
:100B5C003B69D31A642B01D90323E1E15C4B1B687D
:100B6C0003F40033002BF0D014E0FFF7C3FC386122
:100B7C0008E0FFF7BFFC02463B69D31A642B01D98E
:100B8C000323CDE1524B1B6803F40033002BF0D14F
:100B9C0000E000BF7B681B6803F00203002B63D0EE
:100BAC004B4B5B6803F00C03002B0BD0484B5B6882
:100BBC0003F00C03082B1CD1454B5B6803F480330A
:100BCC00002B16D1424B1B6803F00203002B05D0FF
:100BDC007B681B69012B01D00123A1E13C4B1B68F5
:100BEC0023F0F8027B685B69DB00394913430B6027
:100BFC003AE07B681B69002B20D0364B01221A602F
:100C0C00FFF778FC386108E0FFF774FC02463B699B
:100C1C00D31A022B01D9032382E12D4B1B6803F05D
:100C2C000203002BF0D02A4B1B6823F0F8027B68E0
:100C3C005B69DB00264913430B6015E0254B002252
:100C4C001A60FFF757FC386108E0FFF753FC0246C7
:100C5C003B69D31A022B01D9032361E11C4B1B689E
:100C6C0003F00203002BF0D17B681B6803F0080330
:100C7C00002B39D07B689B69002B19D0164B0122B5
:100C8C001A60FFF737FC386108E0FFF733FC0246C7
:100C9C003B69D31A022B01D9032341E10C4B5B6A4C
:100CAC0003F00203002BF0D0012000F0A3FA1BE0AC
:100CBC00094B00221A60FFF71DFC38610EE0FFF7AC
:100CCC0019FC02463B69D31A022B07D9032327E1EF
:100CDC00001002400000424280044242924B5B6A88
:100CEC0003F00203002BEAD17B681B6803F00403BA
:100CFC00002B00F0A6800023FB758B4BDB6903F007
:100D0C008053002B0DD1884BDB69874A43F080530D
:100D1C00D361854BDB6903F08053FB60FB680123D7
:100D2C00FB75824B1B6803F48073002B18D17F4B2F
:100D3C001B687E4A43F480731360FFF7DBFB38615A
:100D4C0008E0FFF7D7FB02463B69D31A642B01D9A5
:100D5C000323E5E0754B1B6803F48073002BF0D084
:100D6C007B68DB68012B06D16F4B1B6A6E4A43F024
:100D7C00010313622DE07B68DB68002B0CD16A4BFE
:100D8C001B6A694A23F001031362674B1B6A664AAC
:100D9C0023F0040313621CE07B68DB68052B0CD189
:100DAC00614B1B6A604A43F0040313625E4B1B6A7F
:100DBC005D4A43F0010313620BE05B4B1B6A5A4A1A
:100DCC0023F001031362584B1B6A574A23F00403A8
:100DDC0013627B68DB68002B15D0FFF78BFB386147
:100DEC000AE0FFF787FB02463B69D31A41F28832CF
:100DFC00934201D9032393E04B4B1B6A03F002038C
:100E0C00002BEED014E0FFF775FB38610AE0FFF71A
:100E1C0071FB02463B69D31A41F28832934201D9E5
:100E2C0003237DE0404B1B6A03F00203002BEED141
:100E3C00FB7D012B05D13C4BDB693B4A23F08053F6
:100E4C00D3617B68DB69002B69D0374B5B6803F09F
:100E5C000C03082B61D07B68DB69022B46D1344B29
:100E6C0000221A60FFF746FB386108E0FFF742FBEF
:100E7C0002463B69D31A022B01D9032350E02A4BBB
:100E8C001B6803F00073002BF0D17B681B6AB3F571
:100E9C00803F08D1244B5B6823F400327B689B684D
:100EAC00214913434B60204B5B6823F474127B681D
:100EBC00196A7B685B6A0B431B4913434B601C4BE1
:100ECC0001221A60FFF716FB386108E0FFF712FBEE
:100EDC0002463B69D31A022B01D9032320E0124BA3
:100EEC001B6803F00073002BF0D018E0104B0022AD
:100EFC001A60FFF7FFFA386108E0FFF7FBFA0246C9
:100F0C003B69D31A022B01D9032309E0064B1B685A
:100F1C0003F00073002BF0D101E0012300E000236B
:100F2C0018461837BD4680BD0010024000700040C6
:100F3C006000424280B584B000AF78603960002315
:100F4C00FB60724B1B6803F007033A689A4210D996
:100F5C006E4B1B6823F007026C493B6813430B6014
:100F6C006A4B1B6803F007033A689A4201D00123CD
:100F7C00C8E07B681B6803F00203002B08D0644BAD
:100F8C005B6823F0F0027B689B68614913434B60FC
:100F9C007B681B6803F00103002B6AD07B685B68DD
:100FAC00012B07D15A4B1B6803F40033002B15D1CE
:100FBC000123A7E07B685B68022B07D1544B1B68AD
:100FCC0003F00073002B09D101239BE0504B1B68ED
:100FDC0003F00203002B01D1012393E04C4B5B681F
:100FEC0023F003027B685B68494913434B60FFF7AE
:100FFC0081FAF8607B685B68012B12D10AE0FFF77D
:10100C0079FA0246FB68D31A41F28832934201D92D
:10101C00032377E03E4B5B6803F00C03042BEED10B
:10102C0027E07B685B68022B1DD10AE0FFF762FAB0
:10103C000246FB68D31A41F28832934201D903234A
:10104C0060E0334B5B6803F00C03082BEED110E02F
:10105C00FFF750FA0246FB68D31A41F288329342EA
:10106C0001D903234EE02A4B5B6803F00C03002BE1
:10107C00EED1264B1B6803F007033A689A4210D254
:10108C00224B1B6823F0070220493B6813430B607B
:10109C001E4B1B6803F007033A689A4201D00123E8
:1010AC0030E07B681B6803F00403002B08D0184B5E
:1010BC005B6823F4E0627B68DB68154913434B6083
:1010CC007B681B6803F00803002B09D0104B5B688E
:1010DC0023F460527B681B69DB000D4913434B60A2
:1010EC0000F01CF801460A4B5B681B0903F00F0368
:1010FC00084AD35C21FA03F3074A13600020FFF778
:10110C00CFF9002318461037BD4680BD00200240A1
:10111C0000100240E81200080000002090B48AB0D1
:10112C0000AF2A4B3C1D0FCB84E80F00284B1B88CB
:10113C003B800023FB610023BB6100237B62002307
:10114C007B6100233B62234B5B68FB61FB6903F013
:10115C000C03042B02D0082B03D02DE01E4B3B625A
:10116C002DE0FB699B0C03F00F0307F128021344DD
:10117C0013F8243C7B61FB6903F48033002B13D000
:10118C00144B5B685B0C03F0010307F1280213445A
:10119C0013F8283CBB61104ABB69B2FBF3F27B69C4
:1011AC0002FB03F37B6204E07B690C4A02FB03F352
:1011BC007B627B6A3B6202E0074B3B6200BF3B6A8F
:1011CC0018462837BD4690BC704700BFD4120008A3
:1011DC00E41200080010024000127A0000093D00E1
:1011EC0080B400AF024B1B681846BD4680BC7047EC
:1011FC000000002080B485B000AF78600A4B1B68FB
:10120C000A4AA2FB03235B0A7A6802FB03F3FB6026
:10121C0000BFFB685A1EFA60002BF9D100BF1437CF
:10122C00BD4680BC704700BF00000020D34D62104B
:10123C00002103E00B4B5B58435004310A480B4B25
:10124C0042189A42F6D30A4A02E0002342F8043BC1
:10125C00084B9A42F9D3FFF7D9F8FEF795FFFEF742
:10126C00B7FF7047001300080000002004000020A6
:10127C000400002024000020FEE70000F8B500BFA9
:10128C00F8BC08BC9E467047F8B500BFF8BC08BC5B
:04129C009E467047B3
:1012A0002F686F6D652F616E746F6E2F4465736B61
:1012B000746F702F50726F6A656374732F53544D3F
:1012C00033322F626C696E6B2F5372632F6D6169BD
:1012D0006E2E630002030405060708090A0B0C0DB5
:1012E0000E0F1010010200000000000000000000BE
:0812F0000102030406070809CE
:0412F8007501000874
:0412FC004D01000898
:0413000000A24A04F9
:040000050800123DA0
:00000001FF
