:020000040800F2
:1000000000500020F5430008010300080303000826
:1000100005030008070300080903000800000000AA
:100020000000000000000000000000000B030008BA
:100030000D030008000000000F0300081103000872
:100040003D4400083D4400083D4400083D4400088C
:100050003D4400083D4400083D4400083D4400087C
:100060003D4400083D4400083D4400083D4400086C
:100070003D4400083D4400083D4400083D4400085C
:100080003D4400083D4400083D4400083D4400084C
:100090003D4400083D4400083D4400083D4400083C
:1000A0003D4400083D4400083D4400083D4400082C
:1000B0003D4400083D4400083D4400083D4400081C
:1000C0003D4400083D4400083D4400083D4400080C
:1000D0003D4400083D4400083D4400083D440008FC
:1000E0003D4400083D4400083D4400080000000075
:1000F0000000000000000000000000000000000000
:0C01000000000000000000005FF808F1A3
:10010C000348044B834202D0034B03B1184770479A
:10011C001C0000201C0000200000000005480649BF
:10012C00091A891001EBD171491002D0034B03B1AC
:10013C00184770471C0000201C0000200000000025
:10014C0010B5064C237843B9FFF7DAFF044B13B113
:10015C000448AFF300800123237010BD1C00002065
:10016C00000000004044000808B5044B1BB10449D2
:10017C000448AFF30080BDE80840CFE70000000062
:10018C00200000204044000810B54FF480330122B9
:10019C00022490B0CDE906230021CDE90D434FF4A4
:1001AC00E01306A808910A920F9303F0F1FB00B13B
:1001BC00FEE70F23CDE901344FF480630390CDE9C2
:1001CC000430214601A803F0DDFD044600B1FEE732
:1001DC0003F07AFE4FF47A73B0FBF3F000F016FAEA
:1001EC00042000F099FA224621464FF0FF3000F02F
:1001FC00ADF910B010BDFEE7214B07B59A6903208D
:10020C0042F001029A619B6903F001030193019B87
:10021C0000F08AF900226FF00B00114600F096F9FD
:10022C0000226FF00A00114600F090F900226FF0E6
:10023C000900114600F08AF900226FF00400114603
:10024C0000F084F900226FF00300114600F07EF9F3
:10025C0000226FF00100114600F078F900224FF0F7
:10026C00FF30114600F072F9064B5A6822F0E0623A
:10027C005A605A6842F000725A6003B05DF804FB91
:10028C0000100240000001407FB502680C4B9A42FE
:10029C0013D1C0221223CDE90223032302A909485A
:1002AC00059300F06DFD084BDA6942F40012DA6137
:1002BC00DB6903F400130193019B07B05DF804FBA9
:1002CC0000540040000C0140001002400268064B34
:1002DC009A4208D1054AC021D369054823F400137A
:1002EC00D36100F02DBE7047005400400010024056
:1002FC00000C01407047FEE7FEE7FEE7FEE77047A3
:10030C007047704708B500F08FF8BDE8084000F062
:10031C0010BA00000F4B1A6842F001021A605968BB
:10032C000D4A0A405A601A6822F0847222F4803214
:10033C001A601A6822F480221A605A6822F4FE02AB
:10034C005A604FF41F029A604FF00062034B9A60A0
:10035C00704700BF001002400000FFF800ED00E005
:10036C00104B11495A6802F00C02082A0AD00F4AA5
:10037C000A605B680E4AC3F30313D25C0B68D3406C
:10038C000B6070475A685868C2F38342C00302F18D
:10039C00020202D407484243EAE758688003F9D4C2
:1003AC000248F8E7001002400000002000127A001A
:1003BC005844000800093D007047704710B54FF0D5
:1003CC00FF320024044BDA601C61DA60DC60FFF75A
:1003DC00F4FF204610BD00BF00100240084B10B5C2
:1003EC00044618684FF47A73B0FBF3F000F00EF982
:1003FC00002221464FF0FF3000F0A8F8002010BD7D
:10040C0000000020074A08B51368032043F01003CE
:10041C00136000F089F80020FFF7E0FFFFF7ECFE17
:10042C00002008BD00200240024A1368013313600B
:10043C00704700BF94040020014B1868704700BF40
:10044C009404002037B50190FFF7F6FF0546019C98
:10045C00631C18BF0134FFF7EFFF401BA042FAD317
:10046C0003B030BD024A136823F0020313607047D7
:10047C0010E000E0024A136843F002031360704777
:10048C0010E000E00048704700010101014B1868C2
:10049C00000C7047002004E0024B1868C0F30B00FE
:1004AC00704700BF002004E0024A536843F0010388
:1004BC0053607047002004E0024A536823F00103A4
:1004CC0053607047002004E0024A536843F0020373
:1004DC0053607047002004E0024A536823F0020383
:1004EC0053607047002004E0024A536843F0040351
:1004FC0053607047002004E0024A536823F0040361
:10050C0053607047002004E0044B1B680360044BED
:10051C001B684360034B1B6883607047E8F7FF1F41
:10052C00ECF7FF1FF0F7FF1F074A0002D36800F437
:10053C00E06023F4E0631B041B0C43F0BF6343F443
:10054C0000330343D360704700ED00E0174B70B5E8
:10055C00DC684FF0FF36C4F30224C4F10705042D08
:10056C0004F1040328BF0425062B98BF002406FAC7
:10057C0005F388BF033C21EA0303A34006FA04F405
:10058C0022EA0404002843EA0403A8BF00F16040F7
:10059C004FEA0313B8BF064ADBB2B5BF00F00F0039
:1005AC0000F56140135480F8003370BD00ED00E09D
:1005BC0014ED00E00123420900F01F0003FA00F0E3
:1005CC00014B43F82200704700E100E0012243098F
:1005DC0000F01F0002FA00F0024A203342F8230018
:1005EC00704700BF00E100E0BFF34F8F0549064B99
:1005FC00CA6802F4E0621343CB60BFF34F8F00BFB5
:10060C00FDE700BF00ED00E00400FA050138B0F191
:10061C00807F0AD2F021064B064A586082F82310DC
:10062C000020072298601A6070470120704700BFB5
:10063C0010E000E000ED00E0024BD868C0F30220AF
:10064C00704700BF00ED00E070B50028B8BF154C36
:10065C0001F00701ADBF00F1604000F00F00205C1D
:10066C0000F56140C1F1070401F10405A8BF90F841
:10067C000003042C28BF0424062D98BF00214FF042
:10068C00FF354FEA101088BF033920FA01F605FA3E
:10069C0004F405FA01F126EA040420EA01001460CE
:1006AC00186070BD14ED00E00122430900F01F003A
:1006BC0002FA00F0024A403342F82300704700BFB0
:1006CC0000E100E04309054A403352F8233000F0C2
:1006DC001F0023FA00F000F00100704700E100E079
:1006EC000122430900F01F0002FA00F0024A6033B5
:1006FC0042F82300704700BF00E100E04309054ABF
:10070C00803352F8233000F01F0023FA00F000F081
:10071C000100704700E100E0044B04281A680CBF8C
:10072C0042F0040222F004021A60704710E000E06C
:10073C00704708B5FFF7FCFF08BD00BF10B550B3FC
:10074C0014220168154B0B44B3FBF2F39B000364BA
:10075C00134B0A68C363D0E901342343C46822F401
:10076C007F522343046922F030022343446923431C
:10077C0084692343C469234313430B600122002380
:10078C0080F82120C0E90A33C0E90C33836380F878
:10079C002030184610BD0120FCE700BFF8FFFDBF5C
:1007AC000000024010B5E8B101680F4A0B680A441A
:1007BC0023F001030B6000230B604B608B60CB605C
:1007CC001421B2FBF1F201219200084C026401FAEF
:1007DC0002F2C4636260836380F8213080F82030B9
:1007EC00184610BD0120FCE7F8FFFDBF00000240D9
:1007FC00F0B590F82040012C26D0012490F821501F
:10080C0080F82040A5424FF000064FF0020419D1A9
:10081C0080F8214004688663266826F0010626606D
:10082C00D0E90F67BD407560636043680020102BF2
:10083C000BBFA260A160E160E260236843F001039A
:10084C002360F0BD80F820600220FAE7F0B590F844
:10085C002040012C35D0012490F8215080F8204004
:10086C00A5424FF000064FF0020428D180F8214039
:10087C0004688663266826F001062660D0E90F67B7
:10088C00BD407560636043680568102BC36A0BBF7D
:10089C00A260A160E160E2604BB1236843F00E03FB
:1008AC00002023602B6843F001032B60F0BD23680C
:1008BC0023F004032360236843F00A03F0E780F875
:1008CC0020600220F2E7026803461168C06B21F039
:1008DC000E011160116821F00101116001211A6CE7
:1008EC0001FA02F24260002083F8211083F8200004
:1008FC00704790F8213010B5022B03D0042383638A
:10090C00012010BD03681A6822F00E021A601A68E2
:10091C0022F001021A60194A93421FD014329342FA
:10092C001ED0143293421DD0143293421DD0143277
:10093C0093421DD0143293420CBF4FF480134FF0EE
:10094C0080730F4A00245360012380F82130436BDD
:10095C0080F820407BB198472046D2E70123F0E78E
:10096C001023EEE74FF48073EBE74FF48053E8E786
:10097C004FF48033E5E71846C3E700BF0800024098
:10098C00000002402DE9F84F90F821400546022C5A
:10099C008846174607D004238363002380F8203051
:1009AC000120BDE8F88F03681A68900603D54FF450
:1009BC008073AB63F4E7794E00294AD1B34212D06D
:1009CC00774A93425BD0143293425AD014329342FA
:1009DC005AD0143293425AD0724CA34214BF4FF0E7
:1009EC0000744FF40014FFF727FD8146DFF8C0A117
:1009FC002B686D4A6D48DFF8BCC1DFF8A8E11168BF
:100A0C00214254D0B8F1000F40F0A280B34200F064
:100A1C009280634A934200F090801432934200F02B
:100A2C008E801432934200F08D801432934200F089
:100A3C008C801432934214BF4FF000734FF40013A8
:100A4C00594A5360012385F82130002085F8200095
:100A5C00A7E7B3421ED0524A93421DD014329342A0
:100A6C001CD0143293421CD0143293421CD04D4CE7
:100A7C00A34214BF4FF080644FF48004B3E72024EA
:100A8C00B1E74FF40074AEE74FF40054ABE74FF40A
:100A9C000034A8E70424A6E74024A4E74FF48064BC
:100AAC00A1E74FF480449EE74FF480249BE7B342C8
:100ABC00D2F800B020D03A498B421FD053451FD0FA
:100ACC00834220D0634521D0734514BF4FF00061A1
:100ADC004FF400011BEA010F1BD001202B6CEA6BB9
:100AEC0000FA03F35360AB6B0343AB63002385F84D
:100AFC00210085F8203054E70821EBE78021E9E755
:100B0C004FF40061E6E74FF40041E3E74FF40021B6
:100B1C00E0E7791C3FF473AF2FB9AB6B012043F0C6
:100B2C002003AB63E2E7FFF787FCA0EB0900B842B8
:100B3C007FF65EAFF1E7022382E7202380E74FF4D4
:100B4C0000737DE74FF400537AE74FF4003377E7F7
:100B5C00B34215D0124A934214D01432934213D09C
:100B6C001432934213D01432934213D01432934262
:100B7C0014BF4FF080634FF480030B4A536064E75B
:100B8C000423FAE74023F8E74FF48063F5E74FF4CA
:100B9C008043F2E74FF48023EFE700BF08000240E8
:100BAC001C0002406C000240000002404400024065
:100BBC00300002405800024070B40425C66B026C31
:100BCC003468036895402542196832D04D0730D5FA
:100BDC001A6896065EBF1A6822F004021A603E4A32
:100BEC00934219D01432934218D01432934217D036
:100BFC001432934217D01432934217D014329342CA
:100C0C000CBF4FF480034FF08063344A5360C36AC7
:100C1C00002B5ED070BC18470423F6E74023F4E7A2
:100C2C004FF48063F1E74FF48043EEE74FF48023F9
:100C3C00EBE702259540254235D08D0733D51A6850
:100C4C00940606D41A6822F00A021A60012280F86F
:100C5C002120214A934219D01432934218D01432D5
:100C6C00934217D01432934217D01432934217D0B8
:100C7C00143293420CBF4FF400134FF00073174A19
:100C8C005360002380F82030836AC1E70223F6E723
:100C9C002023F4E74FF40073F1E74FF40053EEE731
:100CAC004FF40033EBE708259540254211D0090796
:100CBC000FD5196821F00E011960012303FA02F215
:100CCC007260836380F82130002380F82030036B3E
:100CDC009EE770BC704700BF080002400000024055
:100CEC0090F8203010B5012B04461AD0012380F85F
:100CFC00203090F82100984211D103290FD8DFE859
:100D0C0001F002080A0CA2620020002384F82030B3
:100D1C0010BDE262F8E72263F6E76263F4E70120B4
:100D2C00F3E70220F4E790F820200346012A1FD0B5
:100D3C00012093F8212083F82000824209D100225F
:100D4C00042913D8DFE801F003090B100D009A6297
:100D5C000020002283F820207047DA62F8E71A633B
:100D6C00F6E7C3E90A221A635A63F1E70120F0E7B8
:100D7C000220704790F821007047806B704700BFCD
:100D8C002DE9F74F00221646654BDFF8A4C1DFF8BA
:100D9C00A4E14FF001080C6808FA06F808EA04040C
:100DAC00A0457ED14D68122D00F0AE8000F28780F8
:100DBC00022D00F0A6807BD8002D00F08D80012D37
:100DCC0000F09D804FF00F09FF2C93BF824606F177
:100DDC008045083DD0F800B092BFB500D0F804B003
:100DEC00AD0009FA05F82BEA080802FA05F588BFE8
:100DFC0000F1040A48EA0505CAF80050D1F804A02D
:100E0C001AF0805F4DD0474F26F00308BD6908F1FA
:100E1C00804845F00105BD61BD6908F5803805F0D5
:100E2C000105019506F0030B019D4FEA8B0BD8F8D9
:100E3C00085009FA0BF925EA09093B4DA84268D07C
:100E4C0005F58065A84266D005F58065A84264D09A
:100E5C0005F58065A8420CBF0325042505FA0BF5A2
:100E6C0045EA0905C8F808501D681AF4803F14BFFC
:100E7C002543A5431D605D681AF4003F14BF25434C
:100E8C00A5435D609D681AF4801F14BF2543A543DC
:100E9C009D60DD681AF4001F14BF2C4325EA04047E
:100EAC00DC600136102E7FF474AF03B0BDE8F08F18
:100EBC00032D22D0112D85D1CA68043282E71B4F35
:100ECC00BD4209D012D8DFF870904D4504D009F519
:100EDC0080394D457FF476AF8A68C2B1012A0CBFC8
:100EEC00C0F81080C0F8148008226BE76545F3D079
:100EFC007545F1D0DFF84490EBE7002262E7CA6851
:100F0C0060E7CA6808325DE7CA680C325AE7042207
:100F1C0058E70025A2E70125A0E702259EE700BFC0
:100F2C0000040140001002400008014000002110A4
:100F3C0000003110000032100000111000002210CF
:100F4C002DE9F04F00224FF001094FF00F0E4FF03A
:100F5C00040A304CDFF8C4B031FA02F301D1BDE819
:100F6C00F08F09FA02F30B404CD0FF2B98BF0746C9
:100F7C006FEA030385BF02F18045083DD0F800C03D
:100F8C00D0F804C094BF9500AD000EFA05F62CEA1B
:100F9C0006060AFA05F588BF071D2E433E60C56894
:100FAC0002F003071D40C56022F0030505F18045E2
:100FBC0005F58035AE68BF000EFA07F808EA060C96
:100FCC00154EB04220D006F58066B0421ED006F514
:100FDC008066B0421CD058450CBF03260426BE4088
:100FEC0066450FD1AE6826EA0806AE6025681D403E
:100FFC00256065681D406560A5681D40A560E568B5
:10100C002B40E3600132A7E70026E8E70126E6E77C
:10101C000226E4E7000401400008014000140140EE
:10102C008368194214BF0120002070470AB1016186
:10103C0070470904FBE7C3685940C16070474FF41F
:10104C00803382B00193019B0B430193019B83611D
:10105C008161019B836183690193806980F4803095
:10106C00C0F3004002B07047704708B5034B596994
:10107C00014202D05861FFF7F7FF08BD00040140A0
:10108C000268536913F480630DD06FF4806353616D
:10109C000423202203640023036380F83C3080F88F
:1010AC003D2001207047184670472DE9F041044659
:1010BC00164698468FB22568686937EA000013D047
:1010CC006B695A0512D52B68202243F400732B60F0
:1010DC006FF480636B61042323640023012023637A
:1010EC0084F83C3084F83D20BDE8F081731CE3D0DB
:1010FC0046B900232022236384F83C3084F83D2039
:10110C000320F1E7FFF798F9A0EB0800B042D2D921
:10111C00EFE72DE9F843054690461F46089E4FEA37
:10112C0011498CB22968B9F1010F0CBF4B698B695D
:10113C0034EA03030CBF01230023984501D000209F
:10114C000CE07B1CEFD05FB90023202203202B6323
:10115C0085F83C3085F83D2085F83E30BDE8F883B5
:10116C00FFF76AF9801BB842DCD9EDE770B504468D
:10117C000D46164623685B691B0601D5002012E05C
:10118C002046FFF77DFFA8B96A1CF3D065B9236C24
:10119C00202243F02003236400230320236384F8DC
:1011AC003C3084F83D2070BDFFF746F9801BA84207
:1011BC00E0D9ECE70120F6E72DE9FF41154602687E
:1011CC00984613680B9E43F4807313600F46009689
:1011DC000A9B00224FF001110446FFF79AFF68B9F1
:1011EC00236807F0FE071F610A9A33461A49204606
:1011FC00FFF75BFF30B1236C042B18D0032004B035
:10120C00BDE8F081236803905A690A9903929B699F
:10121C00324603932046039BFFF7A8FF48B1236C8B
:10122C00042BEBD12268136843F400731360012084
:10123C00E5E7B8F1010F236802D1EDB21D61DEE7DD
:10124C002A0A1A610A9932462046FFF78FFF0028B6
:10125C00E5D12368F1E700BF020001002DE9FF4151
:10126C009846036816461A680B9D42F480621A6011
:10127C001A680F4642F480721A604FF00111009503
:10128C000A9B00220446FFF744FF80B92368FFB293
:10129C0007F0FE021A612D492B460A9A2046FFF7E9
:1012AC0004FF40B1236C042B01D1012000E003208A
:1012BC0004B0BDE8F081236803905A690A9903923F
:1012CC009B692A4603932046039BFFF74FFF40B1CF
:1012DC00236C042BEBD12268136843F40073136066
:1012EC00E3E7B8F1010F236824D1F6B21E612A4658
:1012FC000A992046FFF73AFF02460028E8D12168F8
:10130C0020460B6843F480730B6000950A9B4FF0EA
:10131C000111FFF7FEFE0028C9D1236847F0010731
:10132C001F610A9A2B4609492046FFF7BEFE00288A
:10133C00B8D1BDE7320A1A610A992A462046FFF74E
:10134C0015FF0028C4D12368CFE700BF02000100BD
:10135C0070B504460D4616462068436913F04003E9
:10136C0001D000200DE04269D2060BD56FF01002BF
:10137C00426120220120236484F83C30236384F8EA
:10138C003D2070BD5DB9236C032043F02003236422
:10139C00202384F83D30002384F83C30F1E7FFF73C
:1013AC004BF8801BA842D7D9EDE770B504460D4623
:1013BC00164623685B695B0701D5002012E02046C6
:1013CC00FFF75EFEA8B96A1CF3D065B9236C202226
:1013DC0043F02003236400230320236384F83C3070
:1013EC0084F83D2070BDFFF727F8801BA842E0D998
:1013FC00ECE70120F6E7704770B50446002863D08F
:10140C0090F83D3003F0FF021BB980F83C20FEF74A
:10141C003BFF2423226884F83D3013682B4E23F0C5
:10142C000103136002F056FD6368294DB342B0FB13
:10143C00F5F588BF4FF49671226888BF69435560F3
:10144C0085BF4FF47A75B1FBF5F1691C0131B342DC
:10145C00116221D85B00B0FBF3F0C0F30B03032B3C
:10146C0098BF0420D4E907310B43D0611360D4E951
:10147C0003130B439360D4E905310B43D36013681A
:10148C00002043F0010313602023206484F83D30D6
:10149C00206384F83E0070BDA16849B903EB430397
:1014AC00B0FBF3F0C0F30B0363B140F40040D9E799
:1014BC0019214B43B0FBF3F0C0F30B0313B140F411
:1014CC004040CFE70120CDE70120E4E7A0860100F2
:1014DC0040420F00704710B5044698B124230268AF
:1014EC0080F83D30136823F001031360FEF7EEFE25
:1014FC000020206484F83C0084F83D00206384F8CC
:10150C003E0010BD0120FCE72DE9FF4104461F46BB
:10151C000D469046FEF790FF94F83D300646202B82
:10152C0004D00225284604B0BDE8F08100901923B0
:10153C0001225C492046FFF7ECFD0028F1D194F81C
:10154C003C30012BEDD0012384F83C3023681A6821
:10155C00D2075EBF1A6842F001021A601A6822F4C0
:10156C0000621A60212284F83D20102284F83E206B
:10157C0000222264A2F580326785E262628DC4F893
:10158C0024802285E26A042A04D0012A02D012F5B2
:10159C00803F04D11A6842F480721A6002E0226B18
:1015AC00122AF7D000960A9B00224FF00111204618
:1015BC00FFF7AFFD002833D123692268B3F5804FC4
:1015CC0020D105F0FE05156133460A9A36492046AE
:1015DC00FFF76BFD054610BB236803905A69039215
:1015EC009B690393039B238D3BBB21680A6842F4E0
:1015FC0000720A60202284F83C3084F83D2084F884
:10160C003E308FE7EB1103F0060343F0F003136158
:10161C00264933460A9A2046FFF747FD48B1236C0A
:10162C00236C042B4FF0000384F83C300ED10125C1
:10163C0078E72368EDB21D61C6E732460A99204669
:10164C00FFF794FD20B1236C042B25D0032569E70B
:10165C00616A20684B1C63620B78228D0361638D79
:10166C00013B9BB263854769531E9BB27F07238561
:10167C000AD54BB18B1C63624B78023A0361638DC4
:10168C002285013B9BB2638532460A992046FFF7BF
:10169C008CFE0028A7D0D6E72268136843F40073A9
:1016AC001360C4E7020010000200010008000100F2
:1016BC002DE9F043044689B098460D469146109F9B
:1016CC00FEF7BAFE94F83D300646202B04D00225D6
:1016DC00284609B0BDE8F083009019230122A149E6
:1016EC002046FFF716FD0028F1D194F83C30012B71
:1016FC00EDD0012384F83C3023681A68D1075EBF13
:10170C001A6842F001021A601A6822F400621A6028
:10171C00222284F83D20102284F83E2000222264EC
:10172C00A2F58032A4F82A80E262628DC4F824907B
:10173C002285E26A1968042A41F48061196004D098
:10174C00012A02D012F5803F04D11A6842F480724B
:10175C001A6002E0226B112AF7D000963B46002259
:10176C004FF001112046FFF7D4FC00284ED122691E
:10177C002368B2F5804F3AD145F00105EDB21D61F9
:10178C0033463A4678492046FFF78FFC0546002839
:10179C003BD1228D2368002A66D0012A77D11A68A2
:1017AC0022F480621A6072B6236804905A6904921B
:1017BC009A690492049A1A6842F400721A6062B62A
:1017CC00DFF8AC81238D002B58D0032B00F2D28094
:1017DC00012B78D1324639462046FFF7B9FD002857
:1017EC0000F09080236C202B17D1032570E74FEA73
:1017FC00E51808F0060848F0F0021A615B49334618
:10180C003A462046FFF751FC48B1236C236C042B5D
:10181C004FF0000384F83C30E7D1012558E72368EA
:10182C00EDB21D613A4633464F492046FFF73DFC69
:10183C0002460028E9D12368079059692046079190
:10184C00996907910799196841F48071196000969C
:10185C003B464FF00111FFF75CFC0028D6D1226803
:10186C0048F0F10313618BE703905A6903929A696C
:10187C000392039A1A6842F400721A60202384F8C7
:10188C003D30002384F83E3084F83C3020E7022AB7
:10189C001A680ED142F400621A6072B62368059081
:1018AC005A6905929A690592059A1A6822F480621F
:1018BC0084E742F480621A6006905A6906929B692A
:1018CC000693069B7CE7022B00963B464FF00002EA
:1018DC004146204624D1FFF71CFC002885D172B666
:1018EC0023681A6842F400721A601A69636A591CF8
:1018FC0061621A70238D013B2385638D013B9BB282
:10190C00638562B623681A69636A591C61621A702E
:10191C00238D013B2385638D013B9BB2638551E78E
:10192C00FFF7F7FB024600287FF45FAF21680B68D6
:10193C0023F480630B6072B623681969636A581CC0
:10194C0060621970238D0096013B2385638D41469F
:10195C00013B9BB2638520463B46FFF7DAFB002830
:10196C00BED042E702001000020001000800010096
:10197C0004000100324639462046FFF7E9FC0028F6
:10198C007FF430AF23681A69636A591C61621A705C
:10199C00238D013B2385638D013B9BB263852368BB
:1019AC005A6952077FF50EAFADE72DE9FF410446AA
:1019BC001D460F469046FEF73FFD94F83D30064617
:1019CC00202B40F09A801FB9012004B0BDE8F081B3
:1019DC00B8F1000FF8D094F83C30012B00F08D805A
:1019EC00012384F83C30236845491A68D2074FF02C
:1019FC0021025EBF186840F001001860186820F4DE
:101A0C000060186084F83D20202284F83E200022DB
:101A1C002264A4F82A80E162618D676221851968CD
:101A2C00204641F48061196000962B463549FFF73A
:101A3C0070FB0246002841D123680290596902913B
:101A4C009B690293029B2369B3F5404F0ED100961C
:101A5C002B462C492046FFF75CFB00282ED123682F
:101A6C0003905A6903929B690393039B228DBAB925
:101A7C0000962B464FF482312046FFF74AFBE8B91B
:101A8C006FF4806223685A611A6822F480621A60CB
:101A9C00202384F83C0084F83D3084F83E0094E721
:101AAC00324629462046FFF761FB236840B11A688D
:101ABC0022F480621A60236C042B85D0032084E707
:101ACC00616A4A1C62620A781A61628D013A92B2AA
:101ADC006285228D5F69501E80B27F072085C5D537
:101AEC000028C3D0881C60624978023A1961638D62
:101AFC002285013B9BB26385B8E7022065E700BFF6
:101B0C000000FFFF020001002DE9FF4104461E46C4
:101B1C000D469046FEF790FC94F83D300746202B7E
:101B2C0040F0A780002D63D0B8F1000F60D094F87E
:101B3C003C30012B00F09D80012384F83C3023685D
:101B4C004D491A68D0074FF022025EBF186840F06A
:101B5C0001001860186820F40060186084F83D20BB
:101B6C00202284F83E2000222264A4F82A80E1621C
:101B7C00618D656221851968204641F48061196088
:101B8C00009733463D49FFF7C4FA054600286ED14D
:101B9C00236802905A6902929B690293029B238DDF
:101BAC00C3B923685A69D20644D5002203925969F5
:101BBC000391196841F0010119600399196821F426
:101BCC0080611960202384F83C2084F83D3084F82F
:101BDC003E200EE03A4631462046FFF7B9FB23681B
:101BEC0058B11A6822F480621A60236C202B3ED004
:101BFC000125284604B0BDE8F0811A69636A591CB6
:101C0C0061621A70238D013B2385638D013B9BB26E
:101C1C00638523685A695107C1D51A69636A591CCF
:101C2C0061621A70238D013B2385638D013B9BB24E
:101C3C006385B4E72046FFF723FA80B926B1FEF797
:101C4C00FBFBC01B8642ACD2236C202243F020034A
:101C5C0023640023236384F83C3084F83D202268FD
:101C6C00136823F480631360236C042BC0D003250A
:101C7C00BFE70225BDE700BF0000FFFF0200010027
:101C8C0037B50024019490F83D40202C02D002205E
:101C9C0003B030BD46F2A815214C2468B4FBF5F511
:101CAC0019246C430194019C651E01953CB92023B9
:101CBC00046380F83C4080F83D300320E8E704687A
:101CCC00A569AD07EFD490F83C50012DDFD001256C
:101CDC0080F83C502568ED075EBF256845F001058E
:101CEC002560256825F400652560212580F83D5088
:101CFC00102580F83E50002505644385094B42624F
:101D0C00C362438D41640385236843F4807323606D
:101D1C00636880F83C5043F4E06363602846B7E79F
:101D2C00000000200000FFFF37B50024019490F85C
:101D3C003D40202C02D0022003B030BD46F2A81545
:101D4C00234C2468B4FBF5F519246C430194019CD5
:101D5C00651E01953CB92023046380F83C4080F853
:101D6C003D300320E8E70468A569AD07EFD490F88F
:101D7C003C50012DDFD0012580F83C502568ED0743
:101D8C005EBF256845F001052560256825F40065D2
:101D9C002560222580F83D50102580F83E50002506
:101DAC00056443850B4B4262C362438D41640385DA
:101DBC00236843F480632360236843F480732360B7
:101DCC00636880F83C5043F4E06363602846B3E7F3
:101DDC00000000200000FFFF73B500240094019464
:101DEC0090F83D40069D202C02D0022002B070BD20
:101DFC00042D01D0012D18D146F2A816254C2468CB
:101E0C00B4FBF6F6192474430194019C661E0196EA
:101E1C003CB92023046380F83C4080F83D3003201B
:101E2C00E4E70468A469A407EFD490F83C40012CC3
:101E3C00DBD0012480F83C4004682668F6075EBFBE
:101E4C00266846F001062660266826F400662660A1
:101E5C00212680F83D60102680F83E60002606643E
:101E6C004385C562438D41640385036B42620093D5
:101E7C00009B122B01D0009B1BB9236843F4807389
:101E8C0023600023626880F83C3042F4E0626260B8
:101E9C001846ABE70000002073B50024019490F8BD
:101EAC003D40069D202C02D0022002B070BD042DB6
:101EBC0001D0012D18D146F2A816274C2468B4FB8A
:101ECC00F6F6192474430194019C661E01963CB9E4
:101EDC002023046380F83C4080F83D300320E4E785
:101EEC000468A469A407EFD490F83C40012CDBD023
:101EFC00012480F83C4004682668F6075EBF26681B
:101F0C0046F001062660266826F400662660222626
:101F1C0080F83D60102680F83E60002606644385FC
:101F2C00C562438D41640385036B4262112B01D062
:101F3C00036B3BB9236843F480632360236843F449
:101F4C00807323600023626880F83C3042F4E062C6
:101F5C0062601846A9E700BF00000020002313B5FB
:101F6C00019390F83D30202B02D0022002B010BD1E
:101F7C00002946D0002A44D046F2A814224B1B68F4
:101F8C00B3FBF4F4192363430193019B5C1E01948E
:101F9C003BB92022036380F83C3080F83D200320BD
:101FAC00E4E703689C69A407EFD490F83C40012C4B
:101FBC00DBD0012480F83C401C68E4075EBF1C6841
:101FCC0044F001041C601C6824F400641C6021248F
:101FDC0080F83D40202480F83E4000240464428573
:101FEC000A4A4162C262428D02851A6842F48062DA
:101FFC001A605A6880F83C4042F4E0625A6020460D
:10200C00B4E70120B2E700BF000000200000FFFF92
:10201C00002313B5019390F83D30202B02D0022001
:10202C0002B010BD002945D0002A43D046F2A814B6
:10203C00214B1B68B3FBF4F4192363430193019BFD
:10204C005C1E01943BB92022036380F83C3080F87D
:10205C003D200320E4E703689C69A407EFD490F8C3
:10206C003C40012CDBD0012480F83C401C68E40788
:10207C005EBF1C6844F001041C601C6824F40064FE
:10208C001C60222480F83D40202480F83E4000242F
:10209C00028504644285094A4162C2621A6842F4AC
:1020AC0080621A605A6880F83C4042F4E0625A60E0
:1020BC002046B5E70120B3E7000000200000FFFF39
:1020CC0037B590F83D40282C34D1002930D0002A67
:1020DC002ED090F83C40012C2CD00124056880F8BF
:1020EC003C402C68E4075EBF2C6844F001042C6073
:1020FC002C6824F400642C60292480F83D402024B2
:10210C0080F83E40002404644285C362438D0194F0
:10211C0003856B6941620193AB6980F83C402046B2
:10212C000193019B6B6843F4E0636B6003B030BDBB
:10213C000120FBE70220F9E737B590F83D40282C49
:10214C0034D1002930D0002A2ED090F83C40012CFC
:10215C002CD00124056880F83C402C68E4075EBF55
:10216C002C6844F001042C602C6824F400642C606E
:10217C002A2480F83D40202480F83E40002404644A
:10218C004285C362438D019403856B69416201935F
:10219C00AB6980F83C4020460193019B6B6843F48B
:1021AC00E0636B6003B030BD0120FBE70220F9E770
:1021BC0090F83D30202B14D1282380F83D30036853
:1021CC0000201A68D2075EBF1A6842F001021A603A
:1021DC001A6842F480621A605A6842F440725A607B
:1021EC0070470220704790F83D30282B18D190F89A
:1021FC003D2090F83E3002F003021343036320238A
:10220C0080F83D300023026880F83E301168184693
:10221C0021F480611160516821F440715160704764
:10222C000220704773B50E4611460022019290F8B9
:10223C003D200446202A02D0022002B070BD46F296
:10224C00A810344A1268B2FBF0F0192242430192F2
:10225C00019A501E01903AB92023226384F83C2045
:10226C0084F83D300320E8E7226890698507EFD4B5
:10227C0094F83C000128DFD0012084F83C00106861
:10228C000025C0075EBF106840F0010010601068A8
:10229C0020F400601060212084F83D00102084F8A8
:1022AC003E00256463851C4B6162E362638D66644A
:1022BC009BB22385F3B1606B184E10328662184EB8
:1022CC004563C0E90B56FEF7C1FA236828461A6825
:1022DC0042F480621A601A6842F480721A605A687A
:1022EC0084F83C5042F440725A605A6842F40062DE
:1022FC005A60A2E71168184641F4806111601168B8
:10230C0041F480711160516884F83C3041F4E06113
:10231C00516092E7000000200000FFFF012F000831
:10232C00D72E000873B504460020019094F83D00A8
:10233C00202802D0022002B070BD46F2A815354804
:10234C000068B0FBF5F51920684301900198451E13
:10235C00019538B92023206384F83C0084F83D3083
:10236C000320E8E72568A8698607EFD494F83C00B9
:10237C000128DFD0012084F83C0028680026C00723
:10238C005EBF286840F001002860286820F40060D7
:10239C002860222084F83D00102084F83E0026643A
:1023AC0063851D4B6262E362638D61649BB223851E
:1023BC00FBB1A06B1949466381621949C0E90B61F5
:1023CC0005F11001FEF742FA236830461A6842F410
:1023DC0080621A601A6842F480721A605A6884F833
:1023EC003C6042F440725A605A6842F400625A608F
:1023FC00A1E72A68184642F480622A602A6842F4EF
:10240C0080722A606A6884F83C3042F4E0626A6048
:10241C0091E700BF000000200000FFFF012F000823
:10242C00D72E0008002373B5019390F83D30044675
:10243C00202B164602D0022002B070BD002958D0C5
:10244C00002A56D046F2A8102B4B1B68B3FBF0F0B9
:10245C00192343430193019B5A1E01923BB920223D
:10246C00236384F83C3084F83D200320E4E72368A0
:10247C009A699007EFD494F83C20012ADBD0012212
:10248C0084F83C201A680025D20758BF18681A46F1
:10249C005CBF40F0010018601868212320F4006034
:1024AC0042F8100B84F83D30202384F83E30134B57
:1024BC0025646685E362638D606B114E9BB2238548
:1024CC00616286620F4E4563C0E90B56FEF7BEF99A
:1024DC00236828461A6842F480621A605A6884F8A5
:1024EC003C5042F440725A605A6842F400625A609E
:1024FC00A2E70120A0E700BF000000200000FFFFC2
:10250C00012F0008D72E0008002373B5019390F813
:10251C003D300446202B0E4602D0022002B070BD86
:10252C00002958D0002A56D046F2A8112B4B1B6814
:10253C00B3FBF1F119234B430193019B591E0191FC
:10254C003BB92022236384F83C3084F83D200320DF
:10255C00E4E7236899698807EFD494F83C100129C3
:10256C00DBD0012184F83C1019680025C9075EBF37
:10257C00196841F00101196018681946222320F4EA
:10258C00006041F8100B84F83D30202384F83E3075
:10259C00134B25646285E362638DA06B114A9BB279
:1025AC00238566628262104A4563C0E90B5232464B
:1025BC00FEF74CF9236828461A6842F480621A60C8
:1025CC005A6884F83C5042F440725A605A6842F49B
:1025DC0000625A60A2E70120A0E700BF00000020C3
:1025EC000000FFFF012F0008D72E00082DE9F3474C
:1025FC0004469A46884691460C9EFDF71DFF94F8BA
:10260C003D300546202B03D0022002B0BDE8F087F8
:10261C000090192301223E492046FEF77AFD00283E
:10262C00F2D194F83C30012BEED0012384F83C30ED
:10263C00236800271A684146D20758BF1A682046FB
:10264C005CBF42F001021A601A6822F400621A6040
:10265C00212384F83D30402384F83E300A9B2764C4
:10266C006362BDF82C30CDE900656385294B4A4681
:10267C00E362638D23855346FEF79EFD00282AD026
:10268C00236C84F83C70042B07D10120BDE7FEF7C6
:10269C006DFD20B1236C042B34D00320B5E7616AA7
:1026AC0027684B1C63620B78228D3B61638D501E37
:1026BC00013B9BB263857B6980B25B0720850AD5A1
:1026CC0048B18B1C63624B78023A3B61638D228567
:1026DC00013B9BB26385238D2A4631462046002B55
:1026EC00D5D1FEF762FE0028D4D12268136843F4DA
:1026FC0000731360202384F83C0084F83D3084F888
:10270C003E0082E72268136843F400731360BCE751
:10271C00020010000000FFFF2DE9F047044686B0D0
:10272C009A460D469146109FFDF786FE94F83D3073
:10273C000646202B04D00225284606B0BDE8F087BB
:10274C0000901923012280492046FEF7E2FC002864
:10275C00F1D194F83C30012BEDD0012384F83C30BE
:10276C0023684FF000081A682046D10758BF1A6832
:10277C0029465CBF42F001021A601A6822F400621A
:10278C001A60222384F83D30402384F83E300E9B9F
:10279C00C4F840806362BDF83C30CDE900766385B7
:1027AC006A4B4A46E362638D23855346FEF756FD1A
:1027BC00054630B1236C84F83C80042B3DD10125B7
:1027CC00BAE7228D236892B902905A6902929A69EB
:1027DC000292029A1A6842F400721A60202384F85A
:1027EC003D30002384F83E3084F83C30A4E7012AC5
:1027FC0025D11A6822F480621A6072B6236803909D
:10280C005A6903929A690392039A1A6842F4007205
:10281C001A6062B6DFF83881238D002BDED0032BD3
:10282C0077D8012B27D1324639462046FEF790FD4A
:10283C0000283FD0236C202BC1D103257CE7022A32
:10284C001A680ED142F400621A6072B623680490C2
:10285C005A6904929A690492049A1A6822F4806262
:10286C00D6E742F480621A6005905A6905929B691A
:10287C000593059BCEE7022B00963B464FF00002DA
:10288C004146204624D1FEF744FC0028D5D172B62F
:10289C0023681A6842F400721A601A69636A591C38
:1028AC0061621A70238D013B2385638D013B9BB2C2
:1028BC00638562B623681A69636A591C61621A706F
:1028CC00238D013B2385638D013B9BB26385A3E77D
:1028DC00FEF71FFC02460028AFD121680B6823F4D9
:1028EC0080630B6072B623681969636A581C606256
:1028FC001970238D0096013B2385638D4146013B66
:10290C009BB2638520463B46FEF703FC0028BFD0F4
:10291C0093E7324639462046FEF71AFD002889D146
:10292C0023681A69636A591C61621A70238D013B12
:10293C002385638D013B9BB2638523685A695207DB
:10294C007FF56AAFB7E700BF020010000000FFFF81
:10295C0004000100F7B50024019490F83D40BDF847
:10296C002460202C02D0022003B0F0BD46F2A81542
:10297C00234C2468B4FBF5F519246C430194019C99
:10298C00651E01953CB92023046380F83C4080F817
:10299C003D300320E8E70468A569AF07EFD490F851
:1029AC003C50012DDFD0012580F83C502568089F54
:1029BC00ED075EBF256845F001052560256825F407
:1029CC0000652560212580F83D50402580F83E505B
:1029DC0000250685056446850A4E4762C662416439
:1029EC008264C3640565236843F480732360636861
:1029FC0080F83C5043F4E06363602846B4E700BFC2
:102A0C00000000200000FFFFF7B50024019490F8AF
:102A1C003D40BDF82450202C02D0022003B0F0BD64
:102A2C0046F2A816264C2468B4FBF6F61924744317
:102A3C000194019C661E01963CB92023046380F826
:102A4C003C4080F83D300320E8E70468A669B707EE
:102A5C00EFD490F83C60012EDFD0012680F83C606A
:102A6C002668089FF6075EBF266846F001062660BA
:102A7C00266826F400662660222680F83D604026F3
:102A8C0080F83E60002647620E4F06644585C7629B
:102A9C0041648264C36406652368058543F48063DE
:102AAC002360236843F48073236080F83C602DB16D
:102ABC006368304643F4E0636360AFE72846ADE7F4
:102ACC00000000200000FFFF2DE9F04F9A46002384
:102ADC00044685B00293884691460E9FBDF83C5043
:102AEC00FDF7AAFC94F83D308346202B03D002203E
:102AFC0005B0BDE8F08F46F2A812354B1B68B3FB4E
:102B0C00F2F2192353430293029B5A1E02923BB9D1
:102B1C002022236384F83C3084F83D200320E7E72F
:102B2C00226893699907EFD494F83C30012BDED0DE
:102B3C00012384F83C3013680026DB075EBF136862
:102B4C0043F001031360136823F400631360212323
:102B5C0084F83D30402384F83E301E4B2664676277
:102B6C0065852585E362002D2FD0606B1A4B1032E2
:102B7C0083621A4B3946C0E90B6346632B46FDF75B
:102B8C0065FE2323CDF804B000934A4653464146D4
:102B9C002046FEF711FB30B1236C84F83C60042B0B
:102BAC00BCD10120A4E7236803905A6903929A6967
:102BBC0084F83C000392039A5A6842F480725A607B
:102BCC005A6842F400625A6092E7284690E700BFC8
:102BDC00000000200000FFFF012F0008D72E000886
:102BEC002DE9F0471F460023044686B003930D469B
:102BFC001646DDF838A0BDF83C80FDF71DFC94F8B6
:102C0C003D308146202B03D0022006B0BDE8F08772
:102C1C0046F2A8124C4B1B68B3FBF2F21923534338
:102C2C000393039B5A1E03923BB92022236384F81F
:102C3C003D2084F83C300320E7E721688B699A0734
:102C4C00EFD494F83C30012BDED0012384F83C30D7
:102C5C000B680022DB075EBF0B6843F001030B60BF
:102C6C000B6823F400630B60222384F83D3040236F
:102C7C0084F83E30354B2264A4F82A80E362638DDD
:102C8C00C4F824A09BB22385002B3FD0A06BDFF8A7
:102C9C00C0C01031C0F828C0DFF8B8C0C0E90CC201
:102CAC005246FDF7D3FD2323CDF804900093324612
:102CBC003B4629462046FEF7D1FA40B1236C042B43
:102CCC004FF00003B5D184F83C3001209DE7236818
:102CDC00B8F1010F0BBF1A685A6822F4806242F4F3
:102CEC0080520CBF1A605A600022049259690491F8
:102CFC00996984F83C20049104995A6842F48072D2
:102D0C005A605A6842F400625A607EE72323CDF879
:102D1C000490009332463B4629462046FEF79EFA25
:102D2C000028CBD1236805905A6905929A690592BF
:102D3C00059A1A6842F400721A60202384F83C0049
:102D4C0084F83D3061E700BF000000200000FFFF69
:102D5C00012F0008D72E00082DE9F04F044685B04E
:102D6C00984689469246FDF767FB94F83D30064637
:102D7C00202B03D0022005B0BDE8F08F0090192362
:102D8C0001224B492046FEF7C4F90028F2D194F8F1
:102D9C003C30012BEED0012384F83C302368002515
:102DAC001A68DFF80CB1D20758BF1A6809F0FE098F
:102DBC005CBF42F001021A601A6822F400621A60C9
:102DCC00242384F83D303B4B2564E36222684FF0AA
:102DDC0001111368204643F4807313600096434638
:102DEC000022FEF796F908B10320C4E72368A02758
:102DFC00C3F81090FDF720FB0646236859695A6901
:102E0C0094F83D30C1F34001C2F38022DBB211B91A
:102E1C000AB9A02B20D12027236884F83D705A6969
:102E2C0012F0020F1A6842F400721A602AD00022C3
:102E3C0003925A691E4903929B6901220393039BD7
:102E4C00009619232046FEF764F90028CCD184F8AB
:102E5C003D7084F83C008EE7B8F1000F0CD184F87B
:102E6C003D70236859695A6994F83D30C1F34001AB
:102E7C00C2F38022DBB2CAE7FDF7DEFA801B4045C5
:102E8C00EDD8EEE76FF4806259465A612046009601
:102E9C0019230122FEF73DF90028A5D10135AA45D9
:102EAC0094D884F83C0084F83D70012063E700BF9F
:102EBC00020010000000FFFF70477047704770471A
:102ECC0070477047704770477047406A08B5026892
:102EDC00136823F48063136000232022438580F859
:102EEC003D2080F83E30036C43F010030364FFF781
:102EFC00EBFF08BD406A08B590F83D2090F83E10F5
:102F0C00D2B2212AC9B2036803D0222A0CD12029BB
:102F1C000AD15A6822F400625A60002242855A682B
:102F2C0042F440725A6008BD1A6822F480621A603A
:102F3C001A6842F400721A605A6822F480525A607D
:102F4C005A6822F400625A6000234385036C13B163
:102F5C00FFF7BAFFE7E7202280F83D2090F83E20EB
:102F6C0080F83E30402A02D1FFF7ADFFDBE7FFF7D8
:102F7C00A4FFD8E7704790F83D2010B5293A012AF4
:102F8C000446036839D800220263282280F83D20C9
:102F9C001A6822F400621A605A6812F4006254D063
:102FAC005A68606B22F400625A6090F82130012B51
:102FBC00384B31D04363FDF79CFC50B12268606BF9
:102FCC00136823F001031360202384F83D30436B16
:102FDC00984794F83D30282B0ED1236C5B070BD50A
:102FEC002D4B2022E36200232046236384F83D20EE
:102FFC0084F83E30FFF765FF10BD90F83D20602A45
:10300C0005D05A6812055CBF202280F83D200022B2
:10301C00226384F83E20BBE7A06B4363FDF769FC99
:10302C000028D6D023685A69500604D51A69636AF9
:10303C00591C61621A702268A06B136823F001039B
:10304C001360202384F83D30C1E794F83D106029CB
:10305C0014D1202184F83D1022645A69510604D5FC
:10306C001A69636A591C61621A70226820461368D7
:10307C0023F001031360FFF77DFFAAE75A6952069C
:10308C0004D51A69636A591C61621A702046FFF7ED
:10309C001BFF9EE7FD3800080000FFFF90F83E2064
:1030AC0010B5102A1CD190F83C20012A1AD000240B
:1030BC006022046380F83D200268116821F480616D
:1030CC001160116841F4007111604485516821F45C
:1030DC00E061516080F83C40FFF74DFF204610BD89
:1030EC000120FCE70220FAE70368F0B59D695969F5
:1030FC005A6890F83E408DB0E4B2102C02D0402CAF
:10310C0040F0518211F0011F66D0970564D590F8FC
:10311C003E40402C43D1046D002C3BD1446C04F058
:10312C00FE041C61944E954C2E400C40002E00F079
:10313C00A281934D0D40002D00F06981550540F1A1
:10314C006681002C40F0658190F83D20058D90F84B
:10315C003E10D2B2C9B2C46A002D40F01781212AA8
:10316C0040F01681042C00F06F81082C00F06C816B
:10317C0014F5803F00F068815A6822F4E0625A60CE
:10318C001123036380F83E50202380F83D30FFF775
:10319C0093FE18E1446C44F00104E4B2C1E7046905
:1031AC00B4F5804F05D190F83D40212C446CF2D100
:1031BC00B5E7046D34B9446CE41104F0060444F032
:1031CC00F004AEE7046D012CACD1446CE41104F0B6
:1031DC00060444F0F104A4E76A4C0C401CB19605BB
:1031EC0001D5446CD9E7684C0C40002C9AD094055E
:1031FC0098D590F83E40C66AD0F830C090F83D7033
:10320C00E4B2222F40F0AF80076D47B9402C06D1B5
:10321C0000975C6900949C690094009C82E7046DA3
:10322C008CB90769B7F5404F0DD101945C690194D5
:10323C009C690194019C1C6844F480741C60046DAE
:10324C00013404656EE7448DA4B254B902945C69F0
:10325C0002949C690294029C1C6844F400741C60E7
:10326C0019E0448DA4B2012C42D116F5803F1BD13C
:10327C001C6824F480641C605C6814F400640CD03A
:10328C001C6824F480641C60002403945C6903941F
:10329C009C690394039C0024D3E704945C69049414
:1032AC009C690494049CD7E7042E15D0082E13D0E7
:1032BC00BCF1120F10D0C46A022C1C6814BF24F489
:1032CC00806444F480641C60002405945C6905945B
:1032DC009C690594059CDEE71C6824F480641C60E2
:1032EC00002406945C6906949C690694069CB3E7DA
:1032FC00448DA4B2022C23D1C46A0026022C1C6873
:10330C0014D044F400641C6007965C6907949C69B3
:10331C000794079C1C6824F480641C605C68270577
:10332C00B9D55C6844F480545C60B4E744F48064C0
:10333C001C6008965C6908949C690894089CEDE7ED
:10334C001C6844F480641C605C68260542BF5C68A1
:10335C0044F480545C60002409945C6909949C6971
:10336C000994099C97E700240A945C690A949C6967
:10337C000A940A9CD6E600BF040010000400010069
:10338C00800001000800010002000100212A03D086
:10339C00402918D1222A16D1428D92B222B95A68EC
:1033AC0022F480625A600EE090F83E20402A28D128
:1033BC00026D82B9C26C012A826C06D1D2B21A613A
:1033CC00036D023303650DB0F0BDC2F307221A6121
:1033DC00036D0133F6E7026D012A02D1826CD2B281
:1033EC00F5E7026D022AEED190F83D20222A04D195
:1033FC001A6842F480721A60E5E790F83D20212AA1
:10340C00E1D1426A511C416212781A619AE0002C97
:10341C00D9D09405D7D5C16A90F83D20212AD2D1B4
:10342C00428D92B2002AECD104290DD008290BD080
:10343C0011F5803F08D0596821F4E06159601123DF
:10344C00036380F83E209FE65A6822F4E0625A60DB
:10345C001A6842F400721A6000232022036380F879
:10346C003D2090F83E2080F83E30402A7FF48FAE0D
:10347C00FFF728FDA7E78D4D0D40002D46D05105D7
:10348C0044D5002C45D190F83D20222A9BD1428D69
:10349C0092B2032A05D91A69436A591C41621A70FF
:1034AC0050E0023A012AC26A0DD8022A1A681DBFDE
:1034BC0022F480621A601A6842F4806218BF42F4E7
:1034CC0000621A606BE7022A1A6814BF22F4806249
:1034DC0042F480621A605A6822F4E0625A601A69F7
:1034EC00436A591C41621A70438D013B9BB2438560
:1034FC00202380F83D300023036390F83E2080F8B1
:10350C003E30402A4CD1FFF7DEFC5CE7002C3FF448
:10351C005AAF97057FF557AFC26A458D416AADB278
:10352C00032D01F1010412D1042A04D0082A02D07F
:10353C0012F5803F03D11A6822F480621A601B696D
:10354C0044620B70438D013B9BB243853BE7458D39
:10355C00ADB2022DF3D1042A19D0082A17D012F5D6
:10356C00803F14D0022A1A6814BF22F4806242F4FD
:10357C0080621A605A6822F440725A601B69446275
:10358C000B70438D013B9BB243850368A7E75A68D8
:10359C0022F440725A601A6842F400721A60EDE725
:1035AC00FFF78BFC0FE7424C0C4074B196050CD521
:1035BC0099699B6981F004011D06C1F3800154BF18
:1035CC008289028BFFF77CFCFDE63A4C0C40002C08
:1035DC0074D0940572D590F83D205968D2B221F47C
:1035EC00E061596000210B9159690B91196841F008
:1035FC00010119600B99196821F4806119605968EF
:10360C0009050CD590F83D10222903D090F83D10F7
:10361C002A292AD1816B0968496889B24185418D73
:10362C0089B2E1B159694F0708D51969436A5C1C25
:10363C0044621970438D013B9BB243850368596901
:10364C004E0608D51969436A5C1C44621970438D97
:10365C00013B9BB24385036C43F004030364036C8E
:10366C002BB10DB0BDE8F04085E4416BD3E7A2F17E
:10367C00280102290AD8104AC2622022036380F86A
:10368C003D2080F83E30FFF71CFC9CE6036B222BA0
:10369C0002D0222A7FF497AE00232022036380F805
:1036AC003D2080F83E30FFF70AFC8CE6400001001C
:1036BC0002000100100001000000FFFF394E3A4CDF
:1036CC002E400C40002E36D0384D0D403DB35505E4
:1036DC0025D53CBB90F83D10428DC9B292B2002A60
:1036EC003FF471AE426A541C446212781A61428DE6
:1036FC00013A92B24285428D92B2002A7FF463AEB7
:10370C0029297FF460AE5A6822F480625A60212322
:10371C000363282380F83D30FFF7D0FB53E6002CE1
:10372C003FF451AE94057FF54EAE428D92B2002A15
:10373C007FF467AE47E61E4D0D4035B3510524D5D9
:10374C0034BB90F83D20418DD2B289B200293FF4B0
:10375C003AAE1969436A5C1C44621970438D013B93
:10376C009BB24385438D9BB2002B7FF42CAE2A2A4F
:10377C007FF429AE0268536823F4806353602223DC
:10378C000363282380F83D308DE7002C3FF41BAEFB
:10379C0092057FF518AE428D92B2002A7FF47BAE73
:1037AC0011E600BF040010000400010080000100BD
:1037BC0040000100F8B503684B4A5E6904461642A6
:1037CC005D680CD0E8050AD5226C42F00102226437
:1037DC006FF480725A611A6842F400421A6016F44F
:1037EC00813F08D0E90506D5226C42F00202226422
:1037FC006FF400725A6116F4823F36D0EA0534D564
:10380C0094F83E70618D94F83D20202F89B2D2B28D
:10381C00206B58D1002956D102F0F701212903D091
:10382C00282A50D121284ED194F83D20E16AD2B2F9
:10383C00042901D008292CD1282A2AD12B4A204628
:10384C00E2625A6822F4E0625A606FF480625A6154
:10385C001A6822F480621A6000232022236384F801
:10386C003D2084F83E30FFF72CFB16F4843F09D042
:10387C00EB0507D56FF40062236C43F00803236457
:10388C0023685A61236C73B32046BDE8F840FFF7F8
:10389C0072BB212A23D115492046E16222632022E2
:1038AC0084F83D20002284F83E205A6822F4E0621D
:1038BC005A606FF480625A611A6822F480621A604E
:1038CC00FFF7FCFAD1E7226C42F00402226494F870
:1038DC003E20102A02BF1A6842F400721A606FF47C
:1038EC0080625A61C1E7F8BD000101000000FFFFD2
:1038FC00406A08B50368416B1A6822F480621A604A
:10390C00002242854A63816B4A6390F83D1060291E
:10391C004FF0200180F83D1080F83E2007D1026462
:10392C001A6822F001021A60FFF724FB08BD1A681E
:10393C0022F001021A60FFF7C7FAF7E790F83D0092
:10394C00704790F83E007047006C704700210D4B9B
:10395C005A6822F003025A601A6822F0847222F428
:10396C0080321A601A6822F480221A6059601A6830
:10397C0022F0F80242F080021A609960024A034B6E
:10398C001A6070470010024000127A0000000020FC
:10399C0003682DE9F341DB07054610D42B689F071C
:1039AC005ED42B68190700F195802B685A0700F13B
:1039BC00BF80EA69002A40F02D81002014E0904C71
:1039CC00636803F00C03042B07D0636803F00C034B
:1039DC00082B0CD16368DE0309D523689C03DDD565
:1039EC006B68002BDAD1012002B0BDE8F0816B6866
:1039FC00B3F5803F10D1236843F480332360FCF788
:103A0C001BFD064623689803C8D4FCF715FD801BE4
:103A1C006428F7D90320E7E79BB9236823F48033A4
:103A2C002360236823F480232360FCF705FD0646FE
:103A3C0023689903B2D5FCF7FFFC801B6428F7D9E7
:103A4C00E8E7B3F5A02F236803D143F48023236068
:103A5C00D1E723F480332360236823F48023CDE75C
:103A6C00674C636813F00C0F07D0636803F00C030A
:103A7C00082B10D16368DA030DD423689B0702D599
:103A8C002B69012BAFD123686A6923F0F80343EA51
:103A9C00C203236085E72A695A4B6AB101221A6076
:103AAC00FCF7CAFC064623689F07ECD4FCF7C4FC61
:103ABC00801B0228F7D9ADE71A60FCF7BDFC06465F
:103ACC00236898077FF56DAFFCF7B6FC801B0228C6
:103ADC00F6D99FE7AA694A4C4B4BDAB101221A601E
:103AEC00FCF7AAFC0646636A9B070DD54FF4FA5205
:103AFC00464B1B68B3FBF2F3019300BF019B5A1EAC
:103B0C000192002BF9D150E7FCF796FC801B0228A0
:103B1C00E9D97FE71A60FCF78FFC0646636A9F07BA
:103B2C007FF543AFFCF788FC801B0228F6D971E7C0
:103B3C00334CE369D80024D40127E36943F0805364
:103B4C00E361E36903F080530093009B304E3368CC
:103B5C00D90518D5EB68012B26D1236A43F0010354
:103B6C002362FCF769FC41F288368046236A9B0786
:103B7C003FD5002F3FF41DAFE36923F08053E36181
:103B8C0017E70027E2E7336843F480733360FCF7F0
:103B9C0053FC80463368DA05DCD4FCF74DFCA0EB13
:103BAC0008006428F6D935E7ABB9236A41F28838A6
:103BBC0023F001032362236A23F004032362FCF73E
:103BCC003BFC0646236A9807D3D5FCF735FC801BD3
:103BDC004045F7D91EE7052B236A03D143F00403B4
:103BEC002362BAE723F001032362236A23F0040360
:103BFC00B6E7FCF721FCA0EB0800B042B6D909E708
:103C0C0000100240000042428004424200000020AA
:103C1C0000700040224C636803F00C03082B3FF447
:103C2C00E2AE00231F4E022A33602BD1FCF704FCBA
:103C3C000746236899011FD42B6AB3F5803F05D141
:103C4C006268A96822F400320A436260696A626899
:103C5C000B4322F474121343636001233360FCF7AB
:103C6C00EBFB054623689A013FF5A7AEFCF7E4FB96
:103C7C00401B0228F6D9CDE6FCF7DEFBC01B022860
:103C8C00D7D9C7E6FCF7D8FB054623689B017FF51F
:103C9C0094AEFCF7D1FB401B0228F6D9BAE600BF64
:103CAC0000100240600042420022022330B587B06F
:103CBC00CDE90332032305934FF480730B4C02932D
:103CCC00A3690D4643F00403A361A36902A903F0A1
:103CDC00040301930648019BFDF752F8616821F03B
:103CEC00E0612943616007B030BD00BF00100240A5
:103CFC00000801400122014B1A6070474C004242FF
:103D0C000022014B1A6070474C00424230B5194BEF
:103D1C0087B002AC03F110052246186859680833C5
:103D2C0003C2AB421446F7D140F201231249ADF85D
:103D3C0004304B6803F00C02082A18D1C3F38342F9
:103D4C00DB0348BF4B6806A8024448BFC3F340439B
:103D5C0012F8100C41BF06AA9B1813F8142C074B31
:103D6C0054BF074BB3FBF2F3584307B030BD0348C5
:103D7C00FBE700BF704400080010024000127A00FC
:103D8C0000093D004C4A2DE9F0411368054603F04B
:103D9C0007038B420E4627D32A68910731D4D207EA
:103DAC0037D4454A136803F00703B34271D82A6825
:103DBC00424C12F0040F77D1130706D563682A69B9
:103DCC0023F4605343EAC2036360FFF79FFF636809
:103DDC003B4AC3F30313D35CD8403A4B1860002022
:103DEC00FCF7FCFA00200AE0136823F007030B43EE
:103DFC001360136803F007038B42CDD00120BDE89C
:103E0C00F0812E49A8684B6823F0F00303434B6004
:103E1C00C5E76A68294C012A23681BD113F4003FBB
:103E2C00ECD0636841F2883823F0030313436360DA
:103E3C00FCF702FB6B680746012B13D1636803F098
:103E4C000C03042BADD0FCF7F7FAC01B4045F5D999
:103E5C000320D4E7022A02D113F0007FE0E713F02D
:103E6C00020FDDE7022B0FD1636803F00C03082B64
:103E7C0097D0FCF7E1FAC01B4045F5D9E8E7FCF711
:103E8C00DBFAC01B4045E3D8636813F00C0FF6D186
:103E9C0087E7136823F0070333431360136803F0B9
:103EAC000703B342AAD182E76368E96823F4E063AD
:103EBC000B43636080E700BF00200240001002400B
:103ECC005844000800000020014B1868704700BFE0
:103EDC0000000020044B054A5B68C3F30223D35C4B
:103EEC00034A1068D840704700100240684400082C
:103EFC0000000020044B054A5B68C3F3C223D35C6B
:103F0C00034A1068D840704700100240684400080B
:103F1C00000000200F2303601D4B1A6852032AD5A2
:103F2C004FF4A02242605A6802F4003282601A6890
:103F3C0012F0010218BF012202611A68C2F3C40216
:103F4C0042611A6A51071DD50522C2605A6A12F0E5
:103F5C00010218BF012282611A68D2014CBF0222F1
:103F6C000122C2615A6802F4803202625B6803F477
:103F7C007013436270471A6812F4803218BF4FF402
:103F8C008032CFE71A6A12F0010218BF0122DCE777
:103F9C00001002400F2303600B4B5A6802F003021F
:103FAC0042605A6802F0F00282605A6802F4E062E1
:103FBC00C2605B68DB0803F4E0630361034B1B68BE
:103FCC0003F007030B607047001002400020024012
:103FDC00704708B5044B9B681B0604D5FFF7F8FF28
:103FEC008022024B1A7008BD001002400A100240D9
:103FFC0070B500F07FF84FF47A70FCF723FA0020CC
:10400C0000F044F800F050F84FF47A70FCF71AFA0C
:10401C0017210A2000F05BF9104A012306CA104848
:10402C0000F040F9002601250A24E0B22A4633218B
:10403C0000F0CAF800F038F83220FCF703FA3EB969
:10404C000134642C06DD86F0010685F00105ECE7F1
:10405C00013CF6E7092CE8DCF5E700BF0C0000207A
:10406C00946C00087FB501230A2106AA02F8010D01
:10407C000092CDE90131002278210348FEF7B6FA0F
:10408C0007B05DF804FB00BF400400200023054985
:10409C00021C18BF012252425A540133B3F5806FEF
:1040AC00F6D17047380000207FB500240F4E104D1C
:1040BC00A4F15000C0B2FFF7D5FF0020FFF7D2FFEC
:1040CC001020FFF7CFFF80236422CDE9013206EBED
:1040DC00C413009340220123782128460134FEF7B3
:1040EC0085FA082CE4D104B070BD00BF3800002064
:1040FC004004002008B56420FCF7A4F9AE20FFF7BB
:10410C00B1FF2020FFF7AEFF1020FFF7ABFFB02070
:10411C00FFF7A8FFC820FFF7A5FF0020FFF7A2FFBD
:10412C001020FFF79FFF4020FFF79CFF8120FFF737
:10413C0099FFFF20FFF796FFA120FFF793FFA62022
:10414C00FFF790FFA820FFF78DFF3F20FFF78AFFB6
:10415C00A420FFF787FFD320FFF784FF0020FFF791
:10416C0081FFD520FFF77EFFF020FFF77BFFD920E2
:10417C00FFF778FF2220FFF775FFDA20FFF772FFB9
:10418C001220FFF76FFFDB20FFF76CFF2020FFF7FB
:10419C0069FF8D20FFF766FF1420FFF763FFAF2048
:1041AC00FFF760FF0020FFF771FFFFF77DFF012095
:1041BC000022044B83F80504A3F80024A3F802247E
:1041CC0008BD00BF38000020030630B516D43F29C7
:1041DC0014D80B4B93F8044414B1B2FA82F252097E
:1041EC00CC0801F00705012100EBC4101C56A940B6
:1041FC0049B2012A0CBF0C438C431C5430BD00BF88
:10420C00380000202DE9F04F87B0074606A800E9DA
:10421C0006009B46224B9DF81090B3F80044019386
:10422C0004EB09027F2A39DCB3F802349DF811A0A3
:10423C00009303EB0A023F2A30DC0025A7F1200291
:10424C000AFB02F30293AA4507D8019B4C44A3F83E
:10425C000044384607B0BDE8F08F0026029B059954
:10426C005A1931F812300393009B05EB03085FFADF
:10427C0088F8B14501D80135E5E7039B301903FAFD
:10428C0006F2130458BFBBFA8BF2C0B24CBF5A46AD
:10429C0052094146FFF798FF0136EAE70027D8E7B5
:1042AC0038000020F7B56D461F4685E80600461E0F
:1042BC0016F8014F44B195E8060020463B46FFF73F
:1042CC00A1FF3478A042F3D0204603B0F0BD034BDD
:1042DC00A3F80004A3F80214704700BF38000020B4
:1042EC0070B50D4E0D4D761BB61006D00024013462
:1042FC0055F8043B9847A642F9D1094E094D00F0F8
:10430C0099F8761BB61006D00024013455F8043BFE
:10431C009847A642F9D170BDA06C0008A06C0008AB
:10432C00A46C0008A06C000810B588B0FCF76AF803
:10433C00FBF72AFF274B4FF400519A69264842F0AD
:10434C0010029A619A6902F010020092009A9A691E
:10435C0042F020029A619A6902F020020192019ABD
:10436C009A6942F004029A619A6902F0040202927C
:10437C00029A9A6942F008029A619B69002203F042
:10438C0008030393039BFCF751FE4FF400520123E7
:10439C00CDE90423022304A90F480793FCF7F0FC92
:1043AC000E480F490F4B4FF48042C0E90013002315
:1043BC00C0E90233C0E90423C0E906330362FDF708
:1043CC001BF8044600B1FEE7FFF712FE204608B0CA
:1043DC0010BD00BF0010024000100140400400203E
:1043EC0000540040A0860100002103E00B4B5B58F9
:1043FC00435004310A480B4B42189A42F6D30A4AEE
:10440C0002E0002342F8043B084B9A42F9D3FBF735
:10441C0081FFFFF765FFFFF787FF7047A86C000867
:10442C00000000201C0000201C000020980400202C
:10443C00FEE70000F8B500BFF8BC08BC9E4670470C
:0C444C00F8B500BFF8BC08BC9E467047E5
:10445800000000000000000001020304060708092C
:10446800000000000102030402030405060708090E
:104478000A0B0C0D0E0F10100000000000000000C9
:104488000000000000000000000000000000000024
:104498000000000000000000000000000000000014
:1044A800000000000000000000000000E003E0033E
:1044B800E003E003E003E003E003E003C003C0031C
:1044C800C001C001C001C001C0010000000000001F
:1044D800E003E003E003000000000000000000002B
:1044E8003C1E3C1E3C1E3C1E3C1E3C1E3C1E00004E
:1044F80000000000000000000000000000000000B4
:1045080000000000000000000000000000000000A3
:1045180000000000CE01CE03DE039E039C039C072F
:10452800FF3FFF7F3807380F780F780F780EFFFFAF
:10453800FFFFF01EF01CE01CE03CE03DE03900000D
:104548000000000000000000FC03FE0FEE1FE01E4C
:10455800E01EE01EE01EE01FE00FE007F003FC0194
:10456800FE01FE01FE01FE01FE01FE01FE3DFC3FD3
:10457800F00FE001E001000000000000033E07F733
:104588008FE78EE79EE3BCE3B8E7F8E7F0F7E03F94
:10459800C001FF03FF07F307F30FF31EF33CF338E3
:1045A800F3787FF03FE0000000000000000000000A
:1045B800E007F80F780F781F781F781F780FF00F33
:1045C800E00F801FC37FC3FBE7F3F7F1F7F0FFF0BD
:1045D8007FF03EF87F7CFF3FEF1F000000000000E7
:1045E80000000000E003E003E003E003E003C00391
:1045F800C0010000000000000000000000000000F2
:1046080000000000000000000000000000000000A2
:1046180000000000000000003F007C00F001E00105
:10462800C003C00780078007800F000F000F000F2E
:10463800000F000F000F800F80078007C007C0031E
:10464800E001F0017C003F000F000000007E001F29
:10465800C007C003E001F001F000F000F8007800A6
:1046680078007800780078007800F800F000F00012
:10467800F001E001C003C007001F007E00780000C1
:10468800E003C003C001CE39FF3F7F3F2003700322
:10469800F807780F3C1F38060000000000000000F3
:1046A8000000000000000000000000000000000002
:1046B80000000000000000000000000000000000F2
:1046C800C001C001C001C001C001C001C001FFFF9D
:1046D800FFFFC001C001C001C001C001C00100004E
:1046E80000000000000000000000000000000000C2
:1046F80000000000000000000000000000000000B2
:1047080000000000000000000000E003E003E003F8
:10471800E003E001E001E001C001800300000000C7
:104728000000000000000000000000000000000081
:104738000000FE3FFE3F00000000000000000000F7
:104748000000000000000000000000000000000061
:104758000000000000000000000000000000000051
:104768000000000000000000000000000000000041
:104778000000E003E003E003E003000000000000A5
:10478800000000000F000F001E001E003C003C004F
:1047980078007800F000F000E001E001C003C003F9
:1047A80080078007000F000F001E001E003C003C21
:1047B8000078007800F00000F007F80F7C1F3E3EFC
:1047C8001E3C1F7C1F7C0F780F780F780F780F78AE
:1047D8000F780F781F7C1F7C1E3C3E3E7C1FF80F15
:1047E800F00700000000000000000000F000F007E3
:1047F800F03FF03FF001F001F001F001F001F001AD
:10480800F001F001F001F001F001F001F001F00118
:10481800F001FF3FFF3F0000000000000000000023
:10482800E00FF83F7C3C3C003E003E003E003C0070
:104838003C007C00F800F001E003C0078007000F8F
:10484800001E003E003CFE3FFE3F0000000000004E
:1048580000000000F00FF81F7C1C3E003E003E00E8
:104868003C003C00F800F00FF80F7C003E001E00F2
:104878001E001E001E003E007C1CF81FE01F0000EA
:1048880000000000000000007800F800F800F801BF
:10489800F803F807F807780F781E781E783C7878C0
:1048A8007878FFFFFFFF78007800780078007800BC
:1048B800780000000000000000000000FC1FFC1F42
:1048C800FC1F001E001E001E001E001EE01FF81F19
:1048D800FC007C003E003E001E003E003E003C0006
:1048E8007C1CF81FE01F0000000000000000000012
:1048F800FC01FE078E0F001F001E003E003C003C1E
:10490800F83DFC3F3E7F1F7E0F3C0F3C0F3C0F3CA9
:104918000F3E1F1E3E1FFC0FF003000000000000AA
:1049280000000000FF3FFF3FFF3F0F001E001E007A
:104938003C0038007800F000F000E001E001C0031E
:10494800C0038007800F800F000F001F001F0000AA
:104958000000000000000000F807FC0F3E1F1E1EAC
:104968001E3E1E3E1E1E3C1FF80FF007F80FFC1ED1
:104978003E3E1F3C1F7C0F7C0F7C1F3C3E3FFC1FB4
:10498800F00700000000000000000000F007F80F2A
:104998007C1E3E3C1E3C1F7C1F7C1F7C1F7C1F3CDA
:1049A8003F3EFF1FEF071F001E001E003E003C0099
:1049B800F838F03FE01F0000000000000000000091
:1049C800000000000000000000000000E003E00319
:1049D800E003E00300000000000000000000000009
:1049E8000000E003E003E003E00300000000000033
:1049F80000000000000000000000000000000000AF
:104A0800E003E003E003E003000000000000000012
:104A1800000000000000E003E003E003E003E00121
:104A2800E001E001C0038003000000000000000076
:104A38000000000003000F003F00FC00F003C00F5F
:104A4800003F00FE003FC00FF003FC003F000F00D6
:104A5800030000000000000000000000000000004B
:104A6800000000000000000000000000000000003E
:104A7800FFFFFFFF000000000000FFFFFFFF000036
:104A8800000000000000000000000000000000001E
:104A980000000000000000000000000000E000F836
:104AA800007E801FE007F8017E001F007E00F801ED
:104AB800E007801F007E00F800E000000000000012
:104AC80000000000F01FFC3F3E381F381F381E0052
:104AD8001E003C007800F000E001C003C003C007DE
:104AE800C007000000000000C007C007C0070000A2
:104AF8000000000000000000F803FE0F1E1F0F3E1C
:104B08007F3CFF78EF79C773C7F38FF38FF38FF389
:104B18009FF39FF3FF73FF7BF779003C1C1FFC0F8B
:104B2800F803000000000000000000000000000082
:104B38000000E003E003F007F007F007780F780FB4
:104B48007C0E3C1E3C1E3E3CFE3FFF3F1F780F780C
:104B58000FF007F007F00000000000000000000060
:104B6800000000000000F83FFC3F3E3C1E3C1E3C9D
:104B78001E3C3E3C7C3CF03FF83F7E3C1F3C1F3CCB
:104B88000F3C0F3C1F3CFE3FF83F000000000000B8
:104B980000000000000000000000FF01FF07871F61
:104BA800003E003C007C00780078007800780078AF
:104BB800007C007C003E003F831FFF07FF010000D0
:104BC8000000000000000000000000000000F07F6E
:104BD800FC7F7E781F781F780F780F780F780F7812
:104BE8000F780F780F780F781F781E787E78F87F07
:104BF800E07F00000000000000000000000000004E
:104C08000000FF3FFF3F003E003E003E003E003EEA
:104C1800003EFE3FFE3F003E003E003E003E003E9E
:104C2800003EFF3FFF3F00000000000000000000C2
:104C3800000000000000FF1FFF1F001E001E001ED6
:104C4800001E001E001EFF1FFF1F001E001E001E6C
:104C5800001E001E001E001E001E000000000000B6
:104C680000000000000000000000FE03FF0F871F87
:104C7800003E007C007C007800F800F87FF87FF8A0
:104C88000F780F7C0F7C0F3E8F1FFF0FFE03000075
:104C980000000000000000000000000000001F7C71
:104CA8001F7C1F7C1F7C1F7C1F7C1F7C1F7CFF7F41
:104CB800FF7F1F7C1F7C1F7C1F7C1F7C1F7C1F7C31
:104CC8001F7C000000000000000000000000000041
:104CD8000000FF3FFF3FE003E003E003E003E003E1
:104CE800E003E003E003E003E003E003E003E003A4
:104CF800E003FF3FFF3F000000000000000000004D
:104D0800000000000000FC1FFC1F7C007C007C00F1
:104D18007C007C007C007C007C007C007C007C00AB
:104D280078007800F838F03FC03F0000000000002D
:104D3800000000000000000000001F3C1E3C3C3C3E
:104D4800783CF03CE03DE03FC03F803FC03FE03F63
:104D5800F03DF03C783C7C3C3E3C1F3C0F3C000066
:104D68000000000000000000000000000000003EFD
:104D7800003E003E003E003E003E003E003E003E3B
:104D8800003E003E003E003E003E003E003EFF3F2B
:104D9800FF3F0000000000000000000000000000CD
:104DA80000001FF81FFC1FFC3FFE3FFE3FFE7FFF79
:104DB80077FF77FFF7F7E7F7E7F3E7F3C7F307F0CE
:104DC80007F007F007F000000000000000000000F6
:104DD8000000000000000F7C0F7C0F7E0F7F0F7F0C
:104DE8008F7F8F7FCF7FEF7BEF79FF79FF78FF7819
:104DF8007F783F783F781F781F7800000000000018
:104E080000000000000000000000F007FC1F3E3E0C
:104E18001F7C0F780F780FF80FF80FF80FF80FF8BE
:104E28000FF80F780F781F7C3E3EFC1FF00700003C
:104E38000000000000000000000000000000FC3F2F
:104E4800FF3F1F3E0F3E0F3E0F3E0F3E1F3E3F3EB1
:104E5800FC3FF03F003E003E003E003E003E003E6C
:104E6800003E0000000000000000000000000000FC
:104E78000000F007FC1F3E3E1F7C0F780F780FF8EC
:104E88000FF80FF80FF80FF80FF80F780F781F7C4E
:104E98003E3EFC1FF8077C003F000F0003000000A7
:104EA800000000000000F03FFC3F7E3C3E3C1E3C02
:104EB8001E3C3E3C3C3CFC3CF03FE03FF03DF83CB7
:104EC8007C3C3E3C1E3C1F3C0F3C000000000000A8
:104ED80000000000000000000000FC07FE1F0E3E5E
:104EE800003C003C003C003EC01FF80FFE037F0062
:104EF8001F000F000F001F203E3CFC3FF01F00006A
:104F08000000000000000000000000000000FFFF9B
:104F1800FFFFE003E003E003E003E003E003E00356
:104F2800E003E003E003E003E003E003E003E00361
:104F3800E003000000000000000000000000000086
:104F480000000F7C0F7C0F7C0F7C0F7C0F7C0F7C8C
:104F58000F7C0F7C0F7C0F7C0F7C0F7C1E3C1E3C53
:104F68003E3EFC1FF00700000000000000000000AB
:104F780000000000000007F007F007F80F780F7C2A
:104F88001E3C1E3C1E3E3C1E3C1F781F780FF80F2F
:104F9800F007F007F007E003E0030000000000005E
:104FA8000000000000000000000003E003F003F030
:104FB80007F0E7F3E7F3E7F3E773F77BF77FFF7FA4
:104FC8007F7F7F7F7E7F7E3F3E3E3E3E3E3E0000AF
:104FD800000000000000000000000000000007F8CA
:104FE8000F7C1E3E3E3E3C1FF80FF007E007E00333
:104FF800E003F007F80F7C0F7C1E3E3C1F780F780B
:105008000FF0000000000000000000000000000099
:10501800000007F807780F7C1E3C1E3E3C1F780FE7
:10502800F80FF007E003E003E003E003E003E00328
:10503800E003E003E00300000000000000000000BF
:10504800000000000000FF7FFF7F0F001F003E00F0
:105058007C00F800F000E001E003C007800F000FBB
:10506800001E003E007CFF7FFF7F00000000000064
:1050780000000000FF07800780078007800780077F
:1050880080078007800780078007800780078007E0
:1050980080078007800780078007800780078007D0
:1050A8008007FF07FF07000000780078003C003CFD
:1050B800001E001E000F000F80078007C003C003FA
:1050C800E001E001F000F000780078003C003C00CE
:1050D8001E001E000F000F0007000000F07FF00008
:1050E800F000F000F000F000F000F000F000F00038
:1050F800F000F000F000F000F000F000F000F00028
:10510800F000F000F000F000F000F07FF07F000009
:10511800C000C001C001E003E003F007F007780712
:10512800780F380F3C1E3C1E1E3C1E3C0F380F7873
:1051380007780000000000000000000000000000E8
:105148000000000000000000000000000000000057
:105158000000000000000000000000000000000047
:105168000000000000000000000000000000FFFF39
:10517800FFFF000000000000F00000000000000039
:105188000000000000000000000000000000000017
:105198000000000000000000000000000000000007
:1051A80000000000000000000000000000000000F7
:1051B8000000000000000000F80FFC3F7C3C3E00AF
:1051C8003E003E00FE07FE1F3E3E3E7C3E783E7C93
:1051D8007E7CFF3FCF1F00000000000000000000A1
:1051E800003C003C003C003C003C003CF83DFE3FDD
:1051F8003E3F1F3E0F3C0F3C0F3C0F3C0F3C0F3C0B
:105208001F3C1E3C3E3FFC3FF03B000000000000FE
:105218000000000000000000000000000000000086
:10522800FE03FF0F871F003E003E003C007C007C11
:10523800007C003C003E003E871FFF0FFE0300007D
:1052480000000000000000001F001F001F001F00DA
:105258001F001F00FF07FF1F3F3E1F3C1F7C1F7CD6
:105268001F7C1F781F781F7C1F7C3F3C7F3EFF1FE1
:10527800DF0F000000000000000000000000000038
:105288000000000000000000F803FC0F3E1F1E3E57
:105298001F3C1F7CFF7FFF7F007C007C003C003EA2
:1052A800071FFF0FFE0300000000000000000000C1
:1052B800FF01E103C003C007C007C007FF7FFF7FEE
:1052C800C007C007C007C007C007C007C007C0079E
:1052D800C007C007C007C007C007000000000000E3
:1052E80000000000000000000000000000000000B6
:1052F800EF07FF1F7F3E1F3C1F7C1F7C1F781F7816
:105308001F781F7C1F7C3F3C7F3EFF1FDF0F1E0066
:105318001E001E007C38F83F003C003C003C003C6E
:10532800003C003CFC3DFE3F9E3F1F3F1F3E1F3C94
:105338001F3C1F3C1F3C1F3C1F3C1F3C1F3C1F3C8D
:105348001F3C00000000000000000000F001F00118
:105358000000000000000000E07FE07FE001E001C5
:10536800E001E001E001E001E001E001E001E0012D
:10537800E001E001E0010000000000000000000082
:10538800F800F8000000000000000000F83FF83FB7
:10539800F800F800F800F800F800F800F800F80045
:1053A800F800F800F800F800F800F800F800F0003D
:1053B800F071E07F003C003C003C003C003C003CBD
:1053C8001F3C3E3C7C3CF83CF03DE03DC03FC03FCC
:1053D800E03FF03DF83C7C3C3E3C1F3C1F3C00005D
:1053E8000000000000000000F07FF001F001F00173
:1053F800F001F001F001F001F001F001F001F0011D
:10540800F001F001F001F001F001F001F001F0010C
:10541800F001000000000000000000000000000093
:1054280000000000000000009EF7FFFFFFFFFFFFE5
:10543800E7FBE7F9C7F1C7F1C7F1C7F1C7F1C7F152
:10544800C7F1C7F1C7F1000000000000000000002C
:10545800000000000000000000000000FC3DFE3FCE
:105468009E3F1F3F1F3E1F3C1F3C1F3C1F3C1F3CD5
:105478001F3C1F3C1F3C1F3C1F3C0000000000005D
:105488000000000000000000000000000000000014
:10549800F007FC1F3E3E1F3C1F7C0F780F780F78EB
:1054A8000F780F781F7C1F3C3E3EFC1FF007000062
:1054B80000000000000000000000000000000000E4
:1054C80000000000F83DFE3F3E3F1F3E0F3C0F3CF2
:1054D8000F3C0F3C0F3C0F3C1F3C1E3E3E3FFC3F29
:1054E800F83F003C003C003C003C003C0000000051
:1054F8000000000000000000EE07FE1F7E3E1E3C7C
:105508001E7C1E781E781E781E781E781E7C3E7CB7
:105518007E3EFE1FDE0F1E001E001E001E001E0027
:105528000000000000000000000000007F1FFF1FB7
:10553800E71FC71F871F001F001F001F001F001F36
:10554800001F001F001F001F001F000000000000B8
:105558000000000000000000000000000000000043
:10556800FC07FE1F0E1E003E003E003FE01FFC072A
:10557800FE003E001E001E003E3CFC3FF01F0000E7
:10558800000000000000000000000000000080078C
:1055980080078007FF7FFF7F8007800780078007DD
:1055A800800780078007800780078007C007FF0300
:1055B800FF010000000000000000000000000000E3
:1055C80000000000000000001E3C1E3C1E3C1E3C6B
:1055D8001E3C1E3C1E3C1E3C1E3C1E3C3E3C7E3C73
:1055E800FE3EFE1FDE0F000000000000000000006D
:1055F80000000000000000000000000007F00F7825
:105608000F781E3C1E3C1E3E3C1E3C1E780F780F39
:10561800F00FF007F007E003E003000000000000CF
:105628000000000000000000000000000000000072
:1056380003F0E3F1E3F3E7F3F7F3F7F3F77F777FAB
:105648007F7F7F7F7F7F3E3E3E3E3E3E3E3E000068
:105658000000000000000000000000000000000042
:10566800000000000F7C1E3E3C3E3C1FF80FF00778
:10567800F007E003F007F807F80F7C1E3E3E1F3CDA
:105688001F7800000000000000000000000000007B
:10569800000000000000000007F80F780F7C1E3C97
:1056A8001E3C3C1E3C1E3C1F780FF80FF007F0070D
:1056B800E003E003C003C003C0038007800F007F3E
:1056C800000000000000000000000000FF3FFF3F56
:1056D8001F003E007C00F800F001E003C007800FC7
:1056E800001F001E003CFF7FFF7F0000000000003D
:1056F80000000000FE01E003C003C003C003C003B4
:10570800E001E001E001C001C003803F803FC00329
:10571800C001E001E001E001C003C003C003C00311
:10572800E003FE017E000000C001C001C001C0010D
:10573800C001C001C001C001C001C001C001C00159
:10574800C001C001C001C001C001C001C001C00149
:10575800C001C001C001C001C0010000C03FE0039A
:10576800E001E001E001E001C001C003C003C001A5
:10577800E001FE00FE00E001C001C003C003C0015B
:10578800E001E001E001E001E003C03F003F00006C
:105798000000000000000000000000000000000001
:1057A800000000000000073FC77FE773FFF17EF0AD
:1057B80000000000000000000000000000000000E1
:1057C80000000000000000000000000000000000D1
:1057D80000000000000000000000000000000000C1
:1057E80000000000000000000000000C000C000C8D
:1057F800000C000C000C000C000C000C000C000C41
:105808000000000C000C0000000000000000001B5D
:10581800001B001B001B001B000000000000000014
:105828000000000000000000000000000000000070
:1058380000008019801980198019C07FC07F8019E5
:105848000033C07FC07F00330033003300330000D3
:10585800000000000000001E003F80758065007495
:10586800003C001E00078005806580658075003F4C
:10587800001E0004000400000000007000D840D89A
:10588800C0D880D900730006000C801BC036C066E3
:10589800C046C00680030000000000000000001E93
:1058A800003F003300330033001E000CC03CC066CC
:1058B800806380618063C03E801C0000000000009F
:1058C8000000000C000C000C000C000C0000000094
:1058D80000000000000000000000000000000000C0
:1058E800000000008000000100030006000600041C
:1058F800000C000C000C000C000C000C000400064E
:105908000006000300018000002000100018000CB1
:10591800000C00040006000600060006000600064B
:105928000004000C000C0018001000200000000CFF
:10593800002D003F001E00330000000000000000A2
:10594800000000000000000000000000000000004F
:10595800000000000000000C000C000C000CC0FF50
:10596800C0FF000C000C000C000C00000000000040
:10597800000000000000000000000000000000001F
:105988000000000000000000000000000000000C03
:10599800000C0004000400080000000000000000E3
:1059A80000000000000000000000001E001E0000B3
:1059B80000000000000000000000000000000000DF
:1059C80000000000000000000000000000000000CF
:1059D800000000000000000C000C000000000000A7
:1059E800000000030003000300060006000600068E
:1059F800000C000C000C000C001800180018000027
:105A0800000000000000001E003F0033806180613C
:105A18008061806D806D8061806180610033003FAE
:105A2800001E00000000000000000006000E001E1E
:105A380000360026000600060006000600060006DE
:105A48000006000600060000000000000000001E1E
:105A5800003F807380618061800100030006000CB4
:105A6800001800300060807F807F00000000000088
:105A78000000001C003E006300630003000E000EDF
:105A880000038001800180618073003F001E0000D8
:105A98000000000000000006000E000E001E001EA0
:105AA8000016003600360066807F807F00060006FC
:105AB80000060000000000000000007F007F00607A
:105AC80000600060006E007F80638001800180615B
