:020000040800F2
:10000000005000208D370008650C0008710C0008B6
:10001000770C00087D0C0008830C0008000000002D
:10002000000000000000000000000000890C000833
:10003000950C000800000000A10C0008AD0C0008A1
:10004000D5370008D5370008D5370008D537000860
:10005000D5370008D5370008D5370008D537000850
:10006000D5370008D5370008D5370008D537000840
:10007000D5370008D5370008D5370008D537000830
:10008000D5370008D5370008D5370008D537000820
:10009000D5370008D5370008D5370008D537000810
:1000A000D5370008B90C0008D5370008D537000847
:1000B000D5370008CD0C0008D5370008D537000823
:1000C000D5370008D5370008D5370008D5370008E0
:1000D000D5370008D5370008D5370008D5370008D0
:1000E000D5370008D5370008D537000800000000D4
:1000F0000000000000000000000000000000000000
:0C01000000000000000000005FF808F1A3
:10010C000348044B834202D0034B03B1184770479A
:10011C000C0000200C0000200000000005480649DF
:10012C00091A891001EBD171491002D0034B03B1AC
:10013C00184770470C0000200C0000200000000045
:10014C0010B5064C237843B9FFF7DAFF044B13B113
:10015C000448AFF300800123237010BD0C00002075
:10016C0000000000D837000808B5044B1BB1044947
:10017C000448AFF30080BDE80840CFE70000000062
:10018C0010000020D837000880F0004002E000BFCB
:10019C0081F0004142001FBF5FEA410392EA030F66
:1001AC007FEA226C7FEA236C6AD04FEA1262D2EBB0
:1001BC001363C1BFD218414048404140B8BF5B42B5
:1001CC00192B88BF704710F0004F40F4000020F04E
:1001DC007F4018BF404211F0004F41F4000121F064
:1001EC007F4118BF494292EA030F3FD0A2F10102AE
:1001FC0041FA03FC10EB0C00C3F1200301FA03F1EC
:10020C0000F0004302D5494260EB4000B0F5000F0E
:10021C0013D3B0F1807F06D340084FEA310102F1CD
:10022C000102FE2A51D2B1F1004F40EBC25008BF7F
:10023C0020F0010040EA03007047490040EB000049
:10024C0010F4000FA2F10102EDD1B0FA80FCACF178
:10025C00080CB2EB0C0200FA0CF0AABF00EBC25077
:10026C0052421843BCBFD0401843704792F0000F65
:10027C0081F4000106BF80F400000132013BB5E7B8
:10028C004FEA41037FEA226C18BF7FEA236C21D02E
:10029C0092EA030F04D092F0000F08BF0846704793
:1002AC0090EA010F1CBF0020704712F07F4F04D161
:1002BC00400028BF40F00040704712F100723CBF74
:1002CC0000F50000704700F0004343F0FE4040F49E
:1002DC00000070477FEA226216BF08467FEA23635C
:1002EC000146420206BF5FEA412390EA010F40F447
:1002FC00800070474FF0000304E000BF10F0004393
:10030C0048BF40425FEA000C08BF704743F0964379
:10031C0001464FF000001CE050EA010208BF704794
:10032C004FF000030AE000BF50EA010208BF70471B
:10033C0011F0004302D5404261EB41015FEA010C30
:10034C0002BF84460146002043F0B64308BFA3F128
:10035C008053A3F50003BCFA8CF2083AA3EBC2530A
:10036C0010DB01FA02FC634400FA02FCC2F1200229
:10037C00BCF1004F20FA02F243EB020008BF20F060
:10038C000100704702F1200201FA02FCC2F12002C6
:10039C0050EA4C0021FA02F243EB020008BF20EABB
:1003AC00DC7070474FF0FF0C1CEAD0521EBF1CEAE9
:1003BC00D15392EA0C0F93EA0C0F6FD01A4480EAD7
:1003CC00010C400218BF5FEA41211ED04FF00063C0
:1003DC0043EA501043EA5111A0FB01310CF00040EC
:1003EC00B1F5000F3EBF490041EAD3715B0040EA12
:1003FC00010062F17F02FD2A1DD8B3F1004F40EBE2
:10040C00C25008BF20F00100704790F0000F0CF0B4
:10041C00004C08BF49024CEA502040EA51207F3A78
:10042C00C2BFD2F1FF0340EAC250704740F4000053
:10043C004FF00003013A5DDC12F1190FDCBF00F044
:10044C0000407047C2F10002410021FA02F1C2F1F2
:10045C00200200FA02FC5FEA310040F1000053EA8E
:10046C004C0308BF20EADC70704792F0000F00F0DC
:10047C00004C02BF400010F4000F013AF9D040EAE2
:10048C000C0093F0000F01F0004C02BF490011F476
:10049C00000F013BF9D041EA0C018FE70CEAD15374
:1004AC0092EA0C0F18BF93EA0C0F0AD030F0004CF4
:1004BC0018BF31F0004CD8D180EA010000F00040A8
:1004CC00704790F0000F17BF90F0004F084691F066
:1004DC00000F91F0004F14D092EA0C0F01D14202A0
:1004EC000FD193EA0C0F03D14B0218BF084608D169
:1004FC0080EA010000F0004040F0FE4040F40000B3
:10050C00704740F0FE4040F4400070474FF0FF0C45
:10051C001CEAD0521EBF1CEAD15392EA0C0F93EA8C
:10052C000C0F69D0A2EB030280EA010C49024FEADE
:10053C00402037D04FF0805343EA111143EA101397
:10054C000CF000408B4238BF5B0042F17D024FF44F
:10055C00000C8B4224BF5B1A40EA0C00B3EB510F2A
:10056C0024BFA3EB510340EA5C00B3EB910F24BF13
:10057C00A3EB910340EA9C00B3EBD10F24BFA3EB98
:10058C00D10340EADC001B0118BF5FEA1C1CE0D160
:10059C00FD2A3FF650AF8B4240EBC25008BF20F013
:1005AC00010070470CF0004C4CEA50207F32C2BF67
:1005BC00D2F1FF0340EAC250704740F400004FF004
:1005CC000003013A37E792F0000F00F0004C02BF35
:1005DC00400010F4000F013AF9D040EA0C0093F0FF
:1005EC00000F01F0004C02BF490011F4000F013B59
:1005FC00F9D041EA0C0195E70CEAD15392EA0C0FC1
:10060C0008D142027FF47DAF93EA0C0F7FF470AFF8
:10061C00084676E793EA0C0F04D14B023FF44CAF3B
:10062C0008466EE730F0004C18BF31F0004CCAD1D0
:10063C0030F000427FF45CAF31F000437FF43CAF0C
:10064C005FE700BF4FF0FF3C06E000BF4FF0010C2E
:10065C0002E000BF4FF0010C4DF804CD4FEA400210
:10066C004FEA41037FEA226C18BF7FEA236C11D05A
:10067C0001B052EA530C18BF90EA010F58BFB2EB0D
:10068C00030088BFC81738BF6FEAE17018BF40F08D
:10069C00010070477FEA226C02D15FEA402C05D141
:1006AC007FEA236CE4D15FEA412CE1D05DF8040BC6
:1006BC00704700BF844608466146FFE70FB5FFF759
:1006CC00C9FF002848BF10F1000F0FBD4DF808ED11
:1006DC00FFF7F4FF0CBF012000205DF808FB00BF02
:1006EC004DF808EDFFF7EAFF34BF012000205DF85C
:1006FC0008FB00BF4DF808EDFFF7E0FF94BF0120A9
:10070C0000205DF808FB00BF4DF808EDFFF7D2FFA5
:10071C0094BF012000205DF808FB00BF4DF808EDE8
:10072C00FFF7C8FF34BF012000205DF808FB00BFB5
:10073C0042000ED2B2F1FE4F0BD34FF09E03B3EB3F
:10074C00126209D44FEA002343F0004323FA02F06B
:10075C0070474FF00000704712F1610F01D1420257
:10076C0002D14FF0FF3070474FF00000704700BFD0
:10077C0070B50D4E0D4D761BB61006D0002401340D
:10078C0055F8043B9847A642F9D1094E094D03F0A0
:10079C001DF8761BB61006D00024013455F8043B26
:1007AC009847A642F9D170BDB4450008B44500087D
:1007BC00B8450008B445000880B500AF00F0C2FA97
:1007CC0000F00AF800F0DCF800F058F800F088F8B7
:1007DC0002F090FBFCE7000080B590B000AF012365
:1007EC00BB614FF48033FB6100233B620123BB628E
:1007FC0002237B634FF48033BB634FF4E013FB6342
:10080C0007F11803184601F06FF90346002B03D0CB
:10081C008921184800F014F90F237B600223BB6078
:10082C000023FB604FF480633B6100237B613B1D25
:10083C000221184601F0BCFB0346002B03D0972184
:10084C000C4800F0FDF801F009FD02460A4BA3FB31
:10085C0002239B09184600F0BEFB042000F0C8FBE5
:10086C00002200214FF0FF3000F08BFB00BF40371F
:10087C00BD4680BDF0370008D34D621080B500AF87
:10088C00134B144A1A60124B134A5A60104B002235
:10089C009A600F4B0022DA600D4B4FF480421A61C4
:1008AC000B4B00225A610A4B00229A61084B002222
:1008BC00DA61074B00221A62054800F037FD034647
:1008CC00002B03D0B521054800F0BAF800BF80BD5D
:1008DC002800002000540040A0860100F0370008DA
:1008EC0080B586B000AF234B234A1A60214B0722F8
:1008FC005A60204B00229A601E4B4FF6FF72DA6052
:10090C001C4B00221A611B4B00229A61194801F002
:10091C0073FD0346002B03D0C921184800F090F852
:10092C0000233B6100237B6107F11003194611483A
:10093C0002F01DFA0346002B03D0D0210F4800F023
:10094C007FF800233B6001237B600023BB60002306
:10095C00FB603B4600221946064801F051FF034656
:10096C00002B03D0D921054800F06AF800BF1837D6
:10097C00BD4680BD7C00002000040040F03700081C
:10098C0080B588B000AF234B9B69224A43F010031B
:10099C009361204B9B6903F01003FB60FB681D4BBC
:1009AC009B691C4A43F0200393611A4B9B6903F02B
:1009BC002003BB60BB68174B9B69164A43F00403CA
:1009CC009361144B9B6903F004037B607B68114BB0
:1009DC009B69104A43F0080393610E4B9B6903F02B
:1009EC0008033B603B6800224FF400510A4800F0BA
:1009FC0085FC4FF400533B6101237B610223FB61B7
:100A0C0007F110031946044800F01AFB00BF203709
:100A1C00BD4680BD001002400010014080B582B080
:100A2C0000AF78607B681B68044A934201D100F0E8
:100A3C009FF900BF0837BD4680BD00BF002C0140A8
:100A4C0080B483B000AF78603960FEE780B582B0C7
:100A5C0000AF244B9B69234A43F001039361214B64
:100A6C009B6903F001037B607B68032000F07EFA36
:100A7C00002200216FF00B0000F083FA002200210D
:100A8C006FF00A0000F07DFA002200216FF00900DF
:100A9C0000F077FA002200216FF0040000F071FAE8
:100AAC00002200216FF0030000F06BFA00220021FD
:100ABC006FF0010000F065FA002200214FF0FF30CA
:100ACC0000F05FFA084B5B68074A23F0E063536061
:100ADC00054B5B68044A43F00073536000BF083752
:100AEC00BD4680BD001002400000014080B588B0BA
:100AFC0000AF78607B681B680F4A934217D1C02304
:100B0C003B6112237B610323FB6107F11003194640
:100B1C000A4800F095FA0A4BDB69094A43F40013C2
:100B2C00D361074BDB6903F40013FB60FB6800BF68
:100B3C002037BD4680BD00BF00540040000C014072
:100B4C000010024080B588B000AF78607B681B68ED
:100B5C00134A93421FD1134BDB69124A43F0020331
:100B6C00D361104BDB6903F00203FB60FB6840238D
:100B7C003B6100237B610023BB6107F11003194625
:100B8C00094800F05DFA002200211D2000F0F9F95F
:100B9C001D2000F012FA00BF2037BD4680BD00BFFB
:100BAC0000040040001002400008014080B58CB0E9
:100BBC0000AF78600023FB620023BB6200227968DF
:100BCC00192000F0DEF9192000F0F7F91E4B9B6993
:100BDC001D4A43F4006393611B4B9B6903F4006350
:100BEC00FB60FB6807F1100207F11403114618466D
:100BFC0001F066FB01F050FBF862FB6A134AA2FBA2
:100C0C0003239B0C013BBB62114B124A1A60104B25
:100C1C0040F2E732DA600E4ABB6A53600C4B00229A
:100C2C001A610B4B00229A60094801F097FB0346AE
:100C3C00002B04D1064801F0C5FB034600E001235C
:100C4C0018463037BD4680BD0010024083DE1B4382
:100C5C00BC000020002C014080B400AF00BFBD469A
:100C6C0080BC704780B400AFFEE780B400AFFEE7F5
:100C7C0080B400AFFEE780B400AFFEE780B400AFF5
:100C8C0000BFBD4680BC704780B400AF00BFBD46FE
:100C9C0080BC704780B400AF00BFBD4680BC7047BD
:100CAC0080B500AF00F0C0F900BF80BD80B500AFCB
:100CBC00024801F09DFC00BF80BD00BFBC000020BD
:100CCC0080B500AF034801F093FC034802F0EFFA43
:100CDC0000BF80BD7C0000200001002080B400AF6C
:100CEC00154B1B68144A43F001031360124B5A68EE
:100CFC001149124B13404B600F4B1B680E4A23F0EB
:100D0C00847323F4803313600B4B1B680A4A23F45F
:100D1C0080231360084B5B68074A23F4FE0353607F
:100D2C00054B4FF41F029A60054B4FF000629A601E
:100D3C0000BFBD4680BC7047001002400000FFF8A9
:100D4C0000ED00E080B500AF084B1B68074A43F08C
:100D5C0010031360032000F009F90020FFF726FFB1
:100D6C00FFF774FE0023184680BD00BF0020024030
:100D7C0080B400AF044B1B680133034A136000BFFF
:100D8C00BD4680BC704700BFFC00002080B400AFA3
:100D9C00024B1B681846BD4680BC7047FC00002007
:100DAC0080B584B000AF7860FFF7F0FFB8607B6867
:100DBC00FB60FB68B3F1FF3F02D0FB680133FB60C3
:100DCC0000BFFFF7E3FF0246BB68D31AFA689A42EA
:100DDC00F7D800BF1037BD4680BD000080B485B089
:100DEC0000AF78607B6803F00703FB600C4BDB689B
:100DFC00BB60BA684FF6FF031340BB60FB681A0276
:100E0C00BB68134343F0BF6343F40033BB60044A35
:100E1C00BB68D36000BF1437BD4680BC704700BFB1
:100E2C0000ED00E080B400AF044BDB681B0A03F05C
:100E3C0007031846BD4680BC704700BF00ED00E0BC
:100E4C0080B483B000AF0346FB71FB7903F01F0243
:100E5C00064997F907305B09012000FA02F241F8C4
:100E6C00232000BF0C37BD4680BC704700E100E07A
:100E7C0080B483B000AF03463960FB7197F907303B
:100E8C00002B0BDA3B68DAB20C49FB7903F00F0349
:100E9C00043B1201D2B20B441A7609E03B68DAB279
:100EAC00074997F907301201D2B20B4483F800239B
:100EBC0000BF0C37BD4680BC704700BF00ED00E0A2
:100ECC0000E100E080B489B000AFF860B9607A60EE
:100EDC00FB6803F00703FB61FB69C3F10703042BF9
:100EEC0028BF0423BB61FB690433062B02D9FB69C1
:100EFC00033B00E000237B614FF0FF32BB6902FA39
:100F0C0003F3DA43BB681A407B699A404FF0FF3118
:100F1C007B6901FA03F3D9437B680B4013431846F2
:100F2C002437BD4680BC704780B582B000AF786076
:100F3C007B68013BB3F1807F01D301230FE00A4AA8
:100F4C007B68013B53600F214FF0FF30FFF790FFA0
:100F5C00054B00229A60044B07221A6000231846A6
:100F6C000837BD4680BD00BF10E000E080B582B000
:100F7C0000AF78607868FFF731FF00BF0837BD46D7
:100F8C0080BD80B586B000AF0346B9607A60FB7354
:100F9C0000237B61FFF746FF78617A68B96878694E
:100FAC00FFF790FF024697F90F3011461846FFF7EE
:100FBC005FFF00BF1837BD4680BD80B582B000AF63
:100FCC000346FB7197F907301846FFF739FF00BF4E
:100FDC000837BD4680BD80B582B000AF78607868B8
:100FEC00FFF7A2FF034618460837BD4680BD000038
:100FFC0080B483B000AF78607B68042B06D1094BBA
:10100C001B68084A43F00403136005E0054B1B689A
:10101C00044A23F00403136000BF0C37BD4680BCA8
:10102C00704700BF10E000E080B500AF00F002F8A0
:10103C0000BF80BD80B400AF00BFBD4680BC704710
:10104C0080B48BB000AF786039600023FB61002363
:10105C00BB6100237B6100233B6200233B610023C7
:10106C007B6227E101227B6A02FA03F3FB613B6896
:10107C001B68FA691340BB61BA69FB699A4240F07C
:10108C0016813B685B68122B34D0122B0DD8022BC7
:10109C002BD0022B04D8002B31D0012B1CD048E0D4
:1010AC00032B43D0112B1BD043E0874A934226D00D
:1010BC00854A934206D8854A934220D0844A93426B
:1010CC001DD036E0834A934219D0834A934216D0FE
:1010DC00824A934213D02CE03B68DB683B6228E0E9
:1010EC003B68DB6804333B6223E03B68DB68083316
:1010FC003B621EE03B68DB680C333B6219E03B68EB
:10110C009B68002B02D104233B6212E03B689B6876
:10111C00012B05D108233B627B68FA691A6108E050
:10112C0008233B627B68FA695A6102E000233B6248
:10113C0000BFBB69FF2B01D87B6801E07B680433DF
:10114C00FB60BB69FF2B02D87B6A9B0002E07B6AC9
:10115C00083B9B003B61FB681A680F213B6901FA55
:10116C0003F3DB431A40396A3B6901FA03F31A4370
:10117C00FB681A603B685B6803F08053002B00F03F
:10118C009680574B9B69564A43F001039361544B2D
:10119C009B6903F00103BB60BB68524A7B6A9B08E6
:1011AC00023352F823307B617B6A03F003039B000C
:1011BC000F2202FA03F3DB437A6913407B617B68ED
:1011CC00494A934213D07B68484A93420DD07B68BE
:1011DC00474A934207D07B68464A934201D1032386
:1011EC0006E0042304E0022302E0012300E00023D4
:1011FC007A6A02F00302920093407A6913437B618E
:10120C0038497B6A9B0802337A6941F823203B6892
:10121C005B6803F48033002B06D0374B1A683649D1
:10122C00BB6913430B6006E0334B1A68BB69DB43A5
:10123C00314913400B603B685B6803F40033002BAF
:10124C0006D02D4B5A682C49BB6913434B6006E002
:10125C00294B5A68BB69DB43274913404B603B68F9
:10126C005B6803F48013002B06D0234B9A68224949
:10127C00BB6913438B6006E01F4B9A68BB69DB4369
:10128C001D4913408B603B685B6803F40013002B13
:10129C0006D0194BDA681849BB691343CB6006E0DA
:1012AC00154BDA68BB69DB4313491340CB607B6A8F
:1012BC0001337B627B6A0F2B7FF6D4AE00BF2C37D9
:1012CC00BD4680BC704700BF00002110000011100B
:1012DC00000012100000311000003210000022102B
:1012EC00001002400000014000080140000C0140C9
:1012FC0000100140001401400004014080B483B090
:10130C0000AF78600B467B8013467B707B78002B9C
:10131C0003D07A887B681A6103E07B881A047B68A7
:10132C001A6100BF0C37BD4680BC704780B584B0D5
:10133C0000AF78600023FB600023BB607B68002B50
:10134C0001D10123C8E07B6893F83D30DBB2002B60
:10135C0006D17B68002283F83C207868FFF7C6FB37
:10136C007B68242283F83D207B681B681A687B68A5
:10137C001B6822F001021A6000F07AFFB860BB68AB
:10138C00574AA2FB03239B0CFB607B681B68FA6823
:10139C005A607B685B68534A934202D8FB680133FE
:1013AC0009E0FB684FF4967202FB03F34E4AA2FB72
:1013BC0003239B0901337A68126813627B685B68AC
:1013CC00484A934212D87B685B685B00BA68B2FBF0
:1013DC00F3F3C3F30B03032B06D97B685B685B0049
:1013EC00BA68B2FBF3F345E0042343E07B689B68E7
:1013FC00002B0FD17B685A6813465B001344BA6804
:10140C00B2FBF3F3C3F30B03002B0CBF012300233C
:10141C00DBB210E07B685A6813469B0013449A00B9
:10142C001344BA68B2FBF3F3C3F30B03002B0CBFEA
:10143C0001230023DBB2002B01D001231AE07B68CF
:10144C009B68002B0AD17B685A6813465B001344D7
:10145C00BA68B2FBF3F343F400430BE07B685A68C1
:10146C0013469B0013449A001344BA68B2FBF3F37F
:10147C0043F440437A681268D3617B68D9697B680E
:10148C001A6A7B681B680A431A607B6819697B6857
:10149C00DA687B681B680A439A607B6859697B68C9
:1014AC009A697B681B680A43DA607B681B681A6858
:1014BC007B681B6842F001021A607B6800221A6488
:1014CC007B68202283F83D207B6800221A637B68AE
:1014DC00002283F83E20002318461037BD4680BDFD
:1014EC0083DE1B43A0860100D34D621080B588B00B
:1014FC0002AFF860084611461A4603467B810B463C
:10150C003B811346FB8000237B61FFF73FFC786136
:10151C00FB6893F83D30DBB2202B40F0E7807B6911
:10152C000093192301227449F86800F07DF90346F1
:10153C00002B01D00223DAE0FB6893F83C30012B3E
:10154C0001D10223D3E0FB68012283F83C20FB6825
:10155C001B681B6803F00103012B07D0FB681B6899
:10156C001A68FB681B6842F001021A60FB681B6872
:10157C001A68FB681B6822F400621A60FB6821225F
:10158C0083F83D20FB68402283F83E20FB68002254
:10159C001A64FB683A6A5A62FB68BA8C5A85FB6813
:1015AC00564ADA62FB685B8D9AB2FB681A85F8883A
:1015BC003A8979897B690193BB6A00930346F86881
:1015CC0000F09EF80346002B5ED0FB681B6C042BCE
:1015DC0005D1FB68002283F83C20012387E0FB68DF
:1015EC00002283F83C20032381E07A69B96AF86809
:1015FC0000F0D9F90346002B0FD0FB681B6C042BB1
:10160C0009D1FB681B681A68FB681B6842F40072FE
:10161C001A6001236BE0032369E0FB685B6A591CC9
:10162C00FA6851621A78FB681B681A61FB681B8D9B
:10163C00013B9AB2FB681A85FB685B8D9BB2013B40
:10164C009AB2FB685A85FB681B685B6903F004035C
:10165C00042B19D1FB681B8D002B15D0FB685B6A22
:10166C00591CFA6851621A78FB681B681A61FB688E
:10167C001B8D013B9AB2FB681A85FB685B8D9BB294
:10168C00013B9AB2FB685A85FB681B8D002BACD1D1
:10169C007A69B96AF86800F0C3F90346002B0FD0D9
:1016AC00FB681B6C042B09D1FB681B681A68FB6870
:1016BC001B6842F400721A60012318E0032316E041
:1016CC00FB681B681A68FB681B6842F400721A609E
:1016DC00FB68202283F83D20FB68002283F83E2023
:1016EC00FB68002283F83C20002300E0022318460C
:1016FC001837BD4680BD00BF020010000000FFFF80
:10170C0080B588B002AFF860084611461A46034609
:10171C007B810B463B811346FB80FB681B681A6878
:10172C00FB681B6842F480721A607B6A00933B6A08
:10173C0000224FF00111F86800F076F80346002BF8
:10174C0001D0032369E07B89DBB21A46FB681B6876
:10175C0002F0FE021A617B6A3A6A3249F86800F0BC
:10176C00B4F80346002B07D0FB681B6C042B01D18B
:10177C00012352E0032350E000237B61FB681B68CC
:10178C005B697B61FB681B689B697B617B697A6A1F
:10179C00396AF86800F007F90346002B0FD0FB6894
:1017AC001B6C042B09D1FB681B681A68FB681B684F
:1017BC0042F400721A6001232FE003232DE0FB8812
:1017CC00012B05D13B89DAB2FB681B681A6123E057
:1017DC003B891B0A9BB2DAB2FB681B681A617A6AF6
:1017EC00396AF86800F0DFF80346002B0FD0FB686D
:1017FC001B6C042B09D1FB681B681A68FB681B68FF
:10180C0042F400721A60012307E0032305E03B89D0
:10181C00DAB2FB681B681A61002318461837BD46FC
:10182C0080BD00BF0200010080B584B000AFF8603D
:10183C00B9603B601346FB711FE03B68B3F1FF3F9F
:10184C001BD03B68002B07D0FFF7A0FA0246BB6900
:10185C00D31A3A689A4210D2FB6800221A63FB68CA
:10186C00202283F83D20FB68002283F83E20FB6891
:10187C00002283F83C20032323E0BB681B0CDBB263
:10188C00012B0DD1FB681B685B69DA43BB68134005
:10189C009BB2002B0CBF01230023DBB21A460CE0D9
:1018AC00FB681B689B69DA43BB6813409BB2002B37
:1018BC000CBF01230023DBB21A46FB799A42BCD041
:1018CC00002318461037BD4680BD80B584B000AFEC
:1018DC00F860B9607A603B6040E0FB681B685B694C
:1018EC0003F48063B3F5806F1CD1FB681B681A6826
:1018FC00FB681B6842F400721A60FB681B686FF48B
:10190C0080625A61FB6804221A64FB6800221A6325
:10191C00FB68202283F83D20FB68002283F83C20E2
:10192C0001233CE07B68B3F1FF3F17D07B68002BB1
:10193C0007D0FFF72BFA02463B68D31A7A689A4213
:10194C000CD2FB6800221A63FB68202283F83D202E
:10195C00FB68002283F83C20032320E0BB681B0CAF
:10196C00DBB2012B0CD1FB681B685B69DA43BB68EB
:10197C0013409BB2002B14BF01230023DBB20BE0FE
:10198C00FB681B689B69DA43BB6813409BB2002B56
:10199C0014BF01230023DBB2002B9ED10023184679
:1019AC001037BD4680BD80B584B000AFF860B9601B
:1019BC007A6029E0F86800F070F80346002B01D03B
:1019CC00012329E0BB68B3F1FF3F1DD0BB68002B9E
:1019DC0007D0FFF7DBF902467B68D31ABA689A4244
:1019EC0012D2FB681B6C43F02002FB681A64FB6884
:1019FC0000221A63FB68202283F83D20FB6800223A
:101A0C0083F83C20032307E0FB681B685B6903F049
:101A1C008003802BCED1002318461037BD4680BDE5
:101A2C0080B584B000AFF860B9607A6029E0F868DE
:101A3C0000F033F80346002B01D0012329E0BB68EA
:101A4C00B3F1FF3F1DD0BB68002B07D0FFF79EF909
:101A5C0002467B68D31ABA689A4212D2FB681B6C96
:101A6C0043F02002FB681A64FB6800221A63FB68CF
:101A7C00202283F83D20FB68002283F83C200323BE
:101A8C0007E0FB681B685B6903F00403042BCED1F1
:101A9C00002318461037BD4680BD80B483B000AF1C
:101AAC0078607B681B685B6903F48063B3F5806FB7
:101ABC0014D17B681B686FF480625A617B680422C6
:101ACC001A647B6800221A637B68202283F83D200D
:101ADC007B68002283F83C20012300E00023184699
:101AEC000C37BD4680BC704780B586B000AF7860BF
:101AFC0000233B617B681B6803F00103002B00F0A3
:101B0C008780924B5B6803F00C03042B0CD08F4B3B
:101B1C005B6803F00C03082B12D18C4B5B6803F44D
:101B2C008033B3F5803F0BD1884B1B6803F4003333
:101B3C00002B6CD07B685B68002B68D101232DE2F5
:101B4C007B685B68B3F5803F06D1804B1B687F4A8E
:101B5C0043F4803313602EE07B685B68002B0CD160
:101B6C007A4B1B68794A23F480331360774B1B68DC
:101B7C00764A23F4802313601DE07B685B68B3F521
:101B8C00A02F0CD1714B1B68704A43F48023136057
:101B9C006E4B1B686D4A43F4803313600BE06B4B48
:101BAC001B686A4A23F480331360684B1B68674ACE
:101BBC0023F4802313607B685B68002B13D0FFF742
:101BCC00E5F8386108E0FFF7E1F802463B69D31A03
:101BDC00642B01D90323E1E15C4B1B6803F4003354
:101BEC00002BF0D014E0FFF7D1F8386108E0FFF7D4
:101BFC00CDF802463B69D31A642B01D90323CDE1FE
:101C0C00524B1B6803F40033002BF0D100E000BFF3
:101C1C007B681B6803F00203002B63D04B4B5B68A3
:101C2C0003F00C03002B0BD0484B5B6803F00C0348
:101C3C00082B1CD1454B5B6803F48033002B16D169
:101C4C00424B1B6803F00203002B05D07B681B6919
:101C5C00012B01D00123A1E13C4B1B6823F0F802BE
:101C6C007B685B69DB00394913430B603AE07B68A6
:101C7C001B69002B20D0364B01221A60FFF786F827
:101C8C00386108E0FFF782F802463B69D31A022B51
:101C9C0001D9032382E12D4B1B6803F00203002BB7
:101CAC00F0D02A4B1B6823F0F8027B685B69DB00E1
:101CBC00264913430B6015E0254B00221A60FFF7F1
:101CCC0065F8386108E0FFF761F802463B69D31A02
:101CDC00022B01D9032361E11C4B1B6803F00203A7
:101CEC00002BF0D17B681B6803F00803002B39D064
:101CFC007B689B69002B19D0164B01221A60FFF7E9
:101D0C0045F8386108E0FFF741F802463B69D31A01
:101D1C00022B01D9032341E10C4B5B6A03F0020354
:101D2C00002BF0D0012000F0FBFA1BE0094B002245
:101D3C001A60FFF72BF838610EE0FFF727F8024620
:101D4C003B69D31A022B07D9032327E10010024069
:101D5C000000424280044242924B5B6A03F0020351
:101D6C00002BEAD17B681B6803F00403002B00F006
:101D7C00A6800023FB758B4BDB6903F08053002B93
:101D8C000DD1884BDB69874A43F08053D361854B77
:101D9C00DB6903F08053FB60FB680123FB75824B0E
:101DAC001B6803F48073002B18D17F4B1B687E4A91
:101DBC0043F480731360FEF7E9FF386108E0FEF727
:101DCC00E5FF02463B69D31A642B01D90323E5E0F6
:101DDC00754B1B6803F48073002BF0D07B68DB68B9
:101DEC00012B06D16F4B1B6A6E4A43F00103136241
:101DFC002DE07B68DB68002B0CD16A4B1B6A694AAF
:101E0C0023F001031362674B1B6A664A23F0040339
:101E1C0013621CE07B68DB68052B0CD1614B1B6AE1
:101E2C00604A43F0040313625E4B1B6A5D4A43F045
:101E3C00010313620BE05B4B1B6A5A4A23F001034C
:101E4C001362584B1B6A574A23F0040313627B68D6
:101E5C00DB68002B15D0FEF799FF38610AE0FEF71E
:101E6C0095FF02463B69D31A41F28832934201D95D
:101E7C00032393E04B4B1B6A03F00203002BEED0C1
:101E8C0014E0FEF783FF38610AE0FEF77FFF02469D
:101E9C003B69D31A41F28832934201D903237DE086
:101EAC00404B1B6A03F00203002BEED1FB7D012B90
:101EBC0005D13C4BDB693B4A23F08053D3617B68F3
:101ECC00DB69002B69D0374B5B6803F00C03082BE4
:101EDC0061D07B68DB69022B46D1344B00221A603F
:101EEC00FEF754FF386108E0FEF750FF02463B69ED
:101EFC00D31A022B01D9032350E02A4B1B6803F0A1
:101F0C000073002BF0D17B681B6AB3F5803F08D1BE
:101F1C00244B5B6823F400327B689B682149134394
:101F2C004B60204B5B6823F474127B68196A7B68E6
:101F3C005B6A0B431B4913434B601C4B01221A6019
:101F4C00FEF724FF386108E0FEF720FF02463B69EC
:101F5C00D31A022B01D9032320E0124B1B6803F088
:101F6C000073002BF0D018E0104B00221A60FEF723
:101F7C000DFF386108E0FEF709FF02463B69D31AF2
:101F8C00022B01D9032309E0064B1B6803F00073F5
:101F9C00002BF0D101E0012300E000231846183794
:101FAC00BD4680BD001002400070004060004242FF
:101FBC0080B584B000AF786039600023FB60724B51
:101FCC001B6803F007033A689A4210D96E4B1B68E2
:101FDC0023F007026C493B6813430B606A4B1B6888
:101FEC0003F007033A689A4201D00123C8E07B68EA
:101FFC001B6803F00203002B08D0644B5B6823F0D2
:10200C00F0027B689B68614913434B607B681B68DB
:10201C0003F00103002B6AD07B685B68012B07D1AE
:10202C005A4B1B6803F40033002B15D10123A7E096
:10203C007B685B68022B07D1544B1B6803F0007361
:10204C00002B09D101239BE0504B1B6803F00203CA
:10205C00002B01D1012393E04C4B5B6823F003026E
:10206C007B685B68494913434B60FEF78FFEF86051
:10207C007B685B68012B12D10AE0FEF787FE0246F3
:10208C00FB68D31A41F28832934201D9032377E0DB
:10209C003E4B5B6803F00C03042BEED127E07B680E
:1020AC005B68022B1DD10AE0FEF770FE0246FB684E
:1020BC00D31A41F28832934201D9032360E0334BA7
:1020CC005B6803F00C03082BEED110E0FEF75EFE0C
:1020DC000246FB68D31A41F28832934201D903239A
:1020EC004EE02A4B5B6803F00C03002BEED1264B21
:1020FC001B6803F007033A689A4210D2224B1B6804
:10210C0023F0070220493B6813430B601E4B1B68EE
:10211C0003F007033A689A4201D0012330E07B6850
:10212C001B6803F00403002B08D0184B5B6823F4E6
:10213C00E0627B68DB68154913434B607B681B6866
:10214C0003F00803002B09D0104B5B6823F460529A
:10215C007B681B69DB000D4913434B6000F01CF8D6
:10216C0001460A4B5B681B0903F00F03084AD35C5A
:10217C0021FA03F3074A13600020FEF717FD002332
:10218C0018461037BD4680BD0020024000100240AA
:10219C00403800080000002090B48AB000AF2A4BF1
:1021AC003C1D0FCB84E80F00284B1B883B80002381
:1021BC00FB610023BB6100237B6200237B61002356
:1021CC003B62234B5B68FB61FB6903F00C03042B44
:1021DC0002D0082B03D02DE01E4B3B622DE0FB6997
:1021EC009B0C03F00F0307F12802134413F8243C53
:1021FC007B61FB6903F48033002B13D0144B5B68B9
:10220C005B0C03F0010307F12802134413F8283C7C
:10221C00BB61104ABB69B2FBF3F27B6902FB03F3AF
:10222C007B6204E07B690C4A02FB03F37B627B6AF2
:10223C003B6202E0074B3B6200BF3B6A1846283703
:10224C00BD4690BC704700BF2438000834380008E5
:10225C000010024000127A0000093D0080B400AF6B
:10226C00024B1B681846BD4680BC7047000000201E
:10227C0080B500AFFFF7F2FF0146054B5B681B0A08
:10228C0003F00703034AD35C21FA03F3184680BD1D
:10229C00001002405038000880B500AFFFF7DEFF99
:1022AC000146054B5B68DB0A03F00703034AD35C6A
:1022BC0021FA03F3184680BD001002405038000884
:1022CC0080B483B000AF786039607B680F221A60ED
:1022DC00114B5B6803F003027B685A600E4B5B6822
:1022EC0003F0F0027B689A600B4B5B6803F4E062CE
:1022FC007B68DA60084B5B68DB0803F4E0627B68A0
:10230C001A61064B1B6803F007023B681A6000BF9A
:10231C000C37BD4680BC70470010024000200240C4
:10232C0080B485B000AF78600A4B1B680A4AA2FBE8
:10233C0003235B0A7A6802FB03F3FB6000BFFB68B4
:10234C005A1EFA60002BF9D100BF1437BD4680BC71
:10235C00704700BF00000020D34D621080B582B0E2
:10236C0000AF78607B68002B01D101231DE07B68F6
:10237C0093F83D30DBB2002B06D17B68002283F84A
:10238C003C20786800F015F87B68022283F83D2029
:10239C007B681A687B6804331946104600F042FBD0
:1023AC007B68012283F83D20002318460837BD4680
:1023BC0080BD80B483B000AF786000BF0C37BD46E1
:1023CC0080BC704780B483B000AF78607B681B68BA
:1023DC00DA687B681B6842F00102DA607B681B6874
:1023EC001A687B681B6842F001021A6000231846C9
:1023FC000C37BD4680BC704780B582B000AF7860AA
:10240C007B68002B01D101231DE07B6893F83D30E4
:10241C00DBB2002B06D17B68002283F83C20786865
:10242C00FEF790FB7B68022283F83D207B681A68DC
:10243C007B6804331946104600F0F4FA7B680122DD
:10244C0083F83D20002318460837BD4680BD0000A8
:10245C0080B582B000AF786039603B680C2B41D8F6
:10246C0001A252F823F000BFA9240008F1240008AF
:10247C00F1240008F1240008BB240008F124000812
:10248C00F1240008F1240008CD240008F1240008F0
:10249C00F1240008F1240008DF2400087B681B6885
:1024AC00DA687B681B6842F00202DA601BE07B682A
:1024BC001B68DA687B681B6842F00402DA6012E081
:1024CC007B681B68DA687B681B6842F00802DA607C
:1024DC0009E07B681B68DA687B681B6842F01002B5
:1024EC00DA6000E000BF7B681B680122396818467F
:1024FC0000F01BFC7B681B681A687B681B6842F049
:10250C0001021A60002318460837BD4680BD00BF83
:10251C0080B582B000AF786039603B680C2B41D835
:10252C0001A252F823F000BF69250008B12500086C
:10253C00B1250008B12500087B250008B12500084D
:10254C00B1250008B12500088D250008B12500082B
:10255C00B1250008B12500089F2500087B681B6881
:10256C00DA687B681B6822F00202DA601BE07B6889
:10257C001B68DA687B681B6822F00402DA6012E0E0
:10258C007B681B68DA687B681B6822F00802DA60DB
:10259C0009E07B681B68DA687B681B6822F0100214
:1025AC00DA6000E000BF7B681B68002239681846BF
:1025BC0000F0BBFB7B681B681A6A41F211131340D5
:1025CC00002B0FD17B681B681A6A40F244431340FE
:1025DC00002B07D17B681B681A687B681B6822F08C
:1025EC0001021A60002318460837BD4680BD00BFA3
:1025FC0080B582B000AF78607B681B681B6903F004
:10260C000203022B22D17B681B68DB6803F00203F8
:10261C00022B1BD17B681B686FF002021A617B686E
:10262C0001221A777B681B689B6903F00303002B5C
:10263C0003D0786800F0DBF905E0786800F0CEF99B
:10264C00786800F0DDF97B6800221A777B681B68DC
:10265C001B6903F00403042B22D17B681B68DB6825
:10266C0003F00403042B1BD17B681B686FF004027E
:10267C001A617B6802221A777B681B689B6903F4DA
:10268C004073002B03D0786800F0B1F905E078684E
:10269C0000F0A4F9786800F0B3F97B6800221A778F
:1026AC007B681B681B6903F00803082B22D17B682D
:1026BC001B68DB6803F00803082B1BD17B681B68C5
:1026CC006FF008021A617B6804221A777B681B681A
:1026DC00DB6903F00303002B03D0786800F087F963
:1026EC0005E0786800F07AF9786800F089F97B6881
:1026FC0000221A777B681B681B6903F01003102BF0
:10270C0022D17B681B68DB6803F01003102B1BD1F4
:10271C007B681B686FF010021A617B6808221A77BD
:10272C007B681B68DB6903F44073002B03D078686B
:10273C0000F05DF905E0786800F050F9786800F079
:10274C005FF97B6800221A777B681B681B6903F0B2
:10275C000103012B0ED17B681B68DB6803F00103BE
:10276C00012B07D17B681B686FF001021A61786836
:10277C00FEF754F97B681B681B6903F08003802B00
:10278C000ED17B681B68DB6803F08003802B07D1BC
:10279C007B681B686FF080021A61786800F034FB6C
:1027AC007B681B681B6903F04003402B0ED17B68D0
:1027BC001B68DB6803F04003402B07D17B681B6868
:1027CC006FF040021A61786800F023F97B681B688F
:1027DC001B6903F02003202B0ED17B681B68DB6880
:1027EC0003F02003202B07D17B681B686FF02002BD
:1027FC001A61786800F0FFFA00BF0837BD4680BD4B
:10280C0080B584B000AFF860B9607A60FB6893F86B
:10281C003C30012B01D102238AE0FB68012283F8B2
:10282C003C20FB68022283F83D207B68002B1BD1E7
:10283C00FB681868BB681968BB685A68BB68DB68BA
:10284C0000F056F9FB681B689A69FB681B6822F05C
:10285C000C029A61FB681B689969BB689A68FB68F3
:10286C001B680A439A615AE07B68042B1CD1FB68F5
:10287C001868BB681968BB685A68BB68DB6800F0ED
:10288C0095F9FB681B689A69FB681B6822F4406227
:10289C009A61FB681B689969BB689B681A02FB68A4
:1028AC001B680A439A613AE07B68082B1BD1FB68D2
:1028BC001868BB681968BB685A68BB68DB6800F0AD
:1028CC00B5F9FB681B68DA69FB681B6822F00C021F
:1028DC00DA61FB681B68D969BB689A68FB681B687E
:1028EC000A43DA611BE0FB681868BB681968BB68AF
:1028FC005A68BB68DB6800F0D8F9FB681B68DA69BA
:10290C00FB681B6822F44062DA61FB681B68D969BA
:10291C00BB689B681A02FB681B680A43DA61FB6898
:10292C00012283F83D20FB68002283F83C20002321
:10293C0018461037BD4680BD80B485B000AF7860B6
:10294C0039600023FB607B6893F83C30012B01D18C
:10295C0002233DE07B68012283F83C203B680C2B72
:10296C0030D801A252F823F0A9290008D129000877
:10297C00D1290008D1290008B3290008D129000861
:10298C00D1290008D1290008BD290008D129000847
:10299C00D1290008D1290008C72900087B681B68C9
:1029AC005B6BFB600FE07B681B689B6BFB600AE05A
:1029BC007B681B68DB6BFB6005E07B681B681B6C32
:1029CC00FB6000E000BF7B68002283F83C20FB68C2
:1029DC0018461437BD4680BC704700BF80B483B026
:1029EC0000AF786000BF0C37BD4680BC704780B428
:1029FC0083B000AF786000BF0C37BD4680BC704719
:102A0C0080B483B000AF786000BF0C37BD4680BC8B
:102A1C00704780B483B000AF786000BF0C37BD4600
:102A2C0080BC704780B485B000AF786039600023FB
:102A3C00FB607B681B68FB607B682A4A93420BD067
:102A4C007B68B3F1804F07D07B68274A934203D051
:102A5C007B68264A934208D1FB6823F07003FB6025
:102A6C003B685B68FA681343FB607B681D4A9342C2
:102A7C000BD07B68B3F1804F07D07B681A4A934226
:102A8C0003D07B68194A934208D1FB6823F4407346
:102A9C00FB603B68DB68FA681343FB60FB6823F060
:102AAC008003FB603B685B69FA681343FB607B68DF
:102ABC00FA681A603B689A687B68DA623B681A6845
:102ACC007B689A627B68074A934203D13B681A6918
:102ADC007B681A637B6801225A6100BF1437BD46BC
:102AEC0080BC7047002C01400004004000080040EE
:102AFC0080B487B000AFF860B9607A603B600023A7
:102B0C007B6100233B61FB681B6A23F00102FB68BD
:102B1C001A62FB689B697B61FB681B6A3B61FB6803
:102B2C001F4A93420BD0FB68B3F1804F07D0FB6870
:102B3C001C4A934203D0FB681B4A934201D10123E8
:102B4C0000E00023002B08D07B6923F003037B619A
:102B5C007A697B6813437B6103E07B6943F0010373
:102B6C007B617B6923F0F0037B613B681B01DBB26B
:102B7C007A6913437B613B6923F00A033B61BB68B1
:102B8C0003F00A033A6913433B61FB687A699A6163
:102B9C00FB683A691A6200BF1C37BD4680BC70479F
:102BAC00002C0140000400400008004080B487B0B5
:102BBC0000AFF860B9607A603B6000237B61002352
:102BCC003B61FB681B6A23F01002FB681A62FB680E
:102BDC009B697B61FB681B6A3B617B6923F44073D7
:102BEC007B617B681B027A6913437B617B6923F4ED
:102BFC0070437B613B681B039BB27A6913437B6117
:102C0C003B6923F0A0033B61BB681B0103F0A003ED
:102C1C003A6913433B61FB687A699A61FB683A69CC
:102C2C001A6200BF1C37BD4680BC704780B487B0A9
:102C3C0000AFF860B9607A603B6000237B610023D1
:102C4C003B61FB681B6A23F48072FB681A62FB68A9
:102C5C00DB697B61FB681B6A3B617B6923F00303C7
:102C6C007B617A697B6813437B617B6923F0F0039A
:102C7C007B613B681B01DBB27A6913437B613B6967
:102C8C0023F420633B61BB681B0203F420633A69A5
:102C9C0013433B61FB687A69DA61FB683A691A6233
:102CAC0000BF1C37BD4680BC704780B487B000AFF6
:102CBC00F860B9607A603B6000237B6100233B6164
:102CCC00FB681B6A23F48052FB681A62FB68DB69A1
:102CDC007B61FB681B6A3B617B6923F440737B61FE
:102CEC007B681B027A6913437B617B6923F4704315
:102CFC007B613B681B039BB27A6913437B613B6925
:102D0C0023F400533B61BB681B0303F400533A6983
:102D1C0013433B61FB687A69DA61FB683A691A62B2
:102D2C0000BF1C37BD4680BC704780B487B000AF75
:102D3C00F860B9607A6000237B610122BB6802FAFB
:102D4C0003F37B61FB681A6A7B69DB431A40FB68FF
:102D5C001A62FB681A6A7968BB6801FA03F31A43B2
:102D6C00FB681A6200BF1C37BD4680BC704780B43C
:102D7C0083B000AF786039607B6893F83C30012BEE
:102D8C0001D1022332E07B68012283F83C207B686E
:102D9C00022283F83D207B681B685A687B681B689D
:102DAC0022F070025A607B681B6859683B681A688D
:102DBC007B681B680A435A607B681B689A687B684F
:102DCC001B6822F080029A607B681B6899683B68DC
:102DDC005A687B681B680A439A607B68012283F8F7
:102DEC003D207B68002283F83C20002318460C37DA
:102DFC00BD4680BC704780B483B000AF786000BF24
:102E0C000C37BD4680BC704780B483B000AF78608F
:102E1C0000BF0C37BD4680BC7047000080B500AFCA
:102E2C0017210A2000F094FC044A012306CA044826
:102E3C0000F068FC00F056FB00BF80BD04000020D1
:102E4C003838000890B585B000AF78603960002341
:102E5C00FB730023BB7317E024497868FDF79AF9DC
:102E6C0003461946FB7B5A1CFA731A463B689C189E
:102E7C000846FDF75DFC0346DBB223701C497868FD
:102E8C00FDF744FB03467B604FF000017868FDF7CB
:102E9C001DFC0346002BDFD0FB7B3A681344002259
:102EAC001A70FB7B013BFB7317E0FB7B3A68134406
:102EBC001B787B73BB7B3A681A44FB7B39680B44E9
:102ECC0012781A70BB7B3A6813447A7B1A70BB7BFE
:102EDC000133BB73FB7B013BFB73BA7BFB7B9A42DD
:102EEC00E3D300BF1437BD4690BD00BF0000404285
:102EFC000000204180B592B000AF00F065FA4FF4AD
:102F0C007A70FDF74DFF002000F0CAFA00F0EAFAE3
:102F1C004FF47A70FDF744FF4023BB80184BBB6025
:102F2C00184BFB6000233B613B1D1749184600F012
:102F3C00F8F80346002B01D0FFF770FF124800F0A1
:102F4C0059F80346002B01D0FFF768FF0E4B9B6826
:102F5C0007F1140211461846FFF774FF17210A20D7
:102F6C0000F0F6FB094A07F11400012306CA00F031
:102F7C00C9FB00F0B7FA4FF47A70FDF711FFDDE7EB
:102F8C00000801407C00002000010020040000200B
:102F9C0080B586B000AF78607B689B8ABB601123DC
:102FAC00FB6001233B6103237B617B689B6907F119
:102FBC00080211461846FEF743F800BF1837BD4605
:102FCC0080BD80B586B000AF78607B689B8ABB60A3
:102FDC0001233B610023FB6003237B617B689B69BE
:102FEC0007F1080211461846FEF72AF800BF1837F9
:102FFC00BD4680BD80B584B000AF78607B681B7C1B
:10300C00002B01D0012388E07B6801221A747B68B5
:10301C00FF225A717B680022DA807A68537C6FF346
:10302C00000353747A68537C6FF341035374002389
:10303C00FB6007E07A68FB68134400221A70FB6897
:10304C000133FB60FB68042BF4DD7868FFF7A0FF0D
:10305C004FF4FA70FDF7A4FE7B6898697B689B8A35
:10306C0000221946FEF74AF91420FDF799FE7B68F9
:10307C0098697B689B8A01221946FEF73FF97868AC
:10308C00FFF79FFF7B68DB691B6800225A627B6835
:10309C00DA697B681B6A19461046FFF7D9F90346B3
:1030AC00002B01D0012338E0FDF770FEB86000BFA3
:1030BC007B681B7C022B07D0FDF768FE0246BB68C1
:1030CC00D31AB3F57A7FF3D37B68DA697B681B6A12
:1030DC0019461046FFF71CFA0346002B01D00123BA
:1030EC001BE07B685B7C03F00203DBB2002B01D09E
:1030FC00022312E07B685B7C03F00103DBB2002B44
:10310C0001D0032309E07B681B7C022B04D17B6874
:10311C0000221A74002300E0012318461037BD4624
:10312C0080BD90B482B000AF786039603B687A683B
:10313C0003F1140413460FCB84E80F000023184648
:10314C000837BD4690BC704780B485B000AF78603E
:10315C000B46FB707B6893F90530002B00DA0733C4
:10316C00DB105BB2FB737B6893F905305A4203F0BA
:10317C00070302F0070258BF53425BB2DBB2C3F144
:10318C000703BB73FB78002B0FD0FB7B7A68D35CF7
:10319C005AB2BB7B012101FA03F35BB213435AB25F
:1031AC00FB7BD1B27A68D15410E0FB7B7A68D35C9C
:1031BC005AB2BB7B012101FA03F35BB2DB435BB276
:1031CC0013405AB2FB7BD1B27A68D15400BF14378A
:1031DC00BD4680BC7047000080B584B000AF7860FD
:1031EC0000237B817B681B781B021BB203F4FE431C
:1031FC001AB2B7F90A3013431BB27B817B680133D7
:10320C001B789AB27B8913437B817B891846FDF727
:10321C0075F8034609491846FDF7C4F80346FB60E8
:10322C007B681B785BB2002B03DAFB6883F00043EE
:10323C00FB60FB6818461037BD4680BDCDCCCC3D3D
:10324C0080B584B000AF78600023FB730023BB60B3
:10325C0009E07A68BB6813441A78FB7B1344FB7350
:10326C00BB680133BB60BB68032BF2DD7B681B7949
:10327C00FA7B9A420FD17B681846FFF7ADFF0246E6
:10328C007B68DA607B6802331846FFF7A5FF0246BD
:10329C007B689A6004E07A68537C43F001035374B2
:1032AC007B6802221A7400BF1037BD4680BD80B502
:1032BC0084B000AF78607B68DA697B681B6A19465A
:1032CC001046FFF739FB0346FB817B68DB88FA89E4
:1032DC00D31ABB817B6893F90530B3F1FF3F1BD147
:1032EC00BB89772B0CD9BB89C82B09D87B6893F980
:1032FC000530DBB20133DBB25AB27B685A713BE06A
:10330C00BB89282B38D97A68537C43F00203537459
:10331C007B6802221A742FE0BB89452B10D9BB891C
:10332C00642B0DD800217868FFF70EFF7B6893F9AA
:10333C000530DBB20133DBB25AB27B685A711BE049
:10334C00BB896D2B10D9BB89962B0DD801217868C0
:10335C00FFF7FAFE7B6893F90530DBB20133DBB281
:10336C005AB27B685A7107E07A68537C43F00203C7
:10337C0053747B6802221A747B6893F90530282BEE
:10338C0002D17868FFF75CFF7B68FA89DA8000BFAE
:10339C001037BD4680BD000080B586B004AF034633
:1033AC00FB710A23029301230193FB1D009301235C
:1033BC00002278210348FEF799F800BF0837BD4674
:1033CC0080BD00BF2800002080B500AF6420FDF751
:1033DC00E7FCAE20FFF7E0FF2020FFF7DDFF102019
:1033EC00FFF7DAFFB020FFF7D7FFC820FFF7D4FFB5
:1033FC000020FFF7D1FF1020FFF7CEFF4020FFF792
:10340C00CBFF8120FFF7C8FFFF20FFF7C5FFA120EE
:10341C00FFF7C2FFA620FFF7BFFFA820FFF7BCFFF6
:10342C003F20FFF7B9FFA420FFF7B6FFD320FFF72B
:10343C00B3FF0020FFF7B0FFD520FFF7ADFFF02062
:10344C00FFF7AAFFD920FFF7A7FF2220FFF7A4FF61
:10345C00DA20FFF7A1FF1220FFF79EFFDB20FFF71A
:10346C009BFF2020FFF798FF8D20FFF795FF14207E
:10347C00FFF792FFAF20FFF78FFF002000F010F84E
:10348C0000F030F8054B00221A80044B00225A80C1
:10349C00024B01225A710123184680BD24050020DD
:1034AC0080B485B000AF0346FB710023FB600DE0D8
:1034BC00FB79002B01D1002100E0FF21084AFB68B9
:1034CC0013440A461A70FB680133FB60FB68B3F5C2
:1034DC00806FEDD300BF1437BD4680BC704700BF72
:1034EC002401002080B586B004AF0023FB711DE0E1
:1034FC00FB79503BDBB21846FFF74EFF0020FFF77D
:10350C004BFF1020FFF748FFFB79DB010B4A1344FC
:10351C00642202928022019200930123402278219E
:10352C000748FDF7E3FFFB790133FB71FB79072BB0
:10353C00DED900BF0837BD4680BD00BF2401002086
:10354C002800002080B483B000AF0346FB710B460B
:10355C00BB7113467B7197F90730002B48DBBB79A5
:10356C003F2B45D8254B1B79002B06D07B79002BA4
:10357C000CBF01230023DBB27B717B79012B1AD1A9
:10358C00FA79BB79DB08D8B20346DB0113441C4A39
:10359C00D35C5AB2BB7903F00703012101FA03F3A0
:1035AC005BB2134359B2FA790346DB011344C9B237
:1035BC00134AD1541DE0FA79BB79DB08D8B2034623
:1035CC00DB0113440E4AD35C5AB2BB7903F00703F8
:1035DC00012101FA03F35BB2DB435BB2134059B236
:1035EC00FA790346DB011344C9B2054AD15400E011
:1035FC0000BF0C37BD4680BC704700BF24050020BF
:10360C002401002090B589B000AF0446381D80E835
:10361C0006001A462346FB731346BB73384B1B88B4
:10362C001A463B7913447F2B06DC354B5B881A46D4
:10363C007B7913443F2B01DD00235DE00023FB610C
:10364C004CE0BA68FB7B203B797901FB03F319460C
:10365C00FB690B445B0013441B887B610023BB613B
:10366C0034E07A69BB6902FA03F303F40043002BDC
:10367C0012D0234B1B88DAB2BB69DBB21344D8B22D
:10368C001F4B5B88DAB2FB69DBB21344DBB2BA7B4B
:10369C001946FFF757FF16E0194B1B88DAB2BB69C6
:1036AC00DBB21344D8B2164B5B88DAB2FB69DBB2DF
:1036BC001344D9B2BB7B002B0CBF01230023DBB21C
:1036CC001A46FFF73FFFBB690133BB613B791A46D2
:1036DC00BB699342C5D3FB690133FB617B791A4605
:1036EC00FB699342ADD3064B1A883B799BB21344CA
:1036FC009AB2034B1A80FB7B18462437BD4690BD0B
:10370C002405002080B584B000AFF860381D80E837
:10371C000600FB7012E0FB681878FB783A1D06CAAD
:10372C00FFF770FF03461A46FB681B789A4202D0DB
:10373C00FB681B7808E0FB680133FB60FB681B78B7
:10374C00002BE8D1FB681B7818461037BD4680BDAE
:10375C0080B483B000AF03460A46FB711346BB71BD
:10376C00FB799AB2054B1A80BB799AB2034B5A80FB
:10377C0000BF0C37BD4680BC704700BF240500203D
:10378C00002103E00B4B5B58435004310A480B4BB0
:10379C0042189A42F6D30A4A02E0002342F8043B4C
:1037AC00084B9A42F9D3FDF799FAFCF7E1FFFDF7C4
:1037BC0003F87047BC450008000000200C000020F6
:1037CC000C0000202C050020FEE70000F8B500BF1F
:1037DC00F8BC08BC9E467047F8B500BFF8BC08BCE6
:0437EC009E4670473E
:1037F0002F686F6D652F616E746F6E2F4465736BEC
:10380000746F702F50726F6A656374732F53544DC9
:1038100033322F626C696E6B2F5372632F6D616947
:103820006E2E630002030405060708090A0B0C0D3F
:103830000E0F1010010200004572726F720000003E
:103840000000000000000000010203040607080950
:10385000000000000102030400000000000000005E
:103860000000000000000000000000000000000058
:103870000000000000000000000000000000000C3C
:10388000000C000C000C000C000C000C000C000CD8
:10389000000C000C0000000C000C000000000000F8
:1038A0000000001B001B001B001B001B0000000091
:1038B0000000000000000000000000000000000008
:1038C0000000000000008019801980198019C07F55
:1038D000C07F80190033C07FC07F003300330033C6
:1038E00000330000000000000000001E003F807553
:1038F00080650074003C001E0007800580658065BF
:103900008075003F001E00040004000000000070ED
:1039100000D840D8C0D880D900730006000C801BA6
:10392000C036C066C046C00680030000000000002C
:103930000000001E003F003300330033001E000C67
:10394000C03CC066806380618063C03E801C000014
:10395000000000000000000C000C000C000C000C2B
:103960000000000000000000000000000000000057
:1039700000000000000000008000000100030006BD
:1039800000060004000C000C000C000C000C000CE5
:103990000004000600060003000180000020001063
:1039A0000018000C000C00040006000600060006CB
:1039B000000600060004000C000C00180010002097
:1039C0000000000C002D003F001E0033000000002E
:1039D00000000000000000000000000000000000E7
:1039E00000000000000000000000000C000C000CB3
:1039F000000CC0FFC0FF000C000C000C000C00000D
:103A000000000000000000000000000000000000B6
:103A100000000000000000000000000000000000A6
:103A20000000000C000C000400040008000000006E
:103A30000000000000000000000000000000001E68
:103A4000001E000000000000000000000000000058
:103A50000000000000000000000000000000000066
:103A600000000000000000000000000C000C00003E
:103A70000000000000000003000300030006000631
:103A800000060006000C000C000C000C00180018CA
:103A900000180000000000000000001E003F00337E
:103AA000806180618061806D806D806180618061F6
:103AB0000033003F001E0000000000000000000670
:103AC000000E001E00360026000600060006000656
:103AD00000060006000600060006000000000000C8
:103AE0000000001E003F8073806180618001000340
:103AF0000006000C001800300060807F807F00000E
:103B0000000000000000001C003E00630063000392
:103B1000000E000E00038001800180618073003F71
:103B2000001E00000000000000000006000E000E55
:103B3000001E001E0016003600360066807F807F63
:103B40000006000600060000000000000000007FE4
:103B5000007F006000600060006E007F8063800175
:103B6000800180618073003F001E000000000000A3
:103B70000000001E003F803380610060006E007F07
:103B800080738061806180618033003F001E00008F
:103B9000000000000000807F807F800100030003A0
:103BA00000060006000C000C000C000800180018AD
:103BB00000180000000000000000001E003F8063AD
:103BC000806180610021001E003F80618061806112
:103BD0008061003F001E0000000000000000001E89
:103BE000003F00738061806180618073803F801D31
:103BF000800180610073003F001E00000000000093
:103C000000000000000000000000000C000C00009C
:103C100000000000000000000000000C000C00008C
:103C20000000000000000000000000000000000094
:103C3000000C000C00000000000000000000000C60
:103C4000000C000400040008000000000000000058
:103C500080008003000E003800600038000E8003F2
:103C600080000000000000000000000000000000D4
:103C7000000000000000807F807F00000000807F47
:103C8000807F000000000000000000000000000035
:103C9000000000000000000000400070001C000751
:103CA00080010007001C00700040000000000000C0
:103CB000000000000000001F803FC071C060C00015
:103CC000C00180030007000E000C000C0000000C77
:103CD000000C0000000000000000001E003F8031CA
:103CE00080718063806F806D806D806F8067006001
:103CF0000032003E001C0000000000000000000E2A
:103D0000000E001B001B001B001B80318031803F18
:103D1000803F8031C060C060C060000000000000D3
:103D20000000007C007E0063006300630063007E8F
:103D3000007E0063806180618063007F007E000000
:103D4000000000000000001E003F80318061006024
:103D50000060006000600060006080618031003FB2
:103D6000001E0000000000000000007C007F0063D7
:103D700080638061806180618061806180610063B7
:103D80000063007E007C0000000000000000807FD7
:103D9000807F0060006000600060007F007F006046
:103DA000006000600060807F807F000000000000F5
:103DB0000000807F807F0060006000600060007F06
:103DC000007F006000600060006000600060000034
:103DD000000000000000001E003F80318061006094
:103DE0000060006080638063806180618031803F1B
:103DF000001E000000000000000080618061806102
:103E0000806180618061807F807F8061806180616E
:103E10008061806180610000000000000000003FC0
:103E2000003F000C000C000C000C000C000C000CFF
:103E3000000C000C000C003F003F000000000000E0
:103E400000008001800180018001800180018001EB
:103E500080018001806180618073003F001E00004E
:103E6000000000000000C060806100630066006622
:103E7000006C0078007C00660066006380618061F1
:103E8000C0600000000000000000006000600060F2
:103E90000060006000600060006000600060006022
:103EA0000060807F807F0000000000000000C07183
:103EB000C071C07BC07AC06AC06AC06EC064C06096
:103EC000C060C060C060C060C06000000000000052
:103ED000000080718071807980798079806D806D3B
:103EE000806D806580678067806780638063000085
:103EF000000000000000001E003F00338061806170
:103F00008061806180618061806180610033003FF9
:103F1000001E0000000000000000007E007F8063A3
:103F20008061806180618063007F007E006000604E
:103F30000060006000600000000000000000001E43
:103F4000003F0033806180618061806180618061B9
:103F5000806580670033803F401E00000000000045
:103F60000000007E007F8063806180618063007F4D
:103F7000007E00660063006380618061C0600000B5
:103F8000000000000000000E001F80318031003072
:103F90000038001E00078003806180618031003F8F
:103FA000001E0000000000000000C0FFC0FF000C69
:103FB000000C000C000C000C000C000C000C000CA1
:103FC000000C000C000C00000000000000008061EC
:103FD00080618061806180618061806180618061D9
:103FE000806180618073003F001E000000000000BF
:103FF0000000C060C060C060803180318031001B33
:10400000001B001B001B000E000E000E0004000031
:10401000000000000000C0C0C0C0C0C0C0C0C0C020
:10402000C0CC804C804C805E805280528073806116
:1040300080610000000000000000C0C0806080615E
:104040000033003B001E000C000C001E001F003B54
:1040500080718061C0C00000000000000000C0C08E
:104060008061806100330033001E001E000C000CD4
:10407000000C000C000C000C000C00000000000004
:104080000000803F803F8001000300030006000C19
:10409000000C0018001800300060807F807F000056
:1040A00000000000000F000F000C000C000C000CC2
:1040B000000C000C000C000C000C000C000C000CA0
:1040C000000C000C000F000F000000180018001872
:1040D000000C000C000C000C000600060006000698
:1040E000000300030003000000000000001E001E8B
:1040F0000006000600060006000600060006000690
:10410000000600060006000600060006001E001E4F
:104110000000000C000C001E001200330033806110
:1041200080610000000000000000000000000000AE
:10413000000000000000000000000000000000007F
:10414000000000000000000000000000000000006F
:1041500000000000E0FF0000000000380018000C24
:10416000000000000000000000000000000000004F
:10417000000000000000000000000000000000003F
:10418000000000000000001F803F80618001801F50
:10419000803F80618063807FC038000000000000A5
:1041A00000000060006000600060006E007F8073AF
:1041B00080618061806180618073007F006E00009B
:1041C0000000000000000000000000000000001ED1
:1041D000003F807380610060006080618073003FF9
:1041E000001E00000000000000008001800180012E
:1041F0008001801D803F807380618061806180616B
:104200008073803F801D000000000000000000005F
:10421000000000000000001E003F00738061807FEE
:10422000807F00608071003F001E000000000000E1
:104230000000C007C00F000C000C807F807F000CC6
:10424000000C000C000C000C000C000C000C00001A
:10425000000000000000000000000000801D803F02
:10426000807380618061806180618073803F801D88
:1042700080018063007F003E0000006000600060FD
:104280000060006F807F80718061806180618061EB
:104290008061806180610000000000000000000675
:1042A000000600000000003E003E0006000600067A
:1042B00000060006000600060006000000000000E0
:1042C0000006000600000000003E003E000600065A
:1042D000000600060006000600060006000600466E
:1042E000007E003C000000600060006000608061B3
:1042F00000630066006C007C0076006300638061F0
:10430000C0600000000000000000003E003E00060B
:10431000000600060006000600060006000600066D
:10432000000600060006000000000000000000007B
:1043300000000000000080DDC0FFC0CEC0CCC0CCBB
:10434000C0CCC0CCC0CCC0CCC0CC000000000000B1
:1043500000000000000000000000006F807F8071FE
:104360008061806180618061806180618061000026
:104370000000000000000000000000000000001E1F
:10438000003F807380618061806180618073003F45
:10439000001E0000000000000000000000000000FF
:1043A000006E007F807380618061806180618073B6
:1043B000007F006E00600060006000600000000090
:1043C00000000000801D803F8073806180618061FB
:1043D00080618073803F801D8001800180018001A9
:1043E000000000000000000000000067803F00396E
:1043F000003000300030003000300030003000006D
:104400000000000000000000000000000000001E8E
:10441000803F80610060007F803F80018061007F7D
:10442000001E00000000000000000000000800184E
:104430000018007F007F00180018001800180018EE
:104440000018801F800F0000000000000000000026
:1044500000000000000080618061806180618061F7
:10446000806180618063807F803D000000000000EB
:1044700000000000000000000000C06080318031BA
:104480008031001B001B001B000E000E0006000008
:10449000000000000000000000000000000080DDBF
:1044A00080DD80DD00550055005500770077002243
:1044B00000220000000000000000000000000000DA
:1044C0000000806100330033001E000C000C001E51
:1044D0000033003380610000000000000000000095
:1044E0000000000080618061803100330033001BD8
:1044F000001B001B000E000E000E001C007C007054
:1045000000000000000000000000C07FC07F8001AC
:1045100000030006000C00180030C07FC07F0000C0
:104520000000000080038007000600060006000669
:104530000006000E001C001C000E0006000600060F
:10454000000600068007800300060006000600063D
:10455000000600060006000600060006000600062B
:104560000006000600060006000600060038003CB3
:10457000000C000C000C000C000C000E00070007E3
:10458000000E000C000C000C000C000C003C00386D
:104590000000000000000000000000000000803863
:1045A000807F0047000000000000000000000000C5
:0445B0000000000007
:0445B4007501000885
:0445B8004D010008A9
:0C45BC0000A24A040B120000583800084E
:040000050800378D2B
:00000001FF
