:020000040800F2
:100000000050002045590008C52B0008D12B0008DE
:10001000D72B0008DD2B0008E32B000800000000B0
:10002000000000000000000000000000E92B0008B4
:10003000F52B000800000000012C00080D2C000822
:100040008D5900088D5900088D5900088D590008F8
:100050008D5900088D5900088D5900088D590008E8
:100060008D5900088D5900088D5900088D590008D8
:100070008D5900088D5900088D5900088D590008C8
:100080008D5900088D5900088D5900088D590008B8
:100090008D5900088D5900088D5900088D590008A8
:1000A0008D5900088D5900088D5900088D59000898
:1000B0001D2C00088D5900088D5900088D59000825
:1000C0008D5900088D5900088D5900088D59000878
:1000D0008D5900088D5900088D5900088D59000868
:1000E0008D5900088D5900088D5900080000000046
:1000F0000000000000000000000000000000000000
:0C01000000000000000000005FF808F1A3
:10010C000348044B834202D0034B03B1184770479A
:10011C004C0800204C08002000000000054806494F
:10012C00091A891001EBD171491002D0034B03B1AC
:10013C00184770474C0800204C08002000000000B5
:10014C0010B5064C237843B9FFF7DAFF044B13B113
:10015C000448AFF300800123237010BD4C0800202D
:10016C00000000009059000808B5044B1BB104496D
:10017C000448AFF30080BDE80840CFE70000000062
:10018C00500800209059000881F0004102E000BFA7
:10019C0083F0004330B54FEA41044FEA430594EA3B
:1001AC00050F08BF90EA020F1FBF54EA000C55EA76
:1001BC00020C7FEA645C7FEA655C00F0E2804FEA47
:1001CC005454D4EB5555B8BF6D420CDD2C4480EA29
:1001DC00020281EA030382EA000083EA010180EA59
:1001EC00020281EA0303362D88BF30BD11F0004FA7
:1001FC004FEA01314FF4801C4CEA113102D04042DD
:10020C0061EB410113F0004F4FEA03334CEA133317
:10021C0002D0524263EB430394EA050F00F0A7802F
:10022C00A4F10104D5F1200E0DDB02FA0EFC22FA2A
:10023C0005F2801841F1000103FA0EF2801843FA1E
:10024C0005F359410EE0A5F120050EF1200E012A0F
:10025C0003FA0EFC28BF4CF0020C43FA05F3C0184D
:10026C0051EBE37101F0004507D54FF0000EDCF1C6
:10027C00000C7EEB00006EEB0101B1F5801F1BD36F
:10028C00B1F5001F0CD349085FEA30004FEA3C0C73
:10029C0004F101044FEA445212F5800F80F09A8069
:1002AC00BCF1004F08BF5FEA500C50F1000041EB6D
:1002BC00045141EA050130BD5FEA4C0C404141EB71
:1002CC00010111F4801FA4F10104E9D191F0000F98
:1002DC0004BF01460020B1FA81F308BF2033A3F11B
:1002EC000B03B3F120020CDA0C3208DD02F1140C12
:1002FC00C2F10C0201FA0CF021FA02F10CE002F14D
:10030C001402D8BFC2F1200C01FA02F120FA0CFC45
:10031C00DCBF41EA0C019040E41AA2BF01EB04518E
:10032C00294330BD6FEA04041F3C1CDA0C340EDC8C
:10033C0004F11404C4F1200220FA04F001FA02F3CF
:10034C0040EA030021FA04F345EA030130BDC4F18D
:10035C000C04C4F1200220FA02F001FA04F340EA82
:10036C000300294630BD21FA04F0294630BD94F033
:10037C00000F83F4801306BF81F480110134013D1A
:10038C004EE77FEA645C18BF7FEA655C29D094EA8B
:10039C00050F08BF90EA020F05D054EA000C04BF09
:1003AC001946104630BD91EA030F1EBF00210020F4
:1003BC0030BD5FEA545C05D14000494128BF41F093
:1003CC00004130BD14F580043CBF01F5801130BDF7
:1003DC0001F0004545F0FE4141F470014FF0000082
:1003EC0030BD7FEA645C1ABF194610467FEA655C33
:1003FC001CBF0B46024650EA013406BF52EA0335D5
:10040C0091EA030F41F4002130BD00BF90F0000FC2
:10041C0004BF0021704730B54FF4806404F13204FE
:10042C004FF000054FF0000150E700BF90F0000FB7
:10043C0004BF0021704730B54FF4806404F13204DE
:10044C0010F0004548BF40424FF000013EE700BFAE
:10045C0042004FEAE2014FEA31014FEA02701FBF3E
:10046C0012F07F4393F07F4F81F06051704732F070
:10047C007F4208BF704793F07F4F04BF41F40021C7
:10048C00704730B54FF4607401F0004521F0004125
:10049C001CE700BF50EA010208BF704730B54FF0AF
:1004AC0000050AE050EA010208BF704730B511F0B0
:1004BC00004502D5404261EB41014FF4806404F1E8
:1004CC0032045FEA915C3FF4D8AE4FF003025FEA6E
:1004DC00DC0C18BF03325FEADC0C18BF033202EBF2
:1004EC00DC02C2F1200300FA03FC20FA02F001FA4C
:1004FC0003FE40EA0E0021FA02F11444BDE600BFEF
:10050C0080F0004002E000BF81F0004142001FBFBC
:10051C005FEA410392EA030F7FEA226C7FEA236CC5
:10052C006AD04FEA1262D2EB1363C1BFD2184140BA
:10053C0048404140B8BF5B42192B88BF704710F050
:10054C00004F40F4000020F07F4018BF404211F0F3
:10055C00004F41F4000121F07F4118BF494292EA5B
:10056C00030F3FD0A2F1010241FA03FC10EB0C0087
:10057C00C3F1200301FA03F100F0004302D5494214
:10058C0060EB4000B0F5000F13D3B0F1807F06D3C1
:10059C0040084FEA310102F10102FE2A51D2B1F1B9
:1005AC00004F40EBC25008BF20F0010040EA0300AE
:1005BC007047490040EB000010F4000FA2F101025B
:1005CC00EDD1B0FA80FCACF1080CB2EB0C0200FAE5
:1005DC000CF0AABF00EBC25052421843BCBFD04033
:1005EC001843704792F0000F81F4000106BF80F4AD
:1005FC0000000132013BB5E74FEA41037FEA226C70
:10060C0018BF7FEA236C21D092EA030F04D092F03A
:10061C00000F08BF0846704790EA010F1CBF00206E
:10062C00704712F07F4F04D1400028BF40F00040CB
:10063C00704712F100723CBF00F50000704700F0EB
:10064C00004343F0FE4040F4000070477FEA226212
:10065C0016BF08467FEA23630146420206BF5FEAE3
:10066C00412390EA010F40F4800070474FF00003E3
:10067C0004E000BF10F0004348BF40425FEA000CAA
:10068C0008BF704743F0964301464FF000001CE052
:10069C0050EA010208BF70474FF000030AE000BFA8
:1006AC0050EA010208BF704711F0004302D54042E6
:1006BC0061EB41015FEA010C02BF84460146002058
:1006CC0043F0B64308BFA3F18053A3F50003BCFA73
:1006DC008CF2083AA3EBC25310DB01FA02FC634420
:1006EC0000FA02FCC2F12002BCF1004F20FA02F227
:1006FC0043EB020008BF20F00100704702F120021A
:10070C0001FA02FCC2F1200250EA4C0021FA02F27A
:10071C0043EB020008BF20EADC7070474FF0FF0C7F
:10072C001CEAD0521EBF1CEAD15392EA0C0F93EA7A
:10073C000C0F6FD01A4480EA010C400218BF5FEA1C
:10074C0041211ED04FF0006343EA501043EA51118F
:10075C00A0FB01310CF00040B1F5000F3EBF490089
:10076C0041EAD3715B0040EA010062F17F02FD2A8D
:10077C001DD8B3F1004F40EBC25008BF20F0010070
:10078C00704790F0000F0CF0004C08BF49024CEA87
:10079C00502040EA51207F3AC2BFD2F1FF0340EA19
:1007AC00C250704740F400004FF00003013A5DDC8A
:1007BC0012F1190FDCBF00F000407047C2F10002CB
:1007CC00410021FA02F1C2F1200200FA02FC5FEAB8
:1007DC00310040F1000053EA4C0308BF20EADC7002
:1007EC00704792F0000F00F0004C02BF400010F474
:1007FC00000F013AF9D040EA0C0093F0000F01F021
:10080C00004C02BF490011F4000F013BF9D041EA42
:10081C000C018FE70CEAD15392EA0C0F18BF93EA44
:10082C000C0F0AD030F0004C18BF31F0004CD8D16E
:10083C0080EA010000F00040704790F0000F17BFF5
:10084C0090F0004F084691F0000F91F0004F14D03B
:10085C0092EA0C0F01D142020FD193EA0C0F03D193
:10086C004B0218BF084608D180EA010000F0004096
:10087C0040F0FE4040F40000704740F0FE4040F471
:10088C00400070474FF0FF0C1CEAD0521EBF1CEA10
:10089C00D15392EA0C0F93EA0C0F69D0A2EB03022E
:1008AC0080EA010C49024FEA402037D04FF08053C8
:1008BC0043EA111143EA10130CF000408B4238BF8D
:1008CC005B0042F17D024FF4000C8B4224BF5B1A9B
:1008DC0040EA0C00B3EB510F24BFA3EB510340EAE9
:1008EC005C00B3EB910F24BFA3EB910340EA9C0097
:1008FC00B3EBD10F24BFA3EBD10340EADC001B0107
:10090C0018BF5FEA1C1CE0D1FD2A3FF650AF8B42AA
:10091C0040EBC25008BF20F0010070470CF0004CB7
:10092C004CEA50207F32C2BFD2F1FF0340EAC250E2
:10093C00704740F400004FF00003013A37E792F0A3
:10094C00000F00F0004C02BF400010F4000F013A01
:10095C00F9D040EA0C0093F0000F01F0004C02BFFC
:10096C00490011F4000F013BF9D041EA0C0195E765
:10097C000CEAD15392EA0C0F08D142027FF47DAFFE
:10098C0093EA0C0F7FF470AF084676E793EA0C0FEE
:10099C0004D14B023FF44CAF08466EE730F0004CEC
:1009AC0018BF31F0004CCAD130F000427FF45CAF7C
:1009BC0031F000437FF43CAF5FE700BF70B50D4EE4
:1009CC000D4D761BB61006D00024013455F8043BAF
:1009DC009847A642F9D1094E094D04F0D3FF761B76
:1009EC00B61006D00024013455F8043B9847A642B3
:1009FC00F9D170BDE4670008E4670008E8670008F7
:100A0C00E46700080CB470B56FF000459CB020ACE6
:100A1C0054F8042B094E02910691234602A9019425
:100A2C000795CDE9045600F02DF80022029B1A70B0
:100A3C001CB0BDE8704002B0704700BF0802FFFF59
:100A4C000EB4034630B56FF000449CB01FA951F8AA
:100A5C00042B0A480A4D0293069301910B46006839
:100A6C0002A90794CDE9044500F00CF80022029B82
:100A7C001A701CB0BDE8304003B070470000002075
:100A8C000802FFFF2DE9F04F8846898995B00906C9
:100A9C0093460493824604D5D8F81030002B00F00E
:100AAC00B5820023079301939BF80030002B00F0D4
:100ABC00F080252B5C4603D11AE0252B00F0F68044
:100ACC0014F8013F002BF8D1B4EB0B0500F0E180DA
:100ADC005A462B464146504600F054FE013000F079
:100AEC00D880019A23782A440192002B00F0D180FF
:100AFC0000214FF0000304F1010B084689460E4615
:100B0C004FF0FF348DF823309BF800200BF1010BD4
:100B1C00A2F12003582B00F28682DFE813F08D013E
:100B2C00840284029301840284028402840284027B
:100B3C008402CF00EC008402DA00B3018402CC0101
:100B4C00DD00DD00DD00DD00DD00DD00DD00DD00B1
:100B5C00DD00840284028402840284028402840202
:100B6C008402840284022B028402840284028402A2
:100B7C008402840284028402840284024902840274
:100B8C00840284028402840251028402840296014B
:100B9C008402840284028402840284028402840219
:100BAC0084028402CF01DF018402840284021902D0
:100BBC00DF0184028402CC008402680261015902C4
:100BCC00CC008402700184025900840284021C024D
:100BDC00049AF70652F8043B049200F16282720602
:100BEC0040F15F8201229BB24FF000018DF823107F
:100BFC00611C14A800F04D8226F08005002102959E
:100C0C00002B40F08581002C40F04D82002A40F0F2
:100C1C00458216F00103039300F05982302314AD82
:100C2C0005F8013D039BA342B8BF23461F4601B103
:100C3C000137029B13F002030593029B18BF023786
:100C4C0013F08403069303D1A9EB0706002E5FDC97
:100C5C009DF82330002B69D1059B002B72D1069B8C
:100C6C00802B7AD0039BE41A002C40F39480102C38
:100C7C0040F30582BB4E02E0102C40F3008210239F
:100C8C0032464146504600F07DFD0130A4F110047F
:100C9C00F2D1B8F80C3013F0400F019B18BF4FF095
:100CAC00FF330193019815B0BDE8F08FB4EB0B0541
:100CBC003FF41EAF0CE746F0100625E7049BD3F873
:100CCC0000900433B9F1000F0493BFF61DAFC9F1C6
:100CDC00000946F0040617E74FF00009A2F13003B3
:100CEC001BF8012B09EB890903EB4909A2F130032D
:100CFC00092BF5D90CE701212B2005E710239A4A83
:100D0C004146504600F03EFD0130A6F11006C0D021
:100D1C00102EF3DC3346944A4146504600F032FD27
:100D2C000130B6D09DF82330002B95D001230DF166
:100D3C0023024146504600F025FD0130A9D0059B09
:100D4C00002B8CD0022309AA4146504600F01AFD14
:100D5C0001309ED0069B802B84D1A9EB0706002E78
:100D6C0080DD09E010237F4A4146504600F00AFD21
:100D7C000130A6F110068CD0102EF3DC3346794AE4
:100D8C004146504600F0FEFC013082D0039BE41A31
:100D9C00002C3FF76CAF039B2A464146504600F0AF
:100DAC00F1FC01303FF475AF029B590740F15481BF
:100DBC00A9EB0704002C40F34F81102C40F3438126
:100DCC00694D02E0102C40F33E8110232A46414627
:100DDC00504600F0D7FC0130A4F11004F2D158E7D2
:100DEC00049A16F0100152F8043B049240F08B81E7
:100DFC0016F040023FF4F8AE9BB20A46F4E64FF010
:100E0C000002049B8DF823201D681F1D002D00F08F
:100E1C006781611C00F06D8122460021284600F09C
:100E2C0027FC002800F05581431BCDE903370296BF
:100E3C009DF823100024F5E600287FF465AE01210F
:100E4C00202061E646F001065EE6002940F077813D
:100E5C00464B07930499F70651F8043B049102D4CE
:100E6C00750648BF9BB2F00740F11681002B00F0CD
:100E7C00138130218DF8252046F002068DF82410C0
:100E8C000222B1E69BF800200BF1010B2A2A00F09C
:100E9C003C81A2F13003092B4FF000043FF638AE31
:100EAC001BF8012B04EB840403EB4404A2F1300384
:100EBC00092BF5D92CE646F0800625E601274FF0E4
:100ECC000001049A8DF82310136803978DF82830CD
:100EDC00131D04930AAD02960024AAE6002940F0E3
:100EEC002281049A52F8043B0492F20602D475064D
:100EFC0048BF1BB2002B48DB621C9DF8231014A8C2
:100F0C004BD026F0800501220295002B3FF47BAEDE
:100F1C00012A43D0022A00F0A68014AE00E02E462F
:100F2C0003F007023032DB0806F8012C06F1FF351E
:100F3C00F5D1029BDF0740F19F80302A00F09C80A6
:100F4C003023023E821B05F8013C0392354669E6CC
:100F5C0046F04006D8E5002940F0EB80044B07939F
:100F6C0078E700BF105A0008005A0008B467000860
:100F7C00C8670008002940F0D980049A46F0100692
:100F8C0052F8043B002B0492B6DA2D21621CC3F1FB
:100F9C0000038DF8231014A8B3D10296092B00F28C
:100FAC008680303314AD05F8013D0123039339E6F7
:100FBC00049A46F0100652F8043B0492002213E601
:100FCC00049A46F0100652F8043B049201220BE6F8
:100FDC0047F63003049A5B490432ADF8243052F8DA
:100FEC00043C46F00206049207910222FCE500291B
:100FFC0040F0A280049AF40652F8043B04921FD4E9
:10100C0070061DD5BDF804201A804DE5402100F076
:10101C00A3F8C8F80000C8F8100000287CD04023C2
:10102C00C8F814303DE5002A3FF433AE01274FF0E9
:10103C0000038DF828208DF8233003970AAD4AE77A
:10104C00019A1A6030E523463F4A4146504600F06B
:10105C0099FB01303FF41DAE019BB945ACBF4B442D
:10106C00DB19019320E5079E14AD03F00F02B25C6F
:10107C001B0905F8012DF8D1431B0393D2E5234638
:10108C00324A4146504600F07DFB01307FF483AE7E
:10109C00FFE5029600213BE70222A5E5039414AD7F
:1010AC00C0E50122A0E5012A7FF434AF79E7284E90
:1010BC0014ADA6FB0372D20802EB8207A3EB470325
:1010CC00303305F8013D1346002AF2D1D4E714ADB4
:1010DC00A8E5CDE90347029604469DF82310A1E547
:1010EC00062C234628BF06231A4DCDE903371F468D
:1010FC00F1E628460497029600F016FB00240390B4
:10110C009DF823108EE500226EE5049B1C680433C9
:10111C0044EAE4740493F7E40C234FF0FF32CAF86A
:10112C0000300192BEE58DF82300DAE68DF823003D
:10113C0023E78DF8230011E78DF823005AE78DF88B
:10114C00230085E6C8670008005A0008105A0008FA
:10115C00CDCCCCCCDC6700082DE9F04F01F10B05B0
:10116C00162D83B0064623D8102900F2B68000F065
:10117C00C5FA102518230220CE4F3B445C68A3F11E
:10118C000802944200F059816368E16823F003037C
:10119C0023445A68A56842F00102E96030468D602C
:1011AC005A6000F0ADFA0834204603B0BDE8F08F69
:1011BC0035F0070500F19180A94200F28E8000F015
:1011CC009DFAB5F5FC7FC0F067816B0A00F08C804E
:1011DC00042B00F23981AB0903F1390003F1380C0F
:1011EC00C100B44F39444C680839A14206D10CE017
:1011FC00002A80F21E81E468A14206D0636823F0C5
:10120C0003035A1B0F2AF3DD60463C69DFF8A8C2C2
:10121C0064456FD0636823F003035A1B0F2A00F355
:10122C002981002AC7E904CC80F21A81B3F5007F2A
:10123C0080F055810122DB08991013448A407968AB
:10124C0057F833E007EBC3080A43A8F10801C4E9D7
:10125C0002E17A6047F83340CEF80C400124831049
:10126C009C4094424CD8144206D120F003006400F8
:10127C00144200F10400FAD007EBC009CE468046B8
:10128C00DEF80C309E4507D10AE1002A80F2188165
:10129C00DB689E4500F00481596821F003014A1B6C
:1012AC000F2AF2DD45F001083046D3E902E41D4473
:1012BC0042F00106C3F80480CEF80C40C4F808E0F4
:1012CC00C7E90455C5E902CC6E605A50019300F091
:1012DC0017FA019B03F1080466E700240C2320464F
:1012EC00336003B0BDE8F08F4FF4007140204FF035
:1012FC003F0C76E701247A6883109C409442B2D963
:10130C00BC68636823F00309A94503D3A9EB050363
:10131C000F2B7EDCDFF8A4A1D7F80824DAF8003014
:10132C00013205EB030800F0368108F5805808F10E
:10133C000F0828F47F6828F00F084146304600F06B
:10134C00E1F9B0F1FF3F834600F0F28004EB0901B4
:10135C00814200F2EB80DAF804304344CAF80430DE
:10136C0000F03A81D7F8082401321BBFABEB010126
:10137C005B18C7F808B4CAF804301BF0070300F078
:10138C002081C3F10802C3F5805393440833D84439
:10139C00C8F30B08A3EB08084146304600F0B2F93D
:1013AC00431C00F03481A0EB0B02424442F00102DA
:1013BC00DAF80430BC424344C7F808B0CAF8043029
:1013CC00CBF8042014D0B9F10F0F40F21C814FF070
:1013DC00050C6268A9F10C0121F0070102F0010271
:1013EC000A4360180F296260C0E901CC00F2288121
:1013FC00DAF82C20BC68DAF830109342626888BFA7
:10140C00CAF82C308B4222F0030288BFCAF8303065
:10141C0092E045F0010243F001032544626030463E
:10142C00BD6008346B6000F06BF9204603B0BDE87A
:10143C00F08F23445A68E168ACE6DC68A34208BF2D
:10144C0002303FF4E2AE9FE6142B69D9542B00F224
:10145C00A5802B0B03F16F0003F16E0CC100C0E6ED
:10146C0023445A68304642F001025A60083400F0B6
:10147C0047F999E645F0010E42F001012544C4F804
:10148C0004E03046C7E90455C5E902CC6960E25076
:10149C0000F036F9083487E6E80805F108036BE636
:1014AC0008F1010818F0030F0EF1080E7FF4E8AEF6
:1014BC0059E000BF300400203804002068080020E8
:1014CC001C4619444A68DB6854F8085F42F0010274
:1014DC004A603046EB609D6000F012F964E65A0AEF
:1014EC00042A35D9142A6FD802F15C01C9005B3289
:1014FC0007EB010E7958AEF1080E8E4558D04A68AC
:10150C0022F003029A4202D989688E45F7D1D1F8AC
:10151C000CE07A68C4E9021ECEF80840CC609DE667
:10152C0003F15C0003F15B0CC1005AE6BC4272D0C3
:10153C00BC68626822F003029542A2EB050302D854
:10154C000F2B3FF766AF304600F0DAF800242BE69D
:10155C009A0902F13901C9003832C9E7D9F800906B
:10156C00994540F0838010F0030FA9F1080300F1B6
:10157C00FF30F3D17B6823EA04037B6064009C4258
:10158C003FF6BEAE1CB9BBE6640008F104081C4271
:10159C00FAD0404670E608F11008CEE6B3F5AA7F03
:1015AC0026D8EB0B03F1780003F1770CC10018E699
:1015BC004FF001087B68921008FA02F21A437A6025
:1015CC00A8E74FF48053E2E6542A2AD81A0B02F10A
:1015DC006F01C9006E328BE7C1F30B02002A7FF456
:1015EC00C1AE09EB0802B96842F001024A60FFE69D
:1015FC0040F2545293421DD8AB0C03F17D0003F121
:10160C007C0CC100EDE50123CBF804309BE70122F3
:10161C004FF00008CCE6DAF804304344CAF8043042
:10162C00A0E6B2F5AA7F13D8DA0B02F17801C90053
:10163C0077325DE74FF47E717F204FF07E0CD0E562
:10164C0004F10801304600F02DFDDAF80430CFE645
:10165C0040F254518A4205D89A0C02F17D01C9001E
:10166C007C3245E74FF47E717E2241E77B6885E74B
:10167C00830770B4CDB23DD0541E0AB30378AB428D
:10168C001FD0431C05E014F1FF3419D30278AA4291
:10169C0017D013F0030F184603F10103F3D1032CF9
:1016AC0011D84CB30378AB420BD00444431C02E07A
:1016BC000278AA4205D09C42184603F10103F7D1E7
:1016CC00002070BC704706460A0292B22A4342EAD6
:1016DC000242336830465340A3F1013121EA03033F
:1016EC0013F0803F06F10406DCD1043C032C304699
:1016FC00EFD8D6E71446D2E72046E2E7704700BFA2
:10170C00704700BF38B50023064C054608462360D9
:10171C0004F0F4F8431C00D038BD2368002BFBD038
:10172C002B6038BD640D002020F0030110F0030085
:10173C00C0F1000051F8043B00F1040C4FEACC0C52
:10174C006FF000021CBF22FA0CF213434FF0010C95
:10175C004CEA0C2C4CEA0C4CA3EB0C0222EA0302D4
:10176C0012EACC1204BF51F8043B0430F4D0C2F19D
:10177C00000102EA0102B2FA82F2C2F11F0200EB8E
:10178C00D20070472DE9F0478E6880469E420C4689
:10179C001D461746086828D8B1F80CC01CF4906F89
:1017AC0031D0D4E9041606EB460606EBD676A0EB50
:1017BC000109013376104B44B342324684BF1E46B6
:1017CC0032461CF4806F20D011464046FFF7C4FC13
:1017DC00824670B34A46216900F058FDA38923F470
:1017EC00906343F08003A38114E01E462A463946D9
:1017FC0000F0C2FD0020A2682368961B2B44A66053
:10180C002360BDE8F0873546F0E7404600F016FE51
:10181C00824650B1A6EB09030AEB09006661C4F8D5
:10182C0010A02060A3602E46E0E72169404600F03E
:10183C0039FC0C23C8F80030A3894FF0FF3043F07B
:10184C004003A381DDE700BF2DE9F04F936883B01F
:10185C009046002B6CD0176882460C4608680837F7
:10186C008D6842E0A38913F4906F2DD0D4E9041550
:10187C0005EB4505A0EB010B05EBD575701C6D1048
:10188C005844A8422A4684BF05462A465B0536D5ED
:10189C0011465046FFF760FC00283AD05A462169A1
:1018AC00019000F0F3FCA289019B22F4906242F0BB
:1018BC008002A281A5EB0B0203EB0B006561B34622
:1018CC00354623612060A2605A46494600F054FD1B
:1018DC00D8F80830A2682068551B58449E1BA56098
:1018EC002060C8F808601EB3083757E90296AB466B
:1018FC00002EF9D0AE42B5D23546B346E4E7504699
:10190C0000F09CFD03460028D4D12169504600F01C
:10191C00C9FB0C2300224FF0FF30CAF80030A3891A
:10192C0043F04003A381C8E9012203B0BDE8F08F66
:10193C000020C8F8040003B0BDE8F08F2DE9F04F8B
:10194C008846898995B0090693460493824604D546
:10195C00D8F81030002B00F0B482002307930193C9
:10196C009BF80030002B00F0EF80252B5C4603D158
:10197C001AE0252B00F0F58014F8013F002BF8D16C
:10198C00B4EB0B0500F0E0805A462B46414650461E
:10199C00FFF7F8FE013000F0D780019A23782A4433
:1019AC000192002B00F0D08000214FF0000304F1D5
:1019BC00010B084689460E464FF0FF348DF8233054
:1019CC009BF800200BF1010BA2F12003582B00F225
:1019DC008582DFE813F08C0183028302920183027B
:1019EC0083028302830283028302CE00EB00830214
:1019FC00D900B2018302EB01DC00DC00DC00DC006E
:101A0C00DC00DC00DC00DC00DC00830283028302EF
:101A1C008302830283028302830283028302F40122
:101A2C008302830283028302830283028302830282
:101A3C0083028302330283028302830283028302C2
:101A4C003B02830283029501830283028302830299
:101A5C0083028302830283028302830266024302AF
:101A6C008302830283026302430283028302CB005C
:101A7C008302DA016001CB01CB0083026F01830288
:101A8C00590083028302EE01049AF70652F8043BD4
:101A9C00049200F16082720640F15D8201229BB2D9
:101AAC004FF000018DF82310611C14A800F04C823B
:101ABC0026F0800500210295002B40F09781002C28
:101ACC0040F04B8214AD002A40F0438216F0010323
:101ADC00039302D0302305F8013D039BA342B8BF0A
:101AEC0023461F4601B10137029B13F002030593F5
:101AFC00029B18BF023713F08403069303D1A9EBA2
:101B0C000706002E5FDC9DF82330002B69D1059B66
:101B1C00002B72D1069B802B7AD0039BE41A002CED
:101B2C0040F39480102C40F30582C04E02E0102C40
:101B3C0040F300821023324641465046FFF722FE06
:101B4C000130A4F11004F2D1B8F80C3013F0400FAE
:101B5C00019B18BF4FF0FF330193019815B0BDE8FE
:101B6C00F08FB4EB0B053FF41FAF0DE746F01006FA
:101B7C0026E7049BD3F800900433B9F1000F0493CB
:101B8C00BFF61EAFC9F1000946F0040618E74FF086
:101B9C000009A2F130031BF8012B09EB890903EBB7
:101BAC004909A2F13003092BF5D90DE701212B20AE
:101BBC0006E710239E4A41465046FFF7E3FD0130ED
:101BCC00A6F11006C0D0102EF3DC3346984A4146DD
:101BDC005046FFF7D7FD0130B6D09DF82330002BCF
:101BEC0095D001230DF1230241465046FFF7CAFD63
:101BFC000130A9D0059B002B8CD0022309AA4146A9
:101C0C005046FFF7BFFD01309ED0069B802B84D140
:101C1C00A9EB0706002E80DD09E01023834A41461C
:101C2C005046FFF7AFFD0130A6F110068CD0102EF8
:101C3C00F3DC33467D4A41465046FFF7A3FD0130A5
:101C4C0082D0039BE41A002C3FF76CAF039B2A460F
:101C5C0041465046FFF796FD01303FF475AF029BAD
:101C6C00590740F15481A9EB0704002C40F34F8134
:101C7C00102C40F343816E4D02E0102C40F33E815A
:101C8C0010232A4641465046FFF77CFD0130A4F153
:101C9C001004F2D158E7049A16F0100152F8043BE4
:101CAC00049240F0888116F040023FF4F9AE9BB2EA
:101CBC000A46F5E6049B1D681F1D4FF000038DF8C6
:101CCC002330002D00F06481611C00F06A812246F3
:101CDC0000212846FFF7CCFC002800F05281431B62
:101CEC00CDE9033702969DF823100024F5E6002871
:101CFC007FF466AE0121202062E646F001065FE625
:101D0C00002940F074814B4B07930499F70651F866
:101D1C00043B049102D4750648BF9BB2F00740F116
:101D2C001681002B00F0138130218DF8252046F010
:101D3C0002068DF824100222B2E69BF800200BF16B
:101D4C00010B2A2A00F03981A2F13003092B4FF044
:101D5C0000043FF639AE1BF8012B04EB840403EBB3
:101D6C004404A2F13003092BF5D92DE647F63003D4
:101D7C00049A31490432ADF8243052F8043C46F050
:101D8C0002060492079102228AE6002940F0238180
:101D9C00049AF40652F8043B049200F1AC807006ED
:101DAC0040F1A980BDF804201A80D9E546F08006E0
:101DBC0006E6002940F018811F4B0793A5E7002980
:101DCC0040F00F81049A46F0100652F8043B04923E
:101DDC00002B51DB621C9DF8231014A854D026F064
:101DEC00800501220295002B3FF469AE012A4CD0EC
:101DFC00022A00F0938014AE00E02E4603F0070296
:101E0C003032DB0806F1FF3506F8012CF5D1029BC8
:101E1C00DF0740F18C80302A00F089803023023EAD
:101E2C00821B05F8013C0392354656E6305A0008F1
:101E3C00205A0008B4670008C8670008049A46F0E6
:101E4C00100652F8043B0492002229E6049A46F04C
:101E5C00100652F8043B0492012221E6002940F0BE
:101E6C00BD80049A52F8043B0492F206B0D4750675
:101E7C0048BF1BB2002BADDA2D21621CC3F100034D
:101E8C008DF8231014A8AAD10296092B69D83033E7
:101E9C0014AD05F8013D012303931EE646F0400600
:101EAC008EE501274FF00001049A8DF8231013687A
:101EBC000AAD8DF82830131D039704930296002465
:101ECC0012E64021FFF748F9C8F80000C8F81000E6
:101EDC00002879D04023C8F814303EE5002A3FF49E
:101EEC0033AE01274FF000038DF828208DF82330F6
:101EFC000AAD0397E2E7019A1A6031E523463D4AA1
:101F0C0041465046FFF73EFC01303FF41DAE019BAD
:101F1C00B945ACBF4B44DB19019321E5079E14ADC9
:101F2C0003F00F02B25C1B0905F8012DF8D1431B1D
:101F3C000393D2E52346304A41465046FFF722FC34
:101F4C0001307FF483AEFFE5029600214EE70222BA
:101F5C00A6E50394C1E50122A2E5012A7FF448AF6E
:101F6C0095E7264E14ADA6FB0372D20802EB82074E
:101F7C00A3EB4703303305F8013D1346002AF2D199
:101F8C00D5E7CDE90347029604469DF82310A4E556
:101F9C00062C234628BF0623194DCDE903371F46CF
:101FAC008CE7284604970296FFF7BEFB00240390AB
:101FBC009DF8231091E5002272E5049B1C68043304
:101FCC0044EAE4740493FBE40C234FF0FF32CAF8A8
:101FDC0000300192C1E58DF82300D9E68DF823007D
:101FEC003FE78DF82300EDE68DF82300E4E68DF84D
:101FFC00230088E6205A0008305A0008CDCCCCCCFF
:10200C00DC670008F8B50C46234F0646FFF776FB55
:10201C00BB68C4F57E615D680F3125F0030529446A
:10202C0021F47F6121F00F01A1F58054B4F5805F9C
:10203C0007DB00213046FFF765FBBB682B44984259
:10204C0004D03046FFF75CFB0020F8BD61423046FF
:10205C00FFF758FB01300DD0104BBA6819682D1BD7
:10206C0045F001053046091B55601960FFF748FB28
:10207C000120F8BD00213046FFF744FBBA68831AF3
:10208C000F2BDEDD064943F001030C680349001BEE
:10209C0053600860D5E700BF300400206C080020B6
:1020AC0038080020002953D0F8B50D460646FFF736
:1020BC0025FB55F804CC714FA5F108012CF0010358
:1020CC00CA18B8685468904224F0030453D01CF02A
:1020DC00010F546002EB04003BD155F808CC40686A
:1020EC00A1EB0C018D6807F1080E7545634400F0F7
:1020FC00010075D0D1F80CC0C5F80CC0CCF8085054
:10210C0060B343F001024A60CB50B3F5007F50D36B
:10211C005A0A042A70D89A0902F13905ED0002F125
:10212C0038007C197A59083C944278D0506820F0D9
:10213C000300984271D992689442F7D1E368C1E9DF
:10214C00024330469960E160BDE8F840FFF7D8BA29
:10215C007047406800F001000028D2D19068484DCB
:10216C002344A84243F0010462D0D268C26090605C
:10217C004C60CB50C9E71CF0010F234407D155F834
:10218C00084C091BD1E902022344C26090603D4A0D
:10219C0043F00100126848609A42B96004D83A4B87
:1021AC0030461968FFF72EFF3046BDE8F840FFF7C0
:1021BC00A7BA0122DB087C689810134482402243A2
:1021CC0007EBC30057F833400838C1E902407A6086
:1021DC00304647F83310E160BDE8F840FFF790BA9D
:1021EC00002845D1D2E90202234443F00104C26025
:1021FC0090604C60CB50D7E7142A08D9542A1ED8CB
:10220C001A0B02F16F05ED0002F16E0089E702F185
:10221C005C05ED0002F15B0083E714468EE70123B9
:10222C008210786803FA02F202437A60234686E74A
:10223C00C7E90411C1E902004C60CB50B4E7B2F518
:10224C00AA7F06D8DA0B02F17805ED0002F17700CF
:10225C0067E740F25450824206D89A0C02F17D0591
:10226C00ED0002F17C005CE74FF47E757E2058E7B0
:10227C0043F001004860136096E700BF3004002073
:10228C00380400203C08002068080020844641EAFD
:10229C00000313F0030349D1403A23D30B680360C6
:1022AC004B6843608B688360CB68C3600B690361C8
:1022BC004B6943618B698361CB69C3610B6A0362B0
:1022CC004B6A43628B6A8362CB6AC3620B6B036398
:1022DC004B6B43638B6B8363CB6BC363403040317D
:1022EC00403ADBD230320BD30B6803604B6843604F
:1022FC008B688360CB68C36010301031103AF3D216
:10230C000C3205D351F8043B40F8043B043AF9D2A3
:10231C00043208D0D2071CBF11F8013B00F8013B76
:10232C0001D30B8803806046704700BF082A13D383
:10233C008B07B1D010F00303AED0C3F10403D21A53
:10234C00DB071CBF11F8013B00F8013BA4D331F8AB
:10235C00023B20F8023B9FE7043AD9D3013A11F82B
:10236C00013B00F8013BF9D20B7803704B784370BA
:10237C008B788370604670478842F0B40DD98B1807
:10238C0083420AD9841832B1224613F8014D99427E
:10239C0002F8014DF9D1F0BC70470F2A48D940EA38
:1023AC0001039B0746D1A2F110031B0901F1200781
:1023BC0007EB031701F1100400F1100554F8106C31
:1023CC00103445F8106C54F81C6C103545F81C6C26
:1023DC0054F8186C45F8186C54F8146CBC4245F859
:1023EC00146CEBD1013302F00F051B01032D1944C2
:1023FC00034421D90F462C461E1F57F804CB043C2E
:10240C00032C46F804CFF8D82C1F24F00304043412
:10241C002344214402F00302002ABCD0013B0A44AD
:10242C0011F8014B914203F8014FF9D1F0BC704700
:10243C000346F1E70346F1E72A46EDE72DE9F04FB5
:10244C00924683B0002900F0A1800D4680460AF127
:10245C000B04FFF753F955F8042C162C22F0030645
:10246C00A5F108073ED810242146A2453FD88E423C
:10247C0007EB060974DAC84B9868484500F0AA8047
:10248C00D9F8040020F001034B445B68DB0740F1F2
:10249C008380D20734D551464046FEF75DFE824616
:1024AC00E0B155F8043CA0F1080223F001033B44D1
:1024BC00934200F00E81321F242A00F21481132A59
:1024CC00296800F2FB8003462A461960516859605E
:1024DC0092689A6029464046FFF7E4FD4046FFF7B4
:1024EC000FF94FE024F00704002C2146BDDA4FF021
:1024FC00000A0C235046C8F8003003B0BDE8F08F3A
:10250C0055F8083CA7EB030BDBF8042022F0030280
:10251C00B3188B42BFDBDA46DBF80C105AF8080F05
:10252C00321F242AC1600BEB0309886000F2BE80C5
:10253C00132A296840F2D580CBF8081069681B2A49
:10254C00CBF80C10A96800F2E5800BF110020835ED
:10255C00116069681E465160AB685F4655469360D2
:10256C007A68331B0F2B02F0010222D832437A60B7
:10257C00D9F8043043F00103C9F804304046FFF7A2
:10258C00BFF8AA46504603B0BDE8F08F114603B021
:10259C00BDE8F04FFEF7E0BD20F0030033188B428E
:1025AC0063DBD9E902121E46CA6007EB030991608E
:1025BC00D6E73919224343F001037A604B60D9F80E
:1025CC000430083143F00103C9F804304046FFF7EA
:1025DC0069FDD3E7D0F8049004F1100029F0030949
:1025EC00B144814580F28380D2073FF554AF55F852
:1025FC00082CA7EB020BDBF8042022F00302914419
:10260C00484585DCDA46DBF80C105AF8080F321F07
:10261C00242AC160886000F2AB80132A296840F23A
:10262C00A580CBF8081069681B2ACBF80C10A96898
:10263C0000F2A5800BF11002083511606968516039
:10264C00A9689160A9EB04020BEB040142F00102B2
:10265C0099604A60DBF80430404603F001031C43E8
:10266C00CBF80440FFF74CF88CE7D3073FF513AFDA
:10267C0055F8083CA7EB030BDBF8042022F003020F
:10268C00104483198B42FFF643AFD9E90201DA46B5
:10269C00C16088605AF8080FDBF80C10321F242A2E
:1026AC00C1600BEB030988607FF642AF29465046A8
:1026BC001E465F46FFF760FE554651E701606B68AA
:1026CC001B2A436032D805F1080200F10803A968FF
:1026DC00FBE650F8043C23F003031E4407EB060909
:1026EC003EE7524634E72946FFF746FEF2E6A9EBF1
:1026FC000409274449F001029F607A6055F8043CB4
:10270C00404603F001031C4345F8044CFEF7F8FF68
:10271C00AA4637E7CBF81010E968242ACBF8141036
:10272C0029690FD00BF11802103511E7AB68242A78
:10273C008360EB68C3600FD005F1100200F1100349
:10274C002969C2E6CBF8181069690BF12002CBF8A5
:10275C001C10A9691835FBE62B6905F118020361F9
:10276C00696900F118034161A969AEE6524664E754
:10277C00294650460193FFF7FFFD019B62E7CBF81A
:10278C001010E968242ACBF81410296906D00BF133
:10279C001802103551E700BF30040020CBF8181098
:1027AC0069690BF12002CBF81C10A969183544E7B4
:1027BC0080B500AF00F06EFA00F00EF800F0FAF8F9
:1027CC0000F05CF800F08CF8024801F072FD02F0A9
:1027DC0043FCFCE7F008002080B590B000AF01236B
:1027EC00BB614FF48033FB6100233B620123BB626E
:1027FC0002237B634FF48033BB634FF4E013FB6322
:10280C0007F11803184601F033F90346002B03D0E7
:10281C008721184800F01CF90F237B600223BB6052
:10282C000023FB604FF4A0633B6100237B613B1DE5
:10283C000221184601F080FB0346002B03D09521A2
:10284C000C4800F005F901F0CDFC02460A4BA3FB45
:10285C0002239B09184600F082FB042000F08CFB3D
:10286C00002200214FF0FF3000F04FFB00BF40373B
:10287C00BD4680BDA8590008D34D621080B500AF8D
:10288C00134B144A1A60124B134A5A60104B002215
:10289C009A600F4B0022DA600D4B4FF480421A61A4
:1028AC000B4B00225A610A4B00229A61084B002202
:1028BC00DA61074B00221A62054800F0FBFC034664
:1028CC00002B03D0B321054800F0C2F800BF80BD37
:1028DC009C08002000540040A0860100A859000864
:1028EC0080B58AB000AF314B4FF080421A602F4B4D
:1028FC0048F6B7025A602D4B00229A602B4B40F2DF
:10290C00E732DA60294B00221A61284B00229A61C7
:10291C00264801F0A3FC0346002B03D0C821244811
:10292C0000F096F84FF48053BB6107F11803194679
:10293C001E4801F081FF0346002B03D0CE211C481A
:10294C0000F086F8194801F0CEFC0346002B03D0AA
:10295C00D321174800F07CF800233B6100237B61F6
:10296C0007F110031946114802F00CFB0346002B2B
:10297C0003D0DA210E4800F06BF800233B600123F2
:10298C007B600023BB600023FB603B4600221946A2
:10299C00064801F0B5FE0346002B03D0E3210448A2
:1029AC0000F056F800BF2837BD4680BDF008002067
:1029BC00A859000880B588B000AF234B9B69224A08
:1029CC0043F010039361204B9B6903F01003FB60F1
:1029DC00FB681D4B9B691C4A43F0200393611A4B07
:1029EC009B6903F02003BB60BB68174B9B69164ABD
:1029FC0043F004039361144B9B6903F004037B6065
:102A0C007B68114B9B69104A43F0080393610E4B92
:102A1C009B6903F008033B603B6800224FF40051B4
:102A2C000A4800F02FFC4FF400533B6101237B61FB
:102A3C000223FB6107F110031946044800F0C4FAA5
:102A4C0000BF2037BD4680BD001002400010014081
:102A5C0080B483B000AF78603960FEE780B582B097
:102A6C0000AF244B9B69234A43F001039361214B34
:102A7C009B6903F001037B607B68032000F03AFA4A
:102A8C00002200216FF00B0000F03FFA0022002121
:102A9C006FF00A0000F039FA002200216FF00900F3
:102AAC0000F033FA002200216FF0040000F02DFA40
:102ABC00002200216FF0030000F027FA0022002111
:102ACC006FF0010000F021FA002200214FF0FF30DE
:102ADC0000F01BFA084B5B68074A23F0E063536075
:102AEC00054B5B68044A43F00073536000BF083722
:102AFC00BD4680BD001002400000014080B588B08A
:102B0C0000AF78607B681B680F4A934217D1C023D3
:102B1C003B6112237B610323FB6107F11003194610
:102B2C000A4800F051FA0A4BDB69094A43F40013D6
:102B3C00D361074BDB6903F40013FB60FB6800BF38
:102B4C002037BD4680BD00BF00540040000C014042
:102B5C000010024080B588B000AF78607B681B68BD
:102B6C00B3F1804F1FD1124BDB69114A43F00103C3
:102B7C00D3610F4BDB6903F00103FB60FB6801239E
:102B8C003B6100237B610023BB6107F110031946F5
:102B9C00084800F019FA002200211C2000F0B5F9B9
:102BAC001C2000F0CEF900BF2037BD4680BD00BF11
:102BBC00001002400008014080B400AF00BFBD46C9
:102BCC0080BC704780B400AFFEE780B400AFFEE776
:102BDC0080B400AFFEE780B400AFFEE780B400AF76
:102BEC0000BFBD4680BC704780B400AF00BFBD467F
:102BFC0080BC704780B400AF00BFBD4680BC70473E
:102C0C0080B500AF00F078F800F0D2F900BF80BDBD
:102C1C0080B500AF034801F06BFC034802F005FCE3
:102C2C0000BF80BDF00800203409002080B400AF44
:102C3C00154B1B68144A43F001031360124B5A687E
:102C4C001149124B13404B600F4B1B680E4A23F07B
:102C5C00847323F4803313600B4B1B680A4A23F4F0
:102C6C0080231360084B5B68074A23F4FE03536010
:102C7C00054B4FF41F029A60054B4FF000629A60AF
:102C8C0000BFBD4680BC7047001002400000FFF83A
:102C9C0000ED00E080B500AF084B1B68074A43F01D
:102CAC0010031360032000F025F9002000F008F851
:102CBC00FFF7D4FE0023184680BD00BF0020024061
:102CCC0080B582B000AF7860094B1B68094AA2FB43
:102CDC0003239B09184600F042F9002279684FF053
:102CEC00FF3000F012F9002318460837BD4680BDAE
:102CFC0040080020D34D621080B400AF044B1B6819
:102D0C000133034A136000BFBD4680BC704700BF4F
:102D1C003009002080B400AF024B1B681846BD463A
:102D2C0080BC70473009002080B584B000AF78605B
:102D3C00FFF7F0FFB8607B68FB60FB68B3F1FF3F07
:102D4C0002D0FB680133FB6000BFFFF7E3FF0246D4
:102D5C00BB68D31AFA689A42F7D800BF1037BD4641
:102D6C0080BD000080B485B000AF78607B6803F054
:102D7C000703FB600C4BDB68BB60BA684FF6FF03C4
:102D8C001340BB60FB681A02BB68134343F0BF637C
:102D9C0043F40033BB60044ABB68D36000BF1437F4
:102DAC00BD4680BC704700BF00ED00E080B400AFB2
:102DBC00044BDB681B0A03F007031846BD4680BCB6
:102DCC00704700BF00ED00E080B483B000AF034655
:102DDC00FB71FB7903F01F02064997F907305B0979
:102DEC00012000FA02F241F8232000BF0C37BD4647
:102DFC0080BC704700E100E080B483B000AF0346B4
:102E0C003960FB7197F90730002B0BDA3B68DAB2AB
:102E1C000C49FB7903F00F03043B1201D2B20B44B3
:102E2C001A7609E03B68DAB2074997F907301201C4
:102E3C00D2B20B4483F8002300BF0C37BD4680BCD4
:102E4C00704700BF00ED00E000E100E080B489B005
:102E5C0000AFF860B9607A60FB6803F00703FB61B0
:102E6C00FB69C3F10703042B28BF0423BB61FB6977
:102E7C000433062B02D9FB69033B00E000237B6182
:102E8C004FF0FF32BB6902FA03F3DA43BB681A4016
:102E9C007B699A404FF0FF317B6901FA03F3D94308
:102EAC007B680B40134318462437BD4680BC7047E3
:102EBC0080B582B000AF78607B68013BB3F1807F56
:102ECC0001D301230FE00A4A7B68013B53600F21B9
:102EDC004FF0FF30FFF790FF054B00229A60044B38
:102EEC0007221A60002318460837BD4680BD00BF74
:102EFC0010E000E080B582B000AF78607868FFF732
:102F0C0031FF00BF0837BD4680BD80B586B000AF2D
:102F1C000346B9607A60FB7300237B61FFF746FFC1
:102F2C0078617A68B9687869FFF790FF024697F97B
:102F3C000F3011461846FFF75FFF00BF1837BD462C
:102F4C0080BD80B582B000AF0346FB7197F90730A6
:102F5C001846FFF739FF00BF0837BD4680BD80B566
:102F6C0082B000AF78607868FFF7A2FF034618467E
:102F7C000837BD4680BD000080B483B000AF7860D8
:102F8C007B68042B06D1094B1B68084A43F00403E9
:102F9C00136005E0054B1B68044A23F0040313601F
:102FAC0000BF0C37BD4680BC704700BF10E000E08E
:102FBC0080B500AF00F002F800BF80BD80B400AF58
:102FCC0000BFBD4680BC704780B48BB000AF78604A
:102FDC0039600023FB610023BB6100237B6100236C
:102FEC003B6200233B6100237B6227E101227B6A69
:102FFC0002FA03F3FB613B681B68FA691340BB617F
:10300C00BA69FB699A4240F016813B685B68122BE7
:10301C0034D0122B0DD8022B2BD0022B04D8002B22
:10302C0031D0012B1CD048E0032B43D0112B1BD0EB
:10303C0043E0874A934226D0854A934206D8854A74
:10304C00934220D0844A93421DD036E0834A934267
:10305C0019D0834A934216D0824A934213D02CE063
:10306C003B68DB683B6228E03B68DB6804333B620F
:10307C0023E03B68DB6808333B621EE03B68DB689F
:10308C000C333B6219E03B689B68002B02D1042394
:10309C003B6212E03B689B68012B05D108233B6225
:1030AC007B68FA691A6108E008233B627B68FA695D
:1030BC005A6102E000233B6200BFBB69FF2B01D8C1
:1030CC007B6801E07B680433FB60BB69FF2B02D893
:1030DC007B6A9B0002E07B6A083B9B003B61FB68C0
:1030EC001A680F213B6901FA03F3DB431A40396A72
:1030FC003B6901FA03F31A43FB681A603B685B688F
:10310C0003F08053002B00F09680574B9B69564A76
:10311C0043F001039361544B9B6903F00103BB60C3
:10312C00BB68524A7B6A9B08023352F823307B619E
:10313C007B6A03F003039B000F2202FA03F3DB43C9
:10314C007A6913407B617B68494A934213D07B6850
:10315C00484A93420DD07B68474A934207D07B681C
:10316C00464A934201D1032306E0042304E00223E0
:10317C0002E0012300E000237A6A02F003029200CD
:10318C0093407A6913437B6138497B6A9B0802330D
:10319C007A6941F823203B685B6803F48033002B89
:1031AC0006D0374B1A683649BB6913430B6006E0EF
:1031BC00334B1A68BB69DB43314913400B603B68E6
:1031CC005B6803F40033002B06D02D4B5A682C4956
:1031DC00BB6913434B6006E0294B5A68BB69DB4360
:1031EC00274913404B603B685B6803F48013002B4A
:1031FC0006D0234B9A682249BB6913438B6006E0C7
:10320C001F4B9A68BB69DB431D4913408B603B68BD
:10321C005B6803F40013002B06D0194BDA681849CD
:10322C00BB691343CB6006E0154BDA68BB69DB4323
:10323C0013491340CB607B6A01337B627B6A0F2B93
:10324C007FF6D4AE00BF2C37BD4680BC704700BFA4
:10325C0000002110000011100000121000003110AD
:10326C00000032100000221000100240000001404B
:10327C0000080140000C0140001001400014014006
:10328C000004014080B483B000AF78600B467B80B3
:10329C0013467B707B78002B03D07A887B681A618D
:1032AC0003E07B881A047B681A6100BF0C37BD46AB
:1032BC0080BC704780B584B000AF78600023FB60A1
:1032CC000023BB607B68002B01D10123C8E07B6825
:1032DC0093F83D30DBB2002B06D17B68002283F8DB
:1032EC003C207868FFF70AFC7B68242283F83D2099
:1032FC007B681B681A687B681B6822F001021A60E5
:10330C0000F07AFFB860BB68574AA2FB03239B0C02
:10331C00FB607B681B68FA685A607B685B68534A81
:10332C00934202D8FB68013309E0FB684FF49672B4
:10333C0002FB03F34E4AA2FB03239B0901337A6879
:10334C00126813627B685B68484A934212D87B68A8
:10335C005B685B00BA68B2FBF3F3C3F30B03032B9C
:10336C0006D97B685B685B00BA68B2FBF3F345E097
:10337C00042343E07B689B68002B0FD17B685A6861
:10338C0013465B001344BA68B2FBF3F3C3F30B03AD
:10339C00002B0CBF01230023DBB210E07B685A68C2
:1033AC0013469B0013449A001344BA68B2FBF3F320
:1033BC00C3F30B03002B0CBF01230023DBB2002B48
:1033CC0001D001231AE07B689B68002B0AD17B6833
:1033DC005A6813465B001344BA68B2FBF3F343F428
:1033EC0000430BE07B685A6813469B0013449A0019
:1033FC001344BA68B2FBF3F343F440437A6812689F
:10340C00D3617B68D9697B681A6A7B681B680A433D
:10341C001A607B6819697B68DA687B681B680A43E9
:10342C009A607B6859697B689A697B681B680A4358
:10343C00DA607B681B681A687B681B6842F00102C3
:10344C001A607B6800221A647B68202283F83D2076
:10345C007B6800221A637B68002283F83E200023DD
:10346C0018461037BD4680BD83DE1B43A086010085
:10347C00D34D621080B588B002AFF8600846114693
:10348C001A4603467B810B463B811346FB80002387
:10349C007B61FFF73FFC7861FB6893F83D30DBB252
:1034AC00202B40F0E7807B6900931923012274499B
:1034BC00F86800F07DF90346002B01D00223DAE016
:1034CC00FB6893F83C30012B01D10223D3E0FB685D
:1034DC00012283F83C20FB681B681B6803F0010386
:1034EC00012B07D0FB681B681A68FB681B6842F04D
:1034FC0001021A60FB681B681A68FB681B6822F4DF
:10350C0000621A60FB68212283F83D20FB68402290
:10351C0083F83E20FB6800221A64FB683A6A5A6200
:10352C00FB68BA8C5A85FB68564ADA62FB685B8D7D
:10353C009AB2FB681A85F8883A8979897B69019374
:10354C00BB6A00930346F86800F09EF80346002B14
:10355C005ED0FB681B6C042B05D1FB68002283F842
:10356C003C20012387E0FB68002283F83C200323E6
:10357C0081E07A69B96AF86800F0D9F90346002B42
:10358C000FD0FB681B6C042B09D1FB681B681A68F5
:10359C00FB681B6842F400721A6001236BE0032382
:1035AC0069E0FB685B6A591CFA6851621A78FB681F
:1035BC001B681A61FB681B8D013B9AB2FB681A856C
:1035CC00FB685B8D9BB2013B9AB2FB685A85FB682A
:1035DC001B685B6903F00403042B19D1FB681B8D7A
:1035EC00002B15D0FB685B6A591CFA6851621A787B
:1035FC00FB681B681A61FB681B8D013B9AB2FB6868
:10360C001A85FB685B8D9BB2013B9AB2FB685A85AD
:10361C00FB681B8D002BACD17A69B96AF86800F095
:10362C00C3F90346002B0FD0FB681B6C042B09D18C
:10363C00FB681B681A68FB681B6842F400721A600E
:10364C00012318E0032316E0FB681B681A68FB686B
:10365C001B6842F400721A60FB68202283F83D203C
:10366C00FB68002283F83E20FB68002283F83C2094
:10367C00002300E0022318461837BD4680BD00BF6A
:10368C00020010000000FFFF80B588B002AFF860A8
:10369C00084611461A4603467B810B463B8113466E
:1036AC00FB80FB681B681A68FB681B6842F480721D
:1036BC001A607B6A00933B6A00224FF00111F86894
:1036CC0000F076F80346002B01D0032369E07B89D8
:1036DC00DBB21A46FB681B6802F0FE021A617B6AB9
:1036EC003A6A3249F86800F0B4F80346002B07D068
:1036FC00FB681B6C042B01D1012352E0032350E027
:10370C0000237B61FB681B685B697B61FB681B6842
:10371C009B697B617B697A6A396AF86800F007F902
:10372C000346002B0FD0FB681B6C042B09D1FB68E4
:10373C001B681A68FB681B6842F400721A6001234C
:10374C002FE003232DE0FB88012B05D13B89DAB256
:10375C00FB681B681A6123E03B891B0A9BB2DAB237
:10376C00FB681B681A617A6A396AF86800F0DFF83E
:10377C000346002B0FD0FB681B6C042B09D1FB6894
:10378C001B681A68FB681B6842F400721A600123FC
:10379C0007E0032305E03B89DAB2FB681B681A617A
:1037AC00002318461837BD4680BD00BF020001003B
:1037BC0080B584B000AFF860B9603B601346FB7114
:1037CC001FE03B68B3F1FF3F1BD03B68002B07D0D9
:1037DC00FFF7A0FA0246BB69D31A3A689A4210D294
:1037EC00FB6800221A63FB68202283F83D20FB68EB
:1037FC00002283F83E20FB68002283F83C20032340
:10380C0023E0BB681B0CDBB2012B0DD1FB681B68E2
:10381C005B69DA43BB6813409BB2002B0CBF0123DE
:10382C000023DBB21A460CE0FB681B689B69DA4389
:10383C00BB6813409BB2002B0CBF01230023DBB2EF
:10384C001A46FB799A42BCD0002318461037BD4665
:10385C0080BD80B584B000AFF860B9607A603B6021
:10386C0040E0FB681B685B6903F48063B3F5806F11
:10387C001CD1FB681B681A68FB681B6842F4007259
:10388C001A60FB681B686FF480625A61FB68042243
:10389C001A64FB6800221A63FB68202283F83D201F
:1038AC00FB68002283F83C2001233CE07B68B3F1E9
:1038BC00FF3F17D07B68002B07D0FFF72BFA02468F
:1038CC003B68D31A7A689A420CD2FB6800221A63BE
:1038DC00FB68202283F83D20FB68002283F83C2003
:1038EC00032320E0BB681B0CDBB2012B0CD1FB6863
:1038FC001B685B69DA43BB6813409BB2002B14BF97
:10390C0001230023DBB20BE0FB681B689B69DA43E5
:10391C00BB6813409BB2002B14BF01230023DBB206
:10392C00002B9ED1002318461037BD4680BD80B5B4
:10393C0084B000AFF860B9607A6029E0F86800F0F4
:10394C0070F80346002B01D0012329E0BB68B3F1CA
:10395C00FF3F1DD0BB68002B07D0FFF7DBF90246F9
:10396C007B68D31ABA689A4212D2FB681B6C43F07C
:10397C002002FB681A64FB6800221A63FB68202291
:10398C0083F83D20FB68002283F83C20032307E0EA
:10399C00FB681B685B6903F08003802BCED100238E
:1039AC0018461037BD4680BD80B584B000AFF860B6
:1039BC00B9607A6029E0F86800F033F80346002B10
:1039CC0001D0012329E0BB68B3F1FF3F1DD0BB68D8
:1039DC00002B07D0FFF79EF902467B68D31ABA6812
:1039EC009A4212D2FB681B6C43F02002FB681A64EB
:1039FC00FB6800221A63FB68202283F83D20FB68D9
:103A0C00002283F83C20032307E0FB681B685B69FA
:103A1C0003F00403042BCED1002318461037BD4607
:103A2C0080BD80B483B000AF78607B681B685B6935
:103A3C0003F48063B3F5806F14D17B681B686FF45B
:103A4C0080625A617B6804221A647B6800221A63C4
:103A5C007B68202283F83D207B68002283F83C2081
:103A6C00012300E0002318460C37BD4680BC70478C
:103A7C0080B586B000AF786000233B617B681B6823
:103A8C0003F00103002B00F08780924B5B6803F07E
:103A9C000C03042B0CD08F4B5B6803F00C03082B2E
:103AAC0012D18C4B5B6803F48033B3F5803F0BD1A0
:103ABC00884B1B6803F40033002B6CD07B685B686D
:103ACC00002B68D101232DE27B685B68B3F5803F46
:103ADC0006D1804B1B687F4A43F4803313602EE081
:103AEC007B685B68002B0CD17A4B1B68794A23F4FA
:103AFC0080331360774B1B68764A23F48023136062
:103B0C001DE07B685B68B3F5A02F0CD1714B1B6873
:103B1C00704A43F4802313606E4B1B686D4A43F468
:103B2C00803313600BE06B4B1B686A4A23F48033C1
:103B3C001360684B1B68674A23F4802313607B680F
:103B4C005B68002B13D0FFF7E5F8386108E0FFF74E
:103B5C00E1F802463B69D31A642B01D90323E1E156
:103B6C005C4B1B6803F40033002BF0D014E0FFF720
:103B7C00D1F8386108E0FFF7CDF802463B69D31A5B
:103B8C00642B01D90323CDE1524B1B6803F40033A2
:103B9C00002BF0D100E000BF7B681B6803F0020330
:103BAC00002B63D04B4B5B6803F00C03002B0BD04A
:103BBC00484B5B6803F00C03082B1CD1454B5B682E
:103BCC0003F48033002B16D1424B1B6803F0020325
:103BDC00002B05D07B681B69012B01D00123A1E1CF
:103BEC003C4B1B6823F0F8027B685B69DB003949AE
:103BFC0013430B603AE07B681B69002B20D0364BDB
:103C0C0001221A60FFF786F8386108E0FFF782F8A6
:103C1C0002463B69D31A022B01D9032382E12D4BB7
:103C2C001B6803F00203002BF0D02A4B1B6823F017
:103C3C00F8027B685B69DB00264913430B6015E0D7
:103C4C00254B00221A60FFF765F8386108E0FFF792
:103C5C0061F802463B69D31A022B01D9032361E1B7
:103C6C001C4B1B6803F00203002BF0D17B681B6814
:103C7C0003F00803002B39D07B689B69002B19D00B
:103C8C00164B01221A60FFF745F8386108E0FFF780
:103C9C0041F802463B69D31A022B01D9032341E1B7
:103CAC000C4B5B6A03F00203002BF0D0012000F0F8
:103CBC00B7FA1BE0094B00221A60FFF72BF83861AA
:103CCC000EE0FFF727F802463B69D31A022B07D9FF
:103CDC00032327E1001002400000424280044242CC
:103CEC00924B5B6A03F00203002BEAD17B681B68E2
:103CFC0003F00403002B00F0A6800023FB758B4B14
:103D0C00DB6903F08053002B0DD1884BDB69874AAC
:103D1C0043F08053D361854BDB6903F08053FB6028
:103D2C00FB680123FB75824B1B6803F48073002B2B
:103D3C0018D17F4B1B687E4A43F480731360FEF7E7
:103D4C00E9FF386108E0FEF7E5FF02463B69D31A4C
:103D5C00642B01D90323E5E0754B1B6803F48073D6
:103D6C00002BF0D07B68DB68012B06D16F4B1B6AF4
:103D7C006E4A43F0010313622DE07B68DB68002B75
:103D8C000CD16A4B1B6A694A23F001031362674B1F
:103D9C001B6A664A23F0040313621CE07B68DB6831
:103DAC00052B0CD1614B1B6A604A43F00403136270
:103DBC005E4B1B6A5D4A43F0010313620BE05B4BE5
:103DCC001B6A5A4A23F001031362584B1B6A574A69
:103DDC0023F0040313627B68DB68002B15D0FEF71D
:103DEC0099FF38610AE0FEF795FF02463B69D31A4A
:103DFC0041F28832934201D9032393E04B4B1B6A67
:103E0C0003F00203002BEED014E0FEF783FF3861C1
:103E1C000AE0FEF77FFF02463B69D31A41F2883273
:103E2C00934201D903237DE0404B1B6A03F002034C
:103E3C00002BEED1FB7D012B05D13C4BDB693B4AC2
:103E4C0023F08053D3617B68DB69002B69D0374B3F
:103E5C005B6803F00C03082B61D07B68DB69022BD9
:103E6C0046D1344B00221A60FEF754FF386108E04B
:103E7C00FEF750FF02463B69D31A022B01D90323EC
:103E8C0050E02A4B1B6803F00073002BF0D17B68C9
:103E9C001B6AB3F5803F08D1244B5B6823F40032D6
:103EAC007B689B68214913434B60204B5B6823F470
:103EBC0074127B68196A7B685B6A0B431B4913435A
:103ECC004B601C4B01221A60FEF724FF386108E09E
:103EDC00FEF720FF02463B69D31A022B01D90323BC
:103EEC0020E0124B1B6803F00073002BF0D018E09D
:103EFC00104B00221A60FEF70DFF386108E0FEF748
:103F0C0009FF02463B69D31A022B01D9032309E0AE
:103F1C00064B1B6803F00073002BF0D101E001236A
:103F2C0000E0002318461837BD4680BD0010024043
:103F3C00007000406000424280B584B000AF7860F1
:103F4C0039600023FB60724B1B6803F007033A686F
:103F5C009A4210D96E4B1B6823F007026C493B68E0
:103F6C0013430B606A4B1B6803F007033A689A42D1
:103F7C0001D00123C8E07B681B6803F00203002B0F
:103F8C0008D0644B5B6823F0F0027B689B68614946
:103F9C0013434B607B681B6803F00103002B6AD052
:103FAC007B685B68012B07D15A4B1B6803F4003309
:103FBC00002B15D10123A7E07B685B68022B07D18E
:103FCC00544B1B6803F00073002B09D101239BE0B9
:103FDC00504B1B6803F00203002B01D1012393E02B
:103FEC004C4B5B6823F003027B685B6849491343C5
:103FFC004B60FEF78FFEF8607B685B68012B12D17B
:10400C000AE0FEF787FE0246FB68D31A41F28832BB
:10401C00934201D9032377E03E4B5B6803F00C031A
:10402C00042BEED127E07B685B68022B1DD10AE0E4
:10403C00FEF770FE0246FB68D31A41F288329342B7
:10404C0001D9032360E0334B5B6803F00C03082BAE
:10405C00EED110E0FEF75EFE0246FB68D31A41F289
:10406C008832934201D903234EE02A4B5B6803F05C
:10407C000C03002BEED1264B1B6803F007033A68A8
:10408C009A4210D2224B1B6823F0070220493B684E
:10409C0013430B601E4B1B6803F007033A689A42EC
:1040AC0001D0012330E07B681B6803F00403002B74
:1040BC0008D0184B5B6823F4E0627B68DB68154919
:1040CC0013434B607B681B6803F00803002B09D07B
:1040DC00104B5B6823F460527B681B69DB000D4955
:1040EC0013434B6000F01CF801460A4B5B681B093C
:1040FC0003F00F03084AD35C21FA03F3074A136059
:10410C000020FEF7DDFD002318461037BD4680BDAC
:10411C000020024000100240405A000840080020D5
:10412C0090B48AB000AF2A4B3C1D0FCB84E80F0033
:10413C00284B1B883B800023FB610023BB610023C1
:10414C007B6200237B6100233B62234B5B68FB613A
:10415C00FB6903F00C03042B02D0082B03D02DE0D9
:10416C001E4B3B622DE0FB699B0C03F00F0307F128
:10417C002802134413F8243C7B61FB6903F480335D
:10418C00002B13D0144B5B685B0C03F0010307F19D
:10419C002802134413F8283CBB61104ABB69B2FBDC
:1041AC00F3F27B6902FB03F37B6204E07B690C4A4C
:1041BC0002FB03F37B627B6A3B6202E0074B3B62D0
:1041CC0000BF3B6A18462837BD4690BC704700BFFD
:1041DC00DC590008EC5900080010024000127A006B
:1041EC0000093D0080B400AF024B1B681846BD4669
:1041FC0080BC70474008002080B500AFFFF7F2FF8D
:10420C000146054B5B681B0A03F00703034AD35CAA
:10421C0021FA03F3184680BD00100240505A0008E2
:10422C0080B485B000AF78600A4B1B680A4AA2FBC9
:10423C0003235B0A7A6802FB03F3FB6000BFFB6895
:10424C005A1EFA60002BF9D100BF1437BD4680BC52
:10425C00704700BF40080020D34D621080B582B07B
:10426C0000AF78607B68002B01D101231DE07B68D7
:10427C0093F83D30DBB2002B06D17B68002283F82B
:10428C003C207868FEF766FC7B68022283F83D20B0
:10429C007B681A687B6804331946104600F028FCCA
:1042AC007B68012283F83D20002318460837BD4661
:1042BC0080BD80B483B000AF78607B68022283F845
:1042CC003D207B681B681A687B681B6842F0010202
:1042DC001A607B68012283F83D20002318460C37B6
:1042EC00BD4680BC704780B582B000AF78607B68FB
:1042FC00002B01D101231DE07B6893F83D30DBB22C
:10430C00002B06D17B68002283F83C20786800F0F3
:10431C0015F87B68022283F83D207B681A687B685D
:10432C0004331946104600F0E3FB7B68012283F846
:10433C003D20002318460837BD4680BD80B483B0AD
:10434C0000AF786000BF0C37BD4680BC70470000E2
:10435C0080B582B000AF786039603B680C2B41D8D7
:10436C0001A252F823F000BFA9430008F143000852
:10437C00F1430008F1430008BB430008F143000877
:10438C00F1430008F1430008CD430008F143000855
:10439C00F1430008F1430008DF4300087B681B6809
:1043AC00DA687B681B6842F00202DA601BE07B680B
:1043BC001B68DA687B681B6842F00402DA6012E062
:1043CC007B681B68DA687B681B6842F00802DA605D
:1043DC0009E07B681B68DA687B681B6842F0100296
:1043EC00DA6000E000BF7B681B6801223968184660
:1043FC0000F0A6FD7B681B681A687B681B6842F09E
:10440C0001021A60002318460837BD4680BD00BF64
:10441C0080B582B000AF786039603B680C2B41D816
:10442C0001A252F823F000BF69440008B14400080F
:10443C00B1440008B14400087B440008B1440008B2
:10444C00B1440008B14400088D440008B144000890
:10445C00B1440008B14400089F4400087B681B6805
:10446C00DA687B681B6822F00202DA601BE07B686A
:10447C001B68DA687B681B6822F00402DA6012E0C1
:10448C007B681B68DA687B681B6822F00802DA60BC
:10449C0009E07B681B68DA687B681B6822F01002F5
:1044AC00DA6000E000BF7B681B68002239681846A0
:1044BC0000F046FD7B681B681A6A41F21113134029
:1044CC00002B0FD17B681B681A6A40F244431340DF
:1044DC00002B07D17B681B681A687B681B6822F06D
:1044EC0001021A60002318460837BD4680BD00BF84
:1044FC0080B582B000AF78607B681B681B6903F0E5
:10450C000203022B22D17B681B68DB6803F00203D9
:10451C00022B1BD17B681B686FF002021A617B684F
:10452C0001221A777B681B689B6903F00303002B3D
:10453C0003D0786800F0C0FA05E0786800F0B3FAB0
:10454C00786800F0C2FA7B6800221A777B681B68D7
:10455C001B6903F00403042B22D17B681B68DB6806
:10456C0003F00403042B1BD17B681B686FF004025F
:10457C001A617B6802221A777B681B689B6903F4BB
:10458C004073002B03D0786800F096FA05E0786849
:10459C0000F089FA786800F098FA7B6800221A77A4
:1045AC007B681B681B6903F00803082B22D17B680E
:1045BC001B68DB6803F00803082B1BD17B681B68A6
:1045CC006FF008021A617B6804221A777B681B68FB
:1045DC00DB6903F00303002B03D0786800F06CFA5E
:1045EC0005E0786800F05FFA786800F06EFA7B6896
:1045FC0000221A777B681B681B6903F01003102BD1
:10460C0022D17B681B68DB6803F01003102B1BD1D5
:10461C007B681B686FF010021A617B6808221A779E
:10462C007B681B68DB6903F44073002B03D078684C
:10463C0000F042FA05E0786800F035FA786800F08E
:10464C0044FA7B6800221A777B681B681B6903F0AD
:10465C000103012B0ED17B681B68DB6803F001039F
:10466C00012B07D17B681B686FF001021A61786817
:10467C0000F010FA7B681B681B6903F08003802B29
:10468C000ED17B681B68DB6803F08003802B07D19D
:10469C007B681B686FF080021A61786800F0BFFCC1
:1046AC007B681B681B6903F04003402B0ED17B68B1
:1046BC001B68DB6803F04003402B07D17B681B6849
:1046CC006FF040021A61786800F008FA7B681B688A
:1046DC001B6903F02003202B0ED17B681B68DB6861
:1046EC0003F02003202B07D17B681B686FF020029E
:1046FC001A61786800F08AFC00BF0837BD4680BD9F
:10470C0080B584B000AFF860B9607A60FB6893F84C
:10471C003C30012B01D102238AE0FB68012283F893
:10472C003C20FB68022283F83D207B68002B1BD1C8
:10473C00FB681868BB681968BB685A68BB68DB689B
:10474C0000F03CFAFB681B689A69FB681B6822F056
:10475C000C029A61FB681B689969BB689A68FB68D4
:10476C001B680A439A615AE07B68042B1CD1FB68D6
:10477C001868BB681968BB685A68BB68DB6800F0CE
:10478C00ADFAFB681B689A69FB681B6822F44062EF
:10479C009A61FB681B689969BB689B681A02FB6885
:1047AC001B680A439A613AE07B68082B1BD1FB68B3
:1047BC001868BB681968BB685A68BB68DB6800F08E
:1047CC0000FBFB681B68DA69FB681B6822F00C02B3
:1047DC00DA61FB681B68D969BB689A68FB681B685F
:1047EC000A43DA611BE0FB681868BB681968BB6890
:1047FC005A68BB68DB6800F023FBFB681B68DA694E
:10480C00FB681B6822F44062DA61FB681B68D9699B
:10481C00BB689B681A02FB681B680A43DA61FB6879
:10482C00012283F83D20FB68002283F83C20002302
:10483C0018461037BD4680BD80B584B000AF786097
:10484C0039600023FB607B6893F83C30012B01D16D
:10485C000223C8E07B68012283F83C207B6802229B
:10486C0083F83D207B681B689B68FB60FB6823F02A
:10487C007703FB60FB6823F47F43FB607B681B685A
:10488C00FA689A603B681B68402B77D0402B0ED897
:10489C00102B00F08A80102B02D8002B7ED099E0D0
:1048AC00202B00F08980302B00F08D8092E0702B53
:1048BC0016D0702B04D8502B40D0602B4ED089E0F2
:1048CC00B3F5805F03D0B3F5005F24D082E07B6842
:1048DC001B689A687B681B6822F007029A6079E073
:1048EC007B6818683B6899683B685A683B68DB686A
:1048FC0000F005FB7B681B689B68FB60FB6823F082
:10490C007703FB60FB6843F07703FB607B681B68F5
:10491C00FA689A605EE07B6818683B6899683B6847
:10492C005A683B68DB6800F0EAFA7B681B689A6897
:10493C007B681B6842F480429A604BE07B68186885
:10494C003B6859683B68DB681A4600F095F97B6850
:10495C001B685021184600F0B3FA3BE07B681868DE
:10496C003B6859683B68DB681A4600F0F7F97B68CE
:10497C001B686021184600F0A3FA2BE07B681868CE
:10498C003B6859683B68DB681A4600F075F97B6830
:10499C001B684021184600F093FA1BE07B681B68EB
:1049AC000021184600F08CFA14E07B681B6810217B
:1049BC00184600F085FA0DE07B681B68202118462C
:1049CC0000F07EFA06E07B681B683021184600F088
:1049DC0077FA00BF7B68012283F83D207B680022B8
:1049EC0083F83C20002318461037BD4680BD0000DC
:1049FC0080B485B000AF786039600023FB607B68C1
:104A0C0093F83C30012B01D102233DE07B6801225D
:104A1C0083F83C203B680C2B30D801A252F823F0D1
:104A2C00614A0008894A0008894A0008894A000836
:104A3C006B4A0008894A0008894A0008894A00081C
:104A4C00754A0008894A0008894A0008894A000802
:104A5C007F4A00087B681B685B6BFB600FE07B6820
:104A6C001B689B6BFB600AE07B681B68DB6BFB6065
:104A7C0005E07B681B681B6CFB6000E000BF7B687B
:104A8C00002283F83C20FB6818461437BD4680BCD6
:104A9C00704700BF80B483B000AF786000BF0C37A4
:104AAC00BD4680BC704780B483B000AF786000BF57
:104ABC000C37BD4680BC704780B483B000AF7860C3
:104ACC0000BF0C37BD4680BC704780B483B000AFCC
:104ADC00786000BF0C37BD4680BC704780B483B093
:104AEC0000AF786000BF0C37BD4680BC704700003B
:104AFC0080B485B000AF786039600023FB607B68C0
:104B0C001B68FB607B682A4A93420BD07B68B3F12D
:104B1C00804F07D07B68274A934203D07B68264A94
:104B2C00934208D1FB6823F07003FB603B685B6821
:104B3C00FA681343FB607B681D4A93420BD07B6879
:104B4C00B3F1804F07D07B681A4A934203D07B683D
:104B5C00194A934208D1FB6823F44073FB603B680D
:104B6C00DB68FA681343FB60FB6823F08003FB608F
:104B7C003B685B69FA681343FB607B68FA681A60F0
:104B8C003B689A687B68DA623B681A687B689A6251
:104B9C007B68074A934203D13B681A697B681A63A6
:104BAC007B6801225A6100BF1437BD4680BC704738
:104BBC00002C0140000400400008004080B487B085
:104BCC0000AFF860B9607A603B6000237B61002322
:104BDC003B61FB681B6A23F00102FB681A62FB68ED
:104BEC009B697B61FB681B6A3B61FB681F4A9342B4
:104BFC000BD0FB68B3F1804F07D0FB681C4A934283
:104C0C0003D0FB681B4A934201D1012300E000232F
:104C1C00002B08D07B6923F003037B617A697B68E6
:104C2C0013437B6103E07B6943F001037B617B6988
:104C3C0023F0F0037B613B681B01DBB27A69134301
:104C4C007B613B6923F00A033B61BB6803F00A03F9
:104C5C003A6913433B61FB687A699A61FB683A696C
:104C6C001A6200BF1C37BD4680BC7047002C014047
:104C7C00000400400008004080B487B000AFF8602A
:104C8C00B9607A6000237B6100233B61FB681B6A7F
:104C9C003B61FB681B6A23F00102FB681A62FB682C
:104CAC009B697B617B6923F0F0037B617B681B0153
:104CBC007A6913437B613B6923F00A033B613A69D0
:104CCC00BB6813433B61FB687A699A61FB683A697C
:104CDC001A6200BF1C37BD4680BC704780B487B0D9
:104CEC0000AFF860B9607A603B6000237B61002301
:104CFC003B61FB681B6A23F01002FB681A62FB68BD
:104D0C009B697B61FB681B6A3B617B6923F4407385
:104D1C007B617B681B027A6913437B617B6923F49B
:104D2C0070437B613B681B039BB27A6913437B61C5
:104D3C003B6923F0A0033B61BB681B0103F0A0039C
:104D4C003A6913433B61FB687A699A61FB683A697B
:104D5C001A6200BF1C37BD4680BC704780B487B058
:104D6C0000AFF860B9607A6000237B6100233B617F
:104D7C00FB681B6A23F01002FB681A62FB689B69D4
:104D8C007B61FB681B6A3B617B6923F470437B612D
:104D9C007B681B037A6913437B613B6923F0A00397
:104DAC003B61BB681B013A6913433B61FB687A6941
:104DBC009A61FB683A691A6200BF1C37BD4680BC19
:104DCC00704780B487B000AFF860B9607A603B6020
:104DDC0000237B6100233B61FB681B6A23F4807218
:104DEC00FB681A62FB68DB697B61FB681B6A3B61D1
:104DFC007B6923F003037B617A697B6813437B61D6
:104E0C007B6923F0F0037B613B681B01DBB27A69A1
:104E1C0013437B613B6923F420633B61BB681B023A
:104E2C0003F420633A6913433B61FB687A69DA61E6
:104E3C00FB683A691A6200BF1C37BD4680BC7047DC
:104E4C0080B487B000AFF860B9607A603B60002333
:104E5C007B6100233B61FB681B6A23F48052FB6877
:104E6C001A62FB68DB697B61FB681B6A3B617B69CF
:104E7C0023F440737B617B681B027A6913437B616B
:104E8C007B6923F470437B613B681B039BB27A699B
:104E9C0013437B613B6923F400533B61BB681B03E9
:104EAC0003F400533A6913433B61FB687A69DA6196
:104EBC00FB683A691A6200BF1C37BD4680BC70475C
:104ECC0080B485B000AF78600B467B800023FB601C
:104EDC007B689B68FB60FB6823F07003FB607B883E
:104EEC0043F007039BB21A46FB681343FB607B68D5
:104EFC00FA689A6000BF1437BD4680BC704780B416
:104F0C0087B000AFF860B9607A603B6000237B61CA
:104F1C00FB689B687B617B6923F47F437B613B6807
:104F2C001A027B681A43BB6813437A6913437B618B
:104F3C00FB687A699A6000BF1C37BD4680BC70471D
:104F4C0080B487B000AFF860B9607A6000237B61F1
:104F5C000122BB6802FA03F37B61FB681A6A7B6966
:104F6C00DB431A40FB681A62FB681A6A7968BB68F3
:104F7C0001FA03F31A43FB681A6200BF1C37BD46E3
:104F8C0080BC704780B483B000AF786039607B68B8
:104F9C0093F83C30012B01D1022332E07B680122D3
:104FAC0083F83C207B68022283F83D207B681B68D9
:104FBC005A687B681B6822F070025A607B681B6819
:104FCC0059683B681A687B681B680A435A607B689F
:104FDC001B689A687B681B6822F080029A607B6869
:104FEC001B6899683B685A687B681B680A439A601F
:104FFC007B68012283F83D207B68002283F83C20EB
:10500C00002318460C37BD4680BC704780B483B073
:10501C0000AF786000BF0C37BD4680BC704780B4D1
:10502C0083B000AF786000BF0C37BD4680BC7047C2
:10503C0080B500AF17210A2000F048FC044A012378
:10504C0006CA044800F01CFC00F00AFB00BF80BD3F
:10505C0044080020F059000890B587B000AF00F06C
:10506C0071FA4FF47A70FDF75FFE002000F0D6FA6B
:10507C0000F0F6FA4FF47A70FDF756FE01233B81EF
:10508C001D4BFB601D4B3B6100237B6107F108034B
:10509C001B49184600F003F90346002B01D0FFF71B
:1050AC00C7FF174800F064F80346002B01D0FFF748
:1050BC00BFFF00233B6000233B71114B9B681846DC
:1050CC00FBF7C6F903460C4638461A4623460D49EB
:1050DC00FBF7B6FC17210A2000F0F8FB0A4A384609
:1050EC00012306CA00F0CCFB00F0BAFA4FF47A7038
:1050FC00FDF71AFED5E700BF00080140F0080020BC
:10510C0034090020F85900084408002080B586B006
:10511C0000AF78607B689B8ABB601123FB60012326
:10512C003B6103237B617B689B6907F10802114695
:10513C001846FDF749FF00BF1837BD4680BD80B546
:10514C0086B000AF78607B689B8ABB6001233B61B3
:10515C000023FB6003237B617B689B6907F10802DA
:10516C0011461846FDF730FF00BF1837BD4680BD0D
:10517C0080B584B000AF78607B681B7C002B01D0BD
:10518C00012388E07B6801221A747B68FF225A7124
:10519C007B680022DA807A68537C6FF300035374C7
:1051AC007A68537C6FF3410353740023FB6007E070
:1051BC007A68FB68134400221A70FB680133FB60A9
:1051CC00FB68042BF4DD7868FFF7A0FF4FF4FA704E
:1051DC00FDF7AAFD7B6898697B689B8A00221946BB
:1051EC00FEF750F81420FDF79FFD7B6898697B68EB
:1051FC009B8A01221946FEF745F87868FFF79FFF56
:10520C007B68DB691B6800225A627B68DA697B6801
:10521C001B6A19461046FFF79BF80346002B01D07A
:10522C00012338E0FDF776FDB86000BF7B681B7C7E
:10523C00022B07D0FDF76EFD0246BB68D31AB3F5FF
:10524C007A7FF3D37B68DA697B681B6A1946104650
:10525C00FFF7DEF80346002B01D001231BE07B682F
:10526C005B7C03F00203DBB2002B01D0022312E0C3
:10527C007B685B7C03F00103DBB2002B01D00323C2
:10528C0009E07B681B7C022B04D17B6800221A741A
:10529C00002300E0012318461037BD4680BD90B4B2
:1052AC0082B000AF786039603B687A6803F114040F
:1052BC0013460FCB84E80F00002318460837BD4671
:1052CC0090BC704780B485B000AF78600B46FB7023
:1052DC007B6893F90530002B00DA0733DB105BB2E7
:1052EC00FB737B6893F905305A4203F0070302F015
:1052FC00070258BF53425BB2DBB2C3F10703BB7367
:10530C00FB78002B0FD0FB7B7A68D35C5AB2BB7B4B
:10531C00012101FA03F35BB213435AB2FB7BD1B206
:10532C007A68D15410E0FB7B7A68D35C5AB2BB7BB1
:10533C00012101FA03F35BB2DB435BB213405AB2B7
:10534C00FB7BD1B27A68D15400BF1437BD4680BC08
:10535C007047000080B584B000AF786000237B817B
:10536C007B681B781B021BB203F4FE431AB2B7F91D
:10537C000A3013431BB27B817B6801331B789AB2D2
:10538C007B8913437B817B891846FBF773F90346B2
:10539C0009491846FBF7C2F90346FB607B681B788A
:1053AC005BB2002B03DAFB6883F00043FB60FB6805
:1053BC0018461037BD4680BDCDCCCC3D80B584B0F1
:1053CC0000AF78600023FB730023BB6009E07A68B0
:1053DC00BB6813441A78FB7B1344FB73BB68013323
:1053EC00BB60BB68032BF2DD7B681B79FA7B9A42AE
:1053FC000FD17B681846FFF7ADFF02467B68DA6079
:10540C007B6802331846FFF7A5FF02467B689A605B
:10541C0004E07A68537C43F0010353747B680222E6
:10542C001A7400BF1037BD4680BD80B584B000AF84
:10543C0078607B68DA697B681B6A19461046FFF74F
:10544C00D7FA0346FB817B68DB88FA89D31ABB81C8
:10545C007B6893F90530B3F1FF3F1BD1BB89772BE8
:10546C000CD9BB89C82B09D87B6893F90530DBB202
:10547C000133DBB25AB27B685A713BE0BB89282BF3
:10548C0038D97A68537C43F0020353747B68022248
:10549C001A742FE0BB89452B10D9BB89642B0DD80E
:1054AC0000217868FFF70EFF7B6893F90530DBB2BB
:1054BC000133DBB25AB27B685A711BE0BB896D2B8E
:1054CC0010D9BB89962B0DD801217868FFF7FAFE0D
:1054DC007B6893F90530DBB20133DBB25AB27B68DF
:1054EC005A7107E07A68537C43F0020353747B686B
:1054FC0002221A747B6893F90530282B02D1786844
:10550C00FFF75CFF7B68FA89DA8000BF1037BD4675
:10551C0080BD000080B586B004AF0346FB710A2342
:10552C00029301230193FB1D009301230022782198
:10553C000348FDF79FFF00BF0837BD4680BD00BF85
:10554C009C08002080B500AF6420FDF7EDFBAE2079
:10555C00FFF7E0FF2020FFF7DDFF1020FFF7DAFF59
:10556C00B020FFF7D7FFC820FFF7D4FF0020FFF7CC
:10557C00D1FF1020FFF7CEFF4020FFF7CBFF81209B
:10558C00FFF7C8FFFF20FFF7C5FFA120FFF7C2FF01
:10559C00A620FFF7BFFFA820FFF7BCFF3F20FFF7B7
:1055AC00B9FFA420FFF7B6FFD320FFF7B3FF00200D
:1055BC00FFF7B0FFD520FFF7ADFFF020FFF7AAFFF4
:1055CC00D920FFF7A7FF2220FFF7A4FFDA20FFF76F
:1055DC00A1FF1220FFF79EFFDB20FFF79BFF20208F
:1055EC00FFF798FF8D20FFF795FF1420FFF792FF30
:1055FC00AF20FFF78FFF002000F010F800F030F81C
:10560C00054B00221A80044B00225A80024B0122C7
:10561C005A710123184680BD580D002080B485B006
:10562C0000AF0346FB710023FB600DE0FB79002B00
:10563C0001D1002100E0FF21084AFB6813440A460F
:10564C001A70FB680133FB60FB68B3F5806FEDD318
:10565C0000BF1437BD4680BC704700BF58090020FE
:10566C0080B586B004AF0023FB711DE0FB79503B85
:10567C00DBB21846FFF74EFF0020FFF74BFF102060
:10568C00FFF748FFFB79DB010B4A134464220292BB
:10569C008022019200930123402278210748FDF7D4
:1056AC00E9FEFB790133FB71FB79072BDED900BFD7
:1056BC000837BD4680BD00BF580900209C0800205B
:1056CC0080B483B000AF0346FB710B46BB7113462D
:1056DC007B7197F90730002B48DBBB793F2B45D802
:1056EC00254B1B79002B06D07B79002B0CBF01239B
:1056FC000023DBB27B717B79012B1AD1FA79BB7950
:10570C00DB08D8B20346DB0113441C4AD35C5AB203
:10571C00BB7903F00703012101FA03F35BB21343D6
:10572C0059B2FA790346DB011344C9B2134AD15476
:10573C001DE0FA79BB79DB08D8B20346DB011344D0
:10574C000E4AD35C5AB2BB7903F00703012101FA6C
:10575C0003F35BB2DB435BB2134059B2FA790346F5
:10576C00DB011344C9B2054AD15400E000BF0C3729
:10577C00BD4680BC704700BF580D00205809002062
:10578C0090B589B000AF0446381D80E806001A4673
:10579C002346FB731346BB73384B1B881A463B7965
:1057AC0013447F2B06DC354B5B881A467B791344FC
:1057BC003F2B01DD00235DE00023FB614CE0BA6868
:1057CC00FB7B203B797901FB03F31946FB690B4406
:1057DC005B0013441B887B610023BB6134E07A6956
:1057EC00BB6902FA03F303F40043002B12D0234BE2
:1057FC001B88DAB2BB69DBB21344D8B21F4B5B888F
:10580C00DAB2FB69DBB21344DBB2BA7B1946FFF7A1
:10581C0057FF16E0194B1B88DAB2BB69DBB2134495
:10582C00D8B2164B5B88DAB2FB69DBB21344D9B23F
:10583C00BB7B002B0CBF01230023DBB21A46FFF706
:10584C003FFFBB690133BB613B791A46BB6993428D
:10585C00C5D3FB690133FB617B791A46FB69934223
:10586C00ADD3064B1A883B799BB213449AB2034BC7
:10587C001A80FB7B18462437BD4690BD580D00207E
:10588C0080B584B000AFF860381D80E80600FB706E
:10589C0012E0FB681878FB783A1D06CAFFF770FF18
:1058AC0003461A46FB681B789A4202D0FB681B78A9
:1058BC0008E0FB680133FB60FB681B78002BE8D128
:1058CC00FB681B7818461037BD4680BD80B483B08A
:1058DC0000AF03460A46FB711346BB71FB799AB2C3
:1058EC00054B1A80BB799AB2034B5A8000BF0C3718
:1058FC00BD4680BC704700BF580D002080B485B0F9
:10590C0000AF78600A4B1B68002B02D1084B094A88
:10591C001A60074B1B68FB60054B1A687B681344C5
:10592C00034A1360FB6818461437BD4680BC7047A9
:10593C00600D0020680D0020002103E00B4B5B582C
:10594C00435004310A480B4B42189A42F6D30A4A88
:10595C0002E0002342F8043B084B9A42F9D3FDF7CE
:10596C0065F9FBF72BF8FCF723FF7047EC67000891
:10597C00000000204C0800204C080020680D00207E
:10598C00FEE70000F8B500BFF8BC08BC9E467047A7
:0C599C00F8B500BFF8BC08BC9E46704780
:1059A8002F686F6D652F616E746F6E2F4465736B12
:1059B800746F702F50726F6A656374732F53544DF0
:1059C80033322F626C696E6B2F5372632F6D61696E
:1059D8006E2E630002030405060708090A0B0C0D66
:1059E8000E0F1010010200004572726F7200000065
:1059F800252E3266000000002020202020202020B4
:105A0800202020202020202030303030303030300E
:105A180030303030303030302020202020202020FE
:105A280020202020202020203030303030303030EE
:105A380030303030303030300000000000000000DE
:105A4800010203040607080900000000010203041C
:105A5800000000000000000000000000000000003E
:105A6800000000000000000000000000000000002E
:105A7800000000000000000C000C000C000C000CE2
:105A8800000C000C000C000C000C000C0000000CBA
:105A9800000C0000000000000000001B001B001BA1
:105AA800001B001B000000000000000000000000B8
:105AB8000000000000000000000000000000801945
:105AC800801980198019C07FC07F80190033C07F7A
