:020000040800F2
:1000000000500020FD1C000869030008750300086B
:100010007B0300088103000887030008000000003C
:100020000000000000000000000000008D03000838
:100030009903000800000000A5030008B1030008B0
:10004000451D0008451D0008451D0008451D000808
:10005000451D0008451D0008451D0008451D0008F8
:10006000451D0008451D0008451D0008451D0008E8
:10007000451D0008451D0008451D0008451D0008D8
:10008000451D0008451D0008451D0008451D0008C8
:10009000451D0008451D0008451D0008451D0008B8
:1000A000451D0008451D0008451D0008451D0008A8
:1000B000451D0008451D0008451D0008451D000898
:1000C000451D0008451D0008451D0008451D000888
:1000D000451D0008451D0008451D0008451D000878
:1000E000451D0008451D0008451D000800000000D2
:1000F0000000000000000000000000000000000000
:0C01000000000000000000005FF808F1A3
:10010C000348044B834202D0034B03B1184770479A
:10011C0004000020040000200000000005480649EF
:10012C00091A891001EBD171491002D0034B03B1AC
:10013C001847704704000020040000200000000055
:10014C0010B5064C237843B9FFF7DAFF044B13B113
:10015C000448AFF300800123237010BD040000207D
:10016C0000000000481D000808B5044B1BB10449F1
:10017C000448AFF30080BDE80840CFE70000000062
:10018C0008000020481D000880B500AF00F0B2F94F
:10019C0000F005F800F056F801F078FDFCE780B5AA
:1001AC0090B000AF0123BB614FF48033FB6100239F
:1001BC003B620123BB6202237B634FF48033BB633E
:1001CC004FF4E013FB6307F11803184601F038F8FD
:1001DC000346002B03D07D21184800F069F80F234B
:1001EC007B600223BB600023FB604FF480633B61A8
:1001FC0000237B613B1D0221184601F085FA034662
:10020C00002B03D08B210D4800F052F801F022FC9A
:10021C0002460B4BA3FB02239B09184600F0A9FCDA
:10022C00042000F009FD002200214FF0FF3000F007
:10023C0062FC00BF4037BD4680BD00BF601D00089A
:10024C00D34D621080B586B000AF174B9B69164A30
:10025C0043F010039361144B9B6903F010037B6014
:10026C007B68114B9B69104A43F0200393610E4B42
:10027C009B6903F020033B603B6800224FF4005164
:10028C000A4800F038FF4FF40053BB600123FB60B9
:10029C0002237B6107F108031946044800F0F4FCC3
:1002AC0000BF1837BD4680BD001002400010014051
:1002BC0080B483B000AF78603960FEE780B582B05F
:1002CC0000AF244B9B69234A43F001039361214BFC
:1002DC009B6903F001037B607B68032000F000FC4A
:1002EC00002200216FF00B0000F005FC0022002121
:1002FC006FF00A0000F0FFFB002200216FF00900F4
:10030C0000F0F9FB002200216FF0040000F0F3FB79
:10031C00002200216FF0030000F0EDFB0022002111
:10032C006FF0010000F0E7FB002200214FF0FF30DE
:10033C0000F0E1FB084B5B68074A23F0E063536075
:10034C00054B5B68044A43F08063536000BF083779
:10035C00BD4680BD001002400000014080B400AFDB
:10036C0000BFBD4680BC704780B400AFFEE780B4D0
:10037C0000AFFEE780B400AFFEE780B400AFFEE74D
:10038C0080B400AF00BFBD4680BC704780B400AFE6
:10039C0000BFBD4680BC704780B400AF00BFBD46F7
:1003AC0080BC704780B500AF00F0FAF800F060FC3C
:1003BC0000BF80BD80B400AF154B1B68144A43F0DE
:1003CC0001031360124B5A681149124B13404B60D6
:1003DC000F4B1B680E4A23F0847323F48033136095
:1003EC000B4B1B680A4A23F480231360084B5B6891
:1003FC00074A23F4FE035360054B4FF41F029A6027
:10040C00054B4FF000629A6000BFBD4680BC704740
:10041C00001002400000FFF800ED00E080B485B051
:10042C0000AF0023FB600023BB6000237B602C4BE0
:10043C005B6803F00C03FB60FB68042B07D0082BF4
:10044C0009D0002B33D1274B274A1A6033E0254BB8
:10045C00254A1A602FE0224B5B6803F47013BB60D3
:10046C001F4B5B6803F480337B60BB689B0C0233CF
:10047C00BB607B68002B06D1BB681C4A02FB03F3F4
:10048C00184A136017E0164B5B6803F40033002B1B
:10049C0006D0BB68154A02FB03F3124A13600AE04C
:1004AC00BB68114A02FB03F30E4A136003E00D4BC9
:1004BC000D4A1A6000BF0A4B5B681B0903F00F035F
:1004CC000B4AD35CFB60074B1A68FB6822FA03F3F8
:1004DC00044A136000BF1437BD4680BC704700BF90
:1004EC00001002400000002000127A0000093D00BC
:1004FC00941D000880B500AF084B1B68074A43F0F9
:10050C0010031360032000F0EBFA002000F02CF82D
:10051C00FFF7D4FE0023184680BD00BF0020024028
:10052C0080B500AF094B4FF0FF32DA60074B002269
:10053C001A61064B4FF0FF32DA60044B0022DA608E
:10054C0000F00CF80023184680BD00BF00100240DC
:10055C0080B400AF00BFBD4680BC704780B400AF14
:10056C0000BFBD4680BC704780B582B000AF7860DC
:10057C00094B1B68094AA2FB03239B09184600F090
:10058C00F8FA002279684FF0FF3000F0B4FA00233B
:10059C0018460837BD4680BD00000020D34D6210C0
:1005AC0080B400AF044B1B680133034A136000BFD7
:1005BC00BD4680BC704700BF2000002080B400AF57
:1005CC00024B1B681846BD4680BC704720000020BB
:1005DC0080B584B000AF7860FFF7F0FFB8607B683F
:1005EC00FB60FB68B3F1FF3F02D0FB680133FB609B
:1005FC0000BFFFF7E3FF0246BB68D31AFA689A42C2
:10060C00F7D800BF1037BD4680BD80B400AF054B96
:10061C001B68044A23F00203136000BFBD4680BC74
:10062C00704700BF10E000E080B400AF044B1B68C3
:10063C00034A43F00203136000BFBD4680BC704701
:10064C0010E000E080B400AF024B1846BD4680BC01
:10065C00704700BF0001010180B400AF034B1B6861
:10066C001B0C1846BD4680BC704700BF002004E040
:10067C0080B400AF034B1B68C3F30B031846BD4695
:10068C0080BC7047002004E080B400AF044B5B6872
:10069C00034A43F00103536000BFBD4680BC704762
:1006AC00002004E080B400AF044B5B68034A23F0E5
:1006BC000103536000BFBD4680BC7047002004E0BE
:1006CC0080B400AF044B5B68034A43F002035360F1
:1006DC0000BFBD4680BC7047002004E080B400AF72
:1006EC00044B5B68034A23F00203536000BFBD4612
:1006FC0080BC7047002004E080B400AF044B5B6802
:10070C00034A43F00403536000BFBD4680BC7047EE
:10071C00002004E080B400AF044B5B68034A23F074
:10072C000403536000BFBD4680BC7047002004E04A
:10073C0080B483B000AF7860094B1A687B681A608C
:10074C00084A7B68043312681A60074A7B680833CE
:10075C0012681A6000BF0C37BD4680BC704700BFE2
:10076C00E8F7FF1FECF7FF1FF0F7FF1F80B485B011
:10077C0000AF78607B6803F00703FB600C4BDB6811
:10078C00BB60BA684FF6FF031340BB60FB681A02EC
:10079C00BB68134343F0BF6343F40033BB60044AAC
:1007AC00BB68D36000BF1437BD4680BC704700BF28
:1007BC0000ED00E080B400AF044BDB681B0A03F0D3
:1007CC0007031846BD4680BC704700BF00ED00E033
:1007DC0080B483B000AF0346FB71FB7903F01F02BA
:1007EC00064997F907305B09012000FA02F241F83B
:1007FC00232000BF0C37BD4680BC704700E100E0F1
:10080C0080B483B000AF0346FB71FB7903F01F0289
:10081C00074997F907305B09012000FA02F22033EF
:10082C0041F8232000BF0C37BD4680BC704700BF89
:10083C0000E100E080B483B000AF0346FB71094ACD
:10084C0097F907305B09403352F82320FB7903F00A
:10085C001F0322FA03F303F0010318460C37BD46BD
:10086C0080BC704700E100E080B483B000AF034669
:10087C00FB71FB7903F01F02074997F907305B09FD
:10088C00012000FA02F2403341F8232000BF0C375C
:10089C00BD4680BC704700BF00E100E080B483B06F
:1008AC0000AF0346FB71FB7903F01F02074997F970
:1008BC0007305B09012000FA02F2603341F8232073
:1008CC0000BF0C37BD4680BC704700BF00E100E0A4
:1008DC0080B483B000AF0346FB71094A97F9073027
:1008EC005B09803352F82320FB7903F01F0322FAB3
:1008FC0003F303F0010318460C37BD4680BC704768
:10090C0000E100E080B483B000AF03463960FB71B6
:10091C0097F90730002B0BDA3B68DAB20C49FB79FC
:10092C0003F00F03043B1201D2B20B441A7609E018
:10093C003B68DAB2074997F907301201D2B20B447F
:10094C0083F8002300BF0C37BD4680BC704700BF46
:10095C0000ED00E000E100E080B483B000AF03469E
:10096C00FB7197F90730002B0ADA0C4AFB7903F07C
:10097C000F03043B13441B7EDBB21B09DBB208E004
:10098C00074A97F90730134493F80033DBB21B097D
:10099C00DBB218460C37BD4680BC704700ED00E05A
:1009AC0000E100E080B489B000AFF860B9607A6013
:1009BC00FB6803F00703FB61FB69C3F10703042B1E
:1009CC0028BF0423BB61FB690433062B02D9FB69E6
:1009DC00033B00E000237B614FF0FF32BB6902FA5E
:1009EC0003F3DA43BB681A407B699A404FF0FF313E
:1009FC007B6901FA03F3D9437B680B401343184618
:100A0C002437BD4680BC704780B489B000AFF86015
:100A1C00B9607A603B60BB6803F00703FB61FB695C
:100A2C00C3F10703042B28BF0423BB61FB69043308
:100A3C00062B02D9FB69033B00E000237B61FA68BB
:100A4C007B69DA404FF0FF31BB6901FA03F3DB43FA
:100A5C001A407B681A604FF0FF327B6902FA03F38D
:100A6C00DA43FB681A403B681A6000BF2437BD4666
:100A7C0080BC704780B400AFBFF34F8F054BDB6871
:100A8C0003F4E0620349044B1343CB60BFF34F8F75
:100A9C0000BFFDE700ED00E00400FA0580B582B070
:100AAC0000AF78607B68013BB3F1807F01D30123F9
:100ABC000FE00A4A7B68013B53600F214FF0FF3077
:100ACC00FFF720FF054B00229A60044B07221A60A7
:100ADC00002318460837BD4680BD00BF10E000E07B
:100AEC0080B582B000AF78607868FFF73FFE00BF3A
:100AFC000837BD4680BD80B586B000AF0346B960EF
:100B0C007A60FB7300237B61FFF754FE78617A688F
:100B1C00B9687869FFF746FF024697F90F3011461E
:100B2C001846FFF7EFFE00BF1837BD4680BD80B5F5
:100B3C0082B000AF0346FB7197F907301846FFF7F8
:100B4C0047FE00BF0837BD4680BD80B582B000AF00
:100B5C000346FB7197F907301846FFF751FE00BFAB
:100B6C000837BD4680BD80B500AFFFF783FF00BFDF
:100B7C0080BD80B582B000AF78607868FFF78EFFDB
:100B8C00034618460837BD4680BD80B500AFFFF759
:100B9C0011FE0346184680BD80B584B000AFB96025
:100BAC007A603B600346FB7397F90F301846FFF7EA
:100BBC00D3FE3B687A68B968FFF726FF00BF103791
:100BCC00BD4680BD80B582B000AF0346FB7197F97E
:100BDC0007301846FFF748FE00BF0837BD4680BDFA
:100BEC0080B582B000AF0346FB7197F90730184609
:100BFC00FFF720FE034618460837BD4680BD80B57A
:100C0C0082B000AF0346FB7197F907301846FFF727
:100C1C0045FE00BF0837BD4680BD80B582B000AF31
:100C2C000346FB7197F907301846FFF751FE034650
:100C3C0018460837BD4680BD80B483B000AF7860DD
:100C4C007B68042B06D1094B1B68084A43F004034C
:100C5C00136005E0054B1B68044A23F00403136082
:100C6C0000BF0C37BD4680BC704700BF10E000E0F1
:100C7C0080B500AF00F002F800BF80BD80B400AFBB
:100C8C0000BFBD4680BC704780B48BB000AF7860AD
:100C9C0039600023FB610023BB6100237B610023CF
:100CAC003B6200233B6100237B6227E101227B6ACC
:100CBC0002FA03F3FB613B681B68FA691340BB61E2
:100CCC00BA69FB699A4240F016813B685B68122B4B
:100CDC0034D0122B0DD8022B2BD0022B04D8002B86
:100CEC0031D0012B1CD048E0032B43D0112B1BD04F
:100CFC0043E0874A934226D0854A934206D8854AD8
:100D0C00934220D0844A93421DD036E0834A9342CA
:100D1C0019D0834A934216D0824A934213D02CE0C6
:100D2C003B68DB683B6228E03B68DB6804333B6272
:100D3C0023E03B68DB6808333B621EE03B68DB6802
:100D4C000C333B6219E03B689B68002B02D10423F7
:100D5C003B6212E03B689B68012B05D108233B6288
:100D6C007B68FA691A6108E008233B627B68FA69C0
:100D7C005A6102E000233B6200BFBB69FF2B01D824
:100D8C007B6801E07B680433FB60BB69FF2B02D8F6
:100D9C007B6A9B0002E07B6A083B9B003B61FB6823
:100DAC001A680F213B6901FA03F3DB431A40396AD5
:100DBC003B6901FA03F31A43FB681A603B685B68F2
:100DCC0003F08053002B00F09680574B9B69564ADA
:100DDC0043F001039361544B9B6903F00103BB6027
:100DEC00BB68524A7B6A9B08023352F823307B6102
:100DFC007B6A03F003039B000F2202FA03F3DB432D
:100E0C007A6913407B617B68494A934213D07B68B3
:100E1C00484A93420DD07B68474A934207D07B687F
:100E2C00464A934201D1032306E0042304E0022343
:100E3C0002E0012300E000237A6A02F00302920030
:100E4C0093407A6913437B6138497B6A9B08023370
:100E5C007A6941F823203B685B6803F48033002BEC
:100E6C0006D0374B1A683649BB6913430B6006E052
:100E7C00334B1A68BB69DB43314913400B603B6849
:100E8C005B6803F40033002B06D02D4B5A682C49B9
:100E9C00BB6913434B6006E0294B5A68BB69DB43C3
:100EAC00274913404B603B685B6803F48013002BAD
:100EBC0006D0234B9A682249BB6913438B6006E02A
:100ECC001F4B9A68BB69DB431D4913408B603B6821
:100EDC005B6803F40013002B06D0194BDA68184931
:100EEC00BB691343CB6006E0154BDA68BB69DB4387
:100EFC0013491340CB607B6A01337B627B6A0F2BF7
:100F0C007FF6D4AE00BF2C37BD4680BC704700BF07
:100F1C000000211000001110000012100000311010
:100F2C0000003210000022100010024000000140AE
:100F3C0000080140000C0140001001400014014069
:100F4C000004014080B489B000AF786039600023A0
:100F5C00FB610023BB6100237B6100233B619AE0B2
:100F6C000122FB6902FA03F33A681340BB61BB69C7
:100F7C00002B00F08D80BB69FF2B01D87B6801E052
:100F8C007B680433FB60BB69FF2B02D8FB699B00B9
:100F9C0002E0FB69083B9B003B61FB681A680F2170
:100FAC003B6901FA03F3DB431A4004213B6901FA64
:100FBC0003F31A43FB681A607B68DA68BB69DB438E
:100FCC001A407B68DA603A4AFB699B08023352F894
:100FDC0023307B61FB6903F003039B000F2202FAB1
:100FEC0003F37A6913407B617B68324A934213D0D6
:100FFC007B68314A93420DD07B68304A934207D0CC
:10100C007B682F4A934201D1032306E0042304E0BA
:10101C00022302E0012300E00023FA6902F003023C
:10102C00920093407A699A4232D1FB6903F0030330
:10103C009B000F2202FA03F37B611D4AFB699B089C
:10104C00023352F823107B69DA431948FB699B0879
:10105C000A40023340F823201A4B1A68BB69DB4361
:10106C00184913400B60174B5A68BB69DB43154991
:10107C0013404B60134B9A68BB69DB431149134017
:10108C008B60104BDA68BB69DB430E491340CB60B5
:10109C00FB690133FB613A68FB6922FA03F3002B0D
:1010AC007FF45EAF00BF2437BD4680BC704700BFE5
:1010BC000000014000080140000C014000100140FC
:1010CC00001401400004014080B485B000AF78608A
:1010DC000B467B807B689A687B881340002B02D080
:1010EC000123FB7301E00023FB73FB7B18461437D1
:1010FC00BD4680BC704780B483B000AF78600B46AF
:10110C007B8013467B707B78002B03D07A887B68BE
:10111C001A6103E07B881A047B681A6100BF0C37E4
:10112C00BD4680BC704780B483B000AF78600B467E
:10113C007B807B68DA687B885A407B68DA6000BF0A
:10114C000C37BD4680BC704780B485B000AF78606A
:10115C000B467B804FF48033FB607A88FB6813432B
:10116C00FB60FA687B689A617A887B689A61FA6896
:10117C007B689A617B689B69FB607B689B6903F465
:10118C008033002B01D0002300E0012318461437D4
:10119C00BD4680BC704780B582B000AF0346FB8073
:1011AC00084B5A69FB881340002B06D0054AFB8874
:1011BC005361FB88184600F007F800BF0837BD469E
:1011CC0080BD00BF0004014080B483B000AF034673
:1011DC00FB8000BF0C37BD4680BC704780B400AFAD
:1011EC00144B5B68134A23F003035360114B1B68C9
:1011FC00104A23F0847323F4803313600D4B1B6867
:10120C000C4A23F4802313600A4B00225A60094BCA
:10121C001B6823F0F803074A43F080031360054B67
:10122C0000229A60044B054A1A6000BFBD4680BC80
:10123C00704700BF001002400000002000127A002E
:10124C0080B586B000AF786000233B617B681B687B
:10125C0003F00103002B00F08780924B5B6803F0D6
:10126C000C03042B0CD08F4B5B6803F00C03082B86
:10127C0012D18C4B5B6803F48033B3F5803F0BD1F8
:10128C00884B1B6803F40033002B6CD07B685B68C5
:10129C00002B68D101232DE27B685B68B3F5803F9E
:1012AC0006D1804B1B687F4A43F4803313602EE0D9
:1012BC007B685B68002B0CD17A4B1B68794A23F452
:1012CC0080331360774B1B68764A23F480231360BA
:1012DC001DE07B685B68B3F5A02F0CD1714B1B68CC
:1012EC00704A43F4802313606E4B1B686D4A43F4C1
:1012FC00803313600BE06B4B1B686A4A23F480331A
:10130C001360684B1B68674A23F4802313607B6867
:10131C005B68002B13D0FFF751F9386108E0FFF739
:10132C004DF902463B69D31A642B01D90323E1E141
:10133C005C4B1B6803F40033002BF0D014E0FFF778
:10134C003DF9386108E0FFF739F902463B69D31AD9
:10135C00642B01D90323CDE1524B1B6803F40033FA
:10136C00002BF0D100E000BF7B681B6803F0020388
:10137C00002B63D04B4B5B6803F00C03002B0BD0A2
:10138C00484B5B6803F00C03082B1CD1454B5B6886
:10139C0003F48033002B16D1424B1B6803F002037D
:1013AC00002B05D07B681B69012B01D00123A1E127
:1013BC003C4B1B6823F0F8027B685B69DB00394906
:1013CC0013430B603AE07B681B69002B20D0364B33
:1013DC0001221A60FFF7F2F8386108E0FFF7EEF827
:1013EC0002463B69D31A022B01D9032382E12D4B10
:1013FC001B6803F00203002BF0D02A4B1B6823F070
:10140C00F8027B685B69DB00264913430B6015E02F
:10141C00254B00221A60FFF7D1F8386108E0FFF77E
:10142C00CDF802463B69D31A022B01D9032361E1A3
:10143C001C4B1B6803F00203002BF0D17B681B686C
:10144C0003F00803002B39D07B689B69002B19D063
:10145C00164B01221A60FFF7B1F8386108E0FFF76C
:10146C00ADF802463B69D31A022B01D9032341E1A3
:10147C000C4B5B6A03F00203002BF0D0012000F050
:10148C00E1FB1BE0094B00221A60FFF797F838616B
:10149C000EE0FFF793F802463B69D31A022B07D9EB
:1014AC00032327E100100240000042428004424224
:1014BC00924B5B6A03F00203002BEAD17B681B683A
:1014CC0003F00403002B00F0A6800023FB758B4B6C
:1014DC00DB6903F08053002B0DD1884BDB69874A05
:1014EC0043F08053D361854BDB6903F08053FB6081
:1014FC00FB680123FB75824B1B6803F48073002B84
:10150C0018D17F4B1B687E4A43F480731360FFF73E
:10151C0055F8386108E0FFF751F802463B69D31AD9
:10152C00642B01D90323E5E0754B1B6803F480732E
:10153C00002BF0D07B68DB68012B06D16F4B1B6A4C
:10154C006E4A43F0010313622DE07B68DB68002BCD
:10155C000CD16A4B1B6A694A23F001031362674B77
:10156C001B6A664A23F0040313621CE07B68DB6889
:10157C00052B0CD1614B1B6A604A43F004031362C8
:10158C005E4B1B6A5D4A43F0010313620BE05B4B3D
:10159C001B6A5A4A23F001031362584B1B6A574AC1
:1015AC0023F0040313627B68DB68002B15D0FFF774
:1015BC0005F838610AE0FFF701F802463B69D31AD7
:1015CC0041F28832934201D9032393E04B4B1B6ABF
:1015DC0003F00203002BEED014E0FEF7EFFF3861AE
:1015EC000AE0FEF7EBFF02463B69D31A41F2883260
:1015FC00934201D903237DE0404B1B6A03F00203A5
:10160C00002BEED1FB7D012B05D13C4BDB693B4A1A
:10161C0023F08053D3617B68DB69002B69D0374B97
:10162C005B6803F00C03082B61D07B68DB69022B31
:10163C0046D1344B00221A60FEF7C0FF386108E037
:10164C00FEF7BCFF02463B69D31A022B01D90323D8
:10165C0050E02A4B1B6803F00073002BF0D17B6821
:10166C001B6AB3F5803F08D1244B5B6823F400322E
:10167C007B689B68214913434B60204B5B6823F4C8
:10168C0074127B68196A7B685B6A0B431B491343B2
:10169C004B601C4B01221A60FEF790FF386108E08A
:1016AC00FEF78CFF02463B69D31A022B01D90323A8
:1016BC0020E0124B1B6803F00073002BF0D018E0F5
:1016CC00104B00221A60FEF779FF386108E0FEF734
:1016DC0075FF02463B69D31A022B01D9032309E09B
:1016EC00064B1B6803F00073002BF0D101E00123C3
:1016FC0000E0002318461837BD4680BD001002409C
:10170C00007000406000424280B584B000AF786049
:10171C0039600023FB60724B1B6803F007033A68C7
:10172C009A4210D96E4B1B6823F007026C493B6838
:10173C0013430B606A4B1B6803F007033A689A4229
:10174C0001D00123C8E07B681B6803F00203002B67
:10175C0008D0644B5B6823F0F0027B689B6861499E
:10176C0013434B607B681B6803F00103002B6AD0AA
:10177C007B685B68012B07D15A4B1B6803F4003361
:10178C00002B15D10123A7E07B685B68022B07D1E6
:10179C00544B1B6803F00073002B09D101239BE011
:1017AC00504B1B6803F00203002B01D1012393E083
:1017BC004C4B5B6823F003027B685B68494913431D
:1017CC004B60FEF7FBFEF8607B685B68012B12D167
:1017DC000AE0FEF7F3FE0246FB68D31A41F28832A8
:1017EC00934201D9032377E03E4B5B6803F00C0373
:1017FC00042BEED127E07B685B68022B1DD10AE03D
:10180C00FEF7DCFE0246FB68D31A41F288329342A3
:10181C0001D9032360E0334B5B6803F00C03082B06
:10182C00EED110E0FEF7CAFE0246FB68D31A41F275
:10183C008832934201D903234EE02A4B5B6803F0B4
:10184C000C03002BEED1264B1B6803F007033A6800
:10185C009A4210D2224B1B6823F0070220493B68A6
:10186C0013430B601E4B1B6803F007033A689A4244
:10187C0001D0012330E07B681B6803F00403002BCC
:10188C0008D0184B5B6823F4E0627B68DB68154971
:10189C0013434B607B681B6803F00803002B09D0D3
:1018AC00104B5B6823F460527B681B69DB000D49AD
:1018BC0013434B6000F06CF801460A4B5B681B0944
:1018CC0003F00F03084AD35C21FA03F3074A1360B1
:1018DC000020FEF749FE002318461037BD4680BD98
:1018EC000020024000100240941D0008000000205F
:1018FC0080B58AB000AFF860B9607A6007F1180360
:10190C0000221A605A609A60DA600223FB6103239A
:10191C007B6200233B624FF48073BB610E4B9B696F
:10192C000D4A43F0040393610B4B9B6903F00403D2
:10193C007B617B6907F1180319460848FFF7A4F986
:10194C00054B5B6823F0E0620349BB6813434B60B3
:10195C0000BF2837BD4680BD001002400008014082
:10196C0080B400AF034B01221A6000BFBD4680BC9F
:10197C00704700BF4C00424280B400AF034B0022C2
:10198C001A6000BFBD4680BC704700BF4C0042428D
:10199C0090B48AB000AF2A4B3C1D0FCB84E80F00EB
:1019AC00284B1B883B800023FB610023BB61002379
:1019BC007B6200237B6100233B62234B5B68FB61F2
:1019CC00FB6903F00C03042B02D0082B03D02DE091
:1019DC001E4B3B622DE0FB699B0C03F00F0307F1E0
:1019EC002802134413F8243C7B61FB6903F4803315
:1019FC00002B13D0144B5B685B0C03F0010307F155
:101A0C002802134413F8283CBB61104ABB69B2FB93
:101A1C00F3F27B6902FB03F37B6204E07B690C4A03
:101A2C0002FB03F37B627B6A3B6202E0074B3B6287
:101A3C0000BF3B6A18462837BD4690BC704700BFB4
:101A4C00AC1D0008BC1D00080010024000127A00FA
:101A5C0000093D0080B400AF024B1B681846BD4620
:101A6C0080BC70470000002080B500AFFFF7F2FF8C
:101A7C000146054B5B681B0A03F00703034AD35C62
:101A8C0021FA03F3184680BD00100240A41D000883
:101A9C0080B500AFFFF7DEFF0146054B5B68DB0A44
:101AAC0003F00703034AD35C21FA03F3184680BD05
:101ABC0000100240A41D000880B483B000AF786011
:101ACC007B680F221A603C4B1B6803F48023B3F530
:101ADC00802F04D17B684FF4A0225A600EE0364B65
:101AEC001B6803F48033B3F5803F04D17B684FF45B
:101AFC0080325A6002E07B6800225A602E4B5B6891
:101B0C0003F400327B689A602B4B1B6803F00103D3
:101B1C00012B03D17B6801221A6102E07B68002251
:101B2C001A61254B1B68DB0803F01F027B685A61A6
:101B3C00214B1B6A03F00403042B03D17B680522A1
:101B4C00DA600CE01C4B1B6A03F00103012B03D180
:101B5C007B680122DA6002E07B680022DA60164BB7
:101B6C005B6A03F00103012B03D17B6801229A61AC
:101B7C0002E07B6800229A610F4B1B6803F08073B4
:101B8C00B3F1807F03D17B680222DA6102E07B68CB
:101B9C000122DA61084B5B6803F480327B681A62BD
:101BAC00054B5B6803F470127B685A6200BF0C37FC
:101BBC00BD4680BC704700BF0010024080B483B0AB
:101BCC0000AF786039607B680F221A60114B5B683C
:101BDC0003F003027B685A600E4B5B6803F0F00263
:101BEC007B689A600B4B5B6803F4E0627B68DA609D
:101BFC00084B5B68DB0803F4E0627B681A61064BF8
:101C0C001B6803F007023B681A6000BF0C37BD4627
:101C1C0080BC7047001002400020024080B500AF2D
:101C2C00064B9B6803F08003802B04D100F028F84E
:101C3C00034B80221A7000BF80BD00BF0010024011
:101C4C000A10024080B485B000AF78600A4B1B6864
:101C5C000A4AA2FB03235B0A7A6802FB03F3FB60CC
:101C6C0000BFFB685A1EFA60002BF9D100BF143775
:101C7C00BD4680BC704700BF00000020D34D6210F1
:101C8C0080B400AF00BFBD4680BC704780B500AFCC
:101C9C004FF400510348FFF746FA6420FEF798FC16
:101CAC0000BF80BD0010014070B50D4E0D4D761B70
:101CBC00B61006D00024013455F8043B9847A642D0
:101CCC00F9D1094E094D00F039F8761BB61006D043
:101CDC000024013455F8043B9847A642F9D170BD55
:101CEC00C01D0008C01D0008C41D0008C01D000850
:101CFC00002103E00B4B5B58435004310A480B4B5B
:101D0C0042189A42F6D30A4A02E0002342F8043BF6
:101D1C00084B9A42F9D3FEF74DFBFFF7C5FFFEF7D0
:101D2C0033FA7047C81D0008000000200400002092
:101D3C000400002024000020FEE70000F8B500BFDE
:101D4C00F8BC08BC9E467047F8B500BFF8BC08BC90
:041D5C009E467047E8
:101D60002F686F6D652F616E746F6E2F4465736B96
:101D7000746F702F50726F6A656374732F53544D74
:101D800033322F626C696E6B2F5372632F6D6169F2
:101D90006E2E63000000000000000000010203043A
:101DA00006070809000000000102030402030405FD
:101DB000060708090A0B0C0D0E0F10100102000097
:041DC00075010008A1
:041DC4004D010008C5
:041DC80000A24A0427
:0400000508001CFDD6
:00000001FF
