:020000040800F2
:10000000005000209D11000895020008970200088A
:10001000990200089B0200089D02000800000000F1
:100020000000000000000000000000009F02000827
:10003000A102000800000000A3020008A5020008B9
:10004000E5110008E5110008E5110008E5110008B8
:10005000E5110008E5110008E5110008E5110008A8
:10006000E5110008E5110008E5110008E511000898
:10007000E5110008E5110008E5110008E511000888
:10008000E5110008E5110008E5110008E511000878
:10009000E5110008E5110008E5110008E511000868
:1000A000E5110008E5110008E5110008E511000858
:1000B000E5110008E5110008E5110008E511000848
:1000C000E5110008E5110008E5110008E511000838
:1000D000E5110008E5110008E5110008E511000828
:1000E000B3020008E5110008E51100080000000057
:1000F0000000000000000000000000000000000000
:0C01000000000000000000005FF808F1A3
:10010C000348044B834202D0034B03B1184770479A
:10011C0004000020040000200000000005480649EF
:10012C00091A891001EBD171491002D0034B03B1AC
:10013C001847704704000020040000200000000055
:10014C0010B5064C237843B9FFF7DAFF044B13B113
:10015C000448AFF300800123237010BD040000207D
:10016C0000000000E811000808B5044B1BB104495D
:10017C000448AFF30080BDE80840CFE70000000062
:10018C0008000020E811000810B590B001224FF4CF
:10019C008033CDE90623002108910A920224CDE98F
:1001AC000D434FF4E0130F9306A800F02FFC00B1A1
:1001BC00FEE70F23CDE9013403904FF48063CDE9C2
:1001CC000430214601A800F019FE044600B1FEE7F8
:1001DC0000F0B6FE4FF47A73B0FBF3F000F0E4F9E4
:1001EC00042000F063FA224621464FF0FF3000F065
:1001FC007FF910B010BDFEE707B5214B9A6942F0AC
:10020C0001029A619B6903F001030193019B032096
:10021C0000F05CF9002211466FF00B0000F068F959
:10022C00002211466FF00A0000F062F9002211461C
:10023C006FF0090000F05CF9002211466FF0040029
:10024C0000F056F9002211466FF0030000F050F94F
:10025C00002211466FF0010000F04AF9002211460D
:10026C004FF0FF3000F044F9064B5A6822F0E06280
:10027C005A605A6842F000725A6003B05DF804FB91
:10028C0000100240000001407047FEE7FEE7FEE769
:10029C00FEE770477047704708B500F097F8BDE867
:1002AC00084000F010BA08B500F0EEFE4FF4006004
:1002BC00BDE8084000F07DBB0F4B1A6842F001020C
:1002CC001A6059680D4A0A405A601A6822F0847202
:1002DC0022F480321A601A6822F480221A605A685A
:1002EC0022F4FE025A604FF41F029A60044B4FF046
:1002FC0000629A60704700BF001002400000FFF8D7
:10030C0000ED00E0104B5A6802F00C02082A0F496D
:10031C000AD00F4A0A605B68C3F303130D4AD25C20
:10032C000B68D3400B6070475A685868C2F383421D
:10033C000232C00302D408484243EBE758688003FA
:10034C00F9D40348F8E700BF001002400000002079
:10035C0000127A000012000800093D007047704737
:10036C0010B5064B4FF0FF32DA6000241C61DA60E6
:10037C00DC60FFF7F4FF204610BD00BF0010024008
:10038C0010B50446074B18684FF47A73B0FBF3F0C2
:10039C0000F00AF9002221464FF0FF3000F0A8F8D7
:1003AC00002010BD0000002008B5074A136843F078
:1003BC0010031360032000F089F80020FFF7E0FF22
:1003CC00FFF71AFF002008BD00200240024A136804
:1003DC0001331360704700BF24000020014B1868E4
:1003EC00704700BF2400002037B50190FFF7F6FFDF
:1003FC000546019C631C18BF0134FFF7EFFF401B3F
:10040C00A042FAD303B030BD024A136823F00203B2
:10041C001360704710E000E0024A136843F00203D7
:10042C001360704710E000E00048704700010101C4
:10043C00014B1868000C7047002004E0024B186850
:10044C00C0F30B00704700BF002004E0024A536861
:10045C0043F0010353607047002004E0024A5368E4
:10046C0023F0010353607047002004E0024A5368F4
:10047C0043F0020353607047002004E0024A5368C3
:10048C0023F0020353607047002004E0024A5368D3
:10049C0043F0040353607047002004E0024A5368A1
:1004AC0023F0040353607047002004E0044B1B68E6
:1004BC000360044B1B684360034B1B6883607047ED
:1004CC00E8F7FF1FECF7FF1FF0F7FF1F074AD36891
:1004DC0023F4E0631B041B0C43F0BF6343F40033B1
:1004EC00000200F4E0600343D360704700ED00E0CD
:1004FC0070B5154BDC68C4F30224C4F10705042D58
:10050C0028BF0425231D062B8CBF033C00244FF071
:10051C00FF3606FA05F321EA0303A34006FA04F4B6
:10052C0022EA040423431B01DBB20028BDBF00F008
:10053C000F00064A135400F16040A4BF00F561405F
:10054C0080F8003370BD00BF00ED00E014ED00E05A
:10055C00420900F01F00012303FA00F0014B43F89D
:10056C002200704700E100E0430900F01F00012267
:10057C0002FA00F02033024A42F82300704700BF11
:10058C0000E100E0BFF34F8F0549CA6802F4E06256
:10059C00044B1343CB60BFF34F8F00BFFDE700BF8D
:1005AC0000ED00E00400FA050138B0F1807F0AD2BA
:1005BC00064B5860064AF02182F823100020986000
:1005CC0007221A6070470120704700BF10E000E05E
:1005DC0000ED00E0024BD868C0F30220704700BF6A
:1005EC0000ED00E070B50028BDBF00F00F00124C0C
:1005FC00205C00F16040A4BF00F5614090F800035E
:10060C00000901F00701C1F10704042C28BF0424E0
:10061C000D1D062D8CBF033900214FF0FF3505FA57
:10062C0004F420FA01F626EA0404146005FA01F138
:10063C0020EA0100186070BD14ED00E0430900F0E1
:10064C001F00012202FA00F04033024A42F8230054
:10065C00704700BF00E100E043094033044A52F800
:10066C00233000F01F0023FA00F000F00100704767
:10067C0000E100E0430900F01F00012202FA00F043
:10068C006033024A42F82300704700BF00E100E0EB
:10069C0043098033044A52F8233000F01F0023FA38
:1006AC0000F000F00100704700E100E00428044B6A
:1006BC001A680CBF42F0040222F004021A60704760
:1006CC0010E000E0704708B5FFF7FCFF08BD00BF65
:1006DC002DE9F74F00221646644BDFF8A0C1DFF876
:1006EC00A0E14FF0010808FA06F80C6808EA0404C7
:1006FC00A0457DD14D68122D00F0AD8000F28680B2
:10070C00022D00F0A5807AD8002D00F08C80012DF0
:10071C0000F09C80FF2C9DBF8246D0F800B0B50045
:10072C0000F1040A81BFD0F804B006F18045083D01
:10073C00AD004FF00F0909FA05F82BEA080802FA88
:10074C0005F548EA0505CAF80050D1F804A01AF0DE
:10075C00805F4DD0464FBD6945F00105BD61BD6957
:10076C0005F001050195019D26F0030808F180486C
:10077C0008F58038D8F8085006F0030B4FEA8B0BBD
:10078C0009FA0BF925EA09093A4DA84268D005F592
:10079C008065A84266D005F58065A84264D005F551
:1007AC008065A8420CBF0325042505FA0BF545EA24
:1007BC000905C8F808501D681AF4803F14BF25437A
:1007CC00A5431D605D681AF4003F14BF2543A54383
:1007DC005D609D681AF4801F14BF2543A5439D607E
:1007EC00DD681AF4001F14BF2C4325EA0404DC60F6
:1007FC000136102E7FF475AF03B0BDE8F08F032DDA
:10080C0022D0112D86D1CA68043283E71A4FBD421B
:10081C0009D012D8DFF86C904D4504D009F5803919
:10082C004D457FF477AF8A68C2B1012A0CBFC0F87E
:10083C001080C0F8148008226CE76545F3D075452C
:10084C00F1D0DFF84490EBE7002263E7CA6861E778
:10085C00CA6808325EE7CA680C325BE7042259E7C3
:10086C000025A2E70125A0E702259EE70004014030
:10087C00001002400008014000002110000031105F
:10088C000000321000001110000022102DE9F04F72
:10089C0000224FF001094FF00F0E4FF0040A2F4CBD
:1008AC00DFF8C0B031FA02F301D1BDE8F08F09FADC
:1008BC0002F30B4049D0FF2B9DBF0746D0F800C078
:1008CC009500071D81BFD0F804C002F18045083D9A
:1008DC00AD000EFA05F62CEA06060AFA05F52E43CB
:1008EC003E60C568DB431D40C56022F0030505F181
:1008FC00804505F58035AE6802F00307BF000EFA9F
:10090C0007F808EA060C164EB04220D006F58066B1
:10091C00B0421ED006F58066B0421CD058450CBFC4
:10092C0003260426BE4066450FD1AE6826EA0806AB
:10093C00AE6025681D40256065681D406560A56832
:10094C001D40A560E5682B40E3600132AAE7002654
:10095C00E8E70126E6E70226E4E700BF00040140D1
:10096C0000080140001401408368194214BF0120A3
:10097C00002070470AB1016170470904FBE7C368A6
:10098C005940C160704782B04FF480330193019B92
:10099C000B430193019B83618161019B836183699B
:1009AC000193806980F48030C0F3004002B070473E
:1009BC00704708B5034B5969014202D05861FFF7E3
:1009CC00F7FF08BD000401400D4B5A6822F00302EA
:1009DC005A601A6822F0847222F480321A601A6803
:1009EC0022F480221A60002159601A6822F0F80261
:1009FC0042F080021A609960024B034A1A607047F9
:100A0C00001002400000002000127A002DE9F34192
:100A1C0005460368DB0710D42B689F075ED42B6850
:100A2C00190700F195802B685A0700F1BF80EA691D
:100A3C00002A40F02D81002014E0904C636803F0F4
:100A4C000C03042B07D0636803F00C03082B0CD1A8
:100A5C006368DE0309D523689C03DDD56B68002B26
:100A6C00DAD1012002B0BDE8F0816B68B3F5803FAC
:100A7C0010D1236843F480332360FFF7AFFC0646A4
:100A8C0023689803C8D4FFF7A9FC801B6428F7D906
:100A9C000320E7E79BB9236823F4803323602368A2
:100AAC0023F480232360FFF799FC064623689903FF
:100ABC00B2D5FFF793FC801B6428F7D9E8E7B3F5B0
:100ACC00A02F236803D143F480232360D1E723F4C0
:100ADC0080332360236823F48023CDE7674C63685D
:100AEC0013F00C0F07D0636803F00C03082B10D124
:100AFC006368DA030DD423689B0702D52B69012B9D
:100B0C00AFD123686A6923F0F80343EAC203236078
:100B1C0085E72A695A4B6AB101221A60FFF75EFC1D
:100B2C00064623689F07ECD4FFF758FC801B02286D
:100B3C00F7D9ADE71A60FFF751FC06462368980712
:100B4C007FF56DAFFFF74AFC801B0228F6D99FE7B3
:100B5C00AA694A4C4B4BDAB101221A60FFF73EFCF2
:100B6C000646636A9B070DD5474B1B684FF4FA5238
:100B7C00B3FBF2F3019300BF019B5A1E0192002BB1
:100B8C00F9D150E7FFF72AFC801B0228E9D97FE74F
:100B9C001A60FFF723FC0646636A9F077FF543AF95
:100BAC00FFF71CFC801B0228F6D971E7334CE36974
:100BBC00D80024D4E36943F08053E361E36903F084
:100BCC0080530093009B0127304E3368D90518D50C
:100BDC00EB68012B26D1236A43F001032362FFF754
:100BEC00FDFB804641F28836236A9B073FD5002FD8
:100BFC003FF41DAFE36923F08053E36117E700274F
:100C0C00E2E7336843F480733360FFF7E7FB804619
:100C1C003368DA05DCD4FFF7E1FBA0EB08006428AD
:100C2C00F6D935E7ABB9236A23F001032362236AB3
:100C3C0023F004032362FFF7D1FB064641F2883808
:100C4C00236A9807D3D5FFF7C9FB801B4045F7D91A
:100C5C001EE7052B236A03D143F004032362BAE792
:100C6C0023F001032362236A23F00403B6E7FFF7A2
:100C7C00B5FBA0EB0800B042B6D909E70010024062
:100C8C0000004242800442420000002000700040FC
:100C9C00224C636803F00C03082B3FF4E2AE022AEB
:100CAC004FF000031E4E33602BD1FFF797FB074626
:100CBC00236899011FD42B6AB3F5803F05D1626874
:100CCC0022F40032A9680A4362606268696A0B43C5
:100CDC0022F474121343636001233360FFF77EFB2D
:100CEC00054623689A013FF5A6AEFFF777FB401B3C
:100CFC000228F6D9CCE6FFF771FBC01B0228D7D926
:100D0C00C6E6FFF76BFB054623689B017FF593AEA8
:100D1C00FFF764FB401B0228F6D9B9E6001002402D
:100D2C006000424230B587B00D4602230022CDE967
:100D3C000332032305934FF4807302930A4CA36987
:100D4C0043F00403A361A36903F004030193019B23
:100D5C0002A90648FFF7BCFC616821F0E061294359
:100D6C00616007B030BD00BF0010024000080140B8
:100D7C00014B01221A6070474C004242014B002289
:100D8C001A6070474C00424230B587B0174B02AC2A
:100D9C0003F1100522461868596803C2083314463B
:100DAC00AB42F7D140F20123ADF8043010494B6847
:100DBC0003F00C02082A16D1C3F3834206A802449E
:100DCC0012F8100CDB0341BF4B68C3F3404306AA77
:100DDC009B1843BF13F8142C064BB3FBF2F3064BD2
:100DEC00584307B030BD0348FBE700BF181200089A
:100DFC000010024000127A0000093D002DE9F0417C
:100E0C0005460E464A4A136803F007038B4227D364
:100E1C002A68910731D4D20737D4454A136803F0B6
:100E2C000703B34271D82A6812F0040F414C77D1F2
:100E3C00130706D563682A6923F4605343EAC20397
:100E4C006360FFF7A1FF6368C3F303133A4AD35CF3
:100E5C00D8403A4B18600020FFF792FA00200AE0C5
:100E6C00136823F007030B431360136803F00703A5
:100E7C008B42CDD00120BDE8F0812E494B6823F088
:100E8C00F003A86803434B60C5E76A68012A294C44
:100E9C0023681BD113F4003FECD0636823F00303E9
:100EAC0013436360FFF79AFA07466B6841F2883880
:100EBC00012B13D1636803F00C03042BADD0FFF7A7
:100ECC008DFAC01B4045F5D90320D4E7022A02D184
:100EDC0013F0007FE0E713F0020FDDE7022B0FD1D8
:100EEC00636803F00C03082B97D0FFF777FAC01B4D
:100EFC004045F5D9E8E7FFF771FAC01B4045E3D848
:100F0C00636813F00C0FF6D187E7136823F007031F
:100F1C0033431360136803F00703B342AAD182E78B
:100F2C00636823F4E063E9680B43636080E700BF08
:100F3C0000200240001002400012000800000020B7
:100F4C00014B1868704700BF00000020044B5B6821
:100F5C00C3F30223034AD35C034A1068D84070479A
:100F6C00001002401012000800000020044B5B68C7
:100F7C00C3F3C223034AD35C034A1068D8407047BA
:100F8C000010024010120008000000200F23036024
:100F9C001D4B1A6852032AD54FF4A02242605A689E
:100FAC0002F4003282601A6812F0010218BF0122AA
:100FBC0002611A68C2F3C40242611A6A51071DD554
:100FCC000522C2605A6A12F0010218BF0122826126
:100FDC001A68D2014CBF02220122C2615A6802F483
:100FEC00803202625B6803F47013436270471A68C4
:100FFC0012F4803218BF4FF48032CFE71A6A12F025
:10100C00010218BF0122DCE7001002400F2303602D
:10101C000B4B5A6802F0030242605A6802F0F0026D
:10102C0082605A6802F4E062C2605B68DB0803F419
:10103C00E0630361034B1B6803F007030B6070470D
:10104C000010024000200240704708B5044B9B681A
:10105C001B0604D5FFF7F8FF024B80221A7008BD5F
:10106C00001002400A10024010B5054C236833B141
:10107C004FF400510348FFF782FC0023236010BD9E
:10108C002000002000100140014B01221A60704723
:10109C002000002070B50D4E0D4D761BB61006D0FD
:1010AC000024013455F8043B9847A642F9D1094E67
:1010BC00094D00F093F8761BB61006D000240134CD
:1010CC0055F8043B9847A642F9D170BD2812000888
:1010DC00281200082C1200082812000800B589B04C
:1010EC00FFF762F9FFF750F8254B9A6942F01002AE
:1010FC009A619A6902F010020092009A9A6942F081
:10110C0020029A619A6902F020020192019A9A696E
:10111C0042F008029A619A6902F008020292029A5D
:10112C009A6942F004029A619B6903F004030393E9
:10113C00039B00224FF400511248FFF71BFC4FF4A5
:10114C0000520123CDE904230224079404A90D487D
:10115C00FFF7BEFA4FF400610B4BCDE90413069474
:10116C0004A90A48FFF7B4FA002211462820FFF719
:10117C00BFF92820FFF7ECF9FFF776FFFCE700BF7B
:10118C00001002400010014000003110000C014022
:10119C00002103E00B4B5B58435004310A480B4BC6
:1011AC0042189A42F6D30A4A02E0002342F8043B62
:1011BC00084B9A42F9D3FFF77FF8FFF76BFFFFF765
:1011CC008DFF704730120008000000200400002042
:1011DC000400002028000020FEE70000F8B500BF46
:1011EC00F8BC08BC9E467047F8B500BFF8BC08BCFC
:0411FC009E46704754
:1012000000000000000000000102030406070809B6
:101210000000000001020304020304050607080998
:081220000A0B0C0D0E0F10105B
:041228007501000844
:04122C004D01000868
:0412300000A24A04CA
:040000050800119D41
:00000001FF
